:100000000C942A000C9421010C9454010C94870147
:100010000C9447000C9447000C9447000C94470044
:100020000C9447000C9447000C9447000C94470034
:100030000C9447000C9447000C9447000C94470024
:100040000C9447000C9447000C9447000C94470014
:100050000C94470011241FBECFE5D8E0DEBFCDBF12
:1000600010E0A0E6B0E0ECE9F8E002C005900D92E7
:10007000A836B107D9F710E0A8E6B0E001C01D929C
:10008000AF36B107E1F70E94FB030C944C040C94CB
:100090000000DF93CF9300D000D0CDB7DEB78983C7
:1000A0006A83ABE5B0E0EBE5F0E08081482F898121
:1000B000282F30E081E090E002C0880F991F2A9538
:1000C000E2F7842B8C938981282F30E03C832B83AB
:1000D0008B819C818630910559F02B813C812730A2
:1000E0003105B1F08B819C818530910541F149C08A
:1000F000A5E5B0E0E5E5F0E080818C7F8C93A5E597
:10010000B0E0E5E5F0E090818A81892B8C9339C0DD
:10011000A5E5B0E0E5E5F0E08081837F8C93A5E57F
:10012000B0E0E5E5F0E08081282F8A81882F90E01B
:10013000880F991F880F991F822B8C9322C08A8168
:10014000882F90E002979923E4F0A5E5B0E0E5E57B
:10015000F0E080818F7B8C93A4E5B0E0E4E5F0E0F3
:100160008081282F8A81882F90E00297002496951D
:1001700087950794969587950794982F802D822BC5
:100180008C930F900F900F900F90CF91DF91089567
:10019000DF93CF930F92CDB7DEB78983ABE5B0E0A5
:1001A000EBE5F0E08081482F8981282F30E081E065
:1001B00090E0022E02C0880F991F0A94E2F7809502
:1001C00084238C930F90CF91DF910895DF93CF9389
:1001D00000D000D00F92CDB7DEB79A8389836B83AE
:1001E0008B81282F30E03D832C838C819D8186304C
:1001F000910559F02C813D812730310569F08C81C2
:100200009D818530910579F014C089819A81909300
:100210006900809368000DC089819A8190936B007A
:1002200080936A0006C089819A8190936D008093C3
:100230006C000F900F900F900F900F90CF91DF9167
:1002400008951F920F920FB60F9211242F933F9390
:100250004F935F936F937F938F939F93AF93BF93CE
:10026000EF93FF93DF93CF93CDB7DEB78091680014
:1002700090916900009729F0E0916800F091690081
:100280000995CF91DF91FF91EF91BF91AF919F9130
:100290008F917F916F915F914F913F912F910F902F
:1002A0000FBE0F901F9018951F920F920FB60F92CE
:1002B00011242F933F934F935F936F937F938F936B
:1002C0009F93AF93BF93EF93FF93DF93CF93CDB7FC
:1002D000DEB780916A0090916B00009729F0E09161
:1002E0006A00F0916B000995CF91DF91FF91EF913A
:1002F000BF91AF919F918F917F916F915F914F913E
:100300003F912F910F900FBE0F901F9018951F9245
:100310000F920FB60F9211242F933F934F935F9339
:100320006F937F938F939F93AF93BF93EF93FF93BD
:10033000DF93CF93CDB7DEB780916C0090916D00C5
:10034000009729F0E0916C00F0916D000995CF9134
:10035000DF91FF91EF91BF91AF919F918F917F912D
:100360006F915F914F913F912F910F900FBE0F9022
:100370001F901895DF93CF93CDB7DEB7AFE5B0E010
:10038000EFE5F0E0808180688C93CF91DF91089554
:10039000DF93CF93CDB7DEB7AFE5B0E0EFE5F0E0A8
:1003A00080818F778C93CF91DF910895DF93CF93E6
:1003B00000D000D000D0CDB7DEB79A8389836B839D
:1003C0004C838B81282F30E03E832D838D819E814D
:1003D0008330910509F451C02D813E8124303105CF
:1003E0007CF48D819E818130910571F12D813E815A
:1003F00022303105ACF58D819E810097D1F081C00E
:100400002D813E812530310509F452C08D819E81B8
:10041000853091050CF43FC02D813E812630310599
:1004200009F454C08D819E818730910509F45DC027
:1004300068C08C818170E981FA81982F91708181E7
:100440008E7F892B81835DC08C818170E981FA81E7
:100450008170982F990F81818D7F892B818351C065
:100460008C818170E981FA818170982F990F990FA1
:1004700081818B7F892B818344C08C818170E9814C
:10048000FA818170982F990F990F990F8181877F39
:10049000892B818336C08C818170E981FA818170DA
:1004A000982F9295907F81818F7E892B818329C09F
:1004B0008C818170E981FA818170982F9295990FD2
:1004C000907E81818F7D892B81831BC08C8181707F
:1004D000E981FA818170982F9295990F990F907CFC
:1004E00081818F7B892B81830CC08C818170E98114
:1004F000FA81982F97959927979581818F77892BE6
:10050000818326960FB6F894DEBF0FBECDBFCF9184
:10051000DF910895DF93CF9300D000D000D0CDB706
:10052000DEB79A8389836B834C838B81282F30E0DD
:100530003E832D838D819E818330910509F451C0C6
:100540002D813E81243031057CF48D819E81813066
:10055000910571F12D813E8122303105ACF58D81FF
:100560009E810097D1F081C02D813E8125303105DB
:1005700009F452C08D819E81853091050CF43FC0F5
:100580002D813E812630310509F454C08D819E8134
:100590008730910509F45DC068C08C818170E98164
:1005A000FA81982F917082818E7F892B82835DC022
:1005B0008C818170E981FA818170982F990F8281F5
:1005C0008D7F892B828351C08C818170E981FA8172
:1005D0008170982F990F990F82818B7F892B82834D
:1005E00044C08C818170E981FA818170982F990FC4
:1005F000990F990F8281877F892B828336C08C81E6
:100600008170E981FA818170982F9295907F828123
:100610008F7E892B828329C08C818170E981FA8148
:100620008170982F9295990F907E82818F7D892B72
:1006300082831BC08C818170E981FA818170982F3F
:100640009295990F990F907C82818F7B892B828361
:100650000CC08C818170E981FA81982F9795992738
:10066000979582818F77892B828326960FB6F8948F
:10067000DEBF0FBECDBFCF91DF910895DF93CF9343
:1006800000D000D000D0CDB7DEB79B838A836C83C7
:100690008C81282F30E03E832D838D819E81833095
:1006A000910509F43EC02D813E81243031057CF452
:1006B0008D819E818130910529F12D813E812230ED
:1006C00031053CF58D819E810097B1F055C02D819B
:1006D0003E8125303105B1F18D819E8185309105B6
:1006E0004CF12D813E8126303105A9F18D819E810D
:1006F00087309105D1F140C0EA81FB818081817012
:1007000089833AC0EA81FB818081869581708983E3
:1007100033C0EA81FB8180818695869581708983CB
:100720002BC0EA81FB8180818695869586958170B4
:10073000898322C0EA81FB81808182958F708170DC
:1007400089831AC0EA81FB818081829586958770B2
:100750008170898311C0EA81FB81808182958695B1
:10076000869583708170898307C0EA81FB818081CF
:10077000881F8827881F8983898126960FB6F89459
:10078000DEBF0FBECDBFCF91DF910895DF93CF9332
:1007900000D00F92CDB7DEB79A8389836B83E9814E
:1007A000FA818B8181830F900F900F90CF91DF9111
:1007B0000895DF93CF9300D00F92CDB7DEB79A8321
:1007C00089836B83E981FA818B8182830F900F90FB
:1007D0000F90CF91DF910895DF93CF9300D0CDB7E5
:1007E000DEB79A838983E981FA8180810F900F9027
:1007F000CF91DF910895DF93CF93CDB7DEB70E94FD
:10080000BA0187E062E00E94490080916600909101
:10081000670063E040E00E94D60180916200909101
:10082000630067E041E00E94D601809162009091F0
:10083000630067E040E00E948A0283E294E067E0A0
:100840000E94E600FFCFDF93CF93CDB7DEB7809154
:100850006E00882381F4809162009091630067E0CC
:1008600041E00E948A0281E080936E0087E063E0AD
:100870000E9449000EC0809162009091630067E081
:1008800040E00E948A0210926E0087E062E00E94BF
:0C0890004900CF91DF910895F894FFCF4C
:08089C00390036003300300082
:00000001FF
