:100000000C942A000C9447000C9447000C94470071
:100010000C9447000C9447000C9447000C94470044
:100020000C9447000C9447000C94E2160C947A163A
:100030000C9447000C9447000C9447000C94470024
:100040000C9434080C9447000C9447000C9447001F
:100050000C94470011241FBECFE5D8E0DEBFCDBF12
:1000600011E0A0E6B0E0E8E4F6E402C005900D92ED
:10007000AC3BB107D9F711E0ACEBB1E001C01D9288
:10008000AD3DB107E1F70E9415170C9422230C94A3
:100090000000EF92FF920F931F937B018C0120E0F1
:1000A00030E040E05FE40E94F50388238CF0C80153
:1000B000B70120E030E040E05FE40E94C1010E940F
:1000C00055049B01AC01205030404040504806C0D0
:1000D000C801B7010E9455049B01AC01B901CA01D6
:1000E0001F910F91FF90EF900895A0E0B0E0EBE733
:1000F000F0E00C94BA22DC012B01FA019C919230C1
:1001000008F439C1EB018881823008F433C194309E
:1001100069F4843009F02FC111969C91119789815F
:10012000981709F428C1ADE9B0E025C1843009F47D
:1001300021C18230A9F4923009F01DC19A01AD01AC
:1001400088E0EA010990AE01E90109929E0181501F
:10015000C1F7E201898111969C918923818308C1AD
:10016000923009F407C112962D903C901397EB0141
:100170008A819B811496AD90BD90CD90DC901797AD
:10018000EC80FD800E811F819101281B390BB90184
:1001900037FF04C066277727621B730B6032710537
:1001A0000CF061C0121613066CF537014801062EDB
:1001B00004C096948794779467940A94D2F721E0C8
:1001C00030E040E050E004C0220F331F441F551FB1
:1001D0006A95D2F721503040404050402E213F21B7
:1001E00040235123211531054105510521F021E01E
:1001F00030E040E050E079018A01E628F72808293C
:1002000019293CC0232BD1F1260E371E350146019A
:10021000062E04C096948794779467940A94D2F734
:1002200021E030E040E050E004C0220F331F441FC3
:10023000551F6A95D2F721503040404050402A2146
:100240003B214C215D21211531054105510521F04E
:1002500021E030E040E050E059016A01A628B728CB
:10026000C828D9280BC0821593052CF01C01AA249C
:10027000BB24650103C0EE24FF24870111969C91E5
:10028000D20111968C91981709F445C0992339F041
:10029000A80197012A193B094C095D0906C0A6016E
:1002A00095012E193F09400B510B57FD08C01182D3
:1002B0003382228224833583468357831DC081E0A5
:1002C00081833382228288279927DC01821B930B4A
:1002D000A40BB50B84839583A683B7830DC0220F2F
:1002E000331F441F551F24833583468357838281E0
:1002F000938101979383828324813581468157813D
:10030000DA01C9010197A109B1098F5F9F4FAF4F72
:10031000BF4328F30BC0918333822282EA0CFB1C7B
:100320000C1D1D1DE482F5820683178383E0808304
:10033000248135814681578157FF1AC0C901AA27F8
:1003400097FDA095BA2F81709070A070B0705695EF
:10035000479537952795822B932BA42BB52B848318
:100360009583A683B7838281938101969383828349
:10037000DF0101C0D201CD01CDB7DEB7E2E10C94BF
:10038000D622A0E2B0E0E7ECF1E00C94C62269834B
:100390007A838B839C832D833E834F835887E9E048
:1003A000EE2EF12CEC0EFD1ECE010196B7010E943F
:1003B00046068E010F5E1F4FCE010596B8010E94C2
:1003C00046068A8991E089278A8BC701B801AE0168
:1003D000475E5F4F0E9475000E947105A096E6E09F
:1003E0000C94E222A0E2B0E0E8EFF1E00C94C62227
:1003F00069837A838B839C832D833E834F835887C5
:10040000F9E0EF2EF12CEC0EFD1ECE010196B701A6
:100410000E9446068E010F5E1F4FCE010596B80161
:100420000E944606C701B801AE01475E5F4F0E94B9
:1004300075000E947105A096E6E00C94E222A0E20D
:10044000B0E0E5E2F2E00C94BA2269837A838B8310
:100450009C832D833E834F835887CE010196BE0136
:10046000675F7F4F0E944606CE010596BE016F5E14
:100470007F4F0E9446069985923088F089898230A4
:10048000C8F0943019F4823051F404C0843029F457
:10049000923081F48DE990E0C6C0923049F420E0BA
:1004A0009A858A89981321E02A87CE010996BBC0D4
:1004B000823049F420E09A858A89981321E02A8BBA
:1004C000CE014196B0C02D843E844F8458886D88FB
:1004D0007E888F88988CEE24FF248701AA24BB2471
:1004E000650140E050E060E070E0E0E0F0E0C10174
:1004F00081709070892BE9F0E60CF71C081D191D1E
:100500009A01AB012A0D3B1D4C1D5D1D80E090E062
:10051000A0E0B0E0E614F7040805190520F481E036
:1005200090E0A0E0B0E0BA01A901480F591F6A1F8E
:100530007B1FAA0CBB1CCC1CDD1C97FE08C081E0F5
:1005400090E0A0E0B0E0A82AB92ACA2ADB2A3196B6
:10055000E032F10549F0660C771C881C991C569412
:10056000479437942794C3CFFA85EA892B893C892D
:100570008B859C85280F391F2E5F3F4F17C0CA01FE
:1005800081709070892B61F016950795F794E79428
:1005900080E090E0A0E0B0E8E82AF92A0A2B1B2BC3
:1005A00076956795579547952F5F3F4F77FDE7CF36
:1005B0000CC0440F551F661F771F17FD4160EE0CDE
:1005C000FF1C001F111F21503040403090E05907A0
:1005D00090E0690790E4790760F32B8F3C8FDB0193
:1005E000CA018F779070A070B07080349105A1051A
:1005F000B10561F447FD0AC0E114F10401051105DC
:1006000029F0405C5F4F6F4F7F4F40781A8EFE1786
:1006100011F081E08A8F4D8F5E8F6F8F78A383E01A
:10062000898FCE0149960E947105A096E2E10C9453
:10063000D622A8E1B0E0EFE1F3E00C94C222698396
:100640007A838B839C832D833E834F835887B9E0C5
:10065000EB2EF12CEC0EFD1ECE010196B7010E948F
:1006600046068E010F5E1F4FCE010596B8010E940F
:1006700046062985223008F47EC03989323010F4CC
:10068000B8017CC08A859A8989278A87243011F02D
:10069000223031F4231709F06EC06DE970E06EC0AE
:1006A000343039F41D861E861F86188A1C861B86E8
:1006B00004C0323021F484E08987B7015FC02B8504
:1006C0003C858B899C89281B390B3C872B87ED84C3
:1006D000FE840F851889AD88BE88CF88D88CEA142F
:1006E000FB040C051D0540F4EE0CFF1C001F111F40
:1006F000215030403C872B8720E030E040E050E044
:1007000080E090E0A0E0B0E460E070E0EA14FB0478
:100710000C051D0540F0282B392B4A2B5B2BEA18C2
:10072000FB080C091D09B695A79597958795EE0CC2
:10073000FF1C001F111F6F5F7F4F6F31710531F775
:10074000DA01C9018F779070A070B0708034910584
:10075000A105B10561F427FD0AC0E114F10401050A
:10076000110529F0205C3F4F4F4F5F4F20782D87B8
:100770003E874F87588BBE01675F7F4FCB010E943A
:1007800071056896EAE00C94DE22A8E1B0E0EBEC9B
:10079000F3E00C94C62269837A838B839C832D8338
:1007A0003E834F83588789E0E82EF12CEC0EFD1E26
:1007B000CE010196B7010E9446068E010F5E1F4FC3
:1007C000CE010596B8010E9446068985823040F028
:1007D0008989823028F0C701B8010E94BE0601C095
:1007E0008FEF6896E6E00C94E222A8E1B0E0EBEF30
:1007F000F3E00C94C62269837A838B839C832D83D8
:100800003E834F83588789E0E82EF12CEC0EFD1EC5
:10081000CE010196B7010E9446068E010F5E1F4F62
:10082000CE010596B8010E9446068985823040F0C7
:100830008989823028F0C701B8010E94BE0601C034
:100840008FEF6896E6E00C94E222A8E1B0E0EBE2DC
:10085000F4E00C94C62269837A838B839C832D8376
:100860003E834F83588789E0E82EF12CEC0EFD1E65
:10087000CE010196B7010E9446068E010F5E1F4F02
:10088000CE010596B8010E9446068985823040F067
:100890008989823028F0C701B8010E94BE0601C0D4
:1008A00081E06896E6E00C94E222ACE0B0E0EBE593
:1008B000F4E00C94CA2269837A838B839C83CE01F3
:1008C0000196BE016B5F7F4F0E9446068D8182308C
:1008D00061F1823050F1843021F48E81882351F10E
:1008E0002EC02F81388537FD20C06E812F31310514
:1008F0001CF06623F9F023C08EE190E0821B930B7D
:1009000029853A854B855C8504C056954795379572
:1009100027958A95D2F76623B1F05095409530958A
:1009200021953F4F4F4F5F4F0EC020E030E040E039
:1009300050E009C02FEF3FEF4FEF5FE704C020E02A
:1009400030E040E050E8B901CA012C96E2E00C9496
:10095000E622A8E0B0E0EFEAF4E00C94C2227B01CA
:100960008C01611571058105910519F482E0898377
:1009700060C083E089838EE1C82ED12CDC82CB82DB
:10098000ED82FE820F831887C801B7010E942205FD
:10099000FC013197F7FF3BC0222733272E1B3F0B6B
:1009A00057016801022E04C0D694C794B794A79447
:1009B0000A94D2F740E050E060E070E081E090E01F
:1009C000A0E0B0E004C0880F991FAA1FBB1F2A95A2
:1009D000D2F70197A109B1098E219F21A023B1234C
:1009E0000097A105B10521F041E050E060E070E022
:1009F0004A295B296C297D294D835E836F83788723
:100A00008EE190E08E1B9F0B9C838B8312C03097EE
:100A100081F00E2E04C0EE0CFF1C001F111F0A9463
:100A2000D2F7ED82FE820F831887CE1ADF0ADC82AE
:100A3000CB821A82CE0101960E9471052896EAE0C7
:100A40000C94DE22EF92FF920F931F937B018C0197
:100A500080E0E81680E0F80681E0080780E01807EB
:100A600088F48FEFE816F1040105110531F028F044
:100A700088E090E0A0E0B0E017C080E090E0A0E067
:100A8000B0E012C080E0E81680E0F80680E00807D9
:100A900081E0180728F088E190E0A0E0B0E004C011
:100AA00080E190E0A0E0B0E020E230E040E050E003
:100AB000281B390B4A0B5B0B04C016950795F7945E
:100AC000E7948A95D2F7F701EB55FF4F8081281BF9
:100AD000310941095109C9011F910F91FF90EF9010
:100AE0000895DF92EF92FF920F931F93FC01E48031
:100AF000F58006811781D1808081823048F480E0C2
:100B000090E0A0E1B0E0E82AF92A0A2B1B2BA5C04F
:100B1000843009F49FC0823021F4EE24FF24870141
:100B200005C0E114F1040105110519F4E0E0F0E05D
:100B300096C0628173819FEF623879070CF05BC0C9
:100B400022E83FEF261B370B2A3131052CF020E03D
:100B500030E040E050E02AC0B801A701022E04C0F6
:100B600076956795579547950A94D2F781E090E07E
:100B7000A0E0B0E004C0880F991FAA1FBB1F2A95F0
:100B8000D2F70197A109B1098E219F21A023B1239A
:100B90000097A105B10521F081E090E0A0E0B0E070
:100BA0009A01AB01282B392B4A2B5B2BDA01C901A7
:100BB0008F779070A070B07080349105A105B10559
:100BC00039F427FF09C0205C3F4F4F4F5F4F04C0EF
:100BD000215C3F4F4F4F5F4FE0E0F0E02030A0E05E
:100BE0003A07A0E04A07A0E45A0710F0E1E0F0E07D
:100BF00079018A0127C06038710564F5FB01E1586D
:100C0000FF4FD801C7018F779070A070B07080340B
:100C10009105A105B10539F4E7FE0DC080E490E02F
:100C2000A0E0B0E004C08FE390E0A0E0B0E0E80E08
:100C3000F91E0A1F1B1F17FF05C016950795F7948D
:100C4000E794319687E016950795F794E7948A958F
:100C5000D1F705C0EE24FF248701EFEFF0E06E2FFF
:100C6000679566276795902F9F77D794DD24D79453
:100C70008E2F8695492F462B582F5D29B701CA0123
:100C80001F910F91FF90EF90DF900895FC01DB0121
:100C9000408151812281622F6F7770E0221F2227CD
:100CA000221F9381892F880F822B282F30E0991FD4
:100CB0009927991F11969C93119721153105A9F534
:100CC000411551056105710511F482E037C082E8D4
:100CD0009FEF13969C938E9312979A01AB0167E056
:100CE000220F331F441F551F6A95D1F783E08C9361
:100CF0000DC0220F331F441F551F12968D919C91DA
:100D00001397019713969C938E931297203080E04F
:100D1000380780E0480780E4580758F314962D936D
:100D20003D934D935C93179708952F3F310579F4C8
:100D3000411551056105710519F484E08C930895FE
:100D400064FF03C081E08C9312C01C9210C02F5727
:100D5000304013963C932E93129783E08C9387E058
:100D6000440F551F661F771F8A95D1F7706414963C
:100D70004D935D936D937C93179708951F93DC01BA
:100D8000FB019C91923008F447C08081823008F4C6
:100D900043C0943051F411961C91843099F58181AF
:100DA000682F70E0611B71093FC0843021F09230E0
:100DB00031F48230B9F18181882389F12DC01196F7
:100DC0001C9111978230F1F081811817D9F4129695
:100DD0002D913C911397828193818217930794F010
:100DE00028173907BCF014968D919D910D90BC91F8
:100DF000A02D2481358146815781281739074A075C
:100E00005B0718F4112341F00AC082179307A40767
:100E1000B50740F4112319F061E070E005C06FEFF1
:100E20007FEF02C060E070E0CB011F910895DF9377
:100E3000CF9300D000D0CDB7DEB79A838983A7E2E5
:100E4000B0E0E7E2F0E08081282F2F73E981FA819A
:100E50008081882F90E00024969587950794969539
:100E600087950794982F802D822B8C93E6E2F0E0F3
:100E7000808180688083A6E2B0E0E6E2F0E08081D5
:100E8000982F987FE981FA818281892B8C93E9815F
:100E9000FA818381282F30E03C832B838B819C81D6
:100EA00081309105A9F02B813C81223031052CF451
:100EB0008B819C81009791F01CC02B813C8122305A
:100EC0003105B9F08B819C818330910569F011C0A7
:100ED000E6E2F0E08081886080830BC0E6E2F0E02B
:100EE0008081877F808305C0E6E2F0E080818062B8
:100EF00080830F900F900F900F90CF91DF91089506
:100F0000DF93CF9300D00F92CDB7DEB78983A7E2EE
:100F1000B0E0E7E2F0E08081982F89818F71892B22
:100F20008C93E6E2F0E0808180648083E6E2F0E08A
:100F300080818071882309F460C0E7E2F0E080815D
:100F40008072882329F5E5E2F0E08081882F90E027
:100F5000837090709093BF018093BE018091BE0119
:100F60009091BF01982F88279093BF018093BE0175
:100F7000E4E2F0E08081282F30E08091BE01909182
:100F8000BF01822B932B9093BF018093BE0124C09D
:100F9000E7E2F0E0808180728823F1F0E5E2F0E0A2
:100FA0008081882F90E09093BF018093BE01E4E29E
:100FB000F0E080818295869586958370282F30E0B9
:100FC0008091BE019091BF01982F8827822B932B8F
:100FD0009093BF018093BE01E6E2F0E080818F77BD
:100FE0008083E6E2F0E08081806180838091BE01B1
:100FF0009091BF019B838A8306C08091BE0190912E
:10100000BF019B838A838A819B810F900F900F90F1
:10101000CF91DF910895DF93CF9300D00F92CDB79A
:10102000DEB789837B836A83A7E2B0E0E7E2F0E082
:101030008081982F89818F71892B8C93E6E2F0E073
:101040008081886080838A819B819093BD01809399
:10105000BC01E6E2F0E08081806480830F900F9015
:101060000F90CF91DF9108951F920F920FB60F92BC
:1010700011242F933F934F935F936F937F938F939D
:101080009F93AF93BF93EF93FF93DF93CF93CDB72E
:10109000DEB7E7E2F0E080818072882349F4E4E281
:1010A000F0E0808191819093BF018093BE010EC0DA
:1010B000E7E2F0E080818072882341F0E4E2F0E032
:1010C000808191819093BF018093BE018091BC018A
:1010D0009091BD01009771F0E091BC01F091BD01CC
:1010E0008091BE019091BF010995E6E2F0E0808118
:1010F00080648083CF91DF91FF91EF91BF91AF9199
:101100009F918F917F916F915F914F913F912F911F
:101110000F900FBE0F901F901895DF93CF93CDB710
:10112000DEB785EA91E00E9477148091B801909132
:10113000B90160E041E00E941F098091B8019091DF
:10114000B90161E041E00E941F098091B8019091CE
:10115000B90160E040E00E94D3098091B80190910C
:10116000B90161E040E00E94D3098091B6019091FD
:10117000B70163E041E00E941F09CF91DF9108951C
:10118000DF93CF930F92CDB7DEB789838091B801FB
:101190009091B90160E040E00E94D3098091B801CC
:1011A0009091B90161E041E00E94D30985EA91E0A4
:1011B0000E946B1585EA91E069810E9451160F909B
:1011C000CF91DF910895DF93CF93CDB7DEB78091B4
:1011D000B8019091B90160E040E00E94D30980918C
:1011E000B8019091B90161E040E00E94D30985EA1D
:1011F00091E060E00E94511685EA91E00E9483151B
:10120000CF91DF910895DF93CF93CDB7DEB7AFE5F0
:10121000B0E0EFE5F0E0808180688C93CF91DF91C2
:101220000895DF93CF93CDB7DEB7AFE5B0E0EFE53C
:10123000F0E080818F778C93CF91DF910895DF93D9
:10124000CF9300D000D000D0CDB7DEB79A8389838A
:101250006B834C838B81282F30E03E832D838D81DF
:101260009E818330910509F451C02D813E81243047
:1012700031057CF48D819E818130910571F12D8144
:101280003E8122303105ACF58D819E810097D1F0F1
:1012900081C02D813E812530310509F452C08D81F8
:1012A0009E81853091050CF43FC02D813E81263012
:1012B000310509F454C08D819E818730910509F470
:1012C0005DC068C08C818170E981FA81982F91702E
:1012D00081818E7F892B81835DC08C818170E981C2
:1012E000FA818170982F990F81818D7F892B81835D
:1012F00051C08C818170E981FA818170982F990F9A
:10130000990F81818B7F892B818344C08C8181706F
:10131000E981FA818170982F990F990F990F818136
:10132000877F892B818336C08C818170E981FA8126
:101330008170982F9295907F81818F7E892B8183F8
:1013400029C08C818170E981FA818170982F9295F2
:10135000990F907E81818F7D892B81831BC08C8129
:101360008170E981FA818170982F9295990F990F78
:10137000907C81818F7B892B81830CC08C818170D3
:10138000E981FA81982F97959927979581818F7791
:10139000892B818326960FB6F894DEBF0FBECDBF92
:1013A000CF91DF910895DF93CF9300D000D000D08C
:1013B000CDB7DEB79A8389836B834C838B81282FCB
:1013C00030E03E832D838D819E818330910509F429
:1013D00051C02D813E81243031057CF48D819E8168
:1013E0008130910571F12D813E8122303105ACF5BE
:1013F0008D819E810097D1F081C02D813E81253065
:10140000310509F452C08D819E81853091050CF41F
:101410003FC02D813E812630310509F454C08D81B5
:101420009E818730910509F45DC068C08C81817010
:10143000E981FA81982F917082818E7F892B828336
:101440005DC08C818170E981FA818170982F990F3C
:1014500082818D7F892B828351C08C818170E9814B
:10146000FA818170982F990F990F82818B7F892B38
:10147000828344C08C818170E981FA818170982FC8
:10148000990F990F990F8281877F892B828336C0AC
:101490008C818170E981FA818170982F9295907F7B
:1014A00082818F7E892B828329C08C818170E98122
:1014B000FA818170982F9295990F907E82818F7D0D
:1014C000892B82831BC08C818170E981FA818170B4
:1014D000982F9295990F990F907C82818F7B892B01
:1014E00082830CC08C818170E981FA81982F979555
:1014F0009927979582818F77892B828326960FB6BD
:10150000F894DEBF0FBECDBFCF91DF910895DF937A
:10151000CF9300D000D000D0CDB7DEB79B838A83B5
:101520006C838C81282F30E03E832D838D819E81BA
:101530008330910509F43EC02D813E812430310570
:101540007CF48D819E818130910529F12D813E8130
:10155000223031053CF58D819E810097B1F055C058
:101560002D813E8125303105B1F18D819E818530FF
:1015700091054CF12D813E8126303105A9F18D81F7
:101580009E8187309105D1F140C0EA81FB81808145
:10159000817089833AC0EA81FB8180818695817060
:1015A000898333C0EA81FB8180818695869581702D
:1015B00089832BC0EA81FB818081869586958695FB
:1015C0008170898322C0EA81FB81808182958F703E
:1015D000817089831AC0EA81FB818081829586951A
:1015E00087708170898311C0EA81FB818081829537
:1015F0008695869583708170898307C0EA81FB8117
:101600008081881F8827881F8983898126960FB645
:10161000F894DEBF0FBECDBFCF91DF910895DF9369
:10162000CF9300D00F92CDB7DEB79A8389836B83B7
:10163000E981FA818B8181830F900F900F90CF9178
:10164000DF910895DF93CF9300D00F92CDB7DEB72F
:101650009A8389836B83E981FA818B8182830F90DE
:101660000F900F90CF91DF910895DF93CF9300D02B
:10167000CDB7DEB79A838983E981FA8180810F90A3
:101680000F90CF91DF910895DF93CF93CDB7DEB761
:101690002E970FB6F894DEBF0FBECDBF8091B40178
:1016A0009091B50163E041E00E941F098091B4016F
:1016B0009091B50162E041E00E941F0980E090E056
:1016C000A8E4B2E48B879C87AD87BE876B857C8559
:1016D0008D859E8520E030E04AEF54E40E941F0291
:1016E000DC01CB018F839887A987BA876F817885C2
:1016F00089859A8520E030E040E85FE30E94250478
:1017000088232CF481E090E09E838D833FC06F811D
:10171000788589859A8520E03FEF4FE757E40E945E
:10172000C50318164CF56B857C858D859E8520E05C
:1017300030E040E251E40E941F02DC01CB01BC0119
:10174000CD010E944900DC01CB019E838D830FC037
:1017500088EC90E09C838B838B819C810197F1F7CF
:101760009C838B838D819E8101979E838D838D8148
:101770009E81009769F714C06F81788589859A8565
:101780000E944900DC01CB019E838D838D819E8167
:101790009A83898389819A810197F1F79A83898352
:1017A0008091B6019091B70160E041E00E941F096D
:1017B0008091B6019091B70161E041E00E941F095C
:1017C0008091B6019091B70162E041E00E941F094B
:1017D0008091B6019091B70164E041E00E941F0939
:1017E0008091B4019091B50162E040E00E94D3097C
:1017F00082E30E941B0D82E30E941B0D88E20E947F
:101800001B0D8EE00E941B0D81E00E941B0D2E9689
:101810000FB6F894DEBF0FBECDBFCF91DF91089514
:10182000DF93CF93CDB7DEB76D970FB6F894DEBFD9
:101830000FBECDBF8D8F8091B4019091B50163E053
:1018400041E00E94D30980E090E0A0E8BFE3898FE7
:101850009A8FAB8FBC8F698D7A8D8B8D9C8D20E09C
:1018600030E04AEF54E40E941F02DC01CB018D8B73
:101870009E8BAF8BB88F6D897E898F89988D20E084
:1018800030E040E85FE30E94250488232CF481E0E7
:1018900090E09C8B8B8B3FC06D897E898F89988D62
:1018A00020E03FEF4FE757E40E94C50318164CF5C0
:1018B000698D7A8D8B8D9C8D20E030E040E251E483
:1018C0000E941F02DC01CB01BC01CD010E94490036
:1018D000DC01CB019C8B8B8B0FC088EC90E09A8B4A
:1018E000898B89899A890197F1F79A8B898B8B89E2
:1018F0009C8901979C8B8B8B8B899C89009769F7BE
:1019000014C06D897E898F89988D0E944900DC0101
:10191000CB019C8B8B8B8B899C89988B8F878F8538
:1019200098890197F1F7988B8F878091B4019091F6
:10193000B50162E040E00E94D30980E090E0A0E8B9
:10194000BFE38B879C87AD87BE876B857C858D8544
:101950009E8520E030E04AEF54E40E941F02DC0143
:10196000CB018F839887A987BA876F81788589850E
:101970009A8520E030E040E85FE30E942504882358
:101980002CF481E090E09E838D833FC06F81788549
:1019900089859A8520E03FEF4FE757E40E94C50311
:1019A00018164CF56B857C858D859E8520E030E092
:1019B00040E251E40E941F02DC01CB01BC01CD01D9
:1019C0000E944900DC01CB019E838D830FC088EC0F
:1019D00090E09C838B838B819C810197F1F79C83A2
:1019E0008B838D819E8101979E838D838D819E81C6
:1019F000009769F714C06F81788589859A850E9460
:101A00004900DC01CB019E838D838D819E819A8369
:101A1000898389819A810197F1F79A8389838D8DD2
:101A20000E949B0F6D960FB6F894DEBF0FBECDBF20
:101A3000CF91DF910895DF93CF93CDB7DEB76D9748
:101A40000FB6F894DEBF0FBECDBF8D8F8091B4016D
:101A50009091B50163E040E00E94D30980E090E0FE
:101A6000A0E8BFE3898F9A8FAB8FBC8F698D7A8D89
:101A70008B8D9C8D20E030E04AEF54E40E941F02E1
:101A8000DC01CB018D8B9E8BAF8BB88F6D897E89EE
:101A90008F89988D20E030E040E85FE30E942504C4
:101AA00088232CF481E090E09C8B8B8B3FC06D8968
:101AB0007E898F89988D20E03FEF4FE757E40E94A1
:101AC000C50318164CF5698D7A8D8B8D9C8D20E0A1
:101AD00030E040E251E40E941F02DC01CB01BC0176
:101AE000CD010E944900DC01CB019C8B8B8B0FC088
:101AF00088EC90E09A8B898B89899A890197F1F714
:101B00009A8B898B8B899C8901979C8B8B8B8B897A
:101B10009C89009769F714C06D897E898F89988D9B
:101B20000E944900DC01CB019C8B8B8B8B899C89AB
:101B3000988B8F878F8598890197F1F7988B8F877E
:101B40008091B4019091B50162E040E00E94D30918
:101B500080E090E0A0E8BFE38B879C87AD87BE87DD
:101B60006B857C858D859E8520E030E04AEF54E4CE
:101B70000E941F02DC01CB018F839887A987BA8757
:101B80006F81788589859A8520E030E040E85FE3C1
:101B90000E94250488232CF481E090E09E838D83AD
:101BA0003FC06F81788589859A8520E03FEF4FE7B8
:101BB00057E40E94C50318164CF56B857C858D850E
:101BC0009E8520E030E040E251E40E941F02DC01EB
:101BD000CB01BC01CD010E944900DC01CB019E83F9
:101BE0008D830FC088EC90E09C838B838B819C81DC
:101BF0000197F1F79C838B838D819E8101979E8352
:101C00008D838D819E81009769F714C06F817885DF
:101C100089859A850E944900DC01CB019E838D83D2
:101C20008D819E819A83898389819A810197F1F7B9
:101C30009A8389838D8D0E949B0F6D960FB6F894C1
:101C4000DEBF0FBECDBFCF91DF910895DF93CF935D
:101C500000D00F92CDB7DEB79B838A830EC08981F7
:101C6000282F30E08A819B81FC01E20FF31F8081E5
:101C70000E94100C89818F5F89838981282F30E031
:101C80008A819B81FC01E20FF31F8081882339F751
:101C90000F900F900F90CF91DF910895DF93CF9326
:101CA000CDB7DEB76C970FB6F894DEBF0FBECDBFD1
:101CB0008091B4019091B50163E040E00E94D309A6
:101CC00080E090E0A0E8BFE3898F9A8FAB8FBC8F54
:101CD000698D7A8D8B8D9C8D20E030E04AEF54E445
:101CE0000E941F02DC01CB018D8B9E8BAF8BB88FC6
:101CF0006D897E898F89988D20E030E040E85FE330
:101D00000E94250488232CF481E090E09C8B8B8B2F
:101D10003FC06D897E898F89988D20E03FEF4FE726
:101D200057E40E94C50318164CF5698D7A8D8B8D8A
:101D30009C8D20E030E040E251E40E941F02DC0173
:101D4000CB01BC01CD010E944900DC01CB019C8B81
:101D50008B8B0FC088EC90E09A8B898B89899A894C
:101D60000197F1F79A8B898B8B899C8901979C8BC2
:101D70008B8B8B899C89009769F714C06D897E894C
:101D80008F89988D0E944900DC01CB019C8B8B8B45
:101D90008B899C89988B8F878F8598890197F1F71C
:101DA000988B8F878091B4019091B50162E040E0FB
:101DB0000E94D30980E090E0A0E8BFE38B879C8776
:101DC000AD87BE876B857C858D859E8520E030E064
:101DD0004AEF54E40E941F02DC01CB018F839887F5
:101DE000A987BA876F81788589859A8520E030E058
:101DF00040E85FE30E94250488232CF481E090E012
:101E00009E838D833FC06F81788589859A8520E088
:101E10003FEF4FE757E40E94C50318164CF56B855A
:101E20007C858D859E8520E030E040E251E40E9473
:101E30001F02DC01CB01BC01CD010E944900DC0185
:101E4000CB019E838D830FC088EC90E09C838B83B5
:101E50008B819C810197F1F79C838B838D819E817F
:101E600001979E838D838D819E81009769F714C0B1
:101E70006F81788589859A850E944900DC01CB01B4
:101E80009E838D838D819E819A83898389819A81A6
:101E90000197F1F79A83898381E00E949B0F6C96EA
:101EA0000FB6F894DEBF0FBECDBFCF91DF9108957E
:101EB000DF93CF9300D000D00F92CDB7DEB78A83E7
:101EC0006B8319828A81282F30E03D832C838C819B
:101ED0009D8181309105C1F02C813D8122303105F9
:101EE0002CF48C819D81009761F019C02C813D817B
:101EF0002230310569F08C819D818330910561F03C
:101F00000EC08B8189830BC08B81805C898307C065
:101F10008B81805F898303C08B81805B898389810A
:101F200080680E941B0D0F900F900F900F900F90E4
:101F3000CF91DF910895DF93CF93CDB7DEB7E997C7
:101F40000FB6F894DEBF0FBECDBF89AF2091B601AA
:101F50003091B70189AD482F441F4427441FC90160
:101F600064E00E94D3092091B6013091B70189AD98
:101F70008295869586958370482F4170C90162E0ED
:101F80000E94D3092091B6013091B70189AD8295A5
:101F900086958770482F4170C90161E00E94D3097E
:101FA0002091B6013091B70189AD82958F70482F8D
:101FB0004170C90160E00E94D3098091B401909101
:101FC000B50162E041E00E94D30980E090E0A0E822
:101FD000BFE38DAB9EABAFABB8AF6DA97EA98FA9A8
:101FE00098AD20E030E04AEF54E40E941F02DC018B
:101FF000CB0189AB9AABABABBCAB69A97AA98BA976
:102000009CA920E030E040E85FE30E94250488239B
:102010002CF481E090E098AB8FA73FC069A97AA922
:102020008BA99CA920E03FEF4FE757E40E94C5032E
:1020300018164CF56DA97EA98FA998AD20E030E067
:1020400040E251E40E941F02DC01CB01BC01CD0142
:102050000E944900DC01CB0198AB8FA70FC088EC30
:1020600090E09EA78DA78DA59EA50197F1F79EA74D
:102070008DA78FA598A9019798AB8FA78FA598A931
:10208000009769F714C069A97AA98BA99CA90E9435
:102090004900DC01CB0198AB8FA78FA598A99CA71D
:1020A0008BA78BA59CA50197F1F79CA78BA7809187
:1020B000B4019091B50162E040E00E94D30980E054
:1020C00090E0A0EAB0E48FA398A7A9A7BAA76FA150
:1020D00078A589A59AA520E030E04AEF54E40E9453
:1020E0001F02DC01CB018BA39CA3ADA3BEA36BA1FC
:1020F0007CA18DA19EA120E030E040E85FE30E943A
:10210000250488232CF481E090E09AA389A33FC0A2
:102110006BA17CA18DA19EA120E03FEF4FE757E48A
:102120000E94C50318164CF56FA178A589A59AA53C
:1021300020E030E040E251E40E941F02DC01CB01CC
:10214000BC01CD010E944900DC01CB019AA389A307
:102150000FC088EC90E098A38F8F8F8D98A1019786
:10216000F1F798A38F8F89A19AA101979AA389A3C8
:1021700089A19AA1009769F714C06BA17CA18DA1D8
:102180009EA10E944900DC01CB019AA389A389A1E9
:102190009AA19E8F8D8F8D8D9E8D0197F1F79E8FC9
:1021A0008D8F2091B6013091B70189AD86958695C6
:1021B0008695482F4170C90164E00E94D30920919F
:1021C000B6013091B70189AD86958695482F41704B
:1021D000C90162E00E94D3092091B6013091B70194
:1021E00089AD8695482F4170C90161E00E94D309ED
:1021F0002091B6013091B70189AD482F4170C901D6
:1022000060E00E94D3098091B4019091B50162E031
:1022100041E00E94D30980E090E0A0E8BFE3898F0D
:102220009A8FAB8FBC8F698D7A8D8B8D9C8D20E0C2
:1022300030E04AEF54E40E941F02DC01CB018D8B99
:102240009E8BAF8BB88F6D897E898F89988D20E0AA
:1022500030E040E85FE30E94250488232CF481E00D
:1022600090E09C8B8B8B3FC06D897E898F89988D88
:1022700020E03FEF4FE757E40E94C50318164CF5E6
:10228000698D7A8D8B8D9C8D20E030E040E251E4A9
:102290000E941F02DC01CB01BC01CD010E9449005C
:1022A000DC01CB019C8B8B8B0FC088EC90E09A8B70
:1022B000898B89899A890197F1F79A8B898B8B8908
:1022C0009C8901979C8B8B8B8B899C89009769F7E4
:1022D00014C06D897E898F89988D0E944900DC0128
:1022E000CB019C8B8B8B8B899C89988B8F878F855F
:1022F00098890197F1F7988B8F878091B40190911D
:10230000B50162E040E00E94D30980E090E0A0EADD
:10231000B0E48B879C87AD87BE876B857C858D8578
:102320009E8520E030E04AEF54E40E941F02DC0169
:10233000CB018F839887A987BA876F817885898534
:102340009A8520E030E040E85FE30E94250488237E
:102350002CF481E090E09E838D833FC06F8178856F
:1023600089859A8520E03FEF4FE757E40E94C50337
:1023700018164CF56B857C858D859E8520E030E0B8
:1023800040E251E40E941F02DC01CB01BC01CD01FF
:102390000E944900DC01CB019E838D830FC088EC35
:1023A00090E09C838B838B819C810197F1F79C83C8
:1023B0008B838D819E8101979E838D838D819E81EC
:1023C000009769F714C06F81788589859A850E9486
:1023D0004900DC01CB019E838D838D819E819A8390
:1023E000898389819A810197F1F79A838983E99694
:1023F0000FB6F894DEBF0FBECDBFCF91DF91089529
:10240000DF93CF9300D000D0CDB7DEB79B838A8314
:102410006C838C818830F8F48C81882F90E008964A
:10242000880F991F880F991F880F991F0E941B0DF5
:1024300019820EC08981282F30E08A819B81FC019E
:10244000E20FF31F80810E94100C89818F5F8983C6
:102450008981883078F30F900F900F900F90CF9173
:10246000DF910895DF93CF930F92CDB7DEB78983C5
:10247000898180580E941B0D89810E94100C0F9049
:10248000CF91DF910895DF93CF9300D000D000D09B
:10249000CDB7DEB78A83198280E690E00E94260ECF
:1024A0008A8182958F7089838981282F30E03E83CD
:1024B0002D838D819E818B30910569F12D813E8127
:1024C0002C30310554F48D819E819923BCF12D81EE
:1024D0003E812A303105B4F01AC08D819E818D3045
:1024E000910509F12D813E812D303105C4F08D819A
:1024F0009E818E309105D9F02D813E812F3031059E
:10250000D1F01CC08981805D0E94100C17C081E44D
:102510000E94100C13C082E40E94100C0FC083E4D0
:102520000E94100C0BC084E40E94100C07C085E4CC
:102530000E94100C03C086E40E94100C8A818F70E8
:1025400089838981282F30E03C832B838B819C8178
:102550008B30910569F12B813C812C30310554F48D
:102560008B819C819923BCF12B813C812A303105E0
:10257000B4F01AC08B819C818D30910509F12B81BB
:102580003C812D303105C4F08B819C818E309105CA
:10259000D9F02B813C812F303105D1F01CC08981CD
:1025A000805D0E94100C17C081E40E94100C13C0C3
:1025B00082E40E94100C0FC083E40E94100C0BC038
:1025C00084E40E94100C07C085E40E94100C03C034
:1025D00086E40E94100C26960FB6F894DEBF0FBE5C
:1025E000CDBFCF91DF910895DF93CF9300D0CDB7CA
:1025F000DEB78A8383E690E00E94260E198218C017
:102600008A81482F50E08981282F30E087E090E0D0
:10261000821B930B9A0102C0359527958A95E2F7A4
:10262000C9018170805D0E94100C89818F5F898350
:102630008981883028F30F900F90CF91DF91089512
:10264000DF93CF93CDB7DEB72A970FB6F894DEBFEE
:102650000FBECDBF6F83788789879A871E821D82C0
:102660008F819885A985BA8589839A83AB83BC833A
:102670006F81788589859A850E945504DC01CB019C
:10268000AA2797FDA095BA2FBC01CD010E949813EF
:102690008EE20E94100C69817A818B819C8120E0FE
:1026A00030E040E050E00E94250488234CF489810A
:1026B0009A81AB81BC81B05889839A83AB83BC83F8
:1026C0001E822AC069817A818B819C8120E030E062
:1026D00040E251E40E941F02DC01CB0189839A830E
:1026E000AB83BC8369817A818B819C810E94550474
:1026F000DC01CB012AE030E040E050E0BC01CD013C
:102700000E946922DC01CB018D838D81805D0E9456
:10271000100C8E818F5F8E838E81833098F22A9683
:102720000FB6F894DEBF0FBECDBFCF91DF910895F5
:10273000DF93CF93CDB7DEB76C970FB6F894DEBFBB
:102740000FBECDBF698F7A8F8B8F9C8F84E1FE0186
:102750003596DF01982F1D929A95E9F71B82898D96
:102760009A8D9A83898389819A81009709F45DC043
:1027700089819A819923C4F48DE20E94100C898189
:102780009A81909581959F4F9A8389830DC08B8103
:102790008F5F8B8389819A812AE030E0B9010E94A2
:1027A0005622CB019A83898389819A81181619064A
:1027B00074F3898D9A8D9A83898389819A811816F9
:1027C00019063CF089819A81909581959F4F9A8353
:1027D00089838B8181508C8320C08C81E82FFF27D7
:1027E000E7FDF09589819A812AE030E0B9010E94E5
:1027F0005622805D282FCE010596E80FF91F208311
:1028000089819A812AE030E0B9010E945622CB01E9
:102810009A8389838C8181508C838C818823ECF608
:10282000CE0105960E94260E03C080E30E94100C84
:102830006C960FB6F894DEBF0FBECDBFCF91DF917F
:102840000895DF93CF93CDB7DEB780EB91E00E9480
:10285000170725E634E182E0B9010E940B08CF9109
:10286000DF910895DF93CF930F92CDB7DEB7198232
:102870008091D4019091D501CC01A0E0B0E02EEE82
:1028800032E040E050E0BC01CD010E943722DC0183
:10289000CB01BC01CD010E94A904DC01CB01BC012C
:1028A000CD0120E030ED4FEB54E40E941903DC0130
:1028B000CB01BC01CD010E944900DC01CB01898321
:1028C00089810F90CF91DF910895DF93CF9300D04E
:1028D000CDB7DEB79A83898389819A819093D50198
:1028E0008093D4010F900F90CF91DF910895DF93E3
:1028F000CF9300D000D0CDB7DEB79A838983E9812A
:10290000FA818481282F30E03C832B838B819C814A
:102910008130910509F441C02B813C812230310581
:102920002CF48B819C81009771F0A8C02B813C8195
:102930002230310509F455C08B819C81833091058B
:1029400009F479C09BC0E3E5F0E080818068808372
:10295000A3E5B0E0E981FA8180818695817081707C
:10296000982F9295990F907E8C918F7D892B8C93C7
:10297000A3E5B0E0E981FA81808181708170982FB0
:102980009295907F8C918F7E892B8C93ACE5B0E0F3
:10299000E981FA8186818C9371C0E3E5F0E0808162
:1029A0008F778083A3E5B0E0E981FA818281869503
:1029B00081708170982F9295990F907E8C918F7D68
:1029C000892B8C93A3E5B0E0E981FA818281817043
:1029D0008170982F9295907F8C918F7E892B8C930C
:1029E0004DC0E3E5F0E0808180688083A3E5B0E03E
:1029F000E981FA818081869581708170982F929506
:102A0000990F907E8C918F7D892B8C93A3E5B0E0FC
:102A1000E981FA81808181708170982F9295907FF1
:102A20008C918F7E892B8C93ACE5B0E0E981FA81A3
:102A300086818C9323C0E3E5F0E080818F778083EB
:102A4000A3E5B0E0E981FA8181818695817081708A
:102A5000982F9295990F907E8C918F7D892B8C93D6
:102A6000A3E5B0E0E981FA81818181708170982FBE
:102A70009295907F8C918F7E892B8C93A2E5B0E00C
:102A8000E981FA8185818C93A3E5B0E0E981FA813F
:102A90008481869581708170982F990F990F990F75
:102AA0008C91877F892B8C93A3E5B0E0E981FA8133
:102AB000848181708170982F9295990F990F907CE5
:102AC0008C918F7B892B8C930F900F900F900F9090
:102AD000CF91DF910895DF93CF9300D0CDB7DEB7CC
:102AE0009A838983A3E5B0E0E3E5F0E08081982F45
:102AF000987FE981FA818381892B8C930F900F90C5
:102B0000CF91DF910895DF93CF9300D0CDB7DEB79B
:102B10009A838983A3E5B0E0E3E5F0E08081887FD4
:102B20008C930F900F90CF91DF910895DF93CF9307
:102B3000CDB7DEB7E2E5F0E08081CF91DF91089577
:102B4000DF93CF9300D000D000D0CDB7DEB79A830B
:102B500089834B835C836D837E83E981FA818481E1
:102B6000882F90E0009709F03FC08B819C81AD8158
:102B7000BE8128EE33E040E050E0BC01CD010E9470
:102B80003722DC01CB01072E7EE0B695A7959795FD
:102B900087957A95D1F7702D8093D6019093D701C0
:102BA000A093D801B093D9018B819C81AD81BE8166
:102BB00028EE33E040E050E0BC01CD010E94372216
:102BC000DC01CB01689415F8B695A7959795879584
:102BD0001694D1F78093DA0189819A810E94FD15BC
:102BE00089819A810E946B1526960FB6F894DEBFF4
:102BF0000FBECDBFCF91DF910895DF93CF9300D06B
:102C0000CDB7DEB79A838983E981FA8184818823ED
:102C100031F4E9E5F0E08081816080830AC0E981D8
:102C2000FA818481823029F4E9E5F0E080818260D4
:102C300080830F900F90CF91DF910895DF93CF9312
:102C400000D0CDB7DEB79A838983E981FA81848188
:102C5000882331F4E9E5F0E080818E7F80830AC02B
:102C6000E981FA818481823029F4E9E5F0E080810C
:102C70008D7F80830F900F90CF91DF910895DF9328
:102C8000CF9300D0CDB7DEB79A83898389819A81AB
:102C90009093DC018093DB010F900F90CF91DF9137
:102CA0000895DF93CF9300D00F92CDB7DEB79A830C
:102CB00089836B83ECE5F0E08B81482F50E0CA01FB
:102CC0009C01220F331FC9019695982F882797954D
:102CD0008795821B930B840F951F24E630E0B90182
:102CE0000E945622CB0180830F900F900F90CF91BE
:102CF000DF9108951F920F920FB60F9211242F9318
:102D00003F934F935F936F937F938F939F93AF9373
:102D1000BF93EF93FF93DF93CF93CDB7DEB780914F
:102D2000D6019091D701A091D801B091D901019716
:102D3000A109B1098093D6019093D701A093D8013E
:102D4000B093D9018091D6019091D701A091D8017B
:102D5000B091D9010097A105B10531F4E2E5F0E0A9
:102D60008091DA01819580838091DB019091DC0173
:102D70000097A9F08091D6019091D701A091D80138
:102D8000B091D9018F3F2FEF92072FEFA2072FEFBE
:102D9000B20729F4E091DB01F091DC010995CF91B4
:102DA000DF91FF91EF91BF91AF919F918F917F91B3
:102DB0006F915F914F913F912F910F900FBE0F90A8
:102DC0001F9018951F920F920FB60F9211242F93F8
:102DD0003F934F935F936F937F938F939F93AF93A3
:102DE000BF93EF93FF93DF93CF93CDB7DEB780917F
:102DF000DB019091DC01009729F0E091DB01F0917B
:102E0000DC010995CF91DF91FF91EF91BF91AF91D7
:102E10009F918F917F916F915F914F913F912F91F2
:102E20000F900FBE0F901F901895DF93CF930F92C6
:102E3000CDB7DEB719820E948D080E9472170E94DA
:102E400021140E94030981E063E00E94AF2186E61D
:102E500090E00E9486210E943214898381E06AE01A
:102E60000E94AF218981843630F08981882F90E0DB
:102E70000E940A2208C08981882F90E00E940A22BD
:102E800080E20E94DE1C8981843158F480E063E096
:102E90000E94AF2182E790E00E9486210E94E30811
:102EA000DACF8981893178F08981843260F480E0D9
:102EB00063E00E94AF2181E890E00E94862182E3D6
:102EC0000E94C008C8CF8981843228F280E063E084
:102ED0000E94AF218FE890E00E94862180E50E9449
:102EE000C008B9CFDF93CF93CDB7DEB72E970FB61B
:102EF000F894DEBF0FBECDBF8091B6019091B701AF
:102F000060E041E00E941F098091B6019091B701F5
:102F100061E041E00E941F0980E090E0A0EAB1E496
:102F20008B879C87AD87BE876B857C858D859E85CD
:102F300020E030E04AEF54E40E941F02DC01CB01A4
:102F40008F839887A987BA876F81788589859A85C5
:102F500020E030E040E85FE30E94250488232CF461
:102F600081E090E09E838D833FC06F817885898565
:102F70009A8520E03FEF4FE757E40E94C5031816FB
:102F80004CF56B857C858D859E8520E030E040E2A8
:102F900051E40E941F02DC01CB01BC01CD010E9463
:102FA0004900DC01CB019E838D830FC088EC90E04B
:102FB0009C838B838B819C810197F1F79C838B830E
:102FC0008D819E8101979E838D838D819E81009747
:102FD00069F714C06F81788589859A850E944900B8
:102FE000DC01CB019E838D838D819E819A838983B1
:102FF00089819A810197F1F79A8389838091B4013D
:103000009091B50163E041E00E941F098091B401F5
:103010009091B50164E041E00E941F098091B401E4
:103020009091B50165E041E00E941F098091B401D3
:103030009091B50166E041E00E941F0983E30E9480
:10304000361882E30E94361888E20E9436188CE017
:103050000E94361881E00E9436182E960FB6F8941A
:10306000DEBF0FBECDBFCF91DF9108950F931F93A9
:10307000DF93CF93CDB7DEB7C356D0400FB6F894E9
:10308000DEBF0FBECDBFFE01ED59FF4F80838091A3
:10309000B6019091B70160E040E00E94D309FE01C3
:1030A000E15AFF4F80E090E0A0E8BFE38083918386
:1030B000A283B3838E01055A1F4FFE01E15AFF4FD1
:1030C000608171818281938120E030E04AEF54E495
:1030D0000E941F02DC01CB01F80180839183A2834F
:1030E000B383FE01E55AFF4F608171818281938134
:1030F00020E030E040E85FE30E942504882344F4A8
:10310000FE01E75AFF4F81E090E09183808364C025
:10311000FE01E55AFF4F608171818281938120E039
:103120003FEF4FE757E40E94C50318160CF043C069
:10313000FE01E15AFF4F608171818281938120E01D
:1031400030E040E251E40E941F02DC01CB018E011D
:10315000075A1F4FBC01CD010E944900DC01CB0181
:10316000F801918380831FC0FE01E95AFF4F88EC6C
:1031700090E091838083FE01E95AFF4F8081918125
:103180000197F1F7FE01E95AFF4F91838083DE0139
:10319000A75ABF4FFE01E75AFF4F808191810197E7
:1031A00011969C938E93FE01E75AFF4F8081918187
:1031B0000097D1F627C08E01075A1F4FFE01E55A2E
:1031C000FF4F60817181828193810E944900DC01FF
:1031D000CB01F80191838083DE01AB5ABF4FFE0122
:1031E000E75AFF4F808191818D939C93FE01EB5AAA
:1031F000FF4F808191810197F1F7FE01EB5AFF4F5C
:10320000918380838091B6019091B70161E041E0A4
:103210000E94D309FE01EF5AFF4F80E090E0A0E842
:10322000BFE380839183A283B3838E01035B1F4F2F
:10323000FE01EF5AFF4F608171818281938120E00E
:1032400030E04AEF54E40E941F02DC01CB01F80198
:1032500080839183A283B383FE01E35BFF4F608190
:1032600071818281938120E030E040E85FE30E9439
:103270002504882344F4FE01E55BFF4F81E090E0E4
:103280009183808364C0FE01E35BFF4F60817181A5
:103290008281938120E03FEF4FE757E40E94C5030E
:1032A00018160CF043C0FE01EF5AFF4F6081718188
:1032B0008281938120E030E040E251E40E941F02CD
:1032C000DC01CB018E01055B1F4FBC01CD010E94CB
:1032D0004900DC01CB01F801918380831FC0FE010E
:1032E000E75BFF4F88EC90E091838083FE01E75B12
:1032F000FF4F808191810197F1F7FE01E75BFF4F5E
:1033000091838083DE01A55BBF4FFE01E55BFF4F2C
:1033100080819181019711969C938E93FE01E55BCC
:10332000FF4F808191810097D1F627C08E01055B08
:103330001F4FFE01E35BFF4F6081718182819381AA
:103340000E944900DC01CB01F80191838083DE01FA
:10335000A95BBF4FFE01E55BFF4F808191818D939B
:103360009C93FE01E95BFF4F808191810197F1F70A
:10337000FE01E95BFF4F918380834091B40150913E
:10338000B501FE01ED59FF4F8081882F90E08071DB
:103390009070959587959595879595958795959531
:1033A0008795282FCA0163E0422F0E94D3094091DC
:1033B000B4015091B501FE01ED59FF4F8081882F76
:1033C00090E08072907095958795959587959595E5
:1033D00087959595879595958795282FCA0164E0DF
:1033E000422F0E94D3094091B4015091B501FE01D2
:1033F000ED59FF4F8081882F90E080749070082EE7
:10340000892F000C881F990B000C881F991F282FEB
:10341000CA0165E0422F0E94D3092091B401309186
:10342000B501FE01ED59FF4F8081482F441F44270D
:10343000441FC90166E00E94D309FE01ED5BFF4F06
:1034400080E090E0A0E8BFE380839183A283B38310
:103450008E01015C1F4FFE01ED5BFF4F60817181AA
:103460008281938120E030E04AEF54E40E941F0201
:10347000DC01CB01F80180839183A283B383FE0139
:10348000FF96608171818281938120E030E040E885
:103490005FE30E94250488232CF481E090E09EAF36
:1034A0008DAF46C0FE01FF9660817181828193815C
:1034B00020E03FEF4FE757E40E94C503181664F57C
:1034C000FE01ED5BFF4F608171818281938120E07D
:1034D00030E040E251E40E941F02DC01CB01BC015C
:1034E000CD010E944900DC01CB019EAF8DAF0FC022
:1034F00088EC90E09CAF8BAF8BAD9CAD0197F1F762
:103500009CAF8BAF8DAD9EAD01979EAF8DAF8DAD56
:103510009EAD009769F716C0FE01FF96608171812C
:10352000828193810E944900DC01CB019EAF8DAF67
:103530008DAD9EAD9AAF89AF89AD9AAD0197F1F788
:103540009AAF89AF8091B6019091B70161E040E0F8
:103550000E94D30980E090E0A0E8BFE38DAB9EAB72
:10356000AFABB8AF6DA97EA98FA998AD20E030E0D0
:103570004AEF54E40E941F02DC01CB0189AB9AABF5
:10358000ABABBCAB69A97AA98BA99CA920E030E0C0
:1035900040E85FE30E94250488232CF481E090E05A
:1035A00098AB8FA73FC069A97AA98BA99CA920E0F5
:1035B0003FEF4FE757E40E94C50318164CF56DA97D
:1035C0007EA98FA998AD20E030E040E251E40E944E
:1035D0001F02DC01CB01BC01CD010E944900DC01CE
:1035E000CB0198AB8FA70FC088EC90E09EA78DA76A
:1035F0008DA59EA50197F1F79EA78DA78FA598A9E8
:10360000019798AB8FA78FA598A9009769F714C069
:1036100069A97AA98BA99CA90E944900DC01CB0168
:1036200098AB8FA78FA598A99CA78BA78BA59CA5C6
:103630000197F1F79CA78BA78091B6019091B701F4
:1036400061E041E00E94D30980E090E0A0E8BFE3A0
:103650008FA398A7A9A7BAA76FA178A589A59AA5AE
:1036600020E030E04AEF54E40E941F02DC01CB016D
:103670008BA39CA3ADA3BEA36BA17CA18DA19EA196
:1036800020E030E040E85FE30E94250488232CF42A
:1036900081E090E09AA389A33FC06BA17CA18DA19A
:1036A0009EA120E03FEF4FE757E40E94C5031816A4
:1036B0004CF56FA178A589A59AA520E030E040E2FD
:1036C00051E40E941F02DC01CB01BC01CD010E942C
:1036D0004900DC01CB019AA389A30FC088EC90E0DC
:1036E00098A38F8F8F8D98A10197F1F798A38F8F53
:1036F00089A19AA101979AA389A389A19AA1009768
:1037000069F714C06BA17CA18DA19EA10E94490004
:10371000DC01CB019AA389A389A19AA19E8F8D8FE9
:103720008D8D9E8D0197F1F79E8F8D8F2091B40125
:103730003091B501FE01ED59FF4F8081482F417056
:10374000C90163E00E94D3094091B4015091B501D1
:10375000FE01ED59FF4F8081882F90E082709070BC
:1037600095958795282FCA0164E0422F0E94D309BE
:103770004091B4015091B501FE01ED59FF4F808198
:10378000882F90E084709070959587959595879592
:10379000282FCA0165E0422F0E94D3094091B4014D
:1037A0005091B501FE01ED59FF4F8081882F90E0C7
:1037B000887090709595879595958795959587953F
:1037C000282FCA0166E0422F0E94D30980E090E0D2
:1037D000A0E8BFE3898F9A8FAB8FBC8F698D7A8DFC
:1037E0008B8D9C8D20E030E04AEF54E40E941F0254
:1037F000DC01CB018D8B9E8BAF8BB88F6D897E8961
:103800008F89988D20E030E040E85FE30E94250436
:1038100088232CF481E090E09C8B8B8B3FC06D89DA
:103820007E898F89988D20E03FEF4FE757E40E9413
:10383000C50318164CF5698D7A8D8B8D9C8D20E013
:1038400030E040E251E40E941F02DC01CB01BC01E8
:10385000CD010E944900DC01CB019C8B8B8B0FC0FA
:1038600088EC90E09A8B898B89899A890197F1F786
:103870009A8B898B8B899C8901979C8B8B8B8B89ED
:103880009C89009769F714C06D897E898F89988D0E
:103890000E944900DC01CB019C8B8B8B8B899C891E
:1038A000988B8F878F8598890197F1F7988B8F87F1
:1038B0008091B6019091B70161E040E00E94D30988
:1038C00080E090E0A0E8BFE38B879C87AD87BE8750
:1038D0006B857C858D859E8520E030E04AEF54E441
:1038E0000E941F02DC01CB018F839887A987BA87CA
:1038F0006F81788589859A8520E030E040E85FE334
:103900000E94250488232CF481E090E09E838D831F
:103910003FC06F81788589859A8520E03FEF4FE72A
:1039200057E40E94C50318164CF56B857C858D8580
:103930009E8520E030E040E251E40E941F02DC015D
:10394000CB01BC01CD010E944900DC01CB019E836B
:103950008D830FC088EC90E09C838B838B819C814E
:103960000197F1F79C838B838D819E8101979E83C4
:103970008D838D819E81009769F714C06F81788552
:1039800089859A850E944900DC01CB019E838D8345
:103990008D819E819A83898389819A810197F1F72C
:1039A0009A838983CD59DF4F0FB6F894DEBF0FBEDF
:1039B000CDBFCF91DF911F910F9108950F931F936A
:1039C000DF93CF93CDB7DEB7C356D0400FB6F89490
:1039D000DEBF0FBECDBFFE01ED59FF4F808380914A
:1039E000B6019091B70160E041E00E94D309FE0169
:1039F000E15AFF4F80E090E0A0E8BFE3808391832D
:103A0000A283B3838E01055A1F4FFE01E15AFF4F77
:103A1000608171818281938120E030E04AEF54E43B
:103A20000E941F02DC01CB01F80180839183A283F5
:103A3000B383FE01E55AFF4F6081718182819381DA
:103A400020E030E040E85FE30E942504882344F44E
:103A5000FE01E75AFF4F81E090E09183808364C0CC
:103A6000FE01E55AFF4F608171818281938120E0E0
:103A70003FEF4FE757E40E94C50318160CF043C010
:103A8000FE01E15AFF4F608171818281938120E0C4
:103A900030E040E251E40E941F02DC01CB018E01C4
:103AA000075A1F4FBC01CD010E944900DC01CB0128
:103AB000F801918380831FC0FE01E95AFF4F88EC13
:103AC00090E091838083FE01E95AFF4F80819181CC
:103AD0000197F1F7FE01E95AFF4F91838083DE01E0
:103AE000A75ABF4FFE01E75AFF4F8081918101978E
:103AF00011969C938E93FE01E75AFF4F808191812E
:103B00000097D1F627C08E01075A1F4FFE01E55AD4
:103B1000FF4F60817181828193810E944900DC01A5
:103B2000CB01F80191838083DE01AB5ABF4FFE01C8
:103B3000E75AFF4F808191818D939C93FE01EB5A50
:103B4000FF4F808191810197F1F7FE01EB5AFF4F02
:103B5000918380838091B6019091B70161E041E04B
:103B60000E94D309FE01EF5AFF4F80E090E0A0E8E9
:103B7000BFE380839183A283B3838E01035B1F4FD6
:103B8000FE01EF5AFF4F608171818281938120E0B5
:103B900030E04AEF54E40E941F02DC01CB01F8013F
:103BA00080839183A283B383FE01E35BFF4F608137
:103BB00071818281938120E030E040E85FE30E94E0
:103BC0002504882344F4FE01E55BFF4F81E090E08B
:103BD0009183808364C0FE01E35BFF4F608171814C
:103BE0008281938120E03FEF4FE757E40E94C503B5
:103BF00018160CF043C0FE01EF5AFF4F608171812F
:103C00008281938120E030E040E251E40E941F0273
:103C1000DC01CB018E01055B1F4FBC01CD010E9471
:103C20004900DC01CB01F801918380831FC0FE01B4
:103C3000E75BFF4F88EC90E091838083FE01E75BB8
:103C4000FF4F808191810197F1F7FE01E75BFF4F04
:103C500091838083DE01A55BBF4FFE01E55BFF4FD3
:103C600080819181019711969C938E93FE01E55B73
:103C7000FF4F808191810097D1F627C08E01055BAF
:103C80001F4FFE01E35BFF4F608171818281938151
:103C90000E944900DC01CB01F80191838083DE01A1
:103CA000A95BBF4FFE01E55BFF4F808191818D9342
:103CB0009C93FE01E95BFF4F808191810197F1F7B1
:103CC000FE01E95BFF4F918380834091B4015091E5
:103CD000B501FE01ED59FF4F8081882F90E0807182
:103CE00090709595879595958795959587959595D8
:103CF0008795282FCA0163E0422F0E94D309409183
:103D0000B4015091B501FE01ED59FF4F8081882F1C
:103D100090E080729070959587959595879595958B
:103D200087959595879595958795282FCA0164E085
:103D3000422F0E94D3094091B4015091B501FE0178
:103D4000ED59FF4F8081882F90E080749070082E8D
:103D5000892F000C881F990B000C881F991F282F92
:103D6000CA0165E0422F0E94D3092091B40130912D
:103D7000B501FE01ED59FF4F8081482F441F4427B4
:103D8000441FC90166E00E94D309FE01ED5BFF4FAD
:103D900080E090E0A0E8BFE380839183A283B383B7
:103DA0008E01015C1F4FFE01ED5BFF4F6081718151
:103DB0008281938120E030E04AEF54E40E941F02A8
:103DC000DC01CB01F80180839183A283B383FE01E0
:103DD000FF96608171818281938120E030E040E82C
:103DE0005FE30E94250488232CF481E090E09EAFDD
:103DF0008DAF46C0FE01FF96608171818281938103
:103E000020E03FEF4FE757E40E94C503181664F522
:103E1000FE01ED5BFF4F608171818281938120E023
:103E200030E040E251E40E941F02DC01CB01BC0102
:103E3000CD010E944900DC01CB019EAF8DAF0FC0C8
:103E400088EC90E09CAF8BAF8BAD9CAD0197F1F708
:103E50009CAF8BAF8DAD9EAD01979EAF8DAF8DADFD
:103E60009EAD009769F716C0FE01FF9660817181D3
:103E7000828193810E944900DC01CB019EAF8DAF0E
:103E80008DAD9EAD9AAF89AF89AD9AAD0197F1F72F
:103E90009AAF89AF8091B6019091B70161E040E09F
:103EA0000E94D30980E090E0A0E8BFE38DAB9EAB19
:103EB000AFABB8AF6DA97EA98FA998AD20E030E077
:103EC0004AEF54E40E941F02DC01CB0189AB9AAB9C
:103ED000ABABBCAB69A97AA98BA99CA920E030E067
:103EE00040E85FE30E94250488232CF481E090E001
:103EF00098AB8FA73FC069A97AA98BA99CA920E09C
:103F00003FEF4FE757E40E94C50318164CF56DA923
:103F10007EA98FA998AD20E030E040E251E40E94F4
:103F20001F02DC01CB01BC01CD010E944900DC0174
:103F3000CB0198AB8FA70FC088EC90E09EA78DA710
:103F40008DA59EA50197F1F79EA78DA78FA598A98E
:103F5000019798AB8FA78FA598A9009769F714C010
:103F600069A97AA98BA99CA90E944900DC01CB010F
:103F700098AB8FA78FA598A99CA78BA78BA59CA56D
:103F80000197F1F79CA78BA78091B6019091B7019B
:103F900061E041E00E94D30980E090E0A0E8BFE347
:103FA0008FA398A7A9A7BAA76FA178A589A59AA555
:103FB00020E030E04AEF54E40E941F02DC01CB0114
:103FC0008BA39CA3ADA3BEA36BA17CA18DA19EA13D
:103FD00020E030E040E85FE30E94250488232CF4D1
:103FE00081E090E09AA389A33FC06BA17CA18DA141
:103FF0009EA120E03FEF4FE757E40E94C50318164B
:104000004CF56FA178A589A59AA520E030E040E2A3
:1040100051E40E941F02DC01CB01BC01CD010E94D2
:104020004900DC01CB019AA389A30FC088EC90E082
:1040300098A38F8F8F8D98A10197F1F798A38F8FF9
:1040400089A19AA101979AA389A389A19AA100970E
:1040500069F714C06BA17CA18DA19EA10E944900AB
:10406000DC01CB019AA389A389A19AA19E8F8D8F90
:104070008D8D9E8D0197F1F79E8F8D8F2091B401CC
:104080003091B501FE01ED59FF4F8081482F4170FD
:10409000C90163E00E94D3094091B4015091B50178
:1040A000FE01ED59FF4F8081882F90E08270907063
:1040B00095958795282FCA0164E0422F0E94D30965
:1040C0004091B4015091B501FE01ED59FF4F80813F
:1040D000882F90E084709070959587959595879539
:1040E000282FCA0165E0422F0E94D3094091B401F4
:1040F0005091B501FE01ED59FF4F8081882F90E06E
:1041000088709070959587959595879595958795E5
:10411000282FCA0166E0422F0E94D30980E090E078
:10412000A0E8BFE3898F9A8FAB8FBC8F698D7A8DA2
:104130008B8D9C8D20E030E04AEF54E40E941F02FA
:10414000DC01CB018D8B9E8BAF8BB88F6D897E8907
:104150008F89988D20E030E040E85FE30E942504DD
:1041600088232CF481E090E09C8B8B8B3FC06D8981
:104170007E898F89988D20E03FEF4FE757E40E94BA
:10418000C50318164CF5698D7A8D8B8D9C8D20E0BA
:1041900030E040E251E40E941F02DC01CB01BC018F
:1041A000CD010E944900DC01CB019C8B8B8B0FC0A1
:1041B00088EC90E09A8B898B89899A890197F1F72D
:1041C0009A8B898B8B899C8901979C8B8B8B8B8994
:1041D0009C89009769F714C06D897E898F89988DB5
:1041E0000E944900DC01CB019C8B8B8B8B899C89C5
:1041F000988B8F878F8598890197F1F7988B8F8798
:104200008091B6019091B70161E040E00E94D3092E
:1042100080E090E0A0E8BFE38B879C87AD87BE87F6
:104220006B857C858D859E8520E030E04AEF54E4E7
:104230000E941F02DC01CB018F839887A987BA8770
:104240006F81788589859A8520E030E040E85FE3DA
:104250000E94250488232CF481E090E09E838D83C6
:104260003FC06F81788589859A8520E03FEF4FE7D1
:1042700057E40E94C50318164CF56B857C858D8527
:104280009E8520E030E040E251E40E941F02DC0104
:10429000CB01BC01CD010E944900DC01CB019E8312
:1042A0008D830FC088EC90E09C838B838B819C81F5
:1042B0000197F1F79C838B838D819E8101979E836B
:1042C0008D838D819E81009769F714C06F817885F9
:1042D00089859A850E944900DC01CB019E838D83EC
:1042E0008D819E819A83898389819A810197F1F7D3
:1042F0009A838983CD59DF4F0FB6F894DEBF0FBE86
:10430000CDBFCF91DF911F910F910895DF93CF9390
:1043100000D00F92CDB7DEB79B838A8319820EC07F
:104320008981282F30E08A819B81FC01E20FF31FF5
:1043300080810E94DE1C89818F5F89838981282F7B
:1043400030E08A819B81FC01E20FF31F808188238A
:1043500039F70F900F900F90CF91DF910895DF9371
:10436000CF9300D000D00F92CDB7DEB78A836B8396
:104370008A81282F30E03D832C838C819D81813080
:104380009105C1F02C813D81223031052CF48C81C6
:104390009D81009761F019C02C813D81223031054B
:1043A00069F08C819D818330910561F00EC08B8115
:1043B00089830BC08B81805C898307C08B81805F80
:1043C000898303C08B81805B8983898180680E9497
:1043D00036180F900F900F900F900F90CF91DF91A4
:1043E0000895DF93CF9300D000D0CDB7DEB7898397
:1043F0006A835C834B8389816A810E94AF218B81B0
:104400009C810E9486210F900F900F900F90CF916A
:10441000DF910895DF93CF93CDB7DEB762970FB6E4
:10442000F894DEBF0FBECDBF9A8B898B89899A899C
:104430009E012F5F3F4FB9014AE050E00E94F122F8
:10444000CE0101960E94862162960FB6F894DEBFD7
:104450000FBECDBFCF91DF910895DF93CF93CDB73E
:10446000DEB781E00E943618CF91DF910895629FF8
:10447000D001739FF001829FE00DF11D649FE00D5C
:10448000F11D929FF00D839FF00D749FF00D659FBD
:10449000F00D9927729FB00DE11DF91F639FB00DBC
:1044A000E11DF91FBD01CF011124089597FB092ECD
:1044B00007260AD077FD04D027D006D000201AF4B2
:1044C000709561957F4F0895F6F7909581959F4F70
:1044D000089597FB092E05260ED057FD04D028D04D
:1044E0000AD0001C38F450954095309521953F4FE7
:1044F0004F4F5F4F0895F6F79095809570956195B1
:104500007F4F8F4F9F4F0895AA1BBB1B51E107C0E0
:10451000AA1FBB1FA617B70710F0A61BB70B881F53
:10452000991F5A95A9F780959095BC01CD010895E2
:10453000A1E21A2EAA1BBB1BFD010DC0AA1FBB1FA7
:10454000EE1FFF1FA217B307E407F50720F0A21B19
:10455000B30BE40BF50B661F771F881F991F1A9486
:1045600069F760957095809590959B01AC01BD01B0
:10457000CF0108952F923F924F925F926F927F9258
:104580008F929F92AF92BF92CF92DF92EF92FF9263
:104590000F931F93CF93DF93CDB7DEB7CA1BDB0B0F
:1045A0000FB6F894DEBF0FBECDBF09942A883988B4
:1045B00048885F846E847D848C849B84AA84B984BB
:1045C000C884DF80EE80FD800C811B81AA81B981C7
:1045D000CE0FD11D0FB6F894DEBF0FBECDBFED01DB
:1045E0000895FB019F01E8944230C4F04532B4F4D1
:1045F0004A3029F497FB1EF4909581959F4F642FC4
:1046000077270E948422805D8A330CF0895D819334
:10461000CB010097A1F716F45DE251931082C90116
:104620000C941223DC01FC01672F71917723E1F7D1
:10463000329704C07C916D9370836291AE17BF076F
:08464000C8F30895F894FFCFC0
:1046480030780030620054656D70203D20202020B5
:10465800430046616E206973204F46462020202083
:104668000046616E206973204F4E20353025004684
:10467800616E206973204F4E2038302500000000FD
:104688000000000000000102020303030304040405
:1046980004040404040505050505050505050505C7
:1046A80005050505050606060606060606060606A7
:1046B8000606060606060606060606060606060692
:1046C8000606060606070707070707070707070777
:1046D8000707070707070707070707070707070762
:1046E8000707070707070707070707070707070752
:1046F8000707070707070707070707070707070742
:104708000707070707080808080808080808080826
:104718000808080808080808080808080808080811
:104728000808080808080808080808080808080801
:1047380008080808080808080808080808080808F1
:1047480008080808080808080808080808080808E1
:1047580008080808080808080808080808080808D1
:1047680008080808080808080808080808080808C1
:1047780008080808080808080808080808080808B1
:1047880008080808080002000503000000010204E8
:0C4798000101060039003600330030003B
:00000001FF
