:100000000C942A000C9447000C9447000C94470071
:100010000C9447000C9447000C9447000C94470044
:100020000C9447000C9447000C94FF040C94970424
:100030000C9447000C94DE050C9447000C94470088
:100040000C9447000C9447000C9447000C94470014
:100050000C94470011241FBECFE5D8E0DEBFCDBF12
:1000600010E0A0E6B0E0E0E2FEE002C005900D92F4
:10007000A43DB107D9F710E0A4EDB0E001C01D9296
:10008000AF3DB107E1F70E9488060C940E070C946F
:100090000000DF93CF93CDB7DEB7AFE5B0E0EFE57B
:1000A000F0E0808180688C93CF91DF910895DF9399
:1000B000CF93CDB7DEB7AFE5B0E0EFE5F0E08081FC
:1000C0008F778C93CF91DF910895DF93CF9300D0FA
:1000D00000D000D0CDB7DEB79A8389836B834C8381
:1000E0008B81282F30E03E832D838D819E8183304C
:1000F000910509F451C02D813E81243031057CF4F5
:100100008D819E818130910571F12D813E8122305A
:100110003105ACF58D819E810097D1F081C02D8194
:100120003E812530310509F452C08D819E81853094
:1001300091050CF43FC02D813E812630310509F434
:1001400054C08D819E818730910509F45DC068C0DF
:100150008C818170E981FA81982F917081818E7FE5
:10016000892B81835DC08C818170E981FA818170E6
:10017000982F990F81818D7F892B818351C08C812C
:100180008170E981FA818170982F990F990F81818F
:100190008B7F892B818344C08C818170E981FA81B6
:1001A0008170982F990F990F990F8181877F892BE3
:1001B000818336C08C818170E981FA818170982FAA
:1001C0009295907F81818F7E892B818329C08C813C
:1001D0008170E981FA818170982F9295990F907EB4
:1001E00081818F7D892B81831BC08C818170E98106
:1001F000FA818170982F9295990F990F907C818147
:100200008F7B892B81830CC08C818170E981FA817D
:10021000982F97959927979581818F77892B81833F
:1002200026960FB6F894DEBF0FBECDBFCF91DF91FB
:100230000895DF93CF9300D000D000D0CDB7DEB7C4
:100240009A8389836B834C838B81282F30E03E8394
:100250002D838D819E818330910509F451C02D81BC
:100260003E81243031057CF48D819E818130910561
:1002700071F12D813E8122303105ACF58D819E8159
:100280000097D1F081C02D813E812530310509F4E0
:1002900052C08D819E81853091050CF43FC02D8127
:1002A0003E812630310509F454C08D819E8187300E
:1002B000910509F45DC068C08C818170E981FA8183
:1002C000982F917082818E7F892B82835DC08C8173
:1002D0008170E981FA818170982F990F82818D7FD9
:1002E000892B828351C08C818170E981FA81817070
:1002F000982F990F990F82818B7F892B828344C01D
:100300008C818170E981FA818170982F990F990F02
:10031000990F8281877F892B828336C08C8181707F
:10032000E981FA818170982F9295907F82818F7EEA
:10033000892B828329C08C818170E981FA81817047
:10034000982F9295990F907E82818F7D892B828341
:100350001BC08C818170E981FA818170982F929500
:10036000990F990F907C82818F7B892B82830CC09F
:100370008C818170E981FA81982F979599279795BB
:1003800082818F77892B828326960FB6F894DEBF01
:100390000FBECDBFCF91DF910895DF93CF9300D0F3
:1003A00000D000D0CDB7DEB79B838A836C838C816D
:1003B000282F30E03E832D838D819E8183309105EF
:1003C00009F43EC02D813E81243031057CF48D81BD
:1003D0009E818130910529F12D813E8122303105A8
:1003E0003CF58D819E810097B1F055C02D813E81F5
:1003F00025303105B1F18D819E81853091054CF11B
:100400002D813E8126303105A9F18D819E81873075
:100410009105D1F140C0EA81FB818081817089839F
:100420003AC0EA81FB81808186958170898333C0DF
:10043000EA81FB81808186958695817089832BC0B6
:10044000EA81FB8180818695869586958170898376
:1004500022C0EA81FB81808182958F7081708983BF
:100460001AC0EA81FB8180818295869587708170B0
:10047000898311C0EA81FB8180818295869586956A
:1004800083708170898307C0EA81FB818081881F26
:100490008827881F8983898126960FB6F894DEBF46
:1004A0000FBECDBFCF91DF910895DF93CF9300D0E2
:1004B0000F92CDB7DEB79A8389836B83E981FA8186
:1004C0008B8181830F900F900F90CF91DF910895D2
:1004D000DF93CF9300D00F92CDB7DEB79A83898395
:1004E0006B83E981FA818B8182830F900F900F904B
:1004F000CF91DF910895DF93CF9300D0CDB7DEB7D2
:100500009A838983E981FA8180810F900F90CF913E
:10051000DF910895DF93CF9300D000D0CDB7DEB741
:100520009A838983E981FA818481282F30E03C8392
:100530002B838B819C818130910509F441C02B81F3
:100540003C81223031052CF48B819C81009771F025
:10055000A8C02B813C812230310509F455C08B8124
:100560009C818330910509F479C09BC0E3E5F0E0FC
:10057000808180688083A3E5B0E0E981FA81808191
:10058000869581708170982F9295990F907E8C91AD
:100590008F7D892B8C93A3E5B0E0E981FA8180817E
:1005A00081708170982F9295907F8C918F7E892B8E
:1005B0008C93ACE5B0E0E981FA8186818C9371C0BF
:1005C000E3E5F0E080818F778083A3E5B0E0E98107
:1005D000FA818281869581708170982F9295990F0A
:1005E000907E8C918F7D892B8C93A3E5B0E0E9817F
:1005F000FA81828181708170982F9295907F8C9181
:100600008F7E892B8C934DC0E3E5F0E0808180687C
:100610008083A3E5B0E0E981FA81808186958170CD
:100620008170982F9295990F907E8C918F7D892B58
:100630008C93A3E5B0E0E981FA81808181708170BB
:10064000982F9295907F8C918F7E892B8C93ACE51F
:10065000B0E0E981FA8186818C9323C0E3E5F0E084
:1006600080818F778083A3E5B0E0E981FA81818181
:10067000869581708170982F9295990F907E8C91BC
:100680008F7D892B8C93A3E5B0E0E981FA8181818C
:1006900081708170982F9295907F8C918F7E892B9D
:1006A0008C93A2E5B0E0E981FA8185818C93A3E582
:1006B000B0E0E981FA818481869581708170982FFC
:1006C000990F990F990F8C91877F892B8C93A3E5B4
:1006D000B0E0E981FA81848181708170982F9295D0
:1006E000990F990F907C8C918F7B892B8C930F9015
:1006F0000F900F900F90CF91DF910895DF93CF93DC
:1007000000D0CDB7DEB79A838983A3E5B0E0E3E5F7
:10071000F0E08081982F987FE981FA818381892B8D
:100720008C930F900F90CF91DF910895DF93CF932B
:1007300000D0CDB7DEB79A838983A3E5B0E0E3E5C7
:10074000F0E08081887F8C930F900F90CF91DF91A4
:100750000895DF93CF93CDB7DEB7E2E5F0E0808177
:10076000CF91DF910895DF93CF9300D000D000D0D8
:10077000CDB7DEB79A8389834B835C836D837E8399
:10078000E981FA818481882F90E0009709F03FC0C9
:100790008B819C81AD81BE8128EE33E040E050E04A
:1007A000BC01CD010E94C806DC01CB01072E7FE011
:1007B000B695A795979587957A95D1F7702D8093E3
:1007C000D4009093D500A093D600B093D7008B812E
:1007D0009C81AD81BE8128EE33E040E050E0BC0159
:1007E000CD010E94C806DC01CB01689416F8B695CD
:1007F000A795979587951694D1F78093D80089810E
:100800009A810E94100489819A810E947E03269613
:100810000FB6F894DEBF0FBECDBFCF91DF91089524
:10082000DF93CF9300D0CDB7DEB79A838983E98178
:10083000FA818481882331F4E9E5F0E080818160E8
:1008400080830AC0E981FA818481823029F4E9E554
:10085000F0E08081826080830F900F90CF91DF91D4
:100860000895DF93CF9300D0CDB7DEB79A83898305
:10087000E981FA818481882331F4E9E5F0E080811F
:100880008E7F80830AC0E981FA818481823029F4D5
:10089000E9E5F0E080818D7F80830F900F90CF910C
:1008A000DF910895DF93CF93CDB7DEB7E2E5F0E0B7
:1008B0001082CF91DF910895DF93CF9300D0CDB711
:1008C000DEB79A83898389819A819093DA00809335
:1008D000D9000F900F90CF91DF910895DF93CF93C0
:1008E00000D00F92CDB7DEB79A8389836B83ECE596
:1008F000F0E08B81482F50E0CA019C01220F331F8A
:10090000C9019695982F882797958795821B930BF9
:10091000840F951F24E630E0B9010E94E706CB0161
:1009200080830F900F900F90CF91DF9108951F92C9
:100930000F920FB60F9211242F933F934F935F9313
:100940006F937F938F939F93AF93BF93EF93FF9397
:10095000DF93CF93CDB7DEB78091D4009091D500CF
:10096000A091D600B091D7000197A109B109809359
:10097000D4009093D500A093D600B093D700809177
:10098000D4009091D500A091D600B091D7000097E7
:10099000A105B10531F4E2E5F0E08091D800819540
:1009A00080838091D9009091DA000097A9F080911E
:1009B000D4009091D500A091D600B091D7008F3F80
:1009C0002FEF92072FEFA2072FEFB20729F4E09144
:1009D000D900F091DA000995CF91DF91FF91EF9165
:1009E000BF91AF919F918F917F916F915F914F9147
:1009F0003F912F910F900FBE0F901F9018951F924F
:100A00000F920FB60F9211242F933F934F935F9342
:100A10006F937F938F939F93AF93BF93EF93FF93C6
:100A2000DF93CF93CDB7DEB78091D9009091DA00F4
:100A3000009729F0E091D900F091DA000995CF9163
:100A4000DF91FF91EF91BF91AF919F918F917F9136
:100A50006F915F914F913F912F910F900FBE0F902B
:100A60001F901895DF93CF9300D00F92CDB7DEB7CC
:100A70001B821A821982EBE2F0E082E080831B8203
:100A800088E18B83EAE2F0E08B8180831B8286E839
:100A90008B83E0E4F0E08B81808380E190E09A83B7
:100AA0008983E0E4F0E089819A81892F9927808306
:100AB000E9E2F0E0898180830F900F900F90CF9151
:100AC000DF910895DF93CF930F92CDB7DEB789837F
:100AD000EBE2F0E08081882F90E0807290700097C8
:100AE000B9F3ECE2F0E0898180830F90CF91DF9140
:100AF0000895DF93CF9300D0CDB7DEB79A83898373
:100B0000EBE2F0E080818823DCF7ECE2F0E080812A
:100B1000E981FA8180830F900F90CF91DF91089542
:100B2000DF93CF9300D0CDB7DEB79A8389830AC015
:100B3000E981FA8180810E94620589819A8101960A
:100B40009A838983E981FA818081882389F70F90CC
:100B50000F90CF91DF910895DF93CF9300D0CDB761
:100B6000DEB79A83898389819A819093DC00809390
:100B7000DB00AAE2B0E0EAE2F0E0808180688C93DA
:100B80000F900F90CF91DF910895DF93CF9300D016
:100B9000CDB7DEB79A83898389819A819093DC00EF
:100BA0008093DB00AAE2B0E0EAE2F0E080818068B6
:100BB0008C930F900F90CF91DF9108951F920F9219
:100BC0000FB60F9211242F933F934F935F936F9320
:100BD0007F938F939F93AF93BF93EF93FF93DF9395
:100BE000CF93CDB7DEB7ECE2F0E080818093DD00FB
:100BF0008091DB009091DC00009739F0E091DB0000
:100C0000F091DC008091DD000995CF91DF91FF919B
:100C1000EF91BF91AF919F918F917F916F915F9174
:100C20004F913F912F910F900FBE0F901F901895ED
:100C3000DF93CF930F92CDB7DEB70E94320580E6E7
:100C400090E00E94900587E690E00E9490050F904A
:100C5000CF91DF910895DF93CF930F92CDB7DEB799
:100C600085E790E00E9490050F90CF91DF91089565
:100C7000DF93CF930F92CDB7DEB78CE990E00E945F
:100C800090050F90CF91DF910895DF93CF9300D01F
:100C90000F92CDB7DEB79A83898389819A810E94AA
:100CA00079050F900F900F90CF91DF910895DF930A
:100CB000CF93CDB7DEB781E08093DE00CF91DF9197
:100CC0000895DF93CF9300D000D0CDB7DEB769830E
:100CD0007A838B839C8387E596E00E945C040E9464
:100CE000520484EC90E029813A814B815C81BA0105
:100CF000A9010E94B3038091DE008823E1F31092E2
:100D0000DE000F900F900F900F90CF91DF9108951C
:100D1000DF93CF930F92CDB7DEB719828091CB00CE
:100D20009091CC0067E041E00E9465008091CB008B
:100D30009091CC0067E040E00E9419010E944900B8
:100D40000E9418060E942B0661E070E080E090E0AF
:100D50000E9461060E943806CE0101960E94450657
:100D600089818E3449F48091CB009091CC0067E06A
:100D700041E00E941901F0CF8981863469F78091A2
:100D8000CB009091CC0067E040E00E941901E4CFD5
:100D9000629FD001739FF001829FE00DF11D649F5F
:100DA000E00DF11D929FF00D839FF00D749FF00DEB
:100DB000659FF00D9927729FB00DE11DF91F639F8C
:100DC000B00DE11DF91FBD01CF011124089597FB5E
:100DD000092E07260AD077FD04D00CD006D00020BB
:100DE0001AF4709561957F4F0895F6F79095819567
:100DF0009F4F0895AA1BBB1B51E107C0AA1FBB1F31
:100E0000A617B70710F0A61BB70B881F991F5A9596
:100E1000A9F780959095BC01CD010895F894FFCF76
:100E2000415445300D0A0041542B43574D4F444522
:100E30003D330D0A0041542B43574A41503D22484F
:100E400055415745492059392032303138222C221A
:100E50003131313169656565220D0A0041542B43FA
:100E6000495053544152543D22544350222C223174
:100E700039322E3136382E34332E31222C34303064
:100E8000300D0A0000020005000000390036003372
:040E9000003000002E
:00000001FF
