:100000000C942A000C9447000C9447000C94470071
:100010000C9447000C9447000C94851D0C94B81D5B
:100020000C94EB1D0C94421D0C9494140C942C1401
:100030000C9447000C9447000C9447000C94470024
:100040000C9447000C9447000C9447000C94470014
:100050000C94470011241FBECFE5D8E0DEBFCDBF12
:1000600011E0A0E6B0E0ECEFFFE302C005900D92D6
:10007000AE39B107D9F711E0AEE9B1E001C01D9288
:10008000AA3CB107E1F70E941E1E0C94FC1F0C94C1
:100090000000EF92FF920F931F937B018C0120E0F1
:1000A00030E040E05FE40E94F50388238CF0C80153
:1000B000B70120E030E040E05FE40E94C1010E940F
:1000C00055049B01AC01205030404040504806C0D0
:1000D000C801B7010E9455049B01AC01B901CA01D6
:1000E0001F910F91FF90EF900895A0E0B0E0EBE733
:1000F000F0E00C94C51FDC012B01FA019C919230B9
:1001000008F439C1EB018881823008F433C194309E
:1001100069F4843009F02FC111969C91119789815F
:10012000981709F428C1AAE7B0E025C1843009F482
:1001300021C18230A9F4923009F01DC19A01AD01AC
:1001400088E0EA010990AE01E90109929E0181501F
:10015000C1F7E201898111969C918923818308C1AD
:10016000923009F407C112962D903C901397EB0141
:100170008A819B811496AD90BD90CD90DC901797AD
:10018000EC80FD800E811F819101281B390BB90184
:1001900037FF04C066277727621B730B6032710537
:1001A0000CF061C0121613066CF537014801062EDB
:1001B00004C096948794779467940A94D2F721E0C8
:1001C00030E040E050E004C0220F331F441F551FB1
:1001D0006A95D2F721503040404050402E213F21B7
:1001E00040235123211531054105510521F021E01E
:1001F00030E040E050E079018A01E628F72808293C
:1002000019293CC0232BD1F1260E371E350146019A
:10021000062E04C096948794779467940A94D2F734
:1002200021E030E040E050E004C0220F331F441FC3
:10023000551F6A95D2F721503040404050402A2146
:100240003B214C215D21211531054105510521F04E
:1002500021E030E040E050E059016A01A628B728CB
:10026000C828D9280BC0821593052CF01C01AA249C
:10027000BB24650103C0EE24FF24870111969C91E5
:10028000D20111968C91981709F445C0992339F041
:10029000A80197012A193B094C095D0906C0A6016E
:1002A00095012E193F09400B510B57FD08C01182D3
:1002B0003382228224833583468357831DC081E0A5
:1002C00081833382228288279927DC01821B930B4A
:1002D000A40BB50B84839583A683B7830DC0220F2F
:1002E000331F441F551F24833583468357838281E0
:1002F000938101979383828324813581468157813D
:10030000DA01C9010197A109B1098F5F9F4FAF4F72
:10031000BF4328F30BC0918333822282EA0CFB1C7B
:100320000C1D1D1DE482F5820683178383E0808304
:10033000248135814681578157FF1AC0C901AA27F8
:1003400097FDA095BA2F81709070A070B0705695EF
:10035000479537952795822B932BA42BB52B848318
:100360009583A683B7838281938101969383828349
:10037000DF0101C0D201CD01CDB7DEB7E2E10C94BF
:10038000E11FA0E2B0E0E7ECF1E00C94D11F69833B
:100390007A838B839C832D833E834F835887E9E048
:1003A000EE2EF12CEC0EFD1ECE010196B7010E943F
:1003B00046068E010F5E1F4FCE010596B8010E94C2
:1003C00046068A8991E089278A8BC701B801AE0168
:1003D000475E5F4F0E9475000E947105A096E6E09F
:1003E0000C94ED1FA0E2B0E0E8EFF1E00C94D11F17
:1003F00069837A838B839C832D833E834F835887C5
:10040000F9E0EF2EF12CEC0EFD1ECE010196B701A6
:100410000E9446068E010F5E1F4FCE010596B80161
:100420000E944606C701B801AE01475E5F4F0E94B9
:1004300075000E947105A096E6E00C94ED1FA0E205
:10044000B0E0E5E2F2E00C94C51F69837A838B8308
:100450009C832D833E834F835887CE010196BE0136
:10046000675F7F4F0E944606CE010596BE016F5E14
:100470007F4F0E9446069985923088F089898230A4
:10048000C8F0943019F4823051F404C0843029F457
:10049000923081F48AE790E0C6C0923049F420E0BF
:1004A0009A858A89981321E02A87CE010996BBC0D4
:1004B000823049F420E09A858A89981321E02A8BBA
:1004C000CE014196B0C02D843E844F8458886D88FB
:1004D0007E888F88988CEE24FF248701AA24BB2471
:1004E000650140E050E060E070E0E0E0F0E0C10174
:1004F00081709070892BE9F0E60CF71C081D191D1E
:100500009A01AB012A0D3B1D4C1D5D1D80E090E062
:10051000A0E0B0E0E614F7040805190520F481E036
:1005200090E0A0E0B0E0BA01A901480F591F6A1F8E
:100530007B1FAA0CBB1CCC1CDD1C97FE08C081E0F5
:1005400090E0A0E0B0E0A82AB92ACA2ADB2A3196B6
:10055000E032F10549F0660C771C881C991C569412
:10056000479437942794C3CFFA85EA892B893C892D
:100570008B859C85280F391F2E5F3F4F17C0CA01FE
:1005800081709070892B61F016950795F794E79428
:1005900080E090E0A0E0B0E8E82AF92A0A2B1B2BC3
:1005A00076956795579547952F5F3F4F77FDE7CF36
:1005B0000CC0440F551F661F771F17FD4160EE0CDE
:1005C000FF1C001F111F21503040403090E05907A0
:1005D00090E0690790E4790760F32B8F3C8FDB0193
:1005E000CA018F779070A070B07080349105A1051A
:1005F000B10561F447FD0AC0E114F10401051105DC
:1006000029F0405C5F4F6F4F7F4F40781A8EFE1786
:1006100011F081E08A8F4D8F5E8F6F8F78A383E01A
:10062000898FCE0149960E947105A096E2E10C9453
:10063000E11FA8E1B0E0EFE1F3E00C94CD1F698386
:100640007A838B839C832D833E834F835887B9E0C5
:10065000EB2EF12CEC0EFD1ECE010196B7010E948F
:1006600046068E010F5E1F4FCE010596B8010E940F
:1006700046062985223008F47EC03989323010F4CC
:10068000B8017CC08A859A8989278A87243011F02D
:10069000223031F4231709F06EC06AE770E06EC0B3
:1006A000343039F41D861E861F86188A1C861B86E8
:1006B00004C0323021F484E08987B7015FC02B8504
:1006C0003C858B899C89281B390B3C872B87ED84C3
:1006D000FE840F851889AD88BE88CF88D88CEA142F
:1006E000FB040C051D0540F4EE0CFF1C001F111F40
:1006F000215030403C872B8720E030E040E050E044
:1007000080E090E0A0E0B0E460E070E0EA14FB0478
:100710000C051D0540F0282B392B4A2B5B2BEA18C2
:10072000FB080C091D09B695A79597958795EE0CC2
:10073000FF1C001F111F6F5F7F4F6F31710531F775
:10074000DA01C9018F779070A070B0708034910584
:10075000A105B10561F427FD0AC0E114F10401050A
:10076000110529F0205C3F4F4F4F5F4F20782D87B8
:100770003E874F87588BBE01675F7F4FCB010E943A
:1007800071056896EAE00C94E91FA8E1B0E0EBEC93
:10079000F3E00C94D11F69837A838B839C832D8330
:1007A0003E834F83588789E0E82EF12CEC0EFD1E26
:1007B000CE010196B7010E9446068E010F5E1F4FC3
:1007C000CE010596B8010E9446068985823040F028
:1007D0008989823028F0C701B8010E94BE0601C095
:1007E0008FEF6896E6E00C94ED1FA8E1B0E0EBEF28
:1007F000F3E00C94D11F69837A838B839C832D83D0
:100800003E834F83588789E0E82EF12CEC0EFD1EC5
:10081000CE010196B7010E9446068E010F5E1F4F62
:10082000CE010596B8010E9446068985823040F0C7
:100830008989823028F0C701B8010E94BE0601C034
:100840008FEF6896E6E00C94ED1FA8E1B0E0EBE2D4
:10085000F4E00C94D11F69837A838B839C832D836E
:100860003E834F83588789E0E82EF12CEC0EFD1E65
:10087000CE010196B7010E9446068E010F5E1F4F02
:10088000CE010596B8010E9446068985823040F067
:100890008989823028F0C701B8010E94BE0601C0D4
:1008A00081E06896E6E00C94ED1FACE0B0E0EBE58B
:1008B000F4E00C94D51F69837A838B839C83CE01EB
:1008C0000196BE016B5F7F4F0E9446068D8182308C
:1008D00061F1823050F1843021F48E81882351F10E
:1008E0002EC02F81388537FD20C06E812F31310514
:1008F0001CF06623F9F023C08EE190E0821B930B7D
:1009000029853A854B855C8504C056954795379572
:1009100027958A95D2F76623B1F05095409530958A
:1009200021953F4F4F4F5F4F0EC020E030E040E039
:1009300050E009C02FEF3FEF4FEF5FE704C020E02A
:1009400030E040E050E8B901CA012C96E2E00C9496
:10095000F11FA8E0B0E0EFEAF4E00C94CD1F7B01BA
:100960008C01611571058105910519F482E0898377
:1009700060C083E089838EE1C82ED12CDC82CB82DB
:10098000ED82FE820F831887C801B7010E942205FD
:10099000FC013197F7FF3BC0222733272E1B3F0B6B
:1009A00057016801022E04C0D694C794B794A79447
:1009B0000A94D2F740E050E060E070E081E090E01F
:1009C000A0E0B0E004C0880F991FAA1FBB1F2A95A2
:1009D000D2F70197A109B1098E219F21A023B1234C
:1009E0000097A105B10521F041E050E060E070E022
:1009F0004A295B296C297D294D835E836F83788723
:100A00008EE190E08E1B9F0B9C838B8312C03097EE
:100A100081F00E2E04C0EE0CFF1C001F111F0A9463
:100A2000D2F7ED82FE820F831887CE1ADF0ADC82AE
:100A3000CB821A82CE0101960E9471052896EAE0C7
:100A40000C94E91FEF92FF920F931F937B018C018F
:100A500080E0E81680E0F80681E0080780E01807EB
:100A600088F48FEFE816F1040105110531F028F044
:100A700088E090E0A0E0B0E017C080E090E0A0E067
:100A8000B0E012C080E0E81680E0F80680E00807D9
:100A900081E0180728F088E190E0A0E0B0E004C011
:100AA00080E190E0A0E0B0E020E230E040E050E003
:100AB000281B390B4A0B5B0B04C016950795F7945E
:100AC000E7948A95D2F7F701EE57FF4F8081281BF4
:100AD000310941095109C9011F910F91FF90EF9010
:100AE0000895DF92EF92FF920F931F93FC01E48031
:100AF000F58006811781D1808081823048F480E0C2
:100B000090E0A0E1B0E0E82AF92A0A2B1B2BA5C04F
:100B1000843009F49FC0823021F4EE24FF24870141
:100B200005C0E114F1040105110519F4E0E0F0E05D
:100B300096C0628173819FEF623879070CF05BC0C9
:100B400022E83FEF261B370B2A3131052CF020E03D
:100B500030E040E050E02AC0B801A701022E04C0F6
:100B600076956795579547950A94D2F781E090E07E
:100B7000A0E0B0E004C0880F991FAA1FBB1F2A95F0
:100B8000D2F70197A109B1098E219F21A023B1239A
:100B90000097A105B10521F081E090E0A0E0B0E070
:100BA0009A01AB01282B392B4A2B5B2BDA01C901A7
:100BB0008F779070A070B07080349105A105B10559
:100BC00039F427FF09C0205C3F4F4F4F5F4F04C0EF
:100BD000215C3F4F4F4F5F4FE0E0F0E02030A0E05E
:100BE0003A07A0E04A07A0E45A0710F0E1E0F0E07D
:100BF00079018A0127C06038710564F5FB01E1586D
:100C0000FF4FD801C7018F779070A070B07080340B
:100C10009105A105B10539F4E7FE0DC080E490E02F
:100C2000A0E0B0E004C08FE390E0A0E0B0E0E80E08
:100C3000F91E0A1F1B1F17FF05C016950795F7948D
:100C4000E794319687E016950795F794E7948A958F
:100C5000D1F705C0EE24FF248701EFEFF0E06E2FFF
:100C6000679566276795902F9F77D794DD24D79453
:100C70008E2F8695492F462B582F5D29B701CA0123
:100C80001F910F91FF90EF90DF900895FC01DB0121
:100C9000408151812281622F6F7770E0221F2227CD
:100CA000221F9381892F880F822B282F30E0991FD4
:100CB0009927991F11969C93119721153105A9F534
:100CC000411551056105710511F482E037C082E8D4
:100CD0009FEF13969C938E9312979A01AB0167E056
:100CE000220F331F441F551F6A95D1F783E08C9361
:100CF0000DC0220F331F441F551F12968D919C91DA
:100D00001397019713969C938E931297203080E04F
:100D1000380780E0480780E4580758F314962D936D
:100D20003D934D935C93179708952F3F310579F4C8
:100D3000411551056105710519F484E08C930895FE
:100D400064FF03C081E08C9312C01C9210C02F5727
:100D5000304013963C932E93129783E08C9387E058
:100D6000440F551F661F771F8A95D1F7706414963C
:100D70004D935D936D937C93179708951F93DC01BA
:100D8000FB019C91923008F447C08081823008F4C6
:100D900043C0943051F411961C91843099F58181AF
:100DA000682F70E0611B71093FC0843021F09230E0
:100DB00031F48230B9F18181882389F12DC01196F7
:100DC0001C9111978230F1F081811817D9F4129695
:100DD0002D913C911397828193818217930794F010
:100DE00028173907BCF014968D919D910D90BC91F8
:100DF000A02D2481358146815781281739074A075C
:100E00005B0718F4112341F00AC082179307A40767
:100E1000B50740F4112319F061E070E005C06FEFF1
:100E20007FEF02C060E070E0CB011F910895DF9377
:100E3000CF93CDB7DEB7AFE5B0E0EFE5F0E080816E
:100E400080688C93CF91DF910895DF93CF93CDB7D6
:100E5000DEB7AFE5B0E0EFE5F0E080818F778C930F
:100E6000CF91DF910895DF93CF9300D000D000D0D1
:100E7000CDB7DEB79A8389836B834C838B81282F10
:100E800030E03E832D838D819E818330910509F46E
:100E900051C02D813E81243031057CF48D819E81AD
:100EA0008130910571F12D813E8122303105ACF503
:100EB0008D819E810097D1F081C02D813E812530AA
:100EC000310509F452C08D819E81853091050CF465
:100ED0003FC02D813E812630310509F454C08D81FB
:100EE0009E818730910509F45DC068C08C81817056
:100EF000E981FA81982F917081818E7F892B81837E
:100F00005DC08C818170E981FA818170982F990F81
:100F100081818D7F892B818351C08C818170E98192
:100F2000FA818170982F990F990F81818B7F892B7E
:100F3000818344C08C818170E981FA818170982F0E
:100F4000990F990F990F8181877F892B818336C0F3
:100F50008C818170E981FA818170982F9295907FC0
:100F600081818F7E892B818329C08C818170E98169
:100F7000FA818170982F9295990F907E81818F7D53
:100F8000892B81831BC08C818170E981FA818170FA
:100F9000982F9295990F990F907C81818F7B892B47
:100FA00081830CC08C818170E981FA81982F97959B
:100FB0009927979581818F77892B818326960FB604
:100FC000F894DEBF0FBECDBFCF91DF910895DF93C0
:100FD000CF9300D000D000D0CDB7DEB79A838983FD
:100FE0006B834C838B81282F30E03E832D838D8152
:100FF0009E818330910509F451C02D813E812430BA
:1010000031057CF48D819E818130910571F12D81B6
:101010003E8122303105ACF58D819E810097D1F063
:1010200081C02D813E812530310509F452C08D816A
:101030009E81853091050CF43FC02D813E81263084
:10104000310509F454C08D819E818730910509F4E2
:101050005DC068C08C818170E981FA81982F9170A0
:1010600082818E7F892B82835DC08C818170E98132
:10107000FA818170982F990F82818D7F892B8283CD
:1010800051C08C818170E981FA818170982F990F0C
:10109000990F82818B7F892B828344C08C818170E0
:1010A000E981FA818170982F990F990F990F8281A8
:1010B000877F892B828336C08C818170E981FA8198
:1010C0008170982F9295907F82818F7E892B828369
:1010D00029C08C818170E981FA818170982F929565
:1010E000990F907E82818F7D892B82831BC08C819A
:1010F0008170E981FA818170982F9295990F990FEB
:10110000907C82818F7B892B82830CC08C81817043
:10111000E981FA81982F97959927979582818F7702
:10112000892B828326960FB6F894DEBF0FBECDBF03
:10113000CF91DF910895DF93CF9300D000D000D0FE
:10114000CDB7DEB79B838A836C838C81282F30E0F8
:101150003E832D838D819E818330910509F43EC0AD
:101160002D813E81243031057CF48D819E8181303A
:10117000910529F12D813E81223031053CF58D818B
:101180009E810097B1F055C02D813E8125303105FB
:10119000B1F18D819E81853091054CF12D813E818B
:1011A00026303105A9F18D819E8187309105D1F1DD
:1011B00040C0EA81FB818081817089833AC0EA81E5
:1011C000FB81808186958170898333C0EA81FB81B0
:1011D000808186958695817089832BC0EA81FB8109
:1011E00080818695869586958170898322C0EA8163
:1011F000FB81808182958F70817089831AC0EA811A
:10120000FB8180818295869587708170898311C06A
:10121000EA81FB81808182958695869583708170B5
:10122000898307C0EA81FB818081881F8827881F06
:101230008983898126960FB6F894DEBF0FBECDBF95
:10124000CF91DF910895DF93CF9300D00F92CDB768
:10125000DEB79A8389836B83E981FA818B818183ED
:101260000F900F900F90CF91DF910895DF93CF9360
:1012700000D00F92CDB7DEB79A8389836B83E98163
:10128000FA818B8182830F900F900F90CF91DF9125
:101290000895DF93CF9300D0CDB7DEB79A838983CB
:1012A000E981FA8180810F900F90CF91DF910895AD
:1012B000DF93CF93CDB7DEB72E970FB6F894DEBF8E
:1012C0000FBECDBF809196019091970163E041E000
:1012D0000E943307809196019091970162E041E06E
:1012E0000E94330780E090E0A8E4B2E48B879C87FB
:1012F000AD87BE876B857C858D859E8520E030E03F
:101300004AE755E40E941F02DC01CB018F839887D6
:10131000A987BA876F81788589859A8520E030E032
:1013200040E85FE30E94250488232CF481E090E0EC
:101330009E838D833FC06F81788589859A8520E063
:101340003FEF4FE757E40E94C50318164CF56B8535
:101350007C858D859E8520E030E040E251E40E944E
:101360001F02DC01CB01BC01CD010E944900DC0160
:10137000CB019E838D830FC080E991E09C838B839A
:101380008B819C810197F1F79C838B838D819E815A
:1013900001979E838D838D819E81009769F714C08C
:1013A0006F81788589859A850E944900DC01CB018F
:1013B0009E838D838D819E819A83898389819A8181
:1013C0000197F1F79A83898380919801909199010F
:1013D00060E041E00E94330780919801909199016B
:1013E00061E041E00E94330780919801909199015A
:1013F00062E041E00E943307809198019091990149
:1014000064E041E00E94330780919601909197013A
:1014100062E040E00E94E70782E30E942F0B82E334
:101420000E942F0B88E20E942F0B8EE00E942F0B50
:1014300081E00E942F0B2E960FB6F894DEBF0FBEF0
:10144000CDBFCF91DF910895DF93CF93CDB7DEB7B6
:101450006D970FB6F894DEBF0FBECDBF8D8F809114
:1014600096019091970163E041E00E94E70780E0D8
:1014700090E0A0E8BFE3898F9A8FAB8FBC8F698D16
:101480007A8D8B8D9C8D20E030E04AE755E40E94F8
:101490001F02DC01CB018D8B9E8BAF8BB88F6D89CA
:1014A0007E898F89988D20E030E040E85FE30E94DC
:1014B000250488232CF481E090E09C8B8B8B3FC02B
:1014C0006D897E898F89988D20E03FEF4FE757E443
:1014D0000E94C50318164CF5698D7A8D8B8D9C8DF5
:1014E00020E030E040E251E40E941F02DC01CB0129
:1014F000BC01CD010E944900DC01CB019C8B8B8B90
:101500000FC080E991E09A8B898B89899A8901972C
:10151000F1F79A8B898B8B899C8901979C8B8B8B9C
:101520008B899C89009769F714C06D897E898F89A2
:10153000988D0E944900DC01CB019C8B8B8B8B89A1
:101540009C89988B8F878F8598890197F1F7988B65
:101550008F87809196019091970162E040E00E9410
:10156000E70780E090E0A0E8BFE38B879C87AD872A
:10157000BE876B857C858D859E8520E030E04AE7BF
:1015800055E40E941F02DC01CB018F839887A98755
:10159000BA876F81788589859A8520E030E040E8B8
:1015A0005FE30E94250488232CF481E090E09E8371
:1015B0008D833FC06F81788589859A8520E03FEFD4
:1015C0004FE757E40E94C50318164CF56B857C85E0
:1015D0008D859E8520E030E040E251E40E941F02AC
:1015E000DC01CB01BC01CD010E944900DC01CB0133
:1015F0009E838D830FC080E991E09C838B838B81D8
:101600009C810197F1F79C838B838D819E8101974B
:101610009E838D838D819E81009769F714C06F81B1
:10162000788589859A850E944900DC01CB019E83DB
:101630008D838D819E819A83898389819A81019787
:10164000F1F79A8389838D8D0E94AF0D6D960FB649
:10165000F894DEBF0FBECDBFCF91DF910895DF9329
:10166000CF93CDB7DEB76D970FB6F894DEBF0FBE40
:10167000CDBF8D8F809196019091970163E040E0FE
:101680000E94E70780E090E0A0E8BFE3898F9A8F8F
:10169000AB8FBC8F698D7A8D8B8D9C8D20E030E077
:1016A0004AE755E40E941F02DC01CB018D8B9E8B23
:1016B000AF8BB88F6D897E898F89988D20E030E05F
:1016C00040E85FE30E94250488232CF481E090E049
:1016D0009C8B8B8B3FC06D897E898F89988D20E094
:1016E0003FEF4FE757E40E94C50318164CF5698D8C
:1016F0007A8D8B8D9C8D20E030E040E251E40E9499
:101700001F02DC01CB01BC01CD010E944900DC01BC
:10171000CB019C8B8B8B0FC080E991E09A8B898BDE
:1017200089899A890197F1F79A8B898B8B899C8992
:1017300001979C8B8B8B8B899C89009769F714C0D0
:101740006D897E898F89988D0E944900DC01CB01CB
:101750009C8B8B8B8B899C89988B8F878F859889A5
:101760000197F1F7988B8F8780919601909197015F
:1017700062E040E00E94E70780E090E0A0E8BFE37D
:101780008B879C87AD87BE876B857C858D859E8585
:1017900020E030E04AE755E40E941F02DC01CB0163
:1017A0008F839887A987BA876F81788589859A857D
:1017B00020E030E040E85FE30E94250488232CF419
:1017C00081E090E09E838D833FC06F81788589851D
:1017D0009A8520E03FEF4FE757E40E94C5031816B3
:1017E0004CF56B857C858D859E8520E030E040E260
:1017F00051E40E941F02DC01CB01BC01CD010E941B
:101800004900DC01CB019E838D830FC080E991E00C
:101810009C838B838B819C810197F1F79C838B83C5
:101820008D819E8101979E838D838D819E810097FE
:1018300069F714C06F81788589859A850E9449006F
:10184000DC01CB019E838D838D819E819A83898368
:1018500089819A810197F1F79A8389838D8D0E94FE
:10186000AF0D6D960FB6F894DEBF0FBECDBFCF9112
:10187000DF910895DF93CF9300D00F92CDB7DEB7FD
:101880009B838A830EC08981282F30E08A819B81C7
:10189000FC01E20FF31F80810E94240A89818F5F7F
:1018A00089838981282F30E08A819B81FC01E20FA6
:1018B000F31F8081882339F70F900F900F90CF91FD
:1018C000DF910895DF93CF93CDB7DEB76C970FB656
:1018D000F894DEBF0FBECDBF809196019091970125
:1018E00063E040E00E94E70780E090E0A0E8BFE30B
:1018F000898F9A8FAB8FBC8F698D7A8D8B8D9C8DE4
:1019000020E030E04AE755E40E941F02DC01CB01F1
:101910008D8B9E8BAF8BB88F6D897E898F89988DCB
:1019200020E030E040E85FE30E94250488232CF4A7
:1019300081E090E09C8B8B8B3FC06D897E898F8985
:10194000988D20E03FEF4FE757E40E94C50318163B
:101950004CF5698D7A8D8B8D9C8D20E030E040E2D6
:1019600051E40E941F02DC01CB01BC01CD010E94A9
:101970004900DC01CB019C8B8B8B0FC080E991E08F
:101980009A8B898B89899A890197F1F79A8B898B30
:101990008B899C8901979C8B8B8B8B899C89009769
:1019A00069F714C06D897E898F89988D0E944900DE
:1019B000DC01CB019C8B8B8B8B899C89988B8F87CF
:1019C0008F8598890197F1F7988B8F878091960181
:1019D0009091970162E040E00E94E70780E090E08C
:1019E000A0E8BFE38B879C87AD87BE876B857C852E
:1019F0008D859E8520E030E04AE755E40E941F0275
:101A0000DC01CB018F839887A987BA876F8178859E
:101A100089859A8520E030E040E85FE30E94250454
:101A200088232CF481E090E09E838D833FC06F81FA
:101A3000788589859A8520E03FEF4FE757E40E943B
:101A4000C50318164CF56B857C858D859E8520E039
:101A500030E040E251E40E941F02DC01CB01BC01F6
:101A6000CD010E944900DC01CB019E838D830FC014
:101A700080E991E09C838B838B819C810197F1F7B6
:101A80009C838B838D819E8101979E838D838D8125
:101A90009E81009769F714C06F81788589859A8542
:101AA0000E944900DC01CB019E838D838D819E8144
:101AB0009A83898389819A810197F1F79A8389832F
:101AC00081E00E94AF0D6C960FB6F894DEBF0FBE9A
:101AD000CDBFCF91DF910895DF93CF9300D000D099
:101AE0000F92CDB7DEB78A836B8319828A81282F44
:101AF00030E03D832C838C819D8181309105C1F044
:101B00002C813D81223031052CF48C819D81009700
:101B100061F019C02C813D812230310569F08C8142
:101B20009D818330910561F00EC08B8189830BC04C
:101B30008B81805C898307C08B81805F898303C030
:101B40008B81805B8983898180680E942F0B0F9035
:101B50000F900F900F900F90CF91DF910895DF932A
:101B6000CF93CDB7DEB7E9970FB6F894DEBF0FBEBF
:101B7000CDBF89AF209198013091990189AD482F4F
:101B8000441F4427441FC90164E00E94E7072091D5
:101B900098013091990189AD8295869586958370DB
:101BA000482F4170C90162E00E94E7072091980127
:101BB0003091990189AD829586958770482F417043
:101BC000C90161E00E94E7072091980130919901D5
:101BD00089AD82958F70482F4170C90160E00E94E5
:101BE000E707809196019091970162E041E00E94A1
:101BF000E70780E090E0A0E8BFE38DAB9EABAFAB22
:101C0000B8AF6DA97EA98FA998AD20E030E04AE772
:101C100055E40E941F02DC01CB0189AB9AABABAB50
:101C2000BCAB69A97AA98BA99CA920E030E040E867
:101C30005FE30E94250488232CF481E090E098ABB8
:101C40008FA73FC069A97AA98BA99CA920E03FEF83
:101C50004FE757E40E94C50318164CF56DA97EA9FD
:101C60008FA998AD20E030E040E251E40E941F02CD
:101C7000DC01CB01BC01CD010E944900DC01CB019C
:101C800098AB8FA70FC080E991E09EA78DA78DA587
:101C90009EA50197F1F79EA78DA78FA598A90197FB
:101CA00098AB8FA78FA598A9009769F714C069A969
:101CB0007AA98BA99CA90E944900DC01CB0198ABB1
:101CC0008FA78FA598A99CA78BA78BA59CA50197EB
:101CD000F1F79CA78BA7809196019091970162E004
:101CE00040E00E94E70780E090E0A0EAB0E48FA324
:101CF00098A7A9A7BAA76FA178A589A59AA520E05A
:101D000030E04AE755E40E941F02DC01CB018BA3BF
:101D10009CA3ADA3BEA36BA17CA18DA19EA120E03D
:101D200030E040E85FE30E94250488232CF481E042
:101D300090E09AA389A33FC06BA17CA18DA19EA135
:101D400020E03FEF4FE757E40E94C50318164CF51B
:101D50006FA178A589A59AA520E030E040E251E482
:101D60000E941F02DC01CB01BC01CD010E94490091
:101D7000DC01CB019AA389A30FC080E991E098A36D
:101D80008F8F8F8D98A10197F1F798A38F8F89A1DD
:101D90009AA101979AA389A389A19AA1009769F7AB
:101DA00014C06BA17CA18DA19EA10E944900DC0101
:101DB000CB019AA389A389A19AA19E8F8D8F8D8D26
:101DC0009E8D0197F1F79E8F8D8F20919801309114
:101DD000990189AD869586958695482F4170C901F0
:101DE00064E00E94E707209198013091990189AD44
:101DF00086958695482F4170C90162E00E94E707E9
:101E0000209198013091990189AD8695482F4170B4
:101E1000C90161E00E94E707209198013091990182
:101E200089AD482F4170C90160E00E94E7078091A9
:101E300096019091970162E041E00E94E70780E0FF
:101E400090E0A0E8BFE3898F9A8FAB8FBC8F698D3C
:101E50007A8D8B8D9C8D20E030E04AE755E40E941E
:101E60001F02DC01CB018D8B9E8BAF8BB88F6D89F0
:101E70007E898F89988D20E030E040E85FE30E9402
:101E8000250488232CF481E090E09C8B8B8B3FC051
:101E90006D897E898F89988D20E03FEF4FE757E469
:101EA0000E94C50318164CF5698D7A8D8B8D9C8D1B
:101EB00020E030E040E251E40E941F02DC01CB014F
:101EC000BC01CD010E944900DC01CB019C8B8B8BB6
:101ED0000FC080E991E09A8B898B89899A89019753
:101EE000F1F79A8B898B8B899C8901979C8B8B8BC3
:101EF0008B899C89009769F714C06D897E898F89C9
:101F0000988D0E944900DC01CB019C8B8B8B8B89C7
:101F10009C89988B8F878F8598890197F1F7988B8B
:101F20008F87809196019091970162E040E00E9436
:101F3000E70780E090E0A0EAB0E48B879C87AD875C
:101F4000BE876B857C858D859E8520E030E04AE7E5
:101F500055E40E941F02DC01CB018F839887A9877B
:101F6000BA876F81788589859A8520E030E040E8DE
:101F70005FE30E94250488232CF481E090E09E8397
:101F80008D833FC06F81788589859A8520E03FEFFA
:101F90004FE757E40E94C50318164CF56B857C8506
:101FA0008D859E8520E030E040E251E40E941F02D2
:101FB000DC01CB01BC01CD010E944900DC01CB0159
:101FC0009E838D830FC080E991E09C838B838B81FE
:101FD0009C810197F1F79C838B838D819E81019772
:101FE0009E838D838D819E81009769F714C06F81D8
:101FF000788589859A850E944900DC01CB019E8302
:102000008D838D819E819A83898389819A810197AD
:10201000F1F79A838983E9960FB6F894DEBF0FBE75
:10202000CDBFCF91DF910895DF93CF9300D000D043
:10203000CDB7DEB79B838A836C838C818830F8F4BC
:102040008C81882F90E00896880F991F880F991F20
:10205000880F991F0E942F0B19820EC08981282F8B
:1020600030E08A819B81FC01E20FF31F80810E9496
:10207000240A89818F5F89838981883078F30F9062
:102080000F900F900F90CF91DF910895DF93CF9332
:102090000F92CDB7DEB78983898180580E942F0BBC
:1020A00089810E94240A0F90CF91DF910895DF93D8
:1020B000CF9300D000D000D0CDB7DEB78A8319828D
:1020C00080E690E00E943A0C8A8182958F70898325
:1020D0008981282F30E03E832D838D819E818B3036
:1020E000910569F12D813E812C30310554F48D81AB
:1020F0009E819923BCF12D813E812A303105B4F0B7
:102100001AC08D819E818D30910509F12D813E810E
:102110002D303105C4F08D819E818E309105D9F02E
:102120002D813E812F303105D1F01CC08981805D29
:102130000E94240A17C081E40E94240A13C082E48A
:102140000E94240A0FC083E40E94240A0BC084E486
:102150000E94240A07C085E40E94240A03C086E482
:102160000E94240A8A818F7089838981282F30E018
:102170003C832B838B819C818B30910569F12B8172
:102180003C812C30310554F48B819C819923BCF126
:102190002B813C812A303105B4F01AC08B819C819F
:1021A0008D30910509F12B813C812D303105C4F032
:1021B0008B819C818E309105D9F02B813C812F3011
:1021C0003105D1F01CC08981805D0E94240A17C0AE
:1021D00081E40E94240A13C082E40E94240A0FC0F2
:1021E00083E40E94240A0BC084E40E94240A07C0EE
:1021F00085E40E94240A03C086E40E94240A2696ED
:102200000FB6F894DEBF0FBECDBFCF91DF9108951A
:10221000DF93CF9300D0CDB7DEB78A8383E690E01B
:102220000E943A0C198218C08A81482F50E0898197
:10223000282F30E087E090E0821B930B9A0102C0C8
:10224000359527958A95E2F7C9018170805D0E94D6
:10225000240A89818F5F89838981883028F30F90D0
:102260000F90CF91DF910895DF93CF93CDB7DEB775
:102270002A970FB6F894DEBF0FBECDBF6F83788765
:1022800089879A871E821D828F819885A985BA8544
:1022900089839A83AB83BC836F81788589859A858E
:1022A0000E945504DC01CB01AA2797FDA095BA2F07
:1022B000BC01CD010E94AC118EE20E94240A69810A
:1022C0007A818B819C8120E030E040E050E00E94E8
:1022D000250488234CF489819A81AB81BC81B05854
:1022E00089839A83AB83BC831E822AC069817A81E9
:1022F0008B819C8120E030E040E251E40E941F028B
:10230000DC01CB0189839A83AB83BC8369817A81A9
:102310008B819C810E945504DC01CB012AE030E0D6
:1023200040E050E0BC01CD010E94AA1FDC01CB01BE
:102330008D838D81805D0E94240A8E818F5F8E83C4
:102340008E81833098F22A960FB6F894DEBF0FBEC6
:10235000CDBFCF91DF910895DF93CF93CDB7DEB797
:102360006C970FB6F894DEBF0FBECDBF698F7A8F22
:102370008B8F9C8F84E1FE013596DF01982F1D9293
:102380009A95E9F71B82898D9A8D9A838983898131
:102390009A81009709F45DC089819A819923C4F4D8
:1023A0008DE20E94240A89819A81909581959F4FA0
:1023B0009A8389830DC08B818F5F8B8389819A81FA
:1023C0002AE030E0B9010E94751FCB019A8389830E
:1023D00089819A811816190674F3898D9A8D9A83CA
:1023E000898389819A81181619063CF089819A811E
:1023F000909581959F4F9A8389838B8181508C839F
:1024000020C08C81E82FFF27E7FDF09589819A8114
:102410002AE030E0B9010E94751F805D282FCE01AF
:102420000596E80FF91F208389819A812AE030E020
:10243000B9010E94751FCB019A8389838C818150D9
:102440008C838C818823ECF6CE0105960E943A0C91
:1024500003C080E30E94240A6C960FB6F894DEBF96
:102460000FBECDBFCF91DF910895DF93CF9300D002
:1024700000D0CDB7DEB79A838983E981FA81848160
:10248000282F30E03C832B838B819C818130910508
:1024900009F441C02B813C81223031052CF48B8121
:1024A0009C81009771F0A8C02B813C8122303105BE
:1024B00009F455C08B819C818330910509F479C062
:1024C0009BC0E3E5F0E0808180688083A3E5B0E015
:1024D000E981FA818081869581708170982F92952B
:1024E000990F907E8C918F7D892B8C93A3E5B0E022
:1024F000E981FA81808181708170982F9295907F17
:102500008C918F7E892B8C93ACE5B0E0E981FA81C8
:1025100086818C9371C0E3E5F0E080818F778083C2
:10252000A3E5B0E0E981FA818281869581708170AE
:10253000982F9295990F907E8C918F7D892B8C93FB
:10254000A3E5B0E0E981FA81828181708170982FE2
:102550009295907F8C918F7E892B8C934DC0E3E573
:10256000F0E0808180688083A3E5B0E0E981FA81B2
:102570008081869581708170982F9295990F907EB9
:102580008C918F7D892B8C93A3E5B0E0E981FA8152
:10259000808181708170982F9295907F8C918F7E31
:1025A000892B8C93ACE5B0E0E981FA8186818C932C
:1025B00023C0E3E5F0E080818F778083A3E5B0E07E
:1025C000E981FA818181869581708170982F929539
:1025D000990F907E8C918F7D892B8C93A3E5B0E031
:1025E000E981FA81818181708170982F9295907F25
:1025F0008C918F7E892B8C93A2E5B0E0E981FA81E2
:1026000085818C93A3E5B0E0E981FA818481869588
:1026100081708170982F990F990F990F8C91877FF6
:10262000892B8C93A3E5B0E0E981FA8184818170E4
:102630008170982F9295990F990F907C8C918F7B38
:10264000892B8C930F900F900F900F90CF91DF916B
:102650000895DF93CF9300D0CDB7DEB79A838983F7
:10266000A3E5B0E0E3E5F0E08081982F987FE98171
:10267000FA818381892B8C930F900F90CF91DF91FA
:102680000895DF93CF9300D0CDB7DEB79A838983C7
:10269000A3E5B0E0E3E5F0E08081887F8C930F90C4
:1026A0000F90CF91DF910895DF93CF93CDB7DEB731
:1026B000E2E5F0E08081CF91DF910895DF93CF9341
:1026C00000D000D000D0CDB7DEB79A8389834B838A
:1026D0005C836D837E83E981FA818481882F90E019
:1026E000009709F03FC08B819C81AD81BE8128EEAF
:1026F00033E040E050E0BC01CD010E94421FDC010C
:10270000CB01072E7EE0B695A795979587957A958C
:10271000D1F7702D8093B2019093B301A093B401CF
:10272000B093B5018B819C81AD81BE8128EE33E0F1
:1027300040E050E0BC01CD010E94421FDC01CB0112
:10274000689415F8B695A795979587951694D1F73F
:102750008093B60189819A810E94BB1389819A81F5
:102760000E94291326960FB6F894DEBF0FBECDBF88
:10277000CF91DF910895DF93CF9300D0CDB7DEB72F
:102780009A838983E981FA818481882331F4E9E598
:10279000F0E08081816080830AC0E981FA818481D0
:1027A000823029F4E9E5F0E08081826080830F9037
:1027B0000F90CF91DF910895DF93CF9300D0CDB7E5
:1027C000DEB79A838983E981FA818481882331F491
:1027D000E9E5F0E080818E7F80830AC0E981FA819B
:1027E0008481823029F4E9E5F0E080818D7F808367
:1027F0000F900F90CF91DF910895DF93CF9300D08A
:10280000CDB7DEB79A83898389819A819093B80185
:102810008093B7010F900F90CF91DF910895DF93D0
:10282000CF9300D00F92CDB7DEB79A8389836B83A5
:10283000ECE5F0E08B81882F90E0982F882724E644
:1028400030E0B9010E94611FCB0180830F900F908F
:102850000F90CF91DF9108951F920F920FB60F92B4
:1028600011242F933F934F935F936F937F938F9395
:102870009F93AF93BF93EF93FF93DF93CF93CDB726
:10288000DEB78091B2019091B301A091B401B091F3
:10289000B5010197A109B1098093B2019093B301E9
:1028A000A093B401B093B5018091B2019091B301AE
:1028B000A091B401B091B5010097A105B10531F423
:1028C000E2E5F0E08091B601819580838091B701C7
:1028D0009091B8010097A9F08091B2019091B30155
:1028E000A091B401B091B5018F3F2FEF92072FEF68
:1028F000A2072FEFB20729F4E091B701F091B801D8
:102900000995CF91DF91FF91EF91BF91AF919F9189
:102910008F917F916F915F914F913F912F910F9088
:102920000FBE0F901F9018951F920F920FB60F9227
:1029300011242F933F934F935F936F937F938F93C4
:102940009F93AF93BF93EF93FF93DF93CF93CDB755
:10295000DEB78091B7019091B801009729F0E0911E
:10296000B701F091B8010995CF91DF91FF91EF91F7
:10297000BF91AF919F918F917F916F915F914F9197
:102980003F912F910F900FBE0F901F901895DF93DE
:10299000CF9300D000D0CDB7DEB79A838983E98189
:1029A000FA818481282F30E03C832B838B819C81AA
:1029B0008730910509F415C32B813C8128303105FE
:1029C0004CF58B819C818330910509F47AC12B8170
:1029D0003C81243031058CF48B819C8181309105C0
:1029E00009F4A7C02B813C81223031050CF005C1D0
:1029F0008B819C810097C9F113C62B813C812530C6
:102A0000310509F426C28B819C81863091050CF03A
:102A100084C2BBC12B813C812B30310509F471C4C8
:102A20008B819C818C3091056CF42B813C81293009
:102A3000310509F49EC38B819C818A3091050CF08D
:102A4000FCC333C32B813C812E30310509F421C5F1
:102A50008B819C818F30910509F47FC52B813C814E
:102A60002C30310509F4B1C4DBC5EFE4F0E080811E
:102A7000877F8083EFE4F0E080818B7F8083AFE409
:102A8000B0E0E981FA81808186958170982F9795D1
:102A9000992797958C918F77892B8C93AFE4B0E031
:102AA000E981FA81808181708170982F9295990FC8
:102AB000990F907C8C918F7B892B8C93AFE4B0E045
:102AC000E981FA818081869581708170982F929535
:102AD000990F907E8C918F7D892B8C93AFE4B0E021
:102AE000E981FA81808181708170982F9295907F21
:102AF0008C918F7E892B8C93ABE4B0E0E981FA81D5
:102B0000878190858C93AAE4B0E0E981FA8187817E
:102B100090858C93A9E4B0E0E981FA818781908562
:102B20008C93A8E4B0E0E981FA81878190858C9349
:102B300077C5EFE4F0E08081877F8083EFE4F0E009
:102B400080818B7F8083AFE4B0E0E981FA8182816C
:102B500086958170982F9795992797958C918F7767
:102B6000892B8C93AFE4B0E0E981FA818281817096
:102B70008170982F9295990F990F907C8C918F7BF3
:102B8000892B8C93AFE4B0E0E981FA81828186954C
:102B900081708170982F9295990F907E8C918F7D86
:102BA000892B8C93AFE4B0E0E981FA818281817056
:102BB0008170982F9295907F8C918F7E892B8C932A
:102BC000ABE4B0E0E981FA81878190858C93AAE437
:102BD000B0E0E981FA81878190858C93A9E4B0E027
:102BE000E981FA81878190858C93A8E4B0E0E9813E
:102BF000FA81878190858C9313C5EFE4F0E08081A2
:102C0000877F8083EFE4F0E080818B7F8083AFE477
:102C1000B0E0E981FA81828186958170982F97953D
:102C2000992797958C918F77892B8C93AFE4B0E09F
:102C3000E981FA81828181708170982F9295990F34
:102C4000990F907C8C918F7B892B8C93AFE4B0E0B3
:102C5000E981FA818281869581708170982F9295A1
:102C6000990F907E8C918F7D892B8C93AFE4B0E08F
:102C7000E981FA81828181708170982F9295907F8D
:102C80008C918F7E892B8C93ABE4B0E0E981FA8143
:102C9000878190858C93AAE4B0E0E981FA818781ED
:102CA00090858C93A9E4B0E0E981FA8187819085D1
:102CB0008C93A8E4B0E0E981FA81878190858C93B8
:102CC000AFC4EFE4F0E08081877F8083EFE4F0E041
:102CD00080818B7F8083AFE4B0E0E981FA818281DB
:102CE00086958170982F9795992797958C918F77D6
:102CF000892B8C93AFE4B0E0E981FA818281817005
:102D00008170982F9295990F990F907C8C918F7B61
:102D1000892B8C93AFE4B0E0E981FA8182818695BA
:102D200081708170982F9295990F907E8C918F7DF4
:102D3000892B8C93AFE4B0E0E981FA8182818170C4
:102D40008170982F9295907F8C918F7E892B8C9398
:102D5000ABE4B0E0E981FA81878190858C93AAE4A5
:102D6000B0E0E981FA81878190858C93A9E4B0E095
:102D7000E981FA81878190858C93A8E4B0E0E981AC
:102D8000FA81878190858C934BC4EFE4F0E08081D9
:102D9000877F8083EFE4F0E080818B7F8083AFE4E6
:102DA000B0E0E981FA81808186958170982F9795AE
:102DB000992797958C918F77892B8C93AFE4B0E00E
:102DC000E981FA81808181708170982F9295990FA5
:102DD000990F907C8C918F7B892B8C93AFE4B0E022
:102DE000E981FA818081869581708170982F929512
:102DF000990F907E8C918F7D892B8C93AFE4B0E0FE
:102E0000E981FA81808181708170982F9295907FFD
:102E10008C918F7E892B8C93ABE4B0E0E981FA81B1
:102E2000878190858C93AAE4B0E0E981FA8187815B
:102E300090858C93A9E4B0E0E981FA81878190853F
:102E40008C93A8E4B0E0E981FA81878190858C9326
:102E5000E7C3EFE4F0E08081877F8083EFE4F0E078
:102E600080818B7F8083AFE4B0E0E981FA8181814A
:102E700086958170982F9795992797958C918F7744
:102E8000892B8C93AFE4B0E0E981FA818181817074
:102E90008170982F9295990F990F907C8C918F7BD0
:102EA000892B8C93AFE4B0E0E981FA81818186952A
:102EB00081708170982F9295990F907E8C918F7D63
:102EC000892B8C93AFE4B0E0E981FA818181817034
:102ED0008170982F9295907F8C918F7E892B8C9307
:102EE000ABE4B0E0E981FA81878190858C93AAE414
:102EF000B0E0E981FA81878190858C93A9E4B0E004
:102F0000E981FA81878190858C93A8E4B0E0E9811A
:102F1000FA81878190858C9383C3EFE4F0E0808110
:102F2000877F8083EFE4F0E080818B7F8083AFE454
:102F3000B0E0E981FA81818186958170982F97951B
:102F4000992797958C918F77892B8C93AFE4B0E07C
:102F5000E981FA81818181708170982F9295990F12
:102F6000990F907C8C918F7B892B8C93AFE4B0E090
:102F7000E981FA818181869581708170982F92957F
:102F8000990F907E8C918F7D892B8C93AFE4B0E06C
:102F9000E981FA81818181708170982F9295907F6B
:102FA0008C918F7E892B8C93ABE4B0E0E981FA8120
:102FB000878190858C93AAE4B0E0E981FA818781CA
:102FC00090858C93A9E4B0E0E981FA8187819085AE
:102FD0008C93A8E4B0E0E981FA81878190858C9395
:102FE0001FC3EFE4F0E08081877F8083EFE4F0E0AF
:102FF00080818B7F8083AFE4B0E0E981FA818181B9
:1030000086958170982F9795992797958C918F77B2
:10301000892B8C93AFE4B0E0E981FA8181818170E2
:103020008170982F9295990F990F907C8C918F7B3E
:10303000892B8C93AFE4B0E0E981FA818181869598
:1030400081708170982F9295990F907E8C918F7DD1
:10305000892B8C93AFE4B0E0E981FA8181818170A2
:103060008170982F9295907F8C918F7E892B8C9375
:10307000ABE4B0E0E981FA81878190858C93AAE482
:10308000B0E0E981FA81878190858C93A9E4B0E072
:10309000E981FA81878190858C93A8E4B0E0E98189
:1030A000FA81878190858C93BBC2EFE4F0E0808148
:1030B000877F8083EFE4F0E080818B7F8083AFE4C3
:1030C000B0E0E981FA81828186958170982F979589
:1030D000992797958C918F77892B8C93AFE4B0E0EB
:1030E000E981FA81828181708170982F9295990F80
:1030F000990F907C8C918F7B892B8C93AFE4B0E0FF
:10310000E981FA818281869581708170982F9295EC
:10311000990F907E8C918F7D892B8C93AFE4B0E0DA
:10312000E981FA81828181708170982F9295907FD8
:103130008C918F7E892B8C93ABE4B0E0E981FA818E
:10314000878190858C93AAE4B0E0E981FA81878138
:1031500090858C93A9E4B0E0E981FA81878190851C
:103160008C93A8E4B0E0E981FA81878190858C9303
:1031700057C2EFE4F0E08081877F8083EFE4F0E0E6
:1031800080818B7F8083AFE4B0E0E981FA81828126
:1031900086958170982F9795992797958C918F7721
:1031A000892B8C93AFE4B0E0E981FA818281817050
:1031B0008170982F9295990F990F907C8C918F7BAD
:1031C000892B8C93AFE4B0E0E981FA818281869506
:1031D00081708170982F9295990F907E8C918F7D40
:1031E000892B8C93AFE4B0E0E981FA818281817010
:1031F0008170982F9295907F8C918F7E892B8C93E4
:10320000ABE4B0E0E981FA81878190858C93AAE4F0
:10321000B0E0E981FA81878190858C93A9E4B0E0E0
:10322000E981FA81878190858C93A8E4B0E0E981F7
:10323000FA81878190858C93F3C1EFE4F0E080817F
:10324000877F8083EFE4F0E080818B7F8083AFE431
:10325000B0E0E981FA81828186958170982F9795F7
:10326000992797958C918F77892B8C93AFE4B0E059
:10327000E981FA81828181708170982F9295990FEE
:10328000990F907C8C918F7B892B8C93AFE4B0E06D
:10329000E981FA818281869581708170982F92955B
:1032A000990F907E8C918F7D892B8C93AFE4B0E049
:1032B000E981FA81828181708170982F9295907F47
:1032C0008C918F7E892B8C93ABE4B0E0E981FA81FD
:1032D000878190858C93AAE4B0E0E981FA818781A7
:1032E00090858C93A9E4B0E0E981FA81878190858B
:1032F0008C93A8E4B0E0E981FA81878190858C9372
:103300008FC1EFE4F0E08081877F8083EFE4F0E01D
:1033100080818B7F8083AFE4B0E0E981FA81828194
:1033200086958170982F9795992797958C918F778F
:10333000892B8C93AFE4B0E0E981FA8182818170BE
:103340008170982F9295990F990F907C8C918F7B1B
:10335000892B8C93AFE4B0E0E981FA818281869574
:1033600081708170982F9295990F907E8C918F7DAE
:10337000892B8C93AFE4B0E0E981FA81828181707E
:103380008170982F9295907F8C918F7E892B8C9352
:10339000ABE4B0E0E981FA81878190858C93AAE45F
:1033A000B0E0E981FA81878190858C93A9E4B0E04F
:1033B000E981FA81878190858C93A8E4B0E0E98166
:1033C000FA81878190858C932BC1EFE4F0E08081B6
:1033D000877F8083EFE4F0E080818B7F8083AFE4A0
:1033E000B0E0E981FA81808186958170982F979568
:1033F000992797958C918F77892B8C93AFE4B0E0C8
:10340000E981FA81808181708170982F9295990F5E
:10341000990F907C8C918F7B892B8C93AFE4B0E0DB
:10342000E981FA818081869581708170982F9295CB
:10343000990F907E8C918F7D892B8C93AFE4B0E0B7
:10344000E981FA81808181708170982F9295907FB7
:103450008C918F7E892B8C93ABE4B0E0E981FA816B
:10346000878190858C93AAE4B0E0E981FA81878115
:1034700090858C93A9E4B0E0E981FA8187819085F9
:103480008C93A8E4B0E0E981FA81878190858C93E0
:10349000C7C0EFE4F0E08081877F8083EFE4F0E055
:1034A00080818B7F8083AFE4B0E0E981FA81818104
:1034B00086958170982F9795992797958C918F77FE
:1034C000892B8C93AFE4B0E0E981FA81818181702E
:1034D0008170982F9295990F990F907C8C918F7B8A
:1034E000892B8C93AFE4B0E0E981FA8181818695E4
:1034F00081708170982F9295990F907E8C918F7D1D
:10350000892B8C93AFE4B0E0E981FA8181818170ED
:103510008170982F9295907F8C918F7E892B8C93C0
:10352000ABE4B0E0E981FA81878190858C93AAE4CD
:10353000B0E0E981FA81878190858C93A9E4B0E0BD
:10354000E981FA81878190858C93A8E4B0E0E981D4
:10355000FA81878190858C9363C0EFE4F0E08081ED
:10356000877F8083EFE4F0E080818B7F8083AFE40E
:10357000B0E0E981FA81818186958170982F9795D5
:10358000992797958C918F77892B8C93AFE4B0E036
:10359000E981FA81818181708170982F9295990FCC
:1035A000990F907C8C918F7B892B8C93AFE4B0E04A
:1035B000E981FA818181869581708170982F929539
:1035C000990F907E8C918F7D892B8C93AFE4B0E026
:1035D000E981FA81818181708170982F9295907F25
:1035E0008C918F7E892B8C93ABE4B0E0E981FA81DA
:1035F000878190858C93AAE4B0E0E981FA81878184
:1036000090858C93A9E4B0E0E981FA818781908567
:103610008C93A8E4B0E0E981FA81878190858C934E
:10362000ACE4B0E0E981FA81858196818C93ADE4C8
:10363000B0E0E981FA8185819681892F99278C9361
:10364000AFE4B0E0E981FA8184818170982F9170B4
:103650008C918E7F892B8C93AFE4B0E0E981FA8165
:103660008481869581708170982F990F8C918D7FC0
:10367000892B8C93AEE4B0E0E981FA818481869550
:10368000869581708170982F990F990F990F8C9161
:10369000877F892B8C93AEE4B0E0E981FA81848145
:1036A00086958695869581708170982F9295907FEA
:1036B0008C918F7E892B8C930F900F900F900F9091
:1036C000CF91DF910895DF93CF9300D0CDB7DEB7D0
:1036D0009A838983AEE4B0E0EEE4F0E08081982F35
:1036E000987FE981FA818381892B8C930F900F90C9
:1036F000CF91DF910895DF93CF9300D0CDB7DEB7A0
:103700009A838983AEE4B0E0EEE4F0E08081887FC4
:103710008C930F900F90CF91DF910895DF93CF930B
:1037200000D0CDB7DEB71A821982EDE4F0E08081D7
:10373000882F90E09A83898389819A81982F88279E
:103740009A838983ECE4F0E08081282F30E089813E
:103750009A81822B932B9A83898389819A810F90F6
:103760000F90CF91DF910895DF93CF9300D000D0D9
:1037700000D0CDB7DEB79A8389834B835C836D839A
:103780007E83E981FA818481882F90E0009709F097
:103790004CC08B819C81AD81BE8128EE33E040E03E
:1037A00050E0BC01CD010E94421FDC01CB0120ECA6
:1037B0003FEF4FE350E0BC01CD010E94881FDA01CA
:1037C000C9018093B9019093BA01A093BB01B09352
:1037D000BC018B819C81AD81BE8128EE33E040E04D
:1037E00050E0BC01CD010E94421FDC01CB01689476
:1037F00015F8B695A795979587951694D1F72FEF5D
:103800003FEF40E050E0BC01CD010E94881FDC0189
:10381000CB019093BE018093BD0189819A810E9462
:103820001E1C89819A810E94631B26960FB6F8940C
:10383000DEBF0FBECDBFCF91DF910895DF93CF9351
:1038400000D0CDB7DEB79A838983E981FA8184817C
:10385000882329F4E9E5F0E08081846080830F907B
:103860000F90CF91DF910895DF93CF9300D0CDB724
:10387000DEB79A838983E981FA818481882329F4D8
:10388000E9E5F0E08081846080830F900F90CF9114
:10389000DF910895DF93CF9300D0CDB7DEB79A8341
:1038A000898389819A819093C0018093BF010F9091
:1038B0000F90CF91DF910895DF93CF9300D000D088
:1038C00000D0CDB7DEB79C838B837E836D831A8255
:1038D00019828D819E81CC01A0E0B0E02FEF3FEFF7
:1038E00040E050E0BC01CD010E94421FDC01CB0151
:1038F00024E630E040E050E0BC01CD010E94881F8A
:10390000DA01C9019A838983EAE4F0E0898180833E
:10391000EBE4F0E089819A81892F99278083E8E49C
:10392000F0E089818083E9E4F0E089819A81892F40
:103930009927808326960FB6F894DEBF0FBECDBFC1
:10394000CF91DF910895DF93CF93CDB7DEB7E6E453
:10395000F0E01082E7E4F0E01082E9E5F0E0808139
:1039600080628083EEE4F0E080818F778083EEE4F4
:10397000F0E0808180648083CF91DF910895DF93B0
:10398000CF93CDB7DEB7E6E4F0E01082E7E4F0E0F5
:103990001082E9E5F0E0808180628083EEE4F0E06F
:1039A00080818F778083EEE4F0E080818064808383
:1039B000CF91DF910895DF93CF93CDB7DEB7E6E4E3
:1039C000F0E01082E7E4F0E01082E9E5F0E08081C9
:1039D00080628083EEE4F0E080818F778083EEE484
:1039E000F0E0808180648083CF91DF910895DF9340
:1039F000CF9300D0CDB7DEB71A821982E7E4F0E0AA
:103A00008081882F90E09A83898389819A81982F79
:103A100088279A838983E6E4F0E08081282F30E0CC
:103A200089819A81822B932B9A83898389819A81B8
:103A30000F900F90CF91DF910895DF93CF930F9266
:103A4000CDB7DEB78983EEE4F0E0898181708170C3
:103A5000982F9295990F990F907C80818F7B892B5D
:103A600080830F90CF91DF910895DF93CF93CDB7EF
:103A7000DEB7EDE4F0E01082ECE4F0E01082CF91EC
:103A8000DF9108951F920F920FB60F9211242F937A
:103A90003F934F935F936F937F938F939F93AF93D6
:103AA000BF93EF93FF93DF93CF93CDB7DEB78091B2
:103AB000BF019091C0010097A9F08091B901909148
:103AC000BA01A091BB01B091BC018F3F2FEF9207CB
:103AD0002FEFA2072FEFB20729F4E091BF01F09179
:103AE000C0010995CF91DF91FF91EF91BF91AF9107
:103AF0009F918F917F916F915F914F913F912F9106
:103B00000F900FBE0F901F9018951F920F920FB637
:103B10000F9211242F933F934F935F936F937F9353
:103B20008F939F93AF93BF93EF93FF93DF93CF93C5
:103B3000CDB7DEB78091BF019091C001009729F009
:103B4000E091BF01F091C0010995CF91DF91FF9104
:103B5000EF91BF91AF919F918F917F916F915F9105
:103B60004F913F912F910F900FBE0F901F9018957E
:103B70001F920F920FB60F9211242F933F934F93E2
:103B80005F936F937F938F939F93AF93BF93EF93C5
:103B9000FF93DF93CF93CDB7DEB78091BF019091B4
:103BA000C001009729F0E091BF01F091C001099593
:103BB000CF91DF91FF91EF91BF91AF919F918F9145
:103BC0007F916F915F914F913F912F910F900FBE19
:103BD0000F901F9018951F920F920FB60F921124FD
:103BE0002F933F934F935F936F937F938F939F9305
:103BF000AF93BF93EF93FF93DF93CF93CDB7DEB730
:103C00008091BF019091C001009729F0E091BF0120
:103C1000F091C0010995CF91DF91FF91EF91BF9194
:103C2000AF919F918F917F916F915F914F913F9154
:103C30002F910F900FBE0F901F901895EF92FF924B
:103C40000F931F93DF93CF93CDB7DEB728970FB6AF
:103C5000F894DEBF0FBECDBF1D821E821F82188664
:103C600019821A821B821C8280919801909199017D
:103C700063E041E00E94330780919801909199019F
:103C800063E040E00E94E70780919C0190919D01D4
:103C900066E040E00E9433070E9417070E9458091F
:103CA00086E891E00E94351286E891E06BE40E947C
:103CB0000F148DE891E00E94C7148DE891E00E94F6
:103CC0001E1C81E09FE10E944A1C0E94DB1C8DE8C3
:103CD00091E00E94631B86E891E00E942913809185
:103CE000C1018430E1F78DE891E00E94341C0E940C
:103CF00025071092C10180E060E00E946C0D86E60D
:103D000090E00E943A0C2091C6013091C701809149
:103D1000C2019091C301A901481B590BCA019C0122
:103D200040E050E080E492E4AFE0B0E0BC01CD01BF
:103D30000E94AA1FDA01C9018D839E83AF83B887D1
:103D40002091C6013091C7018091C4019091C501B5
:103D5000A901481B590BCA01CC01A0E0B0E0BC018D
:103D6000CD010E94A9047B018C012091C6013091F4
:103D7000C7018091C2019091C301A901481B590B51
:103D8000CA01CC01A0E0B0E0BC01CD010E94A904B1
:103D90009B01AC01C801B7010E941903DC01CB01F2
:103DA000BC01CD0120E030E048EC52E40E941F024B
:103DB000DC01CB01BC01CD010E944900DC01CB013B
:103DC00089839A83AB83BC838D819E81AF81B885C3
:103DD000BC01CD010E94AC118EE690E00E943A0C2D
:103DE00081E060E00E946C0D82E790E00E943A0C56
:103DF00089819A81AB81BC81BC01CD010E94AC114B
:103E00006ECFDF93CF93CDB7DEB78091C1018F5FC7
:103E10008093C1018091C101813031F40E94351D30
:103E200080E00E941D1D2BC08091C101823051F4A1
:103E30000E94F71C9093C3018093C20181E00E940D
:103E40001D1D1DC08091C101833051F40E94F71CDB
:103E50009093C5018093C40180E00E941D1D0FC096
:103E60008091C101843059F40E94F71C9093C701DE
:103E70008093C6010E94351D81E00E941D1DCF91D7
:103E8000DF910895629FD001739FF001829FE00D42
:103E9000F11D649FE00DF11D929FF00D839FF00DC9
:103EA000749FF00D659FF00D9927729FB00DE11D75
:103EB000F91F639FB00DE11DF91FBD01CF01112452
:103EC0000895AA1BBB1B51E107C0AA1FBB1FA61761
:103ED000B70710F0A61BB70B881F991F5A95A9F7B3
:103EE00080959095BC01CD01089597FB092E07267A
:103EF0000AD077FD04D0E5DF06D000201AF47095D3
:103F000061957F4F0895F6F7909581959F4F08959D
:103F1000A1E21A2EAA1BBB1BFD010DC0AA1FBB1FCD
:103F2000EE1FFF1FA217B307E407F50720F0A21B3F
:103F3000B30BE40BF50B661F771F881F991F1A94AC
:103F400069F760957095809590959B01AC01BD01D6
:103F5000CF01089597FB092E05260ED057FD04D0FA
:103F6000D7DF0AD0001C38F4509540953095219544
:103F70003F4F4F4F5F4F0895F6F79095809570959E
:103F800061957F4F8F4F9F4F08952F923F924F9291
:103F90005F926F927F928F929F92AF92BF92CF92D9
:103FA000DF92EF92FF920F931F93CF93DF93CDB7E2
:103FB000DEB7CA1BDB0B0FB6F894DEBF0FBECDBF5A
:103FC00009942A88398848885F846E847D848C842B
:103FD0009B84AA84B984C884DF80EE80FD800C8134
:103FE0001B81AA81B981CE0FD11D0FB6F894DEBF17
:0C3FF0000FBECDBFED010895F894FFCF87
:103FFC0030780030620066726571203D20002048E8
:10400C007A0064757479203D2000000000000000E7
:10401C00000000010202030303030404040404046B
:10402C000404050505050505050505050505050536
:10403C000505060606060606060606060606060616
:10404C000606060606060606060606060606060604
:10405C0006060707070707070707070707070707E6
:10406C0007070707070707070707070707070707D4
:10407C0007070707070707070707070707070707C4
:10408C0007070707070707070707070707070707B4
:10409C000707080808080808080808080808080896
:1040AC000808080808080808080808080808080884
:1040BC000808080808080808080808080808080874
:1040CC000808080808080808080808080808080864
:1040DC000808080808080808080808080808080854
:1040EC000808080808080808080808080808080844
:1040FC000808080808080808080808080808080834
:10410C000808080808080808080808080808080823
:10411C00080800010204000300050300000003006E
:0E412C000500000000003900360033003000AE
:00000001FF
