:100000000C942A000C9434000C9434000C943400AA
:100010000C9434000C9434000C9434000C94340090
:100020000C9434000C9434000C9434000C94340080
:100030000C9434000C9434000C9434000C94340070
:100040000C9434000C9434000C9434000C94340060
:100050000C94340011241FBECFE5D8E0DEBFCDBF25
:100060000E94EB000C9400010C940000DF93CF93EE
:10007000CDB7DEB7AFE5B0E0EFE5F0E080818068B6
:100080008C93CF91DF910895DF93CF93CDB7DEB7F7
:10009000AFE5B0E0EFE5F0E080818F778C93CF9112
:1000A000DF910895DF93CF9300D00F92CDB7DEB7E5
:1000B0001B821A821982EBE2F0E082E08083EAE29E
:1000C000F0E088E180831B828AE88B83E0E4F0E043
:1000D0008B8180838FEC90E09A838983E0E4F0E069
:1000E00089819A81892F99278083E9E2F0E08981CB
:1000F00080830F900F900F90CF91DF910895DF9341
:10010000CF930F92CDB7DEB78983EBE2F0E0808129
:10011000882F90E0807290700097B9F3ECE2F0E0E5
:10012000898180830F90CF91DF910895DF93CF93E2
:1001300000D0CDB7DEB79A838983EBE2F0E080810F
:100140008823DCF7ECE2F0E08081E981FA818083AA
:100150000F900F90CF91DF910895DF93CF9300D050
:10016000CDB7DEB79A8389830AC0E981FA8180819D
:100170000E947F0089819A8101969A838983E9810F
:10018000FA818081882389F70F900F90CF91DF91BA
:100190000895DF93CF9300D0CDB7DEB79A838983DC
:1001A00089819A810E94960009C089819A8101966D
:1001B0009A83898389819A810E949600E981FA81D4
:1001C0008081833291F7E981FA8110820F900F903C
:1001D000CF91DF910895DF93CF93CDB7DEB76597C9
:1001E0000FB6F894DEBF0FBECDBF1D8A0E9452002D
:1001F000CE0145960E9496008D890E947F00F8CF1F
:04020000F894FFCFA0
:00000001FF
