:100000000C942A000C9447000C9447000C94470071
:100010000C9447000C9447000C9447000C94470044
:100020000C9447000C9447000C9447000C94470034
:100030000C9447000C941A010C9447000C94470050
:100040000C9447000C9447000C9447000C94470014
:100050000C94470011241FBECFE5D8E0DEBFCDBF12
:1000600010E0A0E6B0E0E4EFF2E002C005900D92EF
:10007000A437B107D9F710E0A4E7B0E001C01D92A2
:10008000A837B107E1F70E9454010C9478010C9451
:100090000000DF93CF93CDB7DEB7AFE5B0E0EFE57B
:1000A000F0E0808180688C93CF91DF910895DF9399
:1000B000CF93CDB7DEB7AFE5B0E0EFE5F0E08081FC
:1000C0008F778C93CF91DF910895DF93CF9300D0FA
:1000D0000F92CDB7DEB71B821A821982EBE2F0E0F5
:1000E00082E080831B8288E18B83EAE2F0E08B81EF
:1000F00080831B8286E88B83E0E4F0E08B81808341
:100100008FEC90E09A838983E0E4F0E089819A8122
:10011000892F99278083E9E2F0E0898180830F901D
:100120000F900F90CF91DF910895DF93CF930F92AF
:10013000CDB7DEB78983EBE2F0E08081882F90E0D5
:10014000807290700097B9F3ECE2F0E089818083CF
:100150000F90CF91DF910895DF93CF9300D0CDB76B
:10016000DEB79A838983EBE2F0E080818823DCF7B5
:10017000ECE2F0E08081E981FA8180830F900F90BA
:10018000CF91DF910895DF93CF9300D0CDB7DEB745
:100190009A8389830AC0E981FA8180810E9495004F
:1001A00089819A8101969A838983E981FA81808184
:1001B000882389F70F900F90CF91DF910895DF93F7
:1001C000CF9300D0CDB7DEB79A83898389819A8196
:1001D0000E94AC0009C089819A8101969A83898323
:1001E00089819A810E94AC00E981FA818081833201
:1001F00091F7E981FA8110820F900F90CF91DF91F2
:100200000895DF93CF9300D0CDB7DEB79A8389836B
:1002100089819A819093750080937400AAE2B0E07E
:10022000EAE2F0E0808180688C930F900F90CF918C
:10023000DF9108951F920F920FB60F9211242F9302
:100240003F934F935F936F937F938F939F93AF935E
:10025000BF93EF93FF93DF93CF93CDB7DEB7ECE27D
:10026000F0E0808180937600809174009091750019
:10027000009739F0E0917400F0917500809176005C
:100280000995CF91DF91FF91EF91BF91AF919F9130
:100290008F917F916F915F914F913F912F910F902F
:1002A0000FBE0F901F901895DF93CF93CDB7DEB799
:1002B0000E9449000E9465008BE691E00E940101C6
:1002C000809177008823E1F3809177000E94950068
:1002D00010927700F5CFDF93CF930F92CDB7DEB7B3
:1002E00089838981809377000F90CF91DF91089562
:0402F000F894FFCFB0
:1002F40068656C6C6F772074657374696E672E2EF5
:040304002E000000C7
:00000001FF
