:100000000C942A000C9447000C9447000C94470071
:100010000C9447000C9447000C94DA100C940D11CA
:100020000C9440110C946E100C9447000C944700F3
:100030000C9447000C9447000C9447000C94470024
:100040000C9447000C9447000C9447000C94470014
:100050000C94470011241FBECFE5D8E0DEBFCDBF12
:1000600011E0A0E6B0E0E0E1F6E202C005900D92FA
:10007000AA37B107D9F711E0AAE7B1E001C01D9294
:10008000AD38B107E1F70E9473110C9406130C947C
:100090000000EF92FF920F931F937B018C0120E0F1
:1000A00030E040E05FE40E94C50388238CF0C80183
:1000B000B70120E030E040E05FE40E94C1010E940F
:1000C000F5039B01AC01205030404040504806C031
:1000D000C801B7010E94F5039B01AC01B901CA0137
:1000E0001F910F91FF90EF900895A0E0B0E0EBE733
:1000F000F0E00C94CF12DC012B01FA019C919230BC
:1001000008F439C1EB018881823008F433C194309E
:1001100069F4843009F02FC111969C91119789815F
:10012000981709F428C1A0E6B0E025C1843009F48D
:1001300021C18230A9F4923009F01DC19A01AD01AC
:1001400088E0EA010990AE01E90109929E0181501F
:10015000C1F7E201898111969C918923818308C1AD
:10016000923009F407C112962D903C901397EB0141
:100170008A819B811496AD90BD90CD90DC901797AD
:10018000EC80FD800E811F819101281B390BB90184
:1001900037FF04C066277727621B730B6032710537
:1001A0000CF061C0121613066CF537014801062EDB
:1001B00004C096948794779467940A94D2F721E0C8
:1001C00030E040E050E004C0220F331F441F551FB1
:1001D0006A95D2F721503040404050402E213F21B7
:1001E00040235123211531054105510521F021E01E
:1001F00030E040E050E079018A01E628F72808293C
:1002000019293CC0232BD1F1260E371E350146019A
:10021000062E04C096948794779467940A94D2F734
:1002200021E030E040E050E004C0220F331F441FC3
:10023000551F6A95D2F721503040404050402A2146
:100240003B214C215D21211531054105510521F04E
:1002500021E030E040E050E059016A01A628B728CB
:10026000C828D9280BC0821593052CF01C01AA249C
:10027000BB24650103C0EE24FF24870111969C91E5
:10028000D20111968C91981709F445C0992339F041
:10029000A80197012A193B094C095D0906C0A6016E
:1002A00095012E193F09400B510B57FD08C01182D3
:1002B0003382228224833583468357831DC081E0A5
:1002C00081833382228288279927DC01821B930B4A
:1002D000A40BB50B84839583A683B7830DC0220F2F
:1002E000331F441F551F24833583468357838281E0
:1002F000938101979383828324813581468157813D
:10030000DA01C9010197A109B1098F5F9F4FAF4F72
:10031000BF4328F30BC0918333822282EA0CFB1C7B
:100320000C1D1D1DE482F5820683178383E0808304
:10033000248135814681578157FF1AC0C901AA27F8
:1003400097FDA095BA2F81709070A070B0705695EF
:10035000479537952795822B932BA42BB52B848318
:100360009583A683B7838281938101969383828349
:10037000DF0101C0D201CD01CDB7DEB7E2E10C94BF
:10038000EB12A0E2B0E0E7ECF1E00C94DB12698341
:100390007A838B839C832D833E834F835887E9E048
:1003A000EE2EF12CEC0EFD1ECE010196B7010E943F
:1003B000E6058E010F5E1F4FCE010596B8010E9423
:1003C000E6058A8991E089278A8BC701B801AE01C9
:1003D000475E5F4F0E9475000E941105A096E6E0FF
:1003E0000C94F712A0E2B0E0E8EFF1E00C94DB121D
:1003F00069837A838B839C832D833E834F835887C5
:10040000F9E0EF2EF12CEC0EFD1ECE010196B701A6
:100410000E94E6058E010F5E1F4FCE010596B801C2
:100420000E94E605C701B801AE01475E5F4F0E941A
:1004300075000E941105A096E6E00C94F712A0E268
:10044000B0E0E5E2F2E00C94CF1269837A838B830B
:100450009C832D833E834F835887CE010196BE0136
:10046000675F7F4F0E94E605CE010596BE016F5E75
:100470007F4F0E94E6059985923088F08989823005
:10048000C8F0943019F4823051F404C0843029F457
:10049000923081F480E690E0C6C0923049F420E0CA
:1004A0009A858A89981321E02A87CE010996BBC0D4
:1004B000823049F420E09A858A89981321E02A8BBA
:1004C000CE014196B0C02D843E844F8458886D88FB
:1004D0007E888F88988CEE24FF248701AA24BB2471
:1004E000650140E050E060E070E0E0E0F0E0C10174
:1004F00081709070892BE9F0E60CF71C081D191D1E
:100500009A01AB012A0D3B1D4C1D5D1D80E090E062
:10051000A0E0B0E0E614F7040805190520F481E036
:1005200090E0A0E0B0E0BA01A901480F591F6A1F8E
:100530007B1FAA0CBB1CCC1CDD1C97FE08C081E0F5
:1005400090E0A0E0B0E0A82AB92ACA2ADB2A3196B6
:10055000E032F10549F0660C771C881C991C569412
:10056000479437942794C3CFFA85EA892B893C892D
:100570008B859C85280F391F2E5F3F4F17C0CA01FE
:1005800081709070892B61F016950795F794E79428
:1005900080E090E0A0E0B0E8E82AF92A0A2B1B2BC3
:1005A00076956795579547952F5F3F4F77FDE7CF36
:1005B0000CC0440F551F661F771F17FD4160EE0CDE
:1005C000FF1C001F111F21503040403090E05907A0
:1005D00090E0690790E4790760F32B8F3C8FDB0193
:1005E000CA018F779070A070B07080349105A1051A
:1005F000B10561F447FD0AC0E114F10401051105DC
:1006000029F0405C5F4F6F4F7F4F40781A8EFE1786
:1006100011F081E08A8F4D8F5E8F6F8F78A383E01A
:10062000898FCE0149960E941105A096E2E10C94B3
:10063000EB12A8E1B0E0EFE1F3E00C94D71269838C
:100640007A838B839C832D833E834F835887B9E0C5
:10065000EB2EF12CEC0EFD1ECE010196B7010E948F
:10066000E6058E010F5E1F4FCE010596B8010E9470
:10067000E6052985223008F47EC03989323010F42D
:10068000B8017CC08A859A8989278A87243011F02D
:10069000223031F4231709F06EC060E670E06EC0BE
:1006A000343039F41D861E861F86188A1C861B86E8
:1006B00004C0323021F484E08987B7015FC02B8504
:1006C0003C858B899C89281B390B3C872B87ED84C3
:1006D000FE840F851889AD88BE88CF88D88CEA142F
:1006E000FB040C051D0540F4EE0CFF1C001F111F40
:1006F000215030403C872B8720E030E040E050E044
:1007000080E090E0A0E0B0E460E070E0EA14FB0478
:100710000C051D0540F0282B392B4A2B5B2BEA18C2
:10072000FB080C091D09B695A79597958795EE0CC2
:10073000FF1C001F111F6F5F7F4F6F31710531F775
:10074000DA01C9018F779070A070B0708034910584
:10075000A105B10561F427FD0AC0E114F10401050A
:10076000110529F0205C3F4F4F4F5F4F20782D87B8
:100770003E874F87588BBE01675F7F4FCB010E943A
:1007800011056896EAE00C94F312A8E1B0E0EBECF6
:10079000F3E00C94DB1269837A838B839C832D8333
:1007A0003E834F83588789E0E82EF12CEC0EFD1E26
:1007B000CE010196B7010E94E6058E010F5E1F4F24
:1007C000CE010596B8010E94E6058985823040F089
:1007D0008989823028F0C701B8010E945E0601C0F5
:1007E0008FEF6896E6E00C94F712ACE0B0E0EBEF28
:1007F000F3E00C94DF1269837A838B839C83CE01B0
:100800000196BE016B5F7F4F0E94E6058D818230AD
:1008100061F1823050F1843021F48E81882351F1CE
:100820002EC02F81388537FD20C06E812F313105D4
:100830001CF06623F9F023C08EE190E0821B930B3D
:1008400029853A854B855C8504C056954795379533
:1008500027958A95D2F76623B1F05095409530954B
:1008600021953F4F4F4F5F4F0EC020E030E040E0FA
:1008700050E009C02FEF3FEF4FEF5FE704C020E0EB
:1008800030E040E050E8B901CA012C96E2E00C9457
:10089000FB12A8E0B0E0EFE4F4E00C94D7127B0187
:1008A0008C01611571058105910519F482E0898338
:1008B00060C083E089838EE1C82ED12CDC82CB829C
:1008C000ED82FE820F831887C801B7010E94C2041F
:1008D000FC013197F7FF3BC0222733272E1B3F0B2C
:1008E00057016801022E04C0D694C794B794A79408
:1008F0000A94D2F740E050E060E070E081E090E0E0
:10090000A0E0B0E004C0880F991FAA1FBB1F2A9562
:10091000D2F70197A109B1098E219F21A023B1230C
:100920000097A105B10521F041E050E060E070E0E2
:100930004A295B296C297D294D835E836F837887E3
:100940008EE190E08E1B9F0B9C838B8312C03097AF
:1009500081F00E2E04C0EE0CFF1C001F111F0A9424
:10096000D2F7ED82FE820F831887CE1ADF0ADC826F
:10097000CB821A82CE0101960E9411052896EAE0E8
:100980000C94F312EF92FF920F931F937B018C0153
:1009900080E0E81680E0F80681E0080780E01807AC
:1009A00088F48FEFE816F1040105110531F028F005
:1009B00088E090E0A0E0B0E017C080E090E0A0E028
:1009C000B0E012C080E0E81680E0F80680E008079A
:1009D00081E0180728F088E190E0A0E0B0E004C0D2
:1009E00080E190E0A0E0B0E020E230E040E050E0C4
:1009F000281B390B4A0B5B0B04C016950795F7941F
:100A0000E7948A95D2F7F701E859FF4F8081281BB8
:100A1000310941095109C9011F910F91FF90EF90D0
:100A20000895DF92EF92FF920F931F93FC01E480F1
:100A3000F58006811781D1808081823048F480E082
:100A400090E0A0E1B0E0E82AF92A0A2B1B2BA5C010
:100A5000843009F49FC0823021F4EE24FF24870102
:100A600005C0E114F1040105110519F4E0E0F0E01E
:100A700096C0628173819FEF623879070CF05BC08A
:100A800022E83FEF261B370B2A3131052CF020E0FE
:100A900030E040E050E02AC0B801A701022E04C0B7
:100AA00076956795579547950A94D2F781E090E03F
:100AB000A0E0B0E004C0880F991FAA1FBB1F2A95B1
:100AC000D2F70197A109B1098E219F21A023B1235B
:100AD0000097A105B10521F081E090E0A0E0B0E031
:100AE0009A01AB01282B392B4A2B5B2BDA01C90168
:100AF0008F779070A070B07080349105A105B1051A
:100B000039F427FF09C0205C3F4F4F4F5F4F04C0AF
:100B1000215C3F4F4F4F5F4FE0E0F0E02030A0E01E
:100B20003A07A0E04A07A0E45A0710F0E1E0F0E03D
:100B300079018A0127C06038710564F5FB01E1582D
:100B4000FF4FD801C7018F779070A070B0708034CC
:100B50009105A105B10539F4E7FE0DC080E490E0F0
:100B6000A0E0B0E004C08FE390E0A0E0B0E0E80EC9
:100B7000F91E0A1F1B1F17FF05C016950795F7944E
:100B8000E794319687E016950795F794E7948A9550
:100B9000D1F705C0EE24FF248701EFEFF0E06E2FC0
:100BA000679566276795902F9F77D794DD24D79414
:100BB0008E2F8695492F462B582F5D29B701CA01E4
:100BC0001F910F91FF90EF90DF900895FC01DB01E2
:100BD000408151812281622F6F7770E0221F22278E
:100BE000221F9381892F880F822B282F30E0991F95
:100BF0009927991F11969C93119721153105A9F5F5
:100C0000411551056105710511F482E037C082E894
:100C10009FEF13969C938E9312979A01AB0167E016
:100C2000220F331F441F551F6A95D1F783E08C9321
:100C30000DC0220F331F441F551F12968D919C919A
:100C40001397019713969C938E931297203080E010
:100C5000380780E0480780E4580758F314962D932E
:100C60003D934D935C93179708952F3F310579F489
:100C7000411551056105710519F484E08C930895BF
:100C800064FF03C081E08C9312C01C9210C02F57E8
:100C9000304013963C932E93129783E08C9387E019
:100CA000440F551F661F771F8A95D1F770641496FD
:100CB0004D935D936D937C93179708951F93DC017B
:100CC000FB019C91923008F447C08081823008F487
:100CD00043C0943051F411961C91843099F5818170
:100CE000682F70E0611B71093FC0843021F09230A1
:100CF00031F48230B9F18181882389F12DC01196B8
:100D00001C9111978230F1F081811817D9F4129655
:100D10002D913C911397828193818217930794F0D0
:100D200028173907BCF014968D919D910D90BC91B8
:100D3000A02D2481358146815781281739074A071C
:100D40005B0718F4112341F00AC082179307A40728
:100D5000B50740F4112319F061E070E005C06FEFB2
:100D60007FEF02C060E070E0CB011F910895DF9338
:100D7000CF93CDB7DEB7AFE5B0E0EFE5F0E080812F
:100D800080688C93CF91DF910895DF93CF93CDB797
:100D9000DEB7AFE5B0E0EFE5F0E080818F778C93D0
:100DA000CF91DF910895DF93CF9300D000D000D092
:100DB000CDB7DEB79A8389836B834C838B81282FD1
:100DC00030E03E832D838D819E818330910509F42F
:100DD00051C02D813E81243031057CF48D819E816E
:100DE0008130910571F12D813E8122303105ACF5C4
:100DF0008D819E810097D1F081C02D813E8125306B
:100E0000310509F452C08D819E81853091050CF425
:100E10003FC02D813E812630310509F454C08D81BB
:100E20009E818730910509F45DC068C08C81817016
:100E3000E981FA81982F917081818E7F892B81833E
:100E40005DC08C818170E981FA818170982F990F42
:100E500081818D7F892B818351C08C818170E98153
:100E6000FA818170982F990F990F81818B7F892B3F
:100E7000818344C08C818170E981FA818170982FCF
:100E8000990F990F990F8181877F892B818336C0B4
:100E90008C818170E981FA818170982F9295907F81
:100EA00081818F7E892B818329C08C818170E9812A
:100EB000FA818170982F9295990F907E81818F7D14
:100EC000892B81831BC08C818170E981FA818170BB
:100ED000982F9295990F990F907C81818F7B892B08
:100EE00081830CC08C818170E981FA81982F97955C
:100EF0009927979581818F77892B818326960FB6C5
:100F0000F894DEBF0FBECDBFCF91DF910895DF9380
:100F1000CF9300D000D000D0CDB7DEB79A838983BD
:100F20006B834C838B81282F30E03E832D838D8112
:100F30009E818330910509F451C02D813E8124307A
:100F400031057CF48D819E818130910571F12D8177
:100F50003E8122303105ACF58D819E810097D1F024
:100F600081C02D813E812530310509F452C08D812B
:100F70009E81853091050CF43FC02D813E81263045
:100F8000310509F454C08D819E818730910509F4A3
:100F90005DC068C08C818170E981FA81982F917061
:100FA00082818E7F892B82835DC08C818170E981F3
:100FB000FA818170982F990F82818D7F892B82838E
:100FC00051C08C818170E981FA818170982F990FCD
:100FD000990F82818B7F892B828344C08C818170A1
:100FE000E981FA818170982F990F990F990F828169
:100FF000877F892B828336C08C818170E981FA8159
:101000008170982F9295907F82818F7E892B828329
:1010100029C08C818170E981FA818170982F929525
:10102000990F907E82818F7D892B82831BC08C815A
:101030008170E981FA818170982F9295990F990FAB
:10104000907C82818F7B892B82830CC08C81817004
:10105000E981FA81982F97959927979582818F77C3
:10106000892B828326960FB6F894DEBF0FBECDBFC4
:10107000CF91DF910895DF93CF9300D000D000D0BF
:10108000CDB7DEB79B838A836C838C81282F30E0B9
:101090003E832D838D819E818330910509F43EC06E
:1010A0002D813E81243031057CF48D819E818130FB
:1010B000910529F12D813E81223031053CF58D814C
:1010C0009E810097B1F055C02D813E8125303105BC
:1010D000B1F18D819E81853091054CF12D813E814C
:1010E00026303105A9F18D819E8187309105D1F19E
:1010F00040C0EA81FB818081817089833AC0EA81A6
:10110000FB81808186958170898333C0EA81FB8170
:10111000808186958695817089832BC0EA81FB81C9
:1011200080818695869586958170898322C0EA8123
:10113000FB81808182958F70817089831AC0EA81DA
:10114000FB8180818295869587708170898311C02B
:10115000EA81FB8180818295869586958370817076
:10116000898307C0EA81FB818081881F8827881FC7
:101170008983898126960FB6F894DEBF0FBECDBF56
:10118000CF91DF910895DF93CF9300D00F92CDB729
:10119000DEB79A8389836B83E981FA818B818183AE
:1011A0000F900F900F90CF91DF910895DF93CF9321
:1011B00000D00F92CDB7DEB79A8389836B83E98124
:1011C000FA818B8182830F900F900F90CF91DF91E6
:1011D0000895DF93CF9300D0CDB7DEB79A8389838C
:1011E000E981FA8180810F900F90CF91DF9108956E
:1011F000DF93CF9300D000D0CDB7DEB79A83898339
:10120000E981FA818481282F30E03C832B838B8114
:101210009C818730910509F4BDC22B813C81283027
:1012200031054CF58B819C818330910509F44AC1CD
:101230002B813C81243031058CF48B819C81813061
:10124000910509F49DC02B813C81223031050CF0C1
:10125000DFC08B819C810097C9F16BC52B813C81DC
:101260002530310509F4E2C18B819C8186309105DE
:101270000CF036C281C12B813C812B30310509F441
:10128000F1C38B819C818C3091056CF42B813C8166
:101290002930310509F432C38B819C818A30910554
:1012A0000CF086C3D1C22B813C812E30310509F46C
:1012B0008DC48B819C818F30910509F4E1C42B8111
:1012C0003C812C30310509F427C433C5EFE4F0E04C
:1012D000808188608083EFE4F0E080818460808397
:1012E000AFE4B0E0E981FA81808186958170982F22
:1012F0009795992797958C918F77892B8C93AFE44D
:10130000B0E0E981FA81808181708170982F929597
:10131000990F990F907C8C918F7B892B8C93AFE4E4
:10132000B0E0E981FA818081869581708170982F83
:101330009295990F907E8C918F7D892B8C93AFE441
:10134000B0E0E981FA81808181708170982F929557
:10135000907F8C918F7E892B8C93AAE4B0E0E981F9
:10136000FA818781908511969C938E93A8E4B0E0D2
:10137000E981FA818781908511969C938E93D9C4D7
:10138000EFE4F0E08081877F8083EFE4F0E080810C
:101390008B7F8083AFE4B0E0E981FA81828186951A
:1013A0008170982F9795992797958C918F77892B96
:1013B0008C93AFE4B0E0E981FA8182818170817021
:1013C000982F9295990F990F907C8C918F7B892BF8
:1013D0008C93AFE4B0E0E981FA81828186958170D7
:1013E0008170982F9295990F907E8C918F7D892B8B
:1013F0008C93AFE4B0E0E981FA81828181708170E1
:10140000982F9295907F8C918F7E892B8C9391C48D
:10141000EFE4F0E08081877F8083EFE4F0E080817B
:101420008B7F8083AFE4B0E0E981FA818281869589
:101430008170982F9795992797958C918F77892B05
:101440008C93AFE4B0E0E981FA8182818170817090
:10145000982F9295990F990F907C8C918F7B892B67
:101460008C93AFE4B0E0E981FA8182818695817046
:101470008170982F9295990F907E8C918F7D892BFA
:101480008C93AFE4B0E0E981FA8182818170817050
:10149000982F9295907F8C918F7E892B8C93AAE4C4
:1014A000B0E0E981FA818781908511969C938E93B3
:1014B000A8E4B0E0E981FA818781908511969C9338
:1014C0008E9337C4EFE4F0E08081877F8083EFE480
:1014D000F0E080818B7F8083AFE4B0E0E981FA8126
:1014E000828186958170982F9795992797958C91F1
:1014F0008F77892B8C93AFE4B0E0E981FA81828108
:1015000081708170982F9295990F990F907C8C9192
:101510008F7B892B8C93AFE4B0E0E981FA818281E3
:10152000869581708170982F9295990F907E8C91FD
:101530008F7D892B8C93AFE4B0E0E981FA818281C1
:1015400081708170982F9295907F8C918F7E892BDE
:101550008C93AAE4B0E0E981FA81878190851196A5
:101560009C938E93A8E4B0E0E981FA81878190850D
:1015700011969C938E93DDC3EFE4F0E08081877F2A
:101580008083EFE4F0E080818B7F8083AFE4B0E084
:10159000E981FA81808186958170982F97959927A6
:1015A00097958C918F77892B8C93AFE4B0E0E9818C
:1015B000FA81808181708170982F9295990F990F8F
:1015C000907C8C918F7B892B8C93AFE4B0E0E98188
:1015D000FA818081869581708170982F9295990FFC
:1015E000907E8C918F7D892B8C93AFE4B0E0E98164
:1015F000FA81808181708170982F9295907F8C9173
:101600008F7E892B8C93AAE4B0E0E981FA818781EF
:10161000908511969C938E93A8E4B0E0E981FA81BD
:101620008781908511969C938E9383C3EFE4F0E0BD
:101630008081877F8083EFE4F0E080818B7F8083EF
:10164000AFE4B0E0E981FA81818186958170982FBD
:101650009795992797958C918F77892B8C93AFE4E9
:10166000B0E0E981FA81818181708170982F929533
:10167000990F990F907C8C918F7B892B8C93AFE481
:10168000B0E0E981FA818181869581708170982F1F
:101690009295990F907E8C918F7D892B8C93AFE4DE
:1016A000B0E0E981FA81818181708170982F9295F3
:1016B000907F8C918F7E892B8C93AAE4B0E0E98196
:1016C000FA818781908511969C938E93A8E4B0E06F
:1016D000E981FA818781908511969C938E9329C325
:1016E000EFE4F0E08081877F8083EFE4F0E08081A9
:1016F0008B7F8083AFE4B0E0E981FA8181818695B8
:101700008170982F9795992797958C918F77892B32
:101710008C93AFE4B0E0E981FA81818181708170BE
:10172000982F9295990F990F907C8C918F7B892B94
:101730008C93AFE4B0E0E981FA8181818695817074
:101740008170982F9295990F907E8C918F7D892B27
:101750008C93AFE4B0E0E981FA818181817081707E
:10176000982F9295907F8C918F7E892B8C93AAE4F1
:10177000B0E0E981FA818781908511969C938E93E0
:10178000A8E4B0E0E981FA818781908511969C9365
:101790008E93CFC2EFE4F0E08081877F8083EFE417
:1017A000F0E080818B7F8083AFE4B0E0E981FA8153
:1017B000818186958170982F9795992797958C911F
:1017C0008F77892B8C93AFE4B0E0E981FA81818136
:1017D00081708170982F9295990F990F907C8C91C0
:1017E0008F7B892B8C93AFE4B0E0E981FA81818112
:1017F000869581708170982F9295990F907E8C912B
:101800008F7D892B8C93AFE4B0E0E981FA818181EF
:1018100081708170982F9295907F8C918F7E892B0B
:101820008C93AAE4B0E0E981FA81878190851196D2
:101830009C938E93A8E4B0E0E981FA81878190853A
:1018400011969C938E9375C2EFE4F0E08081877FC0
:101850008083EFE4F0E080818B7F8083AFE4B0E0B1
:10186000E981FA81828186958170982F97959927D1
:1018700097958C918F77892B8C93AFE4B0E0E981B9
:10188000FA81828181708170982F9295990F990FBA
:10189000907C8C918F7B892B8C93AFE4B0E0E981B5
:1018A000FA818281869581708170982F9295990F27
:1018B000907E8C918F7D892B8C93AFE4B0E0E98191
:1018C000FA81828181708170982F9295907F8C919E
:1018D0008F7E892B8C93AAE4B0E0E981FA8187811D
:1018E000908511969C938E93A8E4B0E0E981FA81EB
:1018F0008781908511969C938E931BC2EFE4F0E054
:101900008081877F8083EFE4F0E080818B7F80831C
:10191000AFE4B0E0E981FA81828186958170982FE9
:101920009795992797958C918F77892B8C93AFE416
:10193000B0E0E981FA81828181708170982F92955F
:10194000990F990F907C8C918F7B892B8C93AFE4AE
:10195000B0E0E981FA818281869581708170982F4B
:101960009295990F907E8C918F7D892B8C93AFE40B
:10197000B0E0E981FA81828181708170982F92951F
:10198000907F8C918F7E892B8C93AAE4B0E0E981C3
:10199000FA818781908511969C938E93A8E4B0E09C
:1019A000E981FA818781908511969C938E93C1C1BC
:1019B000EFE4F0E08081877F8083EFE4F0E08081D6
:1019C0008B7F8083AFE4B0E0E981FA8182818695E4
:1019D0008170982F9795992797958C918F77892B60
:1019E0008C93AFE4B0E0E981FA81828181708170EB
:1019F000982F9295990F990F907C8C918F7B892BC2
:101A00008C93AFE4B0E0E981FA81828186958170A0
:101A10008170982F9295990F907E8C918F7D892B54
:101A20008C93AFE4B0E0E981FA81828181708170AA
:101A3000982F9295907F8C918F7E892B8C93AAE41E
:101A4000B0E0E981FA818781908511969C938E930D
:101A5000A8E4B0E0E981FA818781908511969C9392
:101A60008E9367C1EFE4F0E08081877F8083EFE4AD
:101A7000F0E080818B7F8083AFE4B0E0E981FA8180
:101A8000828186958170982F9795992797958C914B
:101A90008F77892B8C93AFE4B0E0E981FA81828162
:101AA00081708170982F9295990F990F907C8C91ED
:101AB0008F7B892B8C93AFE4B0E0E981FA8182813E
:101AC000869581708170982F9295990F907E8C9158
:101AD0008F7D892B8C93AFE4B0E0E981FA8182811C
:101AE00081708170982F9295907F8C918F7E892B39
:101AF0008C93AAE4B0E0E981FA8187819085119600
:101B00009C938E93A8E4B0E0E981FA818781908567
:101B100011969C938E930DC1EFE4F0E08081877F56
:101B20008083EFE4F0E080818B7F8083AFE4B0E0DE
:101B3000E981FA81808186958170982F9795992700
:101B400097958C918F77892B8C93AFE4B0E0E981E6
:101B5000FA81808181708170982F9295990F990FE9
:101B6000907C8C918F7B892B8C93AFE4B0E0E981E2
:101B7000FA818081869581708170982F9295990F56
:101B8000907E8C918F7D892B8C93AFE4B0E0E981BE
:101B9000FA81808181708170982F9295907F8C91CD
:101BA0008F7E892B8C93AAE4B0E0E981FA8187814A
:101BB000908511969C938E93A8E4B0E0E981FA8118
:101BC0008781908511969C938E93B3C0EFE4F0E0EB
:101BD0008081877F8083EFE4F0E080818B7F80834A
:101BE000AFE4B0E0E981FA81818186958170982F18
:101BF0009795992797958C918F77892B8C93AFE444
:101C0000B0E0E981FA81818181708170982F92958D
:101C1000990F990F907C8C918F7B892B8C93AFE4DB
:101C2000B0E0E981FA818181869581708170982F79
:101C30009295990F907E8C918F7D892B8C93AFE438
:101C4000B0E0E981FA81818181708170982F92954D
:101C5000907F8C918F7E892B8C93AAE4B0E0E981F0
:101C6000FA818781908511969C938E93A8E4B0E0C9
:101C7000E981FA818781908511969C938E9359C052
:101C8000EFE4F0E08081877F8083EFE4F0E0808103
:101C90008B7F8083AFE4B0E0E981FA818181869512
:101CA0008170982F9795992797958C918F77892B8D
:101CB0008C93AFE4B0E0E981FA8181818170817019
:101CC000982F9295990F990F907C8C918F7B892BEF
:101CD0008C93AFE4B0E0E981FA81818186958170CF
:101CE0008170982F9295990F907E8C918F7D892B82
:101CF0008C93AFE4B0E0E981FA81818181708170D9
:101D0000982F9295907F8C918F7E892B8C93AAE44B
:101D1000B0E0E981FA818781908511969C938E933A
:101D2000A8E4B0E0E981FA818781908511969C93BF
:101D30008E93ACE4B0E0E981FA81858196811196B9
:101D40009C938E93AFE4B0E0E981FA818481817045
:101D5000982F91708C918E7F892B8C93AFE4B0E09B
:101D6000E981FA818481869581708170982F990F1D
:101D70008C918D7F892B8C93AEE4B0E0E981FA8160
:101D800084818695869581708170982F990F990F1F
:101D9000990F8C91877F892B8C93AEE4B0E0E98119
:101DA000FA81848186958695869581708170982FB9
:101DB0009295907F8C918F7E892B8C930F900F90B2
:101DC0000F900F90CF91DF910895DF93CF9300D0C4
:101DD000CDB7DEB79A838983AEE4B0E0EEE4F0E0FD
:101DE0008081982F987FE981FA8183818770892B80
:101DF0008C930F900F90CF91DF910895DF93CF9345
:101E000000D0CDB7DEB79A838983AEE4B0E0EEE4CC
:101E1000F0E08081887F8C930F900F90CF91DF91BD
:101E20000895DF93CF93CDB7DEB7ECE4F0E0808187
:101E30009181CF91DF910895DF93CF9300D000D0AF
:101E400000D0CDB7DEB79A8389834B835C836D83E3
:101E50007E83E981FA818481882F90E0009709F0E0
:101E60004CC08B819C81AD81BE8128EE33E040E087
:101E700050E0BC01CD010E945F12DC01CB012CEFD0
:101E80003FEF43E050E0BC01CD010E949212DA0125
:101E9000C90180937A0190937B01A0937C01B09358
:101EA0007D018B819C81AD81BE8128EE33E040E0D5
:101EB00050E0BC01CD010E945F12DC01CB01B69560
:101EC000A79597958795B695A795979587952FEFA1
:101ED0003FEF40E050E0BC01CD010E949212DC01D6
:101EE000CB0190937F0180937E0189819A810E942A
:101EF000860F89819A810E94E50E26960FB6F89486
:101F0000DEBF0FBECDBFCF91DF910895DF93CF939A
:101F100000D0CDB7DEB79A838983E981FA818481C5
:101F2000882329F4E9E5F0E08081846080830F90C4
:101F30000F90CF91DF910895DF93CF9300D0CDB76D
:101F4000DEB79A838983E981FA818481882329F421
:101F5000E9E5F0E08081846080830F900F90CF915D
:101F6000DF910895DF93CF9300D0CDB7DEB79A838A
:101F7000898389819A8190938101809380010F9058
:101F80000F90CF91DF910895DF93CF9300D000D0D1
:101F900000D0CDB7DEB79C838B837E836D831A829E
:101FA00019828D819E81982F882724E630E0B9011F
:101FB0000E947E12CB019A838983EAE4F0E0898152
:101FC0009A8191838083E8E4F0E089819A8191830A
:101FD000808326960FB6F894DEBF0FBECDBFCF919B
:101FE000DF910895DF93CF93CDB7DEB7E6E4F0E05D
:101FF00011821082E9E5F0E0808180628083EEE466
:10200000F0E080818F778083EEE4F0E0808180646F
:102010008083CF91DF910895DF93CF93CDB7DEB763
:10202000E6E4F0E011821082E9E5F0E08081806270
:102030008083EEE4F0E080818F778083EEE4F0E04F
:10204000808180648083CF91DF910895DF93CF9367
:10205000CDB7DEB7E6E4F0E011821082E9E5F0E00A
:10206000808180628083EEE4F0E080818F778083DE
:10207000EEE4F0E0808180648083CF91DF91089569
:10208000DF93CF93CDB7DEB7E6E4F0E080819181B6
:10209000CF91DF910895DF93CF930F92CDB7DEB745
:1020A0008983EEE4F0E0898181708170982F9295A8
:1020B000990F990F907C80818F7B892B80830F9063
:1020C000CF91DF910895DF93CF93CDB7DEB7ECE4E6
:1020D000F0E011821082CF91DF9108951F920F924C
:1020E0000FB60F9211242F933F934F935F936F93EB
:1020F0007F938F939F93AF93BF93EF93FF93DF9360
:10210000CF93CDB7DEB780917A0190917B01A091FA
:102110007C01B0917D010197A109B10980937A01F9
:1021200090937B01A0937C01B0937D0180917A0113
:1021300090917B01A0917C01B0917D010097A10558
:10214000B10551F4ECE4F0E080917E0190917F01C3
:1021500080959095918380838091800190918101F9
:102160000097A9F080917A0190917B01A0917C0168
:10217000B0917D018F3F2FEF92072FEFA2072FEF36
:10218000B20729F4E0918001F09181010995CF9186
:10219000DF91FF91EF91BF91AF919F918F917F91CF
:1021A0006F915F914F913F912F910F900FBE0F90C4
:1021B0001F9018951F920F920FB60F9211242F9314
:1021C0003F934F935F936F937F938F939F93AF93BF
:1021D000BF93EF93FF93DF93CF93CDB7DEB780919B
:1021E000800190918101009729F0E0918001F091A8
:1021F00081010995CF91DF91FF91EF91BF91AF914F
:102200009F918F917F916F915F914F913F912F910E
:102210000F900FBE0F901F9018951F920F920FB640
:102220000F9211242F933F934F935F936F937F935C
:102230008F939F93AF93BF93EF93FF93DF93CF93CE
:10224000CDB7DEB78091800190918101009729F090
:10225000E0918001F09181010995CF91DF91FF918B
:10226000EF91BF91AF919F918F917F916F915F910E
:102270004F913F912F910F900FBE0F901F90189587
:102280001F920F920FB60F9211242F933F934F93EB
:102290005F936F937F938F939F93AF93BF93EF93CE
:1022A000FF93DF93CF93CDB7DEB7809180019091FC
:1022B0008101009729F0E0918001F0918101099559
:1022C000CF91DF91FF91EF91BF91AF919F918F914E
:1022D0007F916F915F914F913F912F910F900FBE22
:1022E0000F901F901895EF92FF920F931F93DF931B
:1022F000CF93CDB7DEB7809177019091780166E0FA
:1023000040E00E94D306809171019091720164E0D7
:1023100041E00E94D30688E691E00E94F80888E632
:1023200091E00E94860F8EE192E10E94B20F0E941E
:1023300026100E94B70688E691E00E94E50E809183
:102340008201843009F069C088E691E00E949C0F08
:102350000E94C50610928201209187013091880168
:102360008091830190918401A901481B590BCA01F6
:102370009C0140E050E080E492E4AFE0B0E0BC01BA
:10238000CD010E94B412DA01C90190938C018093AF
:102390008B01209187013091880180918501909176
:1023A0008601A901481B590BCA01CC01A0E0B0E08D
:1023B000BC01CD010E9449047B018C012091870161
:1023C000309188018091830190918401A901481B7B
:1023D000590BCA01CC01A0E0B0E0BC01CD010E94C4
:1023E00049049B01AC01C801B7010E941903DC013B
:1023F000CB01BC01CD0120E030E048EC52E40E946A
:102400001F02DC01CB01BC01CD010E944900DC01AF
:10241000CB0190938A0180938901809189019091E9
:102420008A018333910509F08ACF809171019091DF
:10243000720164E041E00E94870781CFDF93CF9370
:10244000CDB7DEB7809182018F5F8093820180914A
:102450008201813031F40E94631080E00E944B10B1
:102460002BC080918201823051F40E9440109093E1
:1024700084018093830181E00E944B101DC08091F4
:102480008201833051F40E94401090938601809322
:10249000850180E00E944B100FC080918201843042
:1024A00059F40E94401090938801809387010E9404
:1024B000631081E00E944B10CF91DF910895629FDD
:1024C000D001739FF001829FE00DF11D649FE00D2C
:1024D000F11D929FF00D839FF00D749FF00D659F8D
:1024E000F00D9927729FB00DE11DF91F639FB00D8C
:1024F000E11DF91FBD01CF0111240895AA1BBB1BCB
:1025000051E107C0AA1FBB1FA617B70710F0A61BF3
:10251000B70B881F991F5A95A9F780959095BC0114
:10252000CD010895A1E21A2EAA1BBB1BFD010DC00F
:10253000AA1FBB1FEE1FFF1FA217B307E407F50773
:1025400020F0A21BB30BE40BF50B661F771F881F4F
:10255000991F1A9469F760957095809590959B01E5
:10256000AC01BD01CF01089597FB092E05260ED0C1
:1025700057FD04D0D7DF0AD0001C38F450954095A1
:10258000309521953F4F4F4F5F4F0895F6F7909547
:102590008095709561957F4F8F4F9F4F08952F9233
:1025A0003F924F925F926F927F928F929F92AF92E3
:1025B000BF92CF92DF92EF92FF920F931F93CF9330
:1025C000DF93CDB7DEB7CA1BDB0B0FB6F894DEBFC7
:1025D0000FBECDBF09942A88398848885F846E84ED
:1025E0007D848C849B84AA84B984C884DF80EE8037
:1025F000FD800C811B81AA81B981CE0FD11D0FB640
:10260000F894DEBF0FBECDBFED010895F894FFCF63
:1026100000000000000000000001020203030303A9
:102620000404040404040404050505050505050562
:102630000505050505050505060606060606060642
:10264000060606060606060606060606060606062A
:102650000606060606060606070707070707070712
:1026600007070707070707070707070707070707FA
:1026700007070707070707070707070707070707EA
:1026800007070707070707070707070707070707DA
:1026900007070707070707070808080808080808C2
:1026A00008080808080808080808080808080808AA
:1026B000080808080808080808080808080808089A
:1026C000080808080808080808080808080808088A
:1026D000080808080808080808080808080808087A
:1026E000080808080808080808080808080808086A
:1026F000080808080808080808080808080808085A
:102700000808080808080808080808080808080849
:102710000808080808080808000200030000000074
:0A27200000390036003300300000DD
:00000001FF
