:100000000C942A000C9447000C9447000C94470071
:100010000C9447000C9447000C9447000C94470044
:100020000C9447000C9447000C94A8190C944019A8
:100030000C9447000C94871A0C9447000C944700CA
:100040000C9447000C9447000C9447000C94470014
:100050000C94470011241FBECFE5D8E0DEBFCDBF12
:1000600011E0A0E6B0E0E8E3F9E302C005900D92EC
:10007000A037B107D9F711E0A0E7B1E001C01D92A8
:10008000A23CB107E1F70E94C11A0C949A1C0C948F
:100090000000EF92FF920F931F937B018C0120E0F1
:1000A00030E040E05FE40E94490388238CF0C801FF
:1000B000B70120E030E040E05FE40E94C1010E940F
:1000C000A9039B01AC01205030404040504806C07D
:1000D000C801B7010E94A9039B01AC01B901CA0183
:1000E0001F910F91FF90EF900895A0E0B0E0EBE733
:1000F000F0E00C94631CDC012B01FA019C9192301E
:1001000008F439C1EB018881823008F433C194309E
:1001100069F4843009F02FC111969C91119789815F
:10012000981709F428C1A3EDB0E025C1843009F483
:1001300021C18230A9F4923009F01DC19A01AD01AC
:1001400088E0EA010990AE01E90109929E0181501F
:10015000C1F7E201898111969C918923818308C1AD
:10016000923009F407C112962D903C901397EB0141
:100170008A819B811496AD90BD90CD90DC901797AD
:10018000EC80FD800E811F819101281B390BB90184
:1001900037FF04C066277727621B730B6032710537
:1001A0000CF061C0121613066CF537014801062EDB
:1001B00004C096948794779467940A94D2F721E0C8
:1001C00030E040E050E004C0220F331F441F551FB1
:1001D0006A95D2F721503040404050402E213F21B7
:1001E00040235123211531054105510521F021E01E
:1001F00030E040E050E079018A01E628F72808293C
:1002000019293CC0232BD1F1260E371E350146019A
:10021000062E04C096948794779467940A94D2F734
:1002200021E030E040E050E004C0220F331F441FC3
:10023000551F6A95D2F721503040404050402A2146
:100240003B214C215D21211531054105510521F04E
:1002500021E030E040E050E059016A01A628B728CB
:10026000C828D9280BC0821593052CF01C01AA249C
:10027000BB24650103C0EE24FF24870111969C91E5
:10028000D20111968C91981709F445C0992339F041
:10029000A80197012A193B094C095D0906C0A6016E
:1002A00095012E193F09400B510B57FD08C01182D3
:1002B0003382228224833583468357831DC081E0A5
:1002C00081833382228288279927DC01821B930B4A
:1002D000A40BB50B84839583A683B7830DC0220F2F
:1002E000331F441F551F24833583468357838281E0
:1002F000938101979383828324813581468157813D
:10030000DA01C9010197A109B1098F5F9F4FAF4F72
:10031000BF4328F30BC0918333822282EA0CFB1C7B
:100320000C1D1D1DE482F5820683178383E0808304
:10033000248135814681578157FF1AC0C901AA27F8
:1003400097FDA095BA2F81709070A070B0705695EF
:10035000479537952795822B932BA42BB52B848318
:100360009583A683B7838281938101969383828349
:10037000DF0101C0D201CD01CDB7DEB7E2E10C94BF
:100380007F1CA0E2B0E0E7ECF1E00C946F1C698305
:100390007A838B839C832D833E834F835887E9E048
:1003A000EE2EF12CEC0EFD1ECE010196B7010E943F
:1003B000D2048E010F5E1F4FCE010596B8010E9438
:1003C000D2048A8991E089278A8BC701B801AE01DE
:1003D000475E5F4F0E9475000E94FD03A096E6E015
:1003E0000C948B1CA0E2B0E0E8EFF1E00C946F1CE1
:1003F00069837A838B839C832D833E834F835887C5
:10040000F9E0EF2EF12CEC0EFD1ECE010196B701A6
:100410000E94D2048E010F5E1F4FCE010596B801D7
:100420000E94D204C701B801AE01475E5F4F0E942F
:1004300075000E94FD03A096E6E00C948B1CA0E2E0
:10044000B0E0E5E2F2E00C94631C69837A838B836D
:100450009C832D833E834F835887CE010196BE0136
:10046000675F7F4F0E94D204CE010596BE016F5E8A
:100470007F4F0E94D2049985923088F0898982301A
:10048000C8F0943019F4823051F404C0843029F457
:10049000923081F483ED90E0C6C0923049F420E0C0
:1004A0009A858A89981321E02A87CE010996BBC0D4
:1004B000823049F420E09A858A89981321E02A8BBA
:1004C000CE014196B0C02D843E844F8458886D88FB
:1004D0007E888F88988CEE24FF248701AA24BB2471
:1004E000650140E050E060E070E0E0E0F0E0C10174
:1004F00081709070892BE9F0E60CF71C081D191D1E
:100500009A01AB012A0D3B1D4C1D5D1D80E090E062
:10051000A0E0B0E0E614F7040805190520F481E036
:1005200090E0A0E0B0E0BA01A901480F591F6A1F8E
:100530007B1FAA0CBB1CCC1CDD1C97FE08C081E0F5
:1005400090E0A0E0B0E0A82AB92ACA2ADB2A3196B6
:10055000E032F10549F0660C771C881C991C569412
:10056000479437942794C3CFFA85EA892B893C892D
:100570008B859C85280F391F2E5F3F4F17C0CA01FE
:1005800081709070892B61F016950795F794E79428
:1005900080E090E0A0E0B0E8E82AF92A0A2B1B2BC3
:1005A00076956795579547952F5F3F4F77FDE7CF36
:1005B0000CC0440F551F661F771F17FD4160EE0CDE
:1005C000FF1C001F111F21503040403090E05907A0
:1005D00090E0690790E4790760F32B8F3C8FDB0193
:1005E000CA018F779070A070B07080349105A1051A
:1005F000B10561F447FD0AC0E114F10401051105DC
:1006000029F0405C5F4F6F4F7F4F40781A8EFE1786
:1006100011F081E08A8F4D8F5E8F6F8F78A383E01A
:10062000898FCE0149960E94FD03A096E2E10C94C9
:100630007F1CA8E1B0E0EFE1F3E00C946F1C69834C
:100640007A838B839C832D833E834F83588789E0F5
:10065000E82EF12CEC0EFD1ECE010196B7010E9492
:10066000D2048E010F5E1F4FCE010596B8010E9485
:10067000D2048985823040F08989823028F0C70110
:10068000B8010E944A0501C08FEF6896E6E00C941D
:100690008B1CA8E1B0E0EFE4F3E00C946F1C6983DD
:1006A0007A838B839C832D833E834F83588789E095
:1006B000E82EF12CEC0EFD1ECE010196B7010E9432
:1006C000D2048E010F5E1F4FCE010596B8010E9425
:1006D000D2048985823040F08989823028F0C701B0
:1006E000B8010E944A0501C08FEF6896E6E00C94BD
:1006F0008B1CA8E1B0E0EFE7F3E00C946F1C69837A
:100700007A838B839C832D833E834F83588789E034
:10071000E82EF12CEC0EFD1ECE010196B7010E94D1
:10072000D2048E010F5E1F4FCE010596B8010E94C4
:10073000D2048985823040F08989823028F0C7014F
:10074000B8010E944A0501C081E06896E6E00C9479
:100750008B1CACE0B0E0EFEAF3E00C94731C69830F
:100760007A838B839C83CE010196BE016B5F7F4FA2
:100770000E94D2048D81823061F1823050F1843048
:1007800021F48E81882351F12EC02F81388537FDC9
:1007900020C06E812F3131051CF06623F9F023C093
:1007A0008EE190E0821B930B29853A854B855C8511
:1007B00004C056954795379527958A95D2F76623B5
:1007C000B1F050954095309521953F4F4F4F5F4F79
:1007D0000EC020E030E040E050E009C02FEF3FEFD6
:1007E0004FEF5FE704C020E030E040E050E8B9019F
:1007F000CA012C96E2E00C948F1CDF92EF92FF92DC
:100800000F931F93FC01E480F58006811781D1804E
:100810008081823048F480E090E0A0E1B0E0E82AF6
:10082000F92A0A2B1B2BA5C0843009F49FC0823003
:1008300021F4EE24FF24870105C0E114F104010531
:10084000110519F4E0E0F0E096C0628173819FEF3A
:10085000623879070CF05BC022E83FEF261B370BAC
:100860002A3131052CF020E030E040E050E02AC091
:10087000B801A701022E04C0769567955795479554
:100880000A94D2F781E090E0A0E0B0E004C0880FC5
:10089000991FAA1FBB1F2A95D2F70197A109B10979
:1008A0008E219F21A023B1230097A105B10521F03E
:1008B00081E090E0A0E0B0E09A01AB01282B392B59
:1008C0004A2B5B2BDA01C9018F779070A070B07052
:1008D00080349105A105B10539F427FF09C0205CDA
:1008E0003F4F4F4F5F4F04C0215C3F4F4F4F5F4F13
:1008F000E0E0F0E02030A0E03A07A0E04A07A0E402
:100900005A0710F0E1E0F0E079018A0127C0603871
:10091000710564F5FB01E158FF4FD801C7018F77DE
:100920009070A070B07080349105A105B10539F4C4
:10093000E7FE0DC080E490E0A0E0B0E004C08FE3EB
:1009400090E0A0E0B0E0E80EF91E0A1F1B1F17FFA1
:1009500005C016950795F794E794319687E01695AC
:100960000795F794E7948A95D1F705C0EE24FF2404
:100970008701EFEFF0E06E2F679566276795902F60
:100980009F77D794DD24D7948E2F8695492F462BB9
:10099000582F5D29B701CA011F910F91FF90EF9069
:1009A000DF900895FC01DB01408151812281622F9B
:1009B0006F7770E0221F2227221F9381892F880FD3
:1009C000822B282F30E0991F9927991F11969C930D
:1009D000119721153105A9F54115510561057105DD
:1009E00011F482E037C082E89FEF13969C938E93B8
:1009F00012979A01AB0167E0220F331F441F551F66
:100A00006A95D1F783E08C930DC0220F331F441FEA
:100A1000551F12968D919C911397019713969C9355
:100A20008E931297203080E0380780E0480780E4FA
:100A3000580758F314962D933D934D935C93179755
:100A400008952F3F310579F4411551056105710570
:100A500019F484E08C93089564FF03C081E08C93C3
:100A600012C01C9210C02F57304013963C932E9307
:100A7000129783E08C9387E0440F551F661F771F02
:100A80008A95D1F7706414964D935D936D937C9322
:100A9000179708951F93DC01FB019C91923008F495
:100AA00047C08081823008F443C0943051F41196DD
:100AB0001C91843099F58181682F70E0611B710968
:100AC0003FC0843021F0923031F48230B9F181811D
:100AD000882389F12DC011961C9111978230F1F075
:100AE00081811817D9F412962D913C911397828128
:100AF00093818217930794F028173907BCF0149656
:100B00008D919D910D90BC91A02D248135814681C0
:100B10005781281739074A075B0718F4112341F05A
:100B20000AC082179307A407B50740F4112319F0F0
:100B300061E070E005C06FEF7FEF02C060E070E041
:100B4000CB011F910895DF93CF93CDB7DEB76497A4
:100B50000FB6F894DEBF0FBECDBF8CE08983CE0107
:100B60000396998B888BE7EEF0E0FB8BEA8BFCE039
:100B7000FC8BEA89FB8900808A899B8901969B8B83
:100B80008A8BE889F9890082888999890196998BED
:100B9000888B9C8991509C8BEC89EE2351F71A82AB
:100BA0000EC08A81282F30E0CE010396FC01E20FAF
:100BB000F31F80810E940B1A8A818F5F8A838A814A
:100BC0008C3078F388E29AE00E946E1A65E070E05B
:100BD00080E090E00E94030A9091A3018981981718
:100BE00009F58981882F90E00297FC01EF58FE4FAC
:100BF00080818823B9F48981882F90E00197FC01D6
:100C0000EF58FE4F80818A3069F48981882F90E007
:100C10000397FC01EF58FE4F8081882319F4F1E01F
:100C2000FF8701C01F868F8564960FB6F894DEBFDC
:100C30000FBECDBFCF91DF910895DF93CF93CDB796
:100C4000DEB70E94DB19CF91DF910895DF93CF9338
:100C5000CDB7DEB764970FB6F894DEBF0FBECDBF39
:100C60008CE08983CE010396998B888BE3EFF0E0CB
:100C7000FB8BEA8BFCE0FC8BEA89FB8900808A898C
:100C80009B8901969B8B8A8BE889F98900828889E8
:100C900099890196998B888B9C8991509C8BEC89C2
:100CA000EE2351F70E948B0860ED77E080E090E042
:100CB0000E94030A1A820EC08A81282F30E0CE01DA
:100CC0000396FC01E20FF31F80810E940B1A8A81B8
:100CD0008F5F8A838A818C3078F388E29AE00E9461
:100CE0006E1A65E070E080E090E00E94030A909147
:100CF000A3018981981719F58981882F90E00297BF
:100D0000FC01EF58FE4F80818823C9F48981882F28
:100D100090E00197FC01EF58FE4F80818A3079F412
:100D20008981882F90E00397FC01EF58FE4F808166
:100D3000882329F40E940509F1E0FF8703C00E947F
:100D40007F091F868F8564960FB6F894DEBF0FBEAD
:100D5000CDBFCF91DF910895DF93CF93CDB7DEB7AD
:100D600066970FB6F894DEBF0FBECDBF888B8CE0C0
:100D70008983CE0103969B8B8A8BEFEFF0E0FD8B8E
:100D8000EC8BFDE0FE8BEC89FD8900808C899D89D0
:100D900001969D8B8C8BEA89FB8900828A899B89CD
:100DA00001969B8B8A8B9E8991509E8BEE89EE23B8
:100DB00051F788898D871A820EC08A81282F30E0EA
:100DC000CE010396FC01E20FF31F80810E940B1AF3
:100DD0008A818F5F8A838A818D3078F388E29AE0F6
:100DE0000E946E1A65E070E080E090E00E94030AC5
:100DF0009091A3018981981709F58981882F90E046
:100E00000297FC01EF58FE4F80818823B9F4898155
:100E1000882F90E00197FC01EF58FE4F80818A30C7
:100E200069F48981882F90E00397FC01EF58FE4F09
:100E30008081882319F4F1E0F98B01C0198A89892E
:100E400066960FB6F894DEBF0FBECDBFCF91DF918F
:100E50000895DF93CF93CDB7DEB764970FB6F894BC
:100E6000DEBF0FBECDBF8CE08983CE010396998B88
:100E7000888BECE0F1E0FB8BEA8BFCE0FC8BEA89F1
:100E8000FB8900808A899B8901969B8B8A8BE889E4
:100E9000F9890082888999890196998B888B9C8928
:100EA00091509C8BEC89EE2351F71A820EC08A81F7
:100EB000282F30E0CE010396FC01E20FF31F808162
:100EC0000E940B1A8A818F5F8A838A818C3078F323
:100ED00088E29AE00E946E1A65E070E080E090E09F
:100EE0000E94030A9091A3018981981709F58981CD
:100EF000882F90E00297FC01EF58FE4F80818823F5
:100F0000B9F48981882F90E00197FC01EF58FE4FDA
:100F100080818A3069F48981882F90E00397FC01F1
:100F2000EF58FE4F8081882319F4F1E0FF8701C05C
:100F30001F868F8564960FB6F894DEBF0FBECDBFB7
:100F4000CF91DF910895DF93CF93CDB7DEB7689748
:100F50000FB6F894DEBF0FBECDBF8A8B8CE08983BD
:100F6000CE0103969D8B8C8BE8E1F1E0FF8BEE8B3D
:100F7000FFE0F88FEE89FF8900808E899F890196B6
:100F80009F8B8E8BEC89FD8900828C899D890196CF
:100F90009D8B8C8B988D9150988FE88DEE2351F717
:100FA0008A898F871A820EC08A81282F30E0CE016D
:100FB0000396FC01E20FF31F80810E940B1A8A81C5
:100FC0008F5F8A838A818F3078F388E29AE00E946B
:100FD0006E1A65E070E080E090E00E94030A909154
:100FE000A3018981981731F58981882F90E00297B4
:100FF000FC01EF58FE4F80818823E1F48981882F1E
:1010000090E00197FC01EF58FE4F80818A3091F407
:101010008981882F90E00397FC01EF58FE4F808173
:10102000882341F48091E2008F5F8093E200F1E039
:10103000FB8B01C01B8A8B8968960FB6F894DEBFC4
:101040000FBECDBFCF91DF910895DF93CF93CDB782
:10105000DEB769970FB6F894DEBF0FBECDBF80E153
:101060008983CE0103969E8B8D8BE7E2F1E0F88FAA
:10107000EF8BF1E1F98FEF89F88D00808F89988DE2
:101080000196988F8F8BED89FE8900828D899E89CC
:1010900001969E8B8D8B998D9150998FE98DEE23C2
:1010A00051F71A820EC08A81282F30E0CE010396B4
:1010B000FC01E20FF31F80810E940B1A8A818F5F6F
:1010C0008A838A81813178F388E29AE00E946E1ADD
:1010D00065E070E080E090E00E94030A9091A30137
:1010E0008981981769F48981882F90E00797FC011E
:1010F000EF58FE4F8081882319F4F1E0FC8B01C08A
:101100001C8A8C8969960FB6F894DEBF0FBECDBFDE
:10111000CF91DF910895DF93CF93CDB7DEB7689776
:101120000FB6F894DEBF0FBECDBF8CE08983CE0131
:1011300003969D8B8C8BE8E3F1E0FF8BEE8BF0E167
:10114000F88FEE89FF8900808E899F8901969F8B99
:101150008E8BEC89FD8900828C899D8901969D8BFF
:101160008C8B988D9150988FE88DEE2351F71A82D1
:101170000EC08A81282F30E0CE010396FC01E20FD9
:10118000F31F80810E940B1A8A818F5F8A838A8174
:10119000803178F388E29AE00E946E1A65E070E090
:1011A00080E090E00E94030A9091A3018981981742
:1011B00009F58981882F90E00297FC01EF58FE4FD6
:1011C00080818823B9F48981882F90E00197FC0100
:1011D000EF58FE4F80818A3069F48981882F90E032
:1011E0000397FC01EF58FE4F8081882319F4F1E04A
:1011F000FB8B01C01B8A8B8968960FB6F894DEBF03
:101200000FBECDBFCF91DF910895DF93CF93CDB7C0
:10121000DEB768970FB6F894DEBF0FBECDBF8CE087
:101220008983CE0103969D8B8C8BE8E4F1E0FF8BE4
:10123000EE8BF0E1F88FEE89FF8900808E899F891F
:1012400001969F8B8E8BEC89FD8900828C899D890C
:1012500001969D8B8C8B988D9150988FE88DEE2305
:1012600051F71A820EC08A81282F30E0CE010396F2
:10127000FC01E20FF31F80810E940B1A8A818F5FAD
:101280008A838A81803178F388E29AE00E946E1A1C
:1012900065E070E080E090E00E94030A9091A30175
:1012A0008981981709F58981882F90E00297FC01C0
:1012B000EF58FE4F80818823B9F48981882F90E010
:1012C0000197FC01EF58FE4F80818A3069F48981D3
:1012D000882F90E00397FC01EF58FE4F8081882310
:1012E00019F4F1E0FB8B01C01B8A8B8968960FB65D
:1012F000F894DEBF0FBECDBFCF91DF910895DF938D
:10130000CF93CDB7DEB768970FB6F894DEBF0FBEA8
:10131000CDBF8CE08983CE0103969D8B8C8BE8E555
:10132000F1E0FF8BEE8BF0E1F88FEE89FF89008012
:101330008E899F8901969F8B8E8BEC89FD89008217
:101340008C899D8901969D8B8C8B988D9150988F5F
:10135000E88DEE2351F71A820EC08A81282F30E0E3
:10136000CE010396FC01E20FF31F80810E940B1A4D
:101370008A818F5F8A838A81803178F388E29AE05C
:101380000E946E1A65E070E080E090E00E94030A1F
:101390009091A3018981981709F58981882F90E0A0
:1013A0000297FC01EF58FE4F80818823B9F48981B0
:1013B000882F90E00197FC01EF58FE4F80818A3022
:1013C00069F48981882F90E00397FC01EF58FE4F64
:1013D0008081882319F4F1E0FB8B01C01B8A8B8983
:1013E00068960FB6F894DEBF0FBECDBFCF91DF91E8
:1013F0000895DF93CF93CDB7DEB781E0809370017E
:10140000CF91DF910895DF93CF9300D000D0CDB777
:10141000DEB769837A838B839C8389EF99E00E948E
:1014200005190E94FB188BED90E045E050E060E06C
:1014300070E00E945C18809170018823E1F31092A3
:1014400070010F900F900F900F90CF91DF91089542
:10145000DF93CF930F92CDB7DEB789838091A3013D
:10146000882F90E0FC01EF58FE4F898180838091A6
:10147000A3018F5F8093A3010F90CF91DF91089517
:10148000DF93CF93CDB7DEB7AFE5B0E0EFE5F0E0A7
:10149000808180688C93CF91DF910895DF93CF9303
:1014A000CDB7DEB7AFE5B0E0EFE5F0E080818F7754
:1014B0008C93CF91DF910895DF93CF9300D000D02C
:1014C00000D0CDB7DEB79A8389836B834C838B8141
:1014D000282F30E03E832D838D819E8183309105BE
:1014E00009F451C02D813E81243031057CF48D8179
:1014F0009E818130910571F12D813E81223031052F
:10150000ACF58D819E810097D1F081C02D813E8107
:101510002530310509F452C08D819E8185309105B9
:101520000CF43FC02D813E812630310509F454C0B2
:101530008D819E818730910509F45DC068C08C81E2
:101540008170E981FA81982F917081818E7F892B3A
:1015500081835DC08C818170E981FA818170982FCF
:10156000990F81818D7F892B818351C08C818170FE
:10157000E981FA818170982F990F990F81818B7F72
:10158000892B818344C08C818170E981FA818170CB
:10159000982F990F990F990F8181877F892B8183CC
:1015A00036C08C818170E981FA818170982F929583
:1015B000907F81818F7E892B818329C08C8181706E
:1015C000E981FA818170982F9295990F907E81819F
:1015D0008F7D892B81831BC08C818170E981FA8189
:1015E0008170982F9295990F990F907C81818F7BB4
:1015F000892B81830CC08C818170E981FA81982FBD
:1016000097959927979581818F77892B8183269646
:101610000FB6F894DEBF0FBECDBFCF91DF91089516
:10162000DF93CF9300D000D000D0CDB7DEB79A8340
:1016300089836B834C838B81282F30E03E832D83FD
:101640008D819E818330910509F451C02D813E81A9
:10165000243031057CF48D819E818130910571F1BA
:101660002D813E8122303105ACF58D819E81009720
:10167000D1F081C02D813E812530310509F452C061
:101680008D819E81853091050CF43FC02D813E8176
:101690002630310509F454C08D819E818730910533
:1016A00009F45DC068C08C818170E981FA81982F4E
:1016B000917082818E7F892B82835DC08C81817045
:1016C000E981FA818170982F990F82818D7F892B12
:1016D000828351C08C818170E981FA818170982F59
:1016E000990F990F82818B7F892B828344C08C81D3
:1016F0008170E981FA818170982F990F990F990F64
:101700008281877F892B828336C08C818170E981B9
:10171000FA818170982F9295907F82818F7E892B9C
:10172000828329C08C818170E981FA818170982F30
:101730009295990F907E82818F7D892B82831BC029
:101740008C818170E981FA818170982F9295990F2F
:10175000990F907C82818F7B892B82830CC08C8136
:101760008170E981FA81982F9795992797958281C1
:101770008F77892B828326960FB6F894DEBF0FBE33
:10178000CDBFCF91DF910895DF93CF9300D000D0EC
:1017900000D0CDB7DEB79B838A836C838C81282FE2
:1017A00030E03E832D838D819E818330910509F445
:1017B0003EC02D813E81243031057CF48D819E8197
:1017C0008130910529F12D813E81223031053CF592
:1017D0008D819E810097B1F055C02D813E812530CD
:1017E0003105B1F18D819E81853091054CF12D81BE
:1017F0003E8126303105A9F18D819E81873091058A
:10180000D1F140C0EA81FB818081817089833AC037
:10181000EA81FB81808186958170898333C0EA816A
:10182000FB81808186958695817089832BC0EA81B2
:10183000FB8180818695869586958170898322C0FB
:10184000EA81FB81808182958F70817089831AC0C3
:10185000EA81FB818081829586958770817089837A
:1018600011C0EA81FB81808182958695869583707F
:101870008170898307C0EA81FB818081881F882766
:10188000881F8983898126960FB6F894DEBF0FBE24
:10189000CDBFCF91DF910895DF93CF9300D00F920A
:1018A000CDB7DEB79A8389836B83E981FA818B8117
:1018B00081830F900F900F90CF91DF910895DF9368
:1018C000CF9300D00F92CDB7DEB79A8389836B8315
:1018D000E981FA818B8182830F900F900F90CF91D5
:1018E000DF910895DF93CF9300D0CDB7DEB79A8311
:1018F0008983E981FA8180810F900F90CF91DF91E8
:101900000895DF93CF93CDB7DEB780916C019091AE
:101910006D0160E041E00E945C0A80916C01909151
:101920006D0161E041E00E945C0A80916C01909140
:101930006D0162E041E00E945C0A80916C0190912F
:101940006D0163E041E00E945C0A80916C0190911E
:101950006D0164E040E00E945C0A80916C0190910E
:101960006D0165E040E00E945C0A80916C019091FD
:101970006D0166E040E00E945C0A80916C019091EC
:101980006D0167E040E00E945C0A80916C019091DB
:101990006D0160E041E00E94100B80916C0190911C
:1019A0006D0161E041E00E94100B80916C0190910B
:1019B0006D0162E041E00E94100B80916C019091FA
:1019C0006D0163E041E00E94100BCF91DF9108951B
:1019D000DF93CF93CDB7DEB7A6970FB6F894DEBFEF
:1019E0000FBECDBF83E08F8F82E088A381E089A303
:1019F0001AA284E08BA385E08CA386E08DA387E008
:101A00008EA31E8E4EC140916C0150916D018E8D42
:101A1000282F30E0CE014F96FC01E20FF31F20810A
:101A2000CA01622F40E00E94100B1D8EAFC0409192
:101A30006C0150916D018D8D282F30E0CE01839681
:101A4000FC01E20FF31F2081CA01622F0E94C40B28
:101A5000882309F098C080E090E0A0EFB1E4898F7E
:101A60009A8FAB8FBC8F698D7A8D8B8D9C8D20E08A
:101A700030E04AE755E40E941F02DC01CB018D8B68
:101A80009E8BAF8BB88F6D897E898F89988D20E072
:101A900030E040E85FE30E94790388232CF481E082
:101AA00090E09C8B8B8B3FC06D897E898F89988D50
:101AB00020E03FEF4FE757E40E94190318164CF55A
:101AC000698D7A8D8B8D9C8D20E030E040E251E471
:101AD0000E941F02DC01CB01BC01CD010E94490024
:101AE000DC01CB019C8B8B8B0FC080E991E09A8B42
:101AF000898B89899A890197F1F79A8B898B8B89D0
:101B00009C8901979C8B8B8B8B899C89009769F7AB
:101B100014C06D897E898F89988D0E944900DC01EF
:101B2000CB019C8B8B8B8B899C89988B8F878F8526
:101B300098890197F1F7988B8F8740916C015091AC
:101B40006D018D8D282F30E0CE018396FC01E20FD0
:101B5000F31F2081CA01622F0E94C40B882399F4CD
:101B60008E8D882F90E0880F991F880F991F982FCE
:101B70008D8D890FA6960FB6F894DEBF0FBECDBF30
:101B8000CF91DF9108958D8D8F5F8D8F8D8D8430F6
:101B900008F44DCF40916C0150916D018E8D282F2E
:101BA00030E0CE014F96FC01E20FF31F2081CA0105
:101BB000622F41E00E94100B80E090E0A0EAB0E4C8
:101BC0008B879C87AD87BE876B857C858D859E8541
:101BD00020E030E04AE755E40E941F02DC01CB011F
:101BE0008F839887A987BA876F81788589859A8539
:101BF00020E030E040E85FE30E94790388232CF482
:101C000081E090E09E838D833FC06F8178858985D8
:101C10009A8520E03FEF4FE757E40E94190318161A
:101C20004CF56B857C858D859E8520E030E040E21B
:101C300051E40E941F02DC01CB01BC01CD010E94D6
:101C40004900DC01CB019E838D830FC080E991E0C8
:101C50009C838B838B819C810197F1F79C838B8381
:101C60008D819E8101979E838D838D819E810097BA
:101C700069F714C06F81788589859A850E9449002B
:101C8000DC01CB019E838D838D819E819A83898324
:101C900089819A810197F1F79A8389838E8D8F5F6D
:101CA0008E8F8E8D843008F4AECEABCEDF93CF9383
:101CB000CDB7DEB72E970FB6F894DEBF0FBECDBFFF
:101CC000809168019091690163E041E00E945C0AA3
:101CD000809168019091690162E041E00E945C0A94
:101CE00080E090E0A8E4B2E48B879C87AD87BE8754
:101CF0006B857C858D859E8520E030E04AE755E444
:101D00000E941F02DC01CB018F839887A987BA87C5
:101D10006F81788589859A8520E030E040E85FE32F
:101D20000E94790388232CF481E090E09E838D83C8
:101D30003FC06F81788589859A8520E03FEF4FE726
:101D400057E40E94190318164CF56B857C858D8528
:101D50009E8520E030E040E251E40E941F02DC0159
:101D6000CB01BC01CD010E944900DC01CB019E8367
:101D70008D830FC080E991E09C838B838B819C8154
:101D80000197F1F79C838B838D819E8101979E83C0
:101D90008D838D819E81009769F714C06F8178854E
:101DA00089859A850E944900DC01CB019E838D8341
:101DB0008D819E819A83898389819A810197F1F728
:101DC0009A83898380916A0190916B0160E041E080
:101DD0000E945C0A80916A0190916B0161E041E090
:101DE0000E945C0A80916A0190916B0162E041E07F
:101DF0000E945C0A80916A0190916B0164E041E06D
:101E00000E945C0A809168019091690162E040E063
:101E10000E94100B82E30E942D1082E30E942D107D
:101E200088E20E942D108EE00E942D1081E00E9419
:101E30002D102E960FB6F894DEBF0FBECDBFCF91FA
:101E4000DF910895DF93CF93CDB7DEB76D970FB6CF
:101E5000F894DEBF0FBECDBF8D8F80916801909149
:101E6000690163E041E00E94100B80E090E0A0E88F
:101E7000BFE3898F9A8FAB8FBC8F698D7A8D8B8DE5
:101E80009C8D20E030E04AE755E40E941F02DC010F
:101E9000CB018D8B9E8BAF8BB88F6D897E898F899F
:101EA000988D20E030E040E85FE30E9479038823CA
:101EB0002CF481E090E09C8B8B8B3FC06D897E89F8
:101EC0008F89988D20E03FEF4FE757E40E94190378
:101ED00018164CF5698D7A8D8B8D9C8D20E030E045
:101EE00040E251E40E941F02DC01CB01BC01CD01A4
:101EF0000E944900DC01CB019C8B8B8B0FC080E9D9
:101F000091E09A8B898B89899A890197F1F79A8B4D
:101F1000898B8B899C8901979C8B8B8B8B899C8966
:101F2000009769F714C06D897E898F89988D0E940A
:101F30004900DC01CB019C8B8B8B8B899C89988B16
:101F40008F878F8598890197F1F7988B8F8780917C
:101F500068019091690162E040E00E94100B80E00E
:101F600090E0A0E8BFE38B879C87AD87BE876B8539
:101F70007C858D859E8520E030E04AE755E40E940F
:101F80001F02DC01CB018F839887A987BA876F81F5
:101F9000788589859A8520E030E040E85FE30E94FB
:101FA000790388232CF481E090E09E838D833FC0E9
:101FB0006F81788589859A8520E03FEF4FE757E468
:101FC0000E94190318164CF56B857C858D859E85BE
:101FD00020E030E040E251E40E941F02DC01CB012E
:101FE000BC01CD010E944900DC01CB019E838D83A1
:101FF0000FC080E991E09C838B838B819C8101974A
:10200000F1F79C838B838D819E8101979E838D83C5
:102010008D819E81009769F714C06F8178858985CD
:102020009A850E944900DC01CB019E838D838D81BE
:102030009E819A83898389819A810197F1F79A8396
:1020400089838D8D0E94AD126D960FB6F894DEBF18
:102050000FBECDBFCF91DF910895DF93CF93CDB762
:10206000DEB76D970FB6F894DEBF0FBECDBF8D8F74
:10207000809168019091690163E040E00E94100B3B
:1020800080E090E0A0E8BFE3898F9A8FAB8FBC8F90
:10209000698D7A8D8B8D9C8D20E030E04AE755E488
:1020A0000E941F02DC01CB018D8B9E8BAF8BB88F02
:1020B0006D897E898F89988D20E030E040E85FE36C
:1020C0000E94790388232CF481E090E09C8B8B8B19
:1020D0003FC06D897E898F89988D20E03FEF4FE763
:1020E00057E40E94190318164CF5698D7A8D8B8D73
:1020F0009C8D20E030E040E251E40E941F02DC01B0
:10210000CB01BC01CD010E944900DC01CB019C8BBD
:102110008B8B0FC080E991E09A8B898B89899A8992
:102120000197F1F79A8B898B8B899C8901979C8BFE
:102130008B8B8B899C89009769F714C06D897E8988
:102140008F89988D0E944900DC01CB019C8B8B8B81
:102150008B899C89988B8F878F8598890197F1F758
:10216000988B8F87809168019091690162E040E0CF
:102170000E94100B80E090E0A0E8BFE38B879C8773
:10218000AD87BE876B857C858D859E8520E030E0A0
:102190004AE755E40E941F02DC01CB018F83988738
:1021A000A987BA876F81788589859A8520E030E094
:1021B00040E85FE30E94790388232CF481E090E0FB
:1021C0009E838D833FC06F81788589859A8520E0C5
:1021D0003FEF4FE757E40E94190318164CF56B8543
:1021E0007C858D859E8520E030E040E251E40E94B0
:1021F0001F02DC01CB01BC01CD010E944900DC01C2
:10220000CB019E838D830FC080E991E09C838B83FB
:102210008B819C810197F1F79C838B838D819E81BB
:1022200001979E838D838D819E81009769F714C0ED
:102230006F81788589859A850E944900DC01CB01F0
:102240009E838D838D819E819A83898389819A81E2
:102250000197F1F79A8389838D8D0E94AD126D9657
:102260000FB6F894DEBF0FBECDBFCF91DF910895BA
:10227000DF93CF9300D00F92CDB7DEB79B838A83D5
:102280000EC08981282F30E08A819B81FC01E20FFA
:10229000F31F80810E94220F89818F5F898389814A
:1022A000282F30E08A819B81FC01E20FF31F80819F
:1022B000882339F70F900F900F90CF91DF910895F9
:1022C000DF93CF93CDB7DEB76C970FB6F894DEBF30
:1022D0000FBECDBF809168019091690163E040E03D
:1022E0000E94100B80E090E0A0E8BFE3898F9A8FF6
:1022F000AB8FBC8F698D7A8D8B8D9C8D20E030E00B
:102300004AE755E40E941F02DC01CB018D8B9E8BB6
:10231000AF8BB88F6D897E898F89988D20E030E0F2
:1023200040E85FE30E94790388232CF481E090E089
:102330009C8B8B8B3FC06D897E898F89988D20E027
:102340003FEF4FE757E40E94190318164CF5698DCB
:102350007A8D8B8D9C8D20E030E040E251E40E942C
:102360001F02DC01CB01BC01CD010E944900DC0150
:10237000CB019C8B8B8B0FC080E991E09A8B898B72
:1023800089899A890197F1F79A8B898B8B899C8926
:1023900001979C8B8B8B8B899C89009769F714C064
:1023A0006D897E898F89988D0E944900DC01CB015F
:1023B0009C8B8B8B8B899C89988B8F878F85988939
:1023C0000197F1F7988B8F8780916801909169014F
:1023D00062E040E00E94100B80E090E0A0E8BFE3E4
:1023E0008B879C87AD87BE876B857C858D859E8519
:1023F00020E030E04AE755E40E941F02DC01CB01F7
:102400008F839887A987BA876F81788589859A8510
:1024100020E030E040E85FE30E94790388232CF459
:1024200081E090E09E838D833FC06F8178858985B0
:102430009A8520E03FEF4FE757E40E9419031816F2
:102440004CF56B857C858D859E8520E030E040E2F3
:1024500051E40E941F02DC01CB01BC01CD010E94AE
:102460004900DC01CB019E838D830FC080E991E0A0
:102470009C838B838B819C810197F1F79C838B8359
:102480008D819E8101979E838D838D819E81009792
:1024900069F714C06F81788589859A850E94490003
:1024A000DC01CB019E838D838D819E819A838983FC
:1024B00089819A810197F1F79A83898381E00E944B
:1024C000AD126C960FB6F894DEBF0FBECDBFCF91A4
:1024D000DF910895DF93CF9300D000D00F92CDB756
:1024E000DEB78A836B8319828A81282F30E03D838F
:1024F0002C838C819D8181309105C1F02C813D819F
:10250000223031052CF48C819D81009761F019C037
:102510002C813D812230310569F08C819D81833091
:10252000910561F00EC08B8189830BC08B81805C2B
:10253000898307C08B81805F898303C08B81805B27
:102540008983898180680E942D100F900F900F90D1
:102550000F900F90CF91DF910895DF93CF93CDB778
:10256000DEB7E9970FB6F894DEBF0FBECDBF89AFD7
:1025700020916A0130916B0189AD482F441F442797
:10258000441FC90164E00E94100B20916A01309140
:102590006B0189AD8295869586958370482F417031
:1025A000C90162E00E94100B20916A0130916B0119
:1025B00089AD829586958770482F4170C90161E089
:1025C0000E94100B20916A0130916B0189AD8295B8
:1025D0008F70482F4170C90160E00E94100B8091FC
:1025E00068019091690162E041E00E94100B80E077
:1025F00090E0A0E8BFE38DAB9EABAFABB8AF6DA9E9
:102600007EA98FA998AD20E030E04AE755E40E940A
:102610001F02DC01CB0189AB9AABABABBCAB69A9A8
:102620007AA98BA99CA920E030E040E85FE30E94F2
:10263000790388232CF481E090E098AB8FA73FC00A
:1026400069A97AA98BA99CA920E03FEF4FE757E43D
:102650000E94190318164CF56DA97EA98FA998AD93
:1026600020E030E040E251E40E941F02DC01CB0197
:10267000BC01CD010E944900DC01CB0198AB8FA7C2
:102680000FC080E991E09EA78DA78DA59EA501971B
:10269000F1F79EA78DA78FA598A9019798AB8FA753
:1026A0008FA598A9009769F714C069A97AA98BA981
:1026B0009CA90E944900DC01CB0198AB8FA78FA594
:1026C00098A99CA78BA78BA59CA50197F1F79CA720
:1026D0008BA7809168019091690162E040E00E94BF
:1026E000100B80E090E0A0EAB0E48FA398A7A9A720
:1026F000BAA76FA178A589A59AA520E030E04AE79E
:1027000055E40E941F02DC01CB018BA39CA3ADA367
:10271000BEA36BA17CA18DA19EA120E030E040E88A
:102720005FE30E94790388232CF481E090E09AA370
:1027300089A33FC06BA17CA18DA19EA120E03FEFAA
:102740004FE757E40E94190318164CF56FA178A5BE
:1027500089A59AA520E030E040E251E40E941F02E2
:10276000DC01CB01BC01CD010E944900DC01CB01A1
:102770009AA389A30FC080E991E098A38F8F8F8DD2
:1027800098A10197F1F798A38F8F89A19AA101973A
:102790009AA389A389A19AA1009769F714C06BA194
:1027A0007CA18DA19EA10E944900DC01CB019AA3CE
:1027B00089A389A19AA19E8F8D8F8D8D9E8D019762
:1027C000F1F79E8F8D8F20916A0130916B0189AD59
:1027D000869586958695482F4170C90164E00E94D0
:1027E000100B20916A0130916B0189AD8695869519
:1027F000482F4170C90162E00E94100B20916A01CC
:1028000030916B0189AD8695482F4170C90161E017
:102810000E94100B20916A0130916B0189AD482F05
:102820004170C90160E00E94100B80916801909195
:10283000690162E041E00E94100B80E090E0A0E8B6
:10284000BFE3898F9A8FAB8FBC8F698D7A8D8B8D0B
:102850009C8D20E030E04AE755E40E941F02DC0135
:10286000CB018D8B9E8BAF8BB88F6D897E898F89C5
:10287000988D20E030E040E85FE30E9479038823F0
:102880002CF481E090E09C8B8B8B3FC06D897E891E
:102890008F89988D20E03FEF4FE757E40E9419039E
:1028A00018164CF5698D7A8D8B8D9C8D20E030E06B
:1028B00040E251E40E941F02DC01CB01BC01CD01CA
:1028C0000E944900DC01CB019C8B8B8B0FC080E9FF
:1028D00091E09A8B898B89899A890197F1F79A8B74
:1028E000898B8B899C8901979C8B8B8B8B899C898D
:1028F000009769F714C06D897E898F89988D0E9431
:102900004900DC01CB019C8B8B8B8B899C89988B3C
:102910008F878F8598890197F1F7988B8F878091A2
:1029200068019091690162E040E00E94100B80E034
:1029300090E0A0EAB0E48B879C87AD87BE876B856B
:102940007C858D859E8520E030E04AE755E40E9435
:102950001F02DC01CB018F839887A987BA876F811B
:10296000788589859A8520E030E040E85FE30E9421
:10297000790388232CF481E090E09E838D833FC00F
:102980006F81788589859A8520E03FEF4FE757E48E
:102990000E94190318164CF56B857C858D859E85E4
:1029A00020E030E040E251E40E941F02DC01CB0154
:1029B000BC01CD010E944900DC01CB019E838D83C7
:1029C0000FC080E991E09C838B838B819C81019770
:1029D000F1F79C838B838D819E8101979E838D83EC
:1029E0008D819E81009769F714C06F8178858985F4
:1029F0009A850E944900DC01CB019E838D838D81E5
:102A00009E819A83898389819A810197F1F79A83BC
:102A10008983E9960FB6F894DEBF0FBECDBFCF9184
:102A2000DF910895DF93CF9300D000D0CDB7DEB70C
:102A30009B838A836C838C818830F8F48C81882F07
:102A400090E00896880F991F880F991F880F991F8B
:102A50000E942D1019820EC08981282F30E08A81B2
:102A60009B81FC01E20FF31F80810E94220F89816C
:102A70008F5F89838981883078F30F900F900F9052
:102A80000F90CF91DF910895DF93CF930F92CDB741
:102A9000DEB78983898180580E942D1089810E9428
:102AA000220F0F90CF91DF910895DF93CF9300D045
:102AB00000D000D0CDB7DEB78A83198280E690E0DF
:102AC0000E9438118A8182958F7089838981282F8D
:102AD00030E03E832D838D819E818B30910569F19D
:102AE0002D813E812C30310554F48D819E819923B6
:102AF000BCF12D813E812A303105B4F01AC08D81A0
:102B00009E818D30910509F12D813E812D30310559
:102B1000C4F08D819E818E309105D9F02D813E814A
:102B20002F303105D1F01CC08981805D0E94220FB9
:102B300017C081E40E94220F13C082E40E94220F7A
:102B40000FC083E40E94220F0BC084E40E94220F76
:102B500007C085E40E94220F03C086E40E94220F72
:102B60008A818F7089838981282F30E03C832B8371
:102B70008B819C818B30910569F12B813C812C30BC
:102B8000310554F48B819C819923BCF12B813C81CC
:102B90002A303105B4F01AC08B819C818D309105AB
:102BA00009F12B813C812D303105C4F08B819C8152
:102BB0008E309105D9F02B813C812F303105D1F039
:102BC0001CC08981805D0E94220F17C081E40E9491
:102BD000220F13C082E40E94220F0FC083E40E94E0
:102BE000220F0BC084E40E94220F07C085E40E94DC
:102BF000220F03C086E40E94220F26960FB6F89497
:102C0000DEBF0FBECDBFCF91DF910895DF93CF938D
:102C100000D0CDB7DEB78A8383E690E00E943811FA
:102C2000198218C08A81482F50E08981282F30E00E
:102C300087E090E0821B930B9A0102C0359527959F
:102C40008A95E2F7C9018170805D0E94220F898117
:102C50008F5F89838981883028F30F900F90CF91FF
:102C6000DF910895DF93CF93CDB7DEB72A970FB6E4
:102C7000F894DEBF0FBECDBF6F83788789879A87B0
:102C80001E821D828F819885A985BA8589839A8342
:102C9000AB83BC836F81788589859A850E94A9035F
:102CA000DC01CB01AA2797FDA095BA2FBC01CD016D
:102CB0000E94AA168EE20E94220F69817A818B817E
:102CC0009C8120E030E040E050E00E9479038823BE
:102CD0004CF489819A81AB81BC81B05889839A83F5
:102CE000AB83BC831E822AC069817A818B819C81DF
:102CF00020E030E040E251E40E941F02DC01CB0101
:102D000089839A83AB83BC8369817A818B819C811F
:102D10000E94A903DC01CB012AE030E040E050E052
:102D2000BC01CD010E94121CDC01CB018D838D8181
:102D3000805D0E94220F8E818F5F8E838E81833013
:102D400098F22A960FB6F894DEBF0FBECDBFCF9192
:102D5000DF910895DF93CF93CDB7DEB76C970FB6B1
:102D6000F894DEBF0FBECDBF698F7A8F8B8F9C8F9B
:102D700084E1FE013596DF01982F1D929A95E9F7BF
:102D80001B82898D9A8D9A83898389819A81009784
:102D900009F45DC089819A819923C4F48DE20E946F
:102DA000220F89819A81909581959F4F9A8389837B
:102DB0000DC08B818F5F8B8389819A812AE030E0FF
:102DC000B9010E94FF1BCB019A83898389819A8173
:102DD0001816190674F3898D9A8D9A8389838981CF
:102DE0009A81181619063CF089819A8190958195EF
:102DF0009F4F9A8389838B8181508C8320C08C81E3
:102E0000E82FFF27E7FDF09589819A812AE030E0DD
:102E1000B9010E94FF1B805D282FCE010596E80FA7
:102E2000F91F208389819A812AE030E0B9010E944C
:102E3000FF1BCB019A8389838C8181508C838C8189
:102E40008823ECF6CE0105960E94381103C080E37A
:102E50000E94220F6C960FB6F894DEBF0FBECDBF56
:102E6000CF91DF910895DF93CF9300D000D0CDB7FD
:102E7000DEB79A838983E981FA818481282F30E043
:102E80003C832B838B819C818130910509F441C067
:102E90002B813C81223031052CF48B819C81009761
:102EA00071F0A8C02B813C812230310509F455C056
:102EB0008B819C818330910509F479C09BC0E3E547
:102EC000F0E0808180688083A3E5B0E0E981FA8149
:102ED0008081869581708170982F9295990F907E50
:102EE0008C918F7D892B8C93A3E5B0E0E981FA81E9
:102EF000808181708170982F9295907F8C918F7EC8
:102F0000892B8C93ACE5B0E0E981FA8186818C93C2
:102F100071C0E3E5F0E080818F778083A3E5B0E0C6
:102F2000E981FA818281869581708170982F9295CE
:102F3000990F907E8C918F7D892B8C93A3E5B0E0C7
:102F4000E981FA81828181708170982F9295907FBA
:102F50008C918F7E892B8C934DC0E3E5F0E08081CE
:102F600080688083A3E5B0E0E981FA81808186955D
:102F700081708170982F9295990F907E8C918F7DA2
:102F8000892B8C93A3E5B0E0E981FA81808181707F
:102F90008170982F9295907F8C918F7E892B8C9346
:102FA000ACE5B0E0E981FA8186818C9323C0E3E54A
:102FB000F0E080818F778083A3E5B0E0E981FA813A
:102FC0008181869581708170982F9295990F907E5E
:102FD0008C918F7D892B8C93A3E5B0E0E981FA81F8
:102FE000818181708170982F9295907F8C918F7ED6
:102FF000892B8C93A2E5B0E0E981FA8185818C93DD
:10300000A3E5B0E0E981FA818481869581708170C1
:10301000982F990F990F990F8C91877F892B8C93FB
:10302000A3E5B0E0E981FA81848181708170982FF5
:103030009295990F990F907C8C918F7B892B8C9313
:103040000F900F900F900F90CF91DF910895DF9325
:10305000CF9300D0CDB7DEB79A838983A3E5B0E0E4
:10306000E3E5F0E08081982F987FE981FA81838100
:10307000892B8C930F900F90CF91DF910895DF9360
:10308000CF9300D0CDB7DEB79A838983A3E5B0E0B4
:10309000E3E5F0E08081887F8C930F900F90CF91D3
:1030A000DF910895DF93CF93CDB7DEB7E2E5F0E08F
:1030B0008081CF91DF910895DF93CF9300D000D02E
:1030C00000D0CDB7DEB79A8389834B835C836D8351
:1030D0007E83E981FA818481882F90E0009709F04E
:1030E0003FC08B819C81AD81BE8128EE33E040E002
:1030F00050E0BC01CD010E94E01BDC01CB01072E9A
:103100007FE0B695A795979587957A95D1F7702D1D
:103110008093B8019093B901A093BA01B093BB0119
:103120008B819C81AD81BE8128EE33E040E050E090
:10313000BC01CD010E94E01BDC01CB01689416F8B4
:10314000B695A795979587951694D1F78093BC016E
:1031500089819A810E94B91889819A810E942718D1
:1031600026960FB6F894DEBF0FBECDBFCF91DF918C
:103170000895DF93CF9300D0CDB7DEB79A838983CC
:10318000E981FA818481882331F4E9E5F0E08081E6
:10319000816080830AC0E981FA818481823029F4C8
:1031A000E9E5F0E08081826080830F900F90CF91FD
:1031B000DF910895DF93CF9300D0CDB7DEB79A8328
:1031C0008983E981FA818481882331F4E9E5F0E09B
:1031D00080818E7F80830AC0E981FA818481823078
:1031E00029F4E9E5F0E080818D7F80830F900F90D6
:1031F000CF91DF910895DF93CF93CDB7DEB7E2E5AE
:10320000F0E01082CF91DF910895DF93CF9300D04B
:10321000CDB7DEB79A83898389819A819093BE0165
:103220008093BD010F900F90CF91DF910895DF93B0
:10323000CF9300D00F92CDB7DEB79A8389836B838B
:10324000ECE5F0E08B81482F50E0CA019C01220F91
:10325000331FC9019695982F882797958795821BCC
:10326000930B840F951F24E630E0B9010E94FF1BE9
:10327000CB0180830F900F900F90CF91DF91089535
:103280001F920F920FB60F9211242F933F934F93DB
:103290005F936F937F938F939F93AF93BF93EF93BE
:1032A000FF93DF93CF93CDB7DEB78091B8019091B4
:1032B000B901A091BA01B091BB010197A109B1096F
:1032C0008093B8019093B901A093BA01B093BB0168
:1032D0008091B8019091B901A091BA01B091BB0160
:1032E0000097A105B10531F4E2E5F0E08091BC0161
:1032F000819580838091BD019091BE010097A9F0D6
:103300008091B8019091B901A091BA01B091BB012F
:103310008F3F2FEF92072FEFA2072FEFB20729F46D
:10332000E091BD01F091BE010995CF91DF91FF9130
:10333000EF91BF91AF919F918F917F916F915F912D
:103340004F913F912F910F900FBE0F901F901895A6
:103350001F920F920FB60F9211242F933F934F930A
:103360005F936F937F938F939F93AF93BF93EF93ED
:10337000FF93DF93CF93CDB7DEB78091BD019091DE
:10338000BE01009729F0E091BD01F091BE010995C1
:10339000CF91DF91FF91EF91BF91AF919F918F916D
:1033A0007F916F915F914F913F912F910F900FBE41
:1033B0000F901F901895DF93CF9300D00F92CDB749
:1033C000DEB71B821A821982EBE2F0E082E0808392
:1033D0001B8288E18B83EAE2F0E08B8180831B8291
:1033E00086E88B83E0E4F0E08B81808381E290E0EB
:1033F0009A838983E0E4F0E089819A81892F992773
:103400008083E9E2F0E0898180830F900F900F9034
:10341000CF91DF910895DF93CF930F92CDB7DEB7B1
:103420008983EBE2F0E08081882F90E080729070D9
:103430000097B9F3ECE2F0E0898180830F90CF919F
:10344000DF910895DF93CF9300D0CDB7DEB79A8395
:103450008983EBE2F0E080818823DCF7ECE2F0E0A6
:103460008081E981FA8180830F900F90CF91DF9165
:103470000895DF93CF9300D0CDB7DEB79A838983C9
:103480000AC0E981FA8180810E940B1A89819A81A0
:1034900001969A838983E981FA818081882389F75B
:1034A0000F900F90CF91DF910895DF93CF9300D0CD
:1034B000CDB7DEB79A83898389819A819093C001C1
:1034C0008093BF01AAE2B0E0EAE2F0E08081806888
:1034D0008C930F900F90CF91DF910895DF93CF934E
:1034E00000D0CDB7DEB79A83898389819A81909382
:1034F000C0018093BF01AAE2B0E0EAE2F0E080817F
:1035000080688C930F900F90CF91DF9108951F9258
:103510000F920FB60F9211242F933F934F935F9307
:103520006F937F938F939F93AF93BF93EF93FF938B
:10353000DF93CF93CDB7DEB7ECE2F0E080818093EC
:10354000C1018091BF019091C001009739F0E091D5
:10355000BF01F091C0018091C1010995CF91DF9128
:10356000FF91EF91BF91AF919F918F917F916F915B
:103570005F914F913F912F910F900FBE0F901F9031
:103580001895DF93CF9300D00F92CDB7DEB7198295
:103590000E94810C0E94560E0E941D060E94400A45
:1035A0000E94601186E690E00E94381181E060E0A0
:1035B0000E946A1287E790E00E9438110E94E80C8E
:1035C00089838981282F30E03B832A838A819B81EC
:1035D0008130910531F02A813B812230310521F083
:1035E000DFCF0E94F71ADCCF0E94911BD9CFDF9367
:1035F000CF930F92CDB7DEB70E94A305882371F455
:103600000E9460118CE890E00E94381168EE73E02F
:1036100080E090E00E94030A19827EC00E94260684
:10362000882371F40E9460118CE890E00E943811A8
:1036300068EE73E080E090E00E94030A19826CC09B
:1036400081E00E94AC06882371F40E9460118CE82E
:1036500090E00E94381168EE73E080E090E00E94F4
:10366000030A198259C00E942606882371F40E9419
:1036700060118CE890E00E94381168EE73E080E001
:1036800090E00E94030A198247C082E00E94AC06C3
:10369000882371F40E9460118CE890E00E94381138
:1036A00068EE73E080E090E00E94030A198234C063
:1036B0000E942907882371F40E9460118CE890E031
:1036C0000E94381168EE73E080E090E00E94030AE7
:1036D000198222C08091E2000E94A307882371F41E
:1036E0000E9460118CE890E00E94381168EE73E04F
:1036F00080E090E00E94030A19820EC00E946011CF
:1037000081EA90E00E94381168EE73E080E090E07A
:103710000E94030A81E0898389810F90CF91DF9114
:103720000895DF93CF930F92CDB7DEB70E942606A0
:10373000882371F40E9460118CE890E00E94381197
:1037400068EE73E080E090E00E94030A198233C0C3
:1037500081E00E94AC06882371F40E9460118CE81D
:1037600090E00E94381168EE73E080E090E00E94E3
:10377000030A198220C00E942508882371F40E9440
:10378000601183EB90E00E94381168EE73E080E0F6
:1037900090E00E94030A19820EC00E94601182EC20
:1037A00090E00E94381168EE73E080E090E00E94A3
:1037B000030A81E0898389810F90CF91DF91089579
:1037C000629FD001739FF001829FE00DF11D649F05
:1037D000E00DF11D929FF00D839FF00D749FF00D91
:1037E000659FF00D9927729FB00DE11DF91F639F32
:1037F000B00DE11DF91FBD01CF011124089597FB04
:10380000092E07260AD077FD04D027D006D0002045
:103810001AF4709561957F4F0895F6F7909581950C
:103820009F4F089597FB092E05260ED057FD04D013
:1038300028D00AD0001C38F4509540953095219539
:103840003F4F4F4F5F4F0895F6F7909580957095D5
:1038500061957F4F8F4F9F4F0895AA1BBB1B51E16E
:1038600007C0AA1FBB1FA617B70710F0A61BB70BF0
:10387000881F991F5A95A9F780959095BC01CD0195
:103880000895A1E21A2EAA1BBB1BFD010DC0AA1FA1
:10389000BB1FEE1FFF1FA217B307E407F50720F0B9
:1038A000A21BB30BE40BF50B661F771F881F991F34
:1038B0001A9469F760957095809590959B01AC017D
:1038C000BD01CF0108952F923F924F925F926F9268
:1038D0007F928F929F92AF92BF92CF92DF92EF92A0
:1038E000FF920F931F93CF93DF93CDB7DEB7CA1B21
:1038F000DB0B0FB6F894DEBF0FBECDBF09942A884C
:10390000398848885F846E847D848C849B84AA84F3
:10391000B984C884DF80EE80FD800C811B81AA8180
:10392000B981CE0FD11D0FB6F894DEBF0FBECDBF4B
:08393000ED010895F894FFCFAA
:10393800307800306200506C7A2043686F6F73658E
:10394800204D6F64653A00312D20456E726F6C6CA6
:10395800202020322D204C6F67696E004572726FEF
:10396800722C20706C7A2074727920616761696E9C
:1039780000456E726F6C6C20537563636573736674
:10398800756C0055736572204E6F7420466F756EA6
:1039980064004C6F67696E20537563636573736663
:1039A800756C000000000000000000000200050027
:1039B80000000100010204EF01FFFFFFFF01000307
:1039C800400044EF01FFFFFFFF010003010005EF86
:1039D80001FFFFFFFF01000402000008EF01FFFFE5
:1039E800FFFF010003050009EF01FFFFFFFF0100D2
:1039F8000606010001000FEF01FFFFFFFF010008AD
:103A0800040100010001000EEF01FFFFFFFF0100AC
:103A1800073501F003000131EF01FFFFFFFF01004F
:103A2800073501F002000130EF01FFFFFFFF010041
:103A3800073502800180013F39003600330030002D
:00000001FF
