:100000000C942A000C9447000C9447000C94470071
:100010000C9447000C9447000C9447000C94470044
:100020000C9447000C9447000C94EC040C9484044A
:100030000C9447000C9447000C9447000C94470024
:100040000C9447000C9447000C9447000C94470014
:100050000C94470011241FBECFE5D8E0DEBFCDBF12
:1000600010E0A0E6B0E0EAEBFDE002C005900D92E2
:10007000A037B107D9F710E0A0E7B0E001C01D92AA
:10008000AE37B107E1F70E941F050C94DB060C9414
:100090000000DF93CF93CDB7DEB7AFE5B0E0EFE57B
:1000A000F0E0808180688C93CF91DF910895DF9399
:1000B000CF93CDB7DEB7AFE5B0E0EFE5F0E08081FC
:1000C0008F778C93CF91DF910895DF93CF9300D0FA
:1000D00000D000D0CDB7DEB79A8389836B834C8381
:1000E0008B81282F30E03E832D838D819E8183304C
:1000F000910509F451C02D813E81243031057CF4F5
:100100008D819E818130910571F12D813E8122305A
:100110003105ACF58D819E810097D1F081C02D8194
:100120003E812530310509F452C08D819E81853094
:1001300091050CF43FC02D813E812630310509F434
:1001400054C08D819E818730910509F45DC068C0DF
:100150008C818170E981FA81982F917081818E7FE5
:10016000892B81835DC08C818170E981FA818170E6
:10017000982F990F81818D7F892B818351C08C812C
:100180008170E981FA818170982F990F990F81818F
:100190008B7F892B818344C08C818170E981FA81B6
:1001A0008170982F990F990F990F8181877F892BE3
:1001B000818336C08C818170E981FA818170982FAA
:1001C0009295907F81818F7E892B818329C08C813C
:1001D0008170E981FA818170982F9295990F907EB4
:1001E00081818F7D892B81831BC08C818170E98106
:1001F000FA818170982F9295990F990F907C818147
:100200008F7B892B81830CC08C818170E981FA817D
:10021000982F97959927979581818F77892B81833F
:1002200026960FB6F894DEBF0FBECDBFCF91DF91FB
:100230000895DF93CF9300D000D000D0CDB7DEB7C4
:100240009A8389836B834C838B81282F30E03E8394
:100250002D838D819E818330910509F451C02D81BC
:100260003E81243031057CF48D819E818130910561
:1002700071F12D813E8122303105ACF58D819E8159
:100280000097D1F081C02D813E812530310509F4E0
:1002900052C08D819E81853091050CF43FC02D8127
:1002A0003E812630310509F454C08D819E8187300E
:1002B000910509F45DC068C08C818170E981FA8183
:1002C000982F917082818E7F892B82835DC08C8173
:1002D0008170E981FA818170982F990F82818D7FD9
:1002E000892B828351C08C818170E981FA81817070
:1002F000982F990F990F82818B7F892B828344C01D
:100300008C818170E981FA818170982F990F990F02
:10031000990F8281877F892B828336C08C8181707F
:10032000E981FA818170982F9295907F82818F7EEA
:10033000892B828329C08C818170E981FA81817047
:10034000982F9295990F907E82818F7D892B828341
:100350001BC08C818170E981FA818170982F929500
:10036000990F990F907C82818F7B892B82830CC09F
:100370008C818170E981FA81982F979599279795BB
:1003800082818F77892B828326960FB6F894DEBF01
:100390000FBECDBFCF91DF910895DF93CF9300D0F3
:1003A00000D000D0CDB7DEB79B838A836C838C816D
:1003B000282F30E03E832D838D819E8183309105EF
:1003C00009F43EC02D813E81243031057CF48D81BD
:1003D0009E818130910529F12D813E8122303105A8
:1003E0003CF58D819E810097B1F055C02D813E81F5
:1003F00025303105B1F18D819E81853091054CF11B
:100400002D813E8126303105A9F18D819E81873075
:100410009105D1F140C0EA81FB818081817089839F
:100420003AC0EA81FB81808186958170898333C0DF
:10043000EA81FB81808186958695817089832BC0B6
:10044000EA81FB8180818695869586958170898376
:1004500022C0EA81FB81808182958F7081708983BF
:100460001AC0EA81FB8180818295869587708170B0
:10047000898311C0EA81FB8180818295869586956A
:1004800083708170898307C0EA81FB818081881F26
:100490008827881F8983898126960FB6F894DEBF46
:1004A0000FBECDBFCF91DF910895DF93CF9300D0E2
:1004B0000F92CDB7DEB79A8389836B83E981FA8186
:1004C0008B8181830F900F900F90CF91DF910895D2
:1004D000DF93CF9300D00F92CDB7DEB79A83898395
:1004E0006B83E981FA818B8182830F900F900F904B
:1004F000CF91DF910895DF93CF9300D0CDB7DEB7D2
:100500009A838983E981FA8180810F900F90CF913E
:10051000DF910895DF93CF9300D000D0CDB7DEB741
:100520009A838983E981FA818481282F30E03C8392
:100530002B838B819C818130910509F441C02B81F3
:100540003C81223031052CF48B819C81009771F025
:10055000A8C02B813C812230310509F455C08B8124
:100560009C818330910509F479C09BC0E3E5F0E0FC
:10057000808180688083A3E5B0E0E981FA81808191
:10058000869581708170982F9295990F907E8C91AD
:100590008F7D892B8C93A3E5B0E0E981FA8180817E
:1005A00081708170982F9295907F8C918F7E892B8E
:1005B0008C93ACE5B0E0E981FA8186818C9371C0BF
:1005C000E3E5F0E080818F778083A3E5B0E0E98107
:1005D000FA818281869581708170982F9295990F0A
:1005E000907E8C918F7D892B8C93A3E5B0E0E9817F
:1005F000FA81828181708170982F9295907F8C9181
:100600008F7E892B8C934DC0E3E5F0E0808180687C
:100610008083A3E5B0E0E981FA81808186958170CD
:100620008170982F9295990F907E8C918F7D892B58
:100630008C93A3E5B0E0E981FA81808181708170BB
:10064000982F9295907F8C918F7E892B8C93ACE51F
:10065000B0E0E981FA8186818C9323C0E3E5F0E084
:1006600080818F778083A3E5B0E0E981FA81818181
:10067000869581708170982F9295990F907E8C91BC
:100680008F7D892B8C93A3E5B0E0E981FA8181818C
:1006900081708170982F9295907F8C918F7E892B9D
:1006A0008C93A2E5B0E0E981FA8185818C93A3E582
:1006B000B0E0E981FA818481869581708170982FFC
:1006C000990F990F990F8C91877F892B8C93A3E5B4
:1006D000B0E0E981FA81848181708170982F9295D0
:1006E000990F990F907C8C918F7B892B8C930F9015
:1006F0000F900F900F90CF91DF910895DF93CF93DC
:1007000000D0CDB7DEB79A838983A3E5B0E0E3E5F7
:10071000F0E08081982F987FE981FA818381892B8D
:100720008C930F900F90CF91DF910895DF93CF932B
:1007300000D0CDB7DEB79A838983A3E5B0E0E3E5C7
:10074000F0E08081887F8C930F900F90CF91DF91A4
:100750000895DF93CF93CDB7DEB7E2E5F0E0808177
:10076000CF91DF910895DF93CF9300D000D000D0D8
:10077000CDB7DEB79A8389834B835C836D837E8399
:10078000E981FA818481882F90E0009709F042C0C6
:100790008B819C81AD81BE8128EE33E040E050E04A
:1007A000BC01CD010E949506DC01CB01072E7EE045
:1007B000B695A795979587957A95D1F7702D8093E3
:1007C000700090937100A0937200B09373008B81BE
:1007D0009C81AD81BE8128EE33E040E050E0BC0159
:1007E000CD010E949506DC01CB01689415F8B69501
:1007F000A795979587951694D1F780937400E2E5B5
:10080000F0E0108289819A810E94130489819A8183
:100810000E947E0326960FB6F894DEBF0FBECDBFB2
:10082000CF91DF910895DF93CF9300D0CDB7DEB79E
:100830009A838983E981FA818481882331F4E9E507
:10084000F0E08081816080830AC0E981FA8184813F
:10085000823029F4E9E5F0E08081826080830F90A6
:100860000F90CF91DF910895DF93CF9300D0CDB754
:10087000DEB79A838983E981FA818481882331F400
:10088000E9E5F0E080818E7F80830AC0E981FA810A
:100890008481823029F4E9E5F0E080818D7F8083D6
:1008A0000F900F90CF91DF910895DF93CF9300D0F9
:1008B000CDB7DEB79A83898389819A819093760038
:1008C000809375000F900F90CF91DF910895DF9383
:1008D000CF9300D00F92CDB7DEB79A8389836B8315
:1008E000ECE5F0E08B81882F90E0982F882724E6B4
:1008F00030E0B9010E94B406CB0180830F900F90C5
:100900000F90CF91DF9108951F920F920FB60F9223
:1009100011242F933F934F935F936F937F938F9304
:100920009F93AF93BF93EF93FF93DF93CF93CDB795
:10093000DEB78091700090917100A0917200B0912B
:1009400073000197A109B109809370009093710021
:10095000A0937200B0937300809170009091710029
:10096000A0917200B09173000097A105B10531F418
:10097000E2E5F0E0809174008195808380917500BC
:10098000909176000097A9F080917000909171008D
:10099000A0917200B09173008F3F2FEF92072FEF5D
:1009A000A2072FEFB20729F4E0917500F0917600CD
:1009B0000995CF91DF91FF91EF91BF91AF919F91F9
:1009C0008F917F916F915F914F913F912F910F90F8
:1009D0000FBE0F901F9018951F920F920FB60F9297
:1009E00011242F933F934F935F936F937F938F9334
:1009F0009F93AF93BF93EF93FF93DF93CF93CDB7C5
:100A0000DEB78091750090917600009729F0E09113
:100A10007500F09176000995CF91DF91FF91EF91EC
:100A2000BF91AF919F918F917F916F915F914F9106
:100A30003F912F910F900FBE0F901F901895DF934D
:100A4000CF930F92CDB7DEB7198280916700909156
:100A5000680064E041E00E94650080916700909129
:100A6000680065E041E00E94650080916900909116
:100A70006A0067E041E00E94650080916700909104
:100A8000680064E040E00E94190180916700909145
:100A9000680065E040E00E94190180916900909132
:100AA0006A0067E040E00E94190180916D0090911A
:100AB0006E0067E040E00E94650080916D009091BB
:100AC0006E0067E041E00E94190180E690E00E941C
:100AD0008A0280E196E00E9455040E94490080E667
:100AE00090E044EF51E060E070E00E94B3031982AF
:100AF0001BC08981882F90E0880F991FFC01E9585D
:100B0000FF4F80819181009761F08981882F90E06B
:100B1000880F991FFC01E958FF4F0190F081E02DEB
:100B2000099589818F5F89838981833010F3DFCFB5
:100B3000DF93CF93CDB7DEB78091690090916A00C3
:100B400067E00E94CD01882349F08091690090916F
:100B50006A0067E040E00E94190108C080916900C6
:100B600090916A0067E041E00E94190110927800BC
:100B700010927700CF91DF910895DF93CF93CDB797
:100B8000DEB780916D0090916E0067E00E94CD010C
:100B90008823D1F4809167009091680065E00E94FD
:100BA000CD01882349F0809167009091680065E04D
:100BB00040E00E94190108C0809167009091680090
:100BC00065E041E00E94190110927A0010927900CC
:100BD000CF91DF910895DF93CF93CDB7DEB78091AA
:100BE00067009091680064E00E94CD01882349F07D
:100BF000809167009091680064E040E00E941901D4
:100C000008C0809167009091680064E041E00E9414
:100C1000190110927C0010927B00CF91DF91089512
:100C2000DF93CF9300D0CDB7DEB780917D008F5F8B
:100C300080937D0080917D00282F30E03A832983C6
:100C400089819A8183309105D1F129813A812430BB
:100C500031055CF489819A8181309105B1F0298157
:100C60003A812230310521F153C089819A81853042
:100C70009105C9F129813A81253031056CF18981CD
:100C80009A8186309105E1F143C088E995E090931F
:100C90007800809377008DEB95E090937A008093B5
:100CA00079008BEE95E090937C0080937B0030C0C0
:100CB0008DEB95E090937A008093790029C088E9C4
:100CC00095E090937800809377008DEB95E090937A
:100CD0007A00809379001CC08DEB95E090937A00A8
:100CE0008093790015C088E995E09093780080930F
:100CF00077008DEB95E090937A008093790008C09F
:100D00008DEB95E090937A008093790010927D00AE
:100D100080E690E044EF51E060E070E00E94B303B1
:100D20000F900F90CF91DF910895629FD001739F34
:100D3000F001829FE00DF11D649FE00DF11D929F77
:100D4000F00D839FF00D749FF00D659FF00D9927B6
:100D5000729FB00DE11DF91F639FB00DE11DF91FDA
:100D6000BD01CF011124089597FB092E07260AD053
:100D700077FD04D00CD006D000201AF47095619550
:100D80007F4F0895F6F7909581959F4F0895AA1B80
:100D9000BB1B51E107C0AA1FBB1FA617B70710F066
:100DA000A61BB70B881F991F5A95A9F78095909598
:0A0DB000BC01CD010895F894FFCFB7
:100DBA000002000500000039003600330030000050
:00000001FF
