:100000000C942A000C9447000C9447000C94470071
:100010000C9447000C9447000C9447000C94470044
:100020000C9447000C9447000C9447000C94470034
:100030000C9447000C9447000C9447000C94470024
:100040000C9447000C9447000C9447000C94470014
:100050000C94470011241FBECFE5D8E0DEBFCDBF12
:1000600011E0A0E6B0E0EAE7FFE202C005900D92E1
:10007000A632B107D9F711E0A6E2B1E001C01D92A6
:10008000AA33B107E1F70E9482120C94BB170C94BB
:100090000000EF92FF920F931F937B018C0120E0F1
:1000A00030E040E05FE40E94490388238CF0C801FF
:1000B000B70120E030E040E05FE40E94C1010E940F
:1000C000A9039B01AC01205030404040504806C07D
:1000D000C801B7010E94A9039B01AC01B901CA0183
:1000E0001F910F91FF90EF900895A0E0B0E0EBE733
:1000F000F0E00C948417DC012B01FA019C91923002
:1001000008F439C1EB018881823008F433C194309E
:1001100069F4843009F02FC111969C91119789815F
:10012000981709F428C1ABEBB0E025C1843009F47D
:1001300021C18230A9F4923009F01DC19A01AD01AC
:1001400088E0EA010990AE01E90109929E0181501F
:10015000C1F7E201898111969C918923818308C1AD
:10016000923009F407C112962D903C901397EB0141
:100170008A819B811496AD90BD90CD90DC901797AD
:10018000EC80FD800E811F819101281B390BB90184
:1001900037FF04C066277727621B730B6032710537
:1001A0000CF061C0121613066CF537014801062EDB
:1001B00004C096948794779467940A94D2F721E0C8
:1001C00030E040E050E004C0220F331F441F551FB1
:1001D0006A95D2F721503040404050402E213F21B7
:1001E00040235123211531054105510521F021E01E
:1001F00030E040E050E079018A01E628F72808293C
:1002000019293CC0232BD1F1260E371E350146019A
:10021000062E04C096948794779467940A94D2F734
:1002200021E030E040E050E004C0220F331F441FC3
:10023000551F6A95D2F721503040404050402A2146
:100240003B214C215D21211531054105510521F04E
:1002500021E030E040E050E059016A01A628B728CB
:10026000C828D9280BC0821593052CF01C01AA249C
:10027000BB24650103C0EE24FF24870111969C91E5
:10028000D20111968C91981709F445C0992339F041
:10029000A80197012A193B094C095D0906C0A6016E
:1002A00095012E193F09400B510B57FD08C01182D3
:1002B0003382228224833583468357831DC081E0A5
:1002C00081833382228288279927DC01821B930B4A
:1002D000A40BB50B84839583A683B7830DC0220F2F
:1002E000331F441F551F24833583468357838281E0
:1002F000938101979383828324813581468157813D
:10030000DA01C9010197A109B1098F5F9F4FAF4F72
:10031000BF4328F30BC0918333822282EA0CFB1C7B
:100320000C1D1D1DE482F5820683178383E0808304
:10033000248135814681578157FF1AC0C901AA27F8
:1003400097FDA095BA2F81709070A070B0705695EF
:10035000479537952795822B932BA42BB52B848318
:100360009583A683B7838281938101969383828349
:10037000DF0101C0D201CD01CDB7DEB7E2E10C94BF
:10038000A017A0E2B0E0E7ECF1E00C9490176983CD
:100390007A838B839C832D833E834F835887E9E048
:1003A000EE2EF12CEC0EFD1ECE010196B7010E943F
:1003B000D2048E010F5E1F4FCE010596B8010E9438
:1003C000D2048A8991E089278A8BC701B801AE01DE
:1003D000475E5F4F0E9475000E94FD03A096E6E015
:1003E0000C94AC17A0E2B0E0E8EFF1E00C949017A9
:1003F00069837A838B839C832D833E834F835887C5
:10040000F9E0EF2EF12CEC0EFD1ECE010196B701A6
:100410000E94D2048E010F5E1F4FCE010596B801D7
:100420000E94D204C701B801AE01475E5F4F0E942F
:1004300075000E94FD03A096E6E00C94AC17A0E2C4
:10044000B0E0E5E2F2E00C94841769837A838B8351
:100450009C832D833E834F835887CE010196BE0136
:10046000675F7F4F0E94D204CE010596BE016F5E8A
:100470007F4F0E94D2049985923088F0898982301A
:10048000C8F0943019F4823051F404C0843029F457
:10049000923081F48BEB90E0C6C0923049F420E0BA
:1004A0009A858A89981321E02A87CE010996BBC0D4
:1004B000823049F420E09A858A89981321E02A8BBA
:1004C000CE014196B0C02D843E844F8458886D88FB
:1004D0007E888F88988CEE24FF248701AA24BB2471
:1004E000650140E050E060E070E0E0E0F0E0C10174
:1004F00081709070892BE9F0E60CF71C081D191D1E
:100500009A01AB012A0D3B1D4C1D5D1D80E090E062
:10051000A0E0B0E0E614F7040805190520F481E036
:1005200090E0A0E0B0E0BA01A901480F591F6A1F8E
:100530007B1FAA0CBB1CCC1CDD1C97FE08C081E0F5
:1005400090E0A0E0B0E0A82AB92ACA2ADB2A3196B6
:10055000E032F10549F0660C771C881C991C569412
:10056000479437942794C3CFFA85EA892B893C892D
:100570008B859C85280F391F2E5F3F4F17C0CA01FE
:1005800081709070892B61F016950795F794E79428
:1005900080E090E0A0E0B0E8E82AF92A0A2B1B2BC3
:1005A00076956795579547952F5F3F4F77FDE7CF36
:1005B0000CC0440F551F661F771F17FD4160EE0CDE
:1005C000FF1C001F111F21503040403090E05907A0
:1005D00090E0690790E4790760F32B8F3C8FDB0193
:1005E000CA018F779070A070B07080349105A1051A
:1005F000B10561F447FD0AC0E114F10401051105DC
:1006000029F0405C5F4F6F4F7F4F40781A8EFE1786
:1006100011F081E08A8F4D8F5E8F6F8F78A383E01A
:10062000898FCE0149960E94FD03A096E2E10C94C9
:10063000A017A8E1B0E0EFE1F3E00C949017698314
:100640007A838B839C832D833E834F83588789E0F5
:10065000E82EF12CEC0EFD1ECE010196B7010E9492
:10066000D2048E010F5E1F4FCE010596B8010E9485
:10067000D2048985823040F08989823028F0C70110
:10068000B8010E944A0501C08FEF6896E6E00C941D
:10069000AC17A8E1B0E0EFE4F3E00C9490176983A5
:1006A0007A838B839C832D833E834F83588789E095
:1006B000E82EF12CEC0EFD1ECE010196B7010E9432
:1006C000D2048E010F5E1F4FCE010596B8010E9425
:1006D000D2048985823040F08989823028F0C701B0
:1006E000B8010E944A0501C08FEF6896E6E00C94BD
:1006F000AC17A8E1B0E0EFE7F3E00C949017698342
:100700007A838B839C832D833E834F83588789E034
:10071000E82EF12CEC0EFD1ECE010196B7010E94D1
:10072000D2048E010F5E1F4FCE010596B8010E94C4
:10073000D2048985823040F08989823028F0C7014F
:10074000B8010E944A0501C081E06896E6E00C9479
:10075000AC17ACE0B0E0EFEAF3E00C9494176983D7
:100760007A838B839C83CE010196BE016B5F7F4FA2
:100770000E94D2048D81823061F1823050F1843048
:1007800021F48E81882351F12EC02F81388537FDC9
:1007900020C06E812F3131051CF06623F9F023C093
:1007A0008EE190E0821B930B29853A854B855C8511
:1007B00004C056954795379527958A95D2F76623B5
:1007C000B1F050954095309521953F4F4F4F5F4F79
:1007D0000EC020E030E040E050E009C02FEF3FEFD6
:1007E0004FEF5FE704C020E030E040E050E8B9019F
:1007F000CA012C96E2E00C94B017DF92EF92FF92C0
:100800000F931F93FC01E480F58006811781D1804E
:100810008081823048F480E090E0A0E1B0E0E82AF6
:10082000F92A0A2B1B2BA5C0843009F49FC0823003
:1008300021F4EE24FF24870105C0E114F104010531
:10084000110519F4E0E0F0E096C0628173819FEF3A
:10085000623879070CF05BC022E83FEF261B370BAC
:100860002A3131052CF020E030E040E050E02AC091
:10087000B801A701022E04C0769567955795479554
:100880000A94D2F781E090E0A0E0B0E004C0880FC5
:10089000991FAA1FBB1F2A95D2F70197A109B10979
:1008A0008E219F21A023B1230097A105B10521F03E
:1008B00081E090E0A0E0B0E09A01AB01282B392B59
:1008C0004A2B5B2BDA01C9018F779070A070B07052
:1008D00080349105A105B10539F427FF09C0205CDA
:1008E0003F4F4F4F5F4F04C0215C3F4F4F4F5F4F13
:1008F000E0E0F0E02030A0E03A07A0E04A07A0E402
:100900005A0710F0E1E0F0E079018A0127C0603871
:10091000710564F5FB01E158FF4FD801C7018F77DE
:100920009070A070B07080349105A105B10539F4C4
:10093000E7FE0DC080E490E0A0E0B0E004C08FE3EB
:1009400090E0A0E0B0E0E80EF91E0A1F1B1F17FFA1
:1009500005C016950795F794E794319687E01695AC
:100960000795F794E7948A95D1F705C0EE24FF2404
:100970008701EFEFF0E06E2F679566276795902F60
:100980009F77D794DD24D7948E2F8695492F462BB9
:10099000582F5D29B701CA011F910F91FF90EF9069
:1009A000DF900895FC01DB01408151812281622F9B
:1009B0006F7770E0221F2227221F9381892F880FD3
:1009C000822B282F30E0991F9927991F11969C930D
:1009D000119721153105A9F54115510561057105DD
:1009E00011F482E037C082E89FEF13969C938E93B8
:1009F00012979A01AB0167E0220F331F441F551F66
:100A00006A95D1F783E08C930DC0220F331F441FEA
:100A1000551F12968D919C911397019713969C9355
:100A20008E931297203080E0380780E0480780E4FA
:100A3000580758F314962D933D934D935C93179755
:100A400008952F3F310579F4411551056105710570
:100A500019F484E08C93089564FF03C081E08C93C3
:100A600012C01C9210C02F57304013963C932E9307
:100A7000129783E08C9387E0440F551F661F771F02
:100A80008A95D1F7706414964D935D936D937C9322
:100A9000179708951F93DC01FB019C91923008F495
:100AA00047C08081823008F443C0943051F41196DD
:100AB0001C91843099F58181682F70E0611B710968
:100AC0003FC0843021F0923031F48230B9F181811D
:100AD000882389F12DC011961C9111978230F1F075
:100AE00081811817D9F412962D913C911397828128
:100AF00093818217930794F028173907BCF0149656
:100B00008D919D910D90BC91A02D248135814681C0
:100B10005781281739074A075B0718F4112341F05A
:100B20000AC082179307A407B50740F4112319F0F0
:100B300061E070E005C06FEF7FEF02C060E070E041
:100B4000CB011F910895DF93CF9300D000D000D048
:100B5000CDB7DEB79A8389836B834C838B81282F33
:100B600030E03E832D838D819E818330910509F491
:100B700051C02D813E81243031057CF48D819E81D0
:100B80008130910571F12D813E8122303105ACF526
:100B90008D819E810097D1F081C02D813E812530CD
:100BA000310509F452C08D819E81853091050CF488
:100BB0003FC02D813E812630310509F454C08D811E
:100BC0009E818730910509F45DC068C08C81817079
:100BD000E981FA81982F917081818E7F892B8183A1
:100BE0005DC08C818170E981FA818170982F990FA5
:100BF00081818D7F892B818351C08C818170E981B6
:100C0000FA818170982F990F990F81818B7F892BA1
:100C1000818344C08C818170E981FA818170982F31
:100C2000990F990F990F8181877F892B818336C016
:100C30008C818170E981FA818170982F9295907FE3
:100C400081818F7E892B818329C08C818170E9818C
:100C5000FA818170982F9295990F907E81818F7D76
:100C6000892B81831BC08C818170E981FA8181701D
:100C7000982F9295990F990F907C81818F7B892B6A
:100C800081830CC08C818170E981FA81982F9795BE
:100C90009927979581818F77892B818326960FB627
:100CA000F894DEBF0FBECDBFCF91DF910895DF93E3
:100CB000CF9300D000D000D0CDB7DEB79A83898320
:100CC0006B834C838B81282F30E03E832D838D8175
:100CD0009E818330910509F451C02D813E812430DD
:100CE00031057CF48D819E818130910571F12D81DA
:100CF0003E8122303105ACF58D819E810097D1F087
:100D000081C02D813E812530310509F452C08D818D
:100D10009E81853091050CF43FC02D813E812630A7
:100D2000310509F454C08D819E818730910509F405
:100D30005DC068C08C818170E981FA81982F9170C3
:100D400082818E7F892B82835DC08C818170E98155
:100D5000FA818170982F990F82818D7F892B8283F0
:100D600051C08C818170E981FA818170982F990F2F
:100D7000990F82818B7F892B828344C08C81817003
:100D8000E981FA818170982F990F990F990F8281CB
:100D9000877F892B828336C08C818170E981FA81BB
:100DA0008170982F9295907F82818F7E892B82838C
:100DB00029C08C818170E981FA818170982F929588
:100DC000990F907E82818F7D892B82831BC08C81BD
:100DD0008170E981FA818170982F9295990F990F0E
:100DE000907C82818F7B892B82830CC08C81817067
:100DF000E981FA81982F97959927979582818F7726
:100E0000892B828326960FB6F894DEBF0FBECDBF26
:100E1000CF91DF910895DF93CF9300D000D000D021
:100E2000CDB7DEB79B838A836C838C81282F30E01B
:100E30003E832D838D819E818330910509F43EC0D0
:100E40002D813E81243031057CF48D819E8181305D
:100E5000910529F12D813E81223031053CF58D81AE
:100E60009E810097B1F055C02D813E81253031051E
:100E7000B1F18D819E81853091054CF12D813E81AE
:100E800026303105A9F18D819E8187309105D1F100
:100E900040C0EA81FB818081817089833AC0EA8108
:100EA000FB81808186958170898333C0EA81FB81D3
:100EB000808186958695817089832BC0EA81FB812C
:100EC00080818695869586958170898322C0EA8186
:100ED000FB81808182958F70817089831AC0EA813D
:100EE000FB8180818295869587708170898311C08E
:100EF000EA81FB81808182958695869583708170D9
:100F0000898307C0EA81FB818081881F8827881F29
:100F10008983898126960FB6F894DEBF0FBECDBFB8
:100F2000CF91DF910895DF93CF9300D00F92CDB78B
:100F3000DEB79A8389836B83E981FA818B81818310
:100F40000F900F900F90CF91DF910895DF93CF9383
:100F500000D00F92CDB7DEB79A8389836B83E98186
:100F6000FA818B8182830F900F900F90CF91DF9148
:100F70000895DF93CF9300D0CDB7DEB79A838983EE
:100F8000E981FA8180810F900F90CF91DF910895D0
:100F9000DF93CF93CDB7DEB78091210190912201ED
:100FA00062E041E00E94A30580912101909122011D
:100FB00063E041E00E94A30580912101909122010C
:100FC00064E041E00E94A3058091210190912201FB
:100FD00065E041E00E94A3058091230190912401E6
:100FE00063E040E00E94A3058091230190912401D9
:100FF00065E040E00E94A3058091230190912401C7
:1010000066E040E00E94A3058091230190912401B5
:1010100067E040E00E94A3058091210190912201A8
:1010200062E041E00E9457068091210190912201E7
:1010300063E041E00E9457068091210190912201D6
:1010400064E041E00E9457068091210190912201C5
:1010500065E041E00E9457068091230190912401B0
:1010600063E041E00E9457068091230190912401A2
:1010700065E041E00E945706809123019091240190
:1010800066E041E00E94570680912301909124017F
:1010900067E041E00E945706CF91DF910895DF930A
:1010A000CF93CDB7DEB7A6970FB6F894DEBF0FBECD
:1010B000CDBF85E08F8F84E088A383E089A382E0A1
:1010C0008AA387E08BA386E08CA385E08DA383E0D1
:1010D0008EA31E8E4EC140912101509122018E8D12
:1010E000282F30E0CE014F96FC01E20FF31F208144
:1010F000CA01622F40E00E9457061D8EAFC040918A
:101100002301509124018D8D282F30E0CE0183964C
:10111000FC01E20FF31F2081CA01622F0E940B071E
:10112000882309F098C080E090E0A0EFB1E4898FB7
:101130009A8FAB8FBC8F698D7A8D8B8D9C8D20E0C3
:1011400030E04AE755E40E941F02DC01CB018D8BA1
:101150009E8BAF8BB88F6D897E898F89988D20E0AB
:1011600030E040E85FE30E94790388232CF481E0BB
:1011700090E09C8B8B8B3FC06D897E898F89988D89
:1011800020E03FEF4FE757E40E94190318164CF593
:10119000698D7A8D8B8D9C8D20E030E040E251E4AA
:1011A0000E941F02DC01CB01BC01CD010E9449005D
:1011B000DC01CB019C8B8B8B0FC080E991E09A8B7B
:1011C000898B89899A890197F1F79A8B898B8B8909
:1011D0009C8901979C8B8B8B8B899C89009769F7E5
:1011E00014C06D897E898F89988D0E944900DC0129
:1011F000CB019C8B8B8B8B899C89988B8F878F8560
:1012000098890197F1F7988B8F874091230150912E
:1012100024018D8D282F30E0CE018396FC01E20F52
:10122000F31F2081CA01622F0E940B07882399F4C3
:101230008E8D882F90E0880F991F880F991F982F07
:101240008D8D890FA6960FB6F894DEBF0FBECDBF69
:10125000CF91DF9108958D8D8F5F8D8F8D8D84302F
:1012600008F44DCF40912101509122018E8D282FFD
:1012700030E0CE014F96FC01E20FF31F2081CA013E
:10128000622F41E00E94570680E090E0A0EAB0E4BF
:101290008B879C87AD87BE876B857C858D859E857A
:1012A00020E030E04AE755E40E941F02DC01CB0158
:1012B0008F839887A987BA876F81788589859A8572
:1012C00020E030E040E85FE30E94790388232CF4BB
:1012D00081E090E09E838D833FC06F817885898512
:1012E0009A8520E03FEF4FE757E40E941903181654
:1012F0004CF56B857C858D859E8520E030E040E255
:1013000051E40E941F02DC01CB01BC01CD010E940F
:101310004900DC01CB019E838D830FC080E991E001
:101320009C838B838B819C810197F1F79C838B83BA
:101330008D819E8101979E838D838D819E810097F3
:1013400069F714C06F81788589859A850E94490064
:10135000DC01CB019E838D838D819E819A8389835D
:1013600089819A810197F1F79A8389838E8D8F5FA6
:101370008E8F8E8D843008F4AECEABCEDF93CF93BC
:10138000CDB7DEB72E970FB6F894DEBF0FBECDBF38
:1013900080911D0190911E0163E041E00E94A30530
:1013A00080911D0190911E0162E041E00E94A30521
:1013B00080E090E0A8E4B2E48B879C87AD87BE878D
:1013C0006B857C858D859E8520E030E04AE755E47D
:1013D0000E941F02DC01CB018F839887A987BA87FF
:1013E0006F81788589859A8520E030E040E85FE369
:1013F0000E94790388232CF481E090E09E838D8302
:101400003FC06F81788589859A8520E03FEF4FE75F
:1014100057E40E94190318164CF56B857C858D8561
:101420009E8520E030E040E251E40E941F02DC0192
:10143000CB01BC01CD010E944900DC01CB019E83A0
:101440008D830FC080E991E09C838B838B819C818D
:101450000197F1F79C838B838D819E8101979E83F9
:101460008D838D819E81009769F714C06F81788587
:1014700089859A850E944900DC01CB019E838D837A
:101480008D819E819A83898389819A810197F1F761
:101490009A83898380911F019091200167E10E94C6
:1014A000930780911D0190911E0162E040E00E942F
:1014B000570682E30E947C0B82E30E947C0B88E249
:1014C0000E947C0B8EE00E947C0B81E00E947C0BD2
:1014D0002E960FB6F894DEBF0FBECDBFCF91DF9131
:1014E0000895DF93CF93CDB7DEB76D970FB6F8941D
:1014F000DEBF0FBECDBF8D8F80911D0190911E016B
:1015000063E041E00E94570680E090E0A0E8BFE37E
:10151000898F9A8FAB8FBC8F698D7A8D8B8D9C8DC7
:1015200020E030E04AE755E40E941F02DC01CB01D5
:101530008D8B9E8BAF8BB88F6D897E898F89988DAF
:1015400020E030E040E85FE30E94790388232CF438
:1015500081E090E09C8B8B8B3FC06D897E898F8969
:10156000988D20E03FEF4FE757E40E9419031816CB
:101570004CF5698D7A8D8B8D9C8D20E030E040E2BA
:1015800051E40E941F02DC01CB01BC01CD010E948D
:101590004900DC01CB019C8B8B8B0FC080E991E073
:1015A0009A8B898B89899A890197F1F79A8B898B14
:1015B0008B899C8901979C8B8B8B8B899C8900974D
:1015C00069F714C06D897E898F89988D0E944900C2
:1015D000DC01CB019C8B8B8B8B899C89988B8F87B3
:1015E0008F8598890197F1F7988B8F8780911D01DE
:1015F00090911E0162E040E00E94570680E090E07A
:10160000A0E8BFE38B879C87AD87BE876B857C8511
:101610008D859E8520E030E04AE755E40E941F0258
:10162000DC01CB018F839887A987BA876F81788582
:1016300089859A8520E030E040E85FE30E947903E5
:1016400088232CF481E090E09E838D833FC06F81DE
:10165000788589859A8520E03FEF4FE757E40E941F
:10166000190318164CF56B857C858D859E8520E0C9
:1016700030E040E251E40E941F02DC01CB01BC01DA
:10168000CD010E944900DC01CB019E838D830FC0F8
:1016900080E991E09C838B838B819C810197F1F79A
:1016A0009C838B838D819E8101979E838D838D8109
:1016B0009E81009769F714C06F81788589859A8526
:1016C0000E944900DC01CB019E838D838D819E8128
:1016D0009A83898389819A810197F1F79A83898313
:1016E0008D8D0E94FC0D6D960FB6F894DEBF0FBE77
:1016F000CDBFCF91DF910895DF93CF93CDB7DEB704
:101700006D970FB6F894DEBF0FBECDBF8D8F809161
:101710001D0190911E0163E040E00E94570680E0A9
:1017200090E0A0E8BFE3898F9A8FAB8FBC8F698D63
:101730007A8D8B8D9C8D20E030E04AE755E40E9445
:101740001F02DC01CB018D8B9E8BAF8BB88F6D8917
:101750007E898F89988D20E030E040E85FE30E9429
:10176000790388232CF481E090E09C8B8B8B3FC025
:101770006D897E898F89988D20E03FEF4FE757E490
:101780000E94190318164CF5698D7A8D8B8D9C8DEE
:1017900020E030E040E251E40E941F02DC01CB0176
:1017A000BC01CD010E944900DC01CB019C8B8B8BDD
:1017B0000FC080E991E09A8B898B89899A8901977A
:1017C000F1F79A8B898B8B899C8901979C8B8B8BEA
:1017D0008B899C89009769F714C06D897E898F89F0
:1017E000988D0E944900DC01CB019C8B8B8B8B89EF
:1017F0009C89988B8F878F8598890197F1F7988BB3
:101800008F8780911D0190911E0162E040E00E944F
:10181000570680E090E0A0E8BFE38B879C87AD8708
:10182000BE876B857C858D859E8520E030E04AE70C
:1018300055E40E941F02DC01CB018F839887A987A2
:10184000BA876F81788589859A8520E030E040E805
:101850005FE30E94790388232CF481E090E09E836B
:101860008D833FC06F81788589859A8520E03FEF21
:101870004FE757E40E94190318164CF56B857C85D9
:101880008D859E8520E030E040E251E40E941F02F9
:10189000DC01CB01BC01CD010E944900DC01CB0180
:1018A0009E838D830FC080E991E09C838B838B8125
:1018B0009C810197F1F79C838B838D819E81019799
:1018C0009E838D838D819E81009769F714C06F81FF
:1018D000788589859A850E944900DC01CB019E8329
:1018E0008D838D819E819A83898389819A810197D5
:1018F000F1F79A8389838D8D0E94FC0D6D960FB64A
:10190000F894DEBF0FBECDBFCF91DF910895DF9376
:10191000CF9300D00F92CDB7DEB79B838A830EC0E2
:101920008981282F30E08A819B81FC01E20FF31F1F
:1019300080810E94710A89818F5F89838981282F24
:1019400030E08A819B81FC01E20FF31F80818823B4
:1019500039F70F900F900F90CF91DF910895DF939B
:10196000CF93CDB7DEB76C970FB6F894DEBF0FBE3E
:10197000CDBF80911D0190911E0163E040E00E9467
:10198000570680E090E0A0E8BFE3898F9A8FAB8F85
:10199000BC8F698D7A8D8B8D9C8D20E030E04AE77D
:1019A00055E40E941F02DC01CB018D8B9E8BAF8B17
:1019B000B88F6D897E898F89988D20E030E040E86E
:1019C0005FE30E94790388232CF481E090E09C8BF4
:1019D0008B8B3FC06D897E898F89988D20E03FEF8A
:1019E0004FE757E40E94190318164CF5698D7A8D5C
:1019F0008B8D9C8D20E030E040E251E40E941F027C
:101A0000DC01CB01BC01CD010E944900DC01CB010E
:101A10009C8B8B8B0FC080E991E09A8B898B898995
:101A20009A890197F1F79A8B898B8B899C89019709
:101A30009C8B8B8B8B899C89009769F714C06D896F
:101A40007E898F89988D0E944900DC01CB019C8B97
:101A50008B8B8B899C89988B8F878F859889019731
:101A6000F1F7988B8F8780911D0190911E0162E0A4
:101A700040E00E94570680E090E0A0E8BFE38B873B
:101A80009C87AD87BE876B857C858D859E8520E094
:101A900030E04AE755E40E941F02DC01CB018F834E
:101AA0009887A987BA876F81788589859A8520E08C
:101AB00030E040E85FE30E94790388232CF481E062
:101AC00090E09E838D833FC06F81788589859A855C
:101AD00020E03FEF4FE757E40E94190318164CF53A
:101AE0006B857C858D859E8520E030E040E251E469
:101AF0000E941F02DC01CB01BC01CD010E94490004
:101B0000DC01CB019E838D830FC080E991E09C8333
:101B10008B838B819C810197F1F79C838B838D81D3
:101B20009E8101979E838D838D819E81009769F7A9
:101B300014C06F81788589859A850E944900DC01EF
:101B4000CB019E838D838D819E819A838983898138
:101B50009A810197F1F79A83898381E00E94FC0DB5
:101B60006C960FB6F894DEBF0FBECDBFCF91DF915C
:101B70000895DF93CF9300D000D00F92CDB7DEB79A
:101B80008A836B8319828A81282F30E03D832C83DE
:101B90008C819D8181309105C1F02C813D81223065
:101BA00031052CF48C819D81009761F019C02C8146
:101BB0003D812230310569F08C819D818330910512
:101BC00061F00EC08B8189830BC08B81805C89831F
:101BD00007C08B81805F898303C08B81805B898391
:101BE000898180680E947C0B0F900F900F900F905E
:101BF0000F90CF91DF910895DF93CF93CDB7DEB7EC
:101C0000E9970FB6F894DEBF0FBECDBF89AF209124
:101C10001F013091200189AD482F441F4427441FE4
:101C2000C90164E00E94570620911F0130912001F4
:101C300089AD8295869586958370482F4170C9013C
:101C400062E00E94570620911F013091200189AD6A
:101C5000829586958770482F4170C90161E00E9486
:101C6000570620911F013091200189AD82958F7018
:101C7000482F4170C90160E00E94570680911D0104
:101C800090911E0162E041E00E94570680E090E0E2
:101C9000A0E8BFE38DAB9EABAFABB8AF6DA97EA99B
:101CA0008FA998AD20E030E04AE755E40E941F027A
:101CB000DC01CB0189AB9AABABABBCAB69A97AA910
:101CC0008BA99CA920E030E040E85FE30E94790303
:101CD00088232CF481E090E098AB8FA73FC069A9DE
:101CE0007AA98BA99CA920E03FEF4FE757E40E9417
:101CF000190318164CF56DA97EA98FA998AD20E09F
:101D000030E040E251E40E941F02DC01CB01BC0143
:101D1000CD010E944900DC01CB0198AB8FA70FC019
:101D200080E991E09EA78DA78DA59EA50197F1F76B
:101D30009EA78DA78FA598A9019798AB8FA78FA570
:101D400098A9009769F714C069A97AA98BA99CA9D9
:101D50000E944900DC01CB0198AB8FA78FA598A901
:101D60009CA78BA78BA59CA50197F1F79CA78BA798
:101D700080911D0190911E0162E040E00E94570693
:101D800080E090E0A0EAB0E48FA398A7A9A7BAA743
:101D90006FA178A589A59AA520E030E04AE755E42F
:101DA0000E941F02DC01CB018BA39CA3ADA3BEA3A9
:101DB0006BA17CA18DA19EA120E030E040E85FE313
:101DC0000E94790388232CF481E090E09AA389A3F0
:101DD0003FC06BA17CA18DA19EA120E03FEF4FE70A
:101DE00057E40E94190318164CF56FA178A589A530
:101DF0009AA520E030E040E251E40E941F02DC019D
:101E0000CB01BC01CD010E944900DC01CB019AA3AA
:101E100089A30FC080E991E098A38F8F8F8D98A13F
:101E20000197F1F798A38F8F89A19AA101979AA39F
:101E300089A389A19AA1009769F714C06BA17CA11D
:101E40008DA19EA10E944900DC01CB019AA389A328
:101E500089A19AA19E8F8D8F8D8D9E8D0197F1F70F
:101E60009E8F8D8F20911F013091200189AD869525
:101E700086958695482F4170C90164E00E945706F7
:101E800020911F013091200189AD86958695482FBC
:101E90004170C90162E00E94570620911F013091F4
:101EA000200189AD8695482F4170C90161E00E94EB
:101EB000570620911F013091200189AD482F4170B4
:101EC000C90160E00E94570680911D0190911E019A
:101ED00062E041E00E94570680E090E0A0E8BFE3A6
:101EE000898F9A8FAB8FBC8F698D7A8D8B8D9C8DEE
:101EF00020E030E04AE755E40E941F02DC01CB01FC
:101F00008D8B9E8BAF8BB88F6D897E898F89988DD5
:101F100020E030E040E85FE30E94790388232CF45E
:101F200081E090E09C8B8B8B3FC06D897E898F898F
:101F3000988D20E03FEF4FE757E40E9419031816F1
:101F40004CF5698D7A8D8B8D9C8D20E030E040E2E0
:101F500051E40E941F02DC01CB01BC01CD010E94B3
:101F60004900DC01CB019C8B8B8B0FC080E991E099
:101F70009A8B898B89899A890197F1F79A8B898B3A
:101F80008B899C8901979C8B8B8B8B899C89009773
:101F900069F714C06D897E898F89988D0E944900E8
:101FA000DC01CB019C8B8B8B8B899C89988B8F87D9
:101FB0008F8598890197F1F7988B8F8780911D0104
:101FC00090911E0162E040E00E94570680E090E0A0
:101FD000A0EAB0E48B879C87AD87BE876B857C8544
:101FE0008D859E8520E030E04AE755E40E941F027F
:101FF000DC01CB018F839887A987BA876F817885A9
:1020000089859A8520E030E040E85FE30E9479030B
:1020100088232CF481E090E09E838D833FC06F8104
:10202000788589859A8520E03FEF4FE757E40E9445
:10203000190318164CF56B857C858D859E8520E0EF
:1020400030E040E251E40E941F02DC01CB01BC0100
:10205000CD010E944900DC01CB019E838D830FC01E
:1020600080E991E09C838B838B819C810197F1F7C0
:102070009C838B838D819E8101979E838D838D812F
:102080009E81009769F714C06F81788589859A854C
:102090000E944900DC01CB019E838D838D819E814E
:1020A0009A83898389819A810197F1F79A83898339
:1020B000E9960FB6F894DEBF0FBECDBFCF91DF918A
:1020C0000895DF93CF9300D000D0CDB7DEB79B83C8
:1020D0008A836C838C818830F8F48C81882F90E01F
:1020E0000896880F991F880F991F880F991F0E94C3
:1020F0007C0B19820EC08981282F30E08A819B8158
:10210000FC01E20FF31F80810E94710A89818F5FB9
:1021100089838981883078F30F900F900F900F900A
:10212000CF91DF910895DF93CF930F92CDB7DEB7B4
:102130008983898180580E947C0B89810E94710A61
:102140000F90CF91DF910895DF93CF9300D000D00F
:1021500000D0CDB7DEB78A83198280E690E00E9476
:10216000870C8A8182958F7089838981282F30E03E
:102170003E832D838D819E818B30910569F12D8168
:102180003E812C30310554F48D819E819923BCF120
:102190002D813E812A303105B4F01AC08D819E8197
:1021A0008D30910509F12D813E812D303105C4F02E
:1021B0008D819E818E309105D9F02D813E812F3009
:1021C0003105D1F01CC08981805D0E94710A17C061
:1021D00081E40E94710A13C082E40E94710A0FC058
:1021E00083E40E94710A0BC084E40E94710A07C054
:1021F00085E40E94710A03C086E40E94710A8A8104
:102200008F7089838981282F30E03C832B838B81D9
:102210009C818B30910569F12B813C812C303105FB
:1022200054F48B819C819923BCF12B813C812A3011
:102230003105B4F01AC08B819C818D30910509F174
:102240002B813C812D303105C4F08B819C818E30F7
:102250009105D9F02B813C812F303105D1F01CC084
:102260008981805D0E94710A17C081E40E94710A11
:1022700013C082E40E94710A0FC083E40E94710AB5
:102280000BC084E40E94710A07C085E40E94710AB1
:1022900003C086E40E94710A26960FB6F894DEBF4A
:1022A0000FBECDBFCF91DF910895DF93CF9300D0C4
:1022B000CDB7DEB78A8383E690E00E94870C19824F
:1022C00018C08A81482F50E08981282F30E087E0AC
:1022D00090E0821B930B9A0102C0359527958A9551
:1022E000E2F7C9018170805D0E94710A89818F5F68
:1022F00089838981883028F30F900F90CF91DF91E7
:102300000895DF93CF93CDB7DEB72A970FB6F89431
:10231000DEBF0FBECDBF6F83788789879A871E8205
:102320001D828F819885A985BA8589839A83AB831D
:10233000BC836F81788589859A850E94A903DC0119
:10234000CB01AA2797FDA095BA2FBC01CD010E9411
:10235000F9118EE20E94710A69817A818B819C81D8
:1023600020E030E040E050E00E94790388234CF404
:1023700089819A81AB81BC81B05889839A83AB8370
:10238000BC831E822AC069817A818B819C8120E076
:1023900030E040E251E40E941F02DC01CB0189835E
:1023A0009A83AB83BC8369817A818B819C810E94F3
:1023B000A903DC01CB012AE030E040E050E0BC01A1
:1023C000CD010E943317DC01CB018D838D81805DAF
:1023D0000E94710A8E818F5F8E838E81833098F286
:1023E0002A960FB6F894DEBF0FBECDBFCF91DF9116
:1023F0000895DF93CF93CDB7DEB76C970FB6F894FF
:10240000DEBF0FBECDBF698F7A8F8B8F9C8F84E12B
:10241000FE013596DF01982F1D929A95E9F71B82F0
:10242000898D9A8D9A83898389819A81009709F48D
:102430005DC089819A819923C4F48DE20E94710A5A
:1024400089819A81909581959F4F9A8389830DC048
:102450008B818F5F8B8389819A812AE030E0B9017B
:102460000E942017CB019A83898389819A8118164B
:10247000190674F3898D9A8D9A83898389819A814B
:10248000181619063CF089819A81909581959F4F85
:102490009A8389838B8181508C8320C08C81E82F23
:1024A000FF27E7FDF09589819A812AE030E0B901A4
:1024B0000E942017805D282FCE010596E80FF91F96
:1024C000208389819A812AE030E0B9010E94201797
:1024D000CB019A8389838C8181508C838C81882362
:1024E000ECF6CE0105960E94870C03C080E30E94A3
:1024F000710A6C960FB6F894DEBF0FBECDBFCF91B8
:10250000DF910895DF93CF93CDB7DEB70E94C80760
:102510000E94BE090E948D12FFCF0F931F93DF937D
:10252000CF93CDB7DEB7CB55D0400FB6F894DEBF12
:102530000FBECDBFFE01E75AFF4F1082FE01E95AE0
:10254000FF4F11821082FE01EB5AFF4F1182108261
:1025500086E690E00E94870C81E060E00E94B90D61
:10256000FE01E65AFF4F1082E5C00E944F08FE01AF
:10257000E75AFF4F8083FE01E75AFF4F8081805D5D
:102580000E94710AFE01EB5AFF4F808191819C01EC
:10259000220F331FC901880F991F880F991F280F19
:1025A000391FFE01E75AFF4F8081882F90E0FE011E
:1025B000EB5AFF4F820F931F91838083FE01EF5AE6
:1025C000FF4F80E090E0AAEFB3E480839183A28381
:1025D000B3838E01035B1F4FFE01EF5AFF4F6081F3
:1025E00071818281938120E030E04AE755E40E94C6
:1025F0001F02DC01CB01F80180839183A283B383A6
:10260000FE01E35BFF4F608171818281938120E055
:1026100030E040E85FE30E947903882344F4FE0140
:10262000E55BFF4F81E090E09183808364C0FE0111
:10263000E35BFF4F608171818281938120E03FEFF6
:102640004FE757E40E94190318160CF043C0FE012F
:10265000EF5AFF4F608171818281938120E030E0E9
:1026600040E251E40E941F02DC01CB018E01055BB8
:102670001F4FBC01CD010E944900DC01CB01F801D4
:10268000918380831FC0FE01E75BFF4F80E991E0EB
:1026900091838083FE01E75BFF4F808191810197E9
:1026A000F1F7FE01E75BFF4F91838083DE01A55BBD
:1026B000BF4FFE01E55BFF4F80819181019711962D
:1026C0009C938E93FE01E55BFF4F80819181009783
:1026D000D1F627C08E01055B1F4FFE01E35BFF4F64
:1026E00060817181828193810E944900DC01CB016C
:1026F000F80191838083DE01A95BBF4FFE01E55B9A
:10270000FF4F808191818D939C93FE01E95BFF4F88
:10271000808191810197F1F7FE01E95BFF4F918381
:102720008083DE01A65ABF4FFE01E65AFF4F80812B
:102730008F5F8C93FE01E65AFF4F8081843008F44E
:1027400014CF8091F7009091F800FE01EB5AFF4FF3
:10275000208131818217930769F080910A0190915D
:102760000B01FE01EB5AFF4F208131818217930745
:1027700009F0DFC00E94AF0C80E060E00E94B90D5C
:1027800087E790E00E94870C81E060E00E94B90D2D
:10279000FE01E65AFF4F1082B7C00E944F08FE01AB
:1027A000E75AFF4F8083FE01E75AFF4F8081805D2B
:1027B0000E94710AFE01E95AFF4F808191819C01BC
:1027C000220F331FC901880F991F880F991F280FE7
:1027D000391FFE01E75AFF4F8081882F90E0FE01EC
:1027E000E95AFF4F820F931F91838083FE01ED5BB7
:1027F000FF4F80E090E0AAEFB3E480839183A2834F
:10280000B3838E01015C1F4FFE01ED5BFF4F6081C2
:1028100071818281938120E030E04AE755E40E9493
:102820001F02DC01CB01F80180839183A283B38373
:10283000FE01FF96608171818281938120E030E00A
:1028400040E85FE30E94790388232CF481E090E064
:102850009EAF8DAF46C0FE01FF966081718182817F
:10286000938120E03FEF4FE757E40E9419031816C9
:1028700064F5FE01ED5BFF4F608171818281938180
:1028800020E030E040E251E40E941F02DC01CB0175
:10289000BC01CD010E944900DC01CB019EAF8DAF90
:1028A0000FC080E991E09CAF8BAF8BAD9CAD0197E1
:1028B000F1F79CAF8BAF8DAD9EAD01979EAF8DAF05
:1028C0008DAD9EAD009769F716C0FE01FF96608141
:1028D0007181828193810E944900DC01CB019EAF0E
:1028E0008DAF8DAD9EAD9AAF89AF89AD9AAD019791
:1028F000F1F79AAF89AFDE01A65ABF4FFE01E65A43
:10290000FF4F80818F5F8C93FE01E65AFF4F8081DD
:10291000843008F442CF8091F7009091F800FE01D6
:10292000EB5AFF4F208131818217930709F053C181
:1029300080C00E94AF0C80E060E00E94B90D8AE880
:1029400090E00E94870C80E090E0AAE7B4E48DABB1
:102950009EABAFABB8AF6DA97EA98FA998AD20E0B3
:1029600030E04AE755E40E941F02DC01CB0189AB4D
:102970009AABABABBCAB69A97AA98BA99CA920E0A7
:1029800030E040E85FE30E94790388232CF481E083
:1029900090E098AB8FA73FC069A97AA98BA99CA9A1
:1029A00020E03FEF4FE757E40E94190318164CF55B
:1029B0006DA97EA98FA998AD20E030E040E251E4F6
:1029C0000E941F02DC01CB01BC01CD010E94490025
:1029D000DC01CB0198AB8FA70FC080E991E09EA7E7
:1029E0008DA78DA59EA50197F1F79EA78DA78FA511
:1029F00098A9019798AB8FA78FA598A9009769F719
:102A000014C069A97AA98BA99CA90E944900DC017C
:102A1000CB0198AB8FA78FA598A99CA78BA78BA557
:102A20009CA50197F1F79CA78BA76C961FAE6C979E
:102A3000F8C18091F9009091FA00FE01E95AFF4F28
:102A4000208131818217930709F0C5C00E94AF0C25
:102A500080E060E00E94B90D83E990E00E94870C5D
:102A60008FEE90E068E00E94611088E00E94931071
:102A700080E20E94710AFE01E65AFF4F10822AC0CE
:102A800027EC30E0FE01E65AFF4F8081882F90E06E
:102A9000880F991F880F991F880F991F280F391FBA
:102AA000FE01E65AFF4F8081482F465FC901642F1F
:102AB0000E946110FE01E65AFF4F8081865F0E94EE
:102AC0009310DE01A65ABF4FFE01E65AFF4F8081E8
:102AD0008F5F8C93FE01E65AFF4F8081853080F234
:102AE00080E090E4ACE1B6E48FA398A7A9A7BAA7C9
:102AF0006FA178A589A59AA520E030E04AE755E4C2
:102B00000E941F02DC01CB018BA39CA3ADA3BEA33B
:102B10006BA17CA18DA19EA120E030E040E85FE3A5
:102B20000E94790388232CF481E090E09AA389A382
:102B30003FC06BA17CA18DA19EA120E03FEF4FE79C
:102B400057E40E94190318164CF56FA178A589A5C2
:102B50009AA520E030E040E251E40E941F02DC012F
:102B6000CB01BC01CD010E944900DC01CB019AA33D
:102B700089A30FC080E991E098A38F8F8F8D98A1D2
:102B80000197F1F798A38F8F89A19AA101979AA332
:102B900089A389A19AA1009769F714C06BA17CA1B0
:102BA0008DA19EA10E944900DC01CB019AA389A3BB
:102BB00089A19AA19E8F8D8F8D8D9E8D0197F1F7A2
:102BC0009E8F8D8F80E060E00E94B90DF1E06C96E1
:102BD000FFAF6C9726C180910A0190910B01FE0115
:102BE000EB5AFF4F208131818217930709F094C07F
:102BF00080910C0190910D01FE01E95AFF4F208157
:102C000031818217930709F087C00E94AF0C80E0E2
:102C100060E00E94B90D8DE990E00E94870C80E091
:102C200090E0AAE7B4E4898F9A8FAB8FBC8F698D4F
:102C30007A8D8B8D9C8D20E030E04AE755E40E9430
:102C40001F02DC01CB018D8B9E8BAF8BB88F6D8902
:102C50007E898F89988D20E030E040E85FE30E9414
:102C6000790388232CF481E090E09C8B8B8B3FC010
:102C70006D897E898F89988D20E03FEF4FE757E47B
:102C80000E94190318164CF5698D7A8D8B8D9C8DD9
:102C900020E030E040E251E40E941F02DC01CB0161
:102CA000BC01CD010E944900DC01CB019C8B8B8BC8
:102CB0000FC080E991E09A8B898B89899A89019765
:102CC000F1F79A8B898B8B899C8901979C8B8B8BD5
:102CD0008B899C89009769F714C06D897E898F89DB
:102CE000988D0E944900DC01CB019C8B8B8B8B89DA
:102CF0009C89988B8F878F8598890197F1F7988B9E
:102D00008F870E94AF0C80E060E00E94B90D81E0E7
:102D10006C968FAF6C9785C00E94AF0C80E060E02E
:102D20000E94B90D8CEA90E00E94870C80E090E050
:102D3000AAE7B4E48B879C87AD87BE876B857C85CB
:102D40008D859E8520E030E04AE755E40E941F0211
:102D5000DC01CB018F839887A987BA876F8178853B
:102D600089859A8520E030E040E85FE30E9479039E
:102D700088232CF481E090E09E838D833FC06F8197
:102D8000788589859A8520E03FEF4FE757E40E94D8
:102D9000190318164CF56B857C858D859E8520E082
:102DA00030E040E251E40E941F02DC01CB01BC0193
:102DB000CD010E944900DC01CB019E838D830FC0B1
:102DC00080E991E09C838B838B819C810197F1F753
:102DD0009C838B838D819E8101979E838D838D81C2
:102DE0009E81009769F714C06F81788589859A85DF
:102DF0000E944900DC01CB019E838D838D819E81E1
:102E00009A83898389819A810197F1F79A838983CB
:102E10000E94AF0C80E060E00E94B90D6C961FAE7E
:102E20006C976C968FAD6C97C55ADF4F0FB6F894C0
:102E3000DEBF0FBECDBFCF91DF911F910F910895DF
:102E400097FB092E07260AD077FD04D027D006D09D
:102E500000201AF4709561957F4F0895F6F79095CC
:102E600081959F4F089597FB092E05260ED057FD9B
:102E700004D028D00AD0001C38F4509540953095E5
:102E800021953F4F4F4F5F4F0895F6F790958095EE
:102E9000709561957F4F8F4F9F4F0895AA1BBB1B65
:102EA00051E107C0AA1FBB1FA617B70710F0A61B4A
:102EB000B70B881F991F5A95A9F780959095BC016B
:102EC000CD010895A1E21A2EAA1BBB1BFD010DC066
:102ED000AA1FBB1FEE1FFF1FA217B307E407F507CA
:102EE00020F0A21BB30BE40BF50B661F771F881FA6
:102EF000991F1A9469F760957095809590959B013C
:102F0000AC01BD01CF0108952F923F924F925F9285
:102F10006F927F928F929F92AF92BF92CF92DF92E9
:102F2000EF92FF920F931F93CF93DF93CDB7DEB74E
:102F3000CA1BDB0B0FB6F894DEBF0FBECDBF0994E2
:102F40002A88398848885F846E847D848C849B8439
:102F5000AA84B984C884DF80EE80FD800C811B8147
:102F6000AA81B981CE0FD11D0FB6F894DEBF0FBE76
:0A2F7000CDBFED010895F894FFCFE6
:102F7A00307800306200506C6561736520456E746C
:102F8A0065722049443A00506C6561736520456E4C
:102F9A0074657220506173733A0057726F6E6720BE
:102FAA0049440057656C636F6D652C200057656C4A
:102FBA00636F6D652C2053617261210057726F6EC9
:102FCA00672070617373776F7264000000000000FD
:102FDA000000000001020400030F080808080000AE
:102FEA00040404040404000000000101021C00009F
:102FFA0000041C080000000808080808000C180053
:10300A00000A00110E0000D204C413456272616DF9
:10301A00204564776172640000002E16FC03536138
:10302A007261204F6D6172000000000000390036A5
:06303A000033003000002D
:00000001FF
