:100000000C942A000C9447000C9447000C94470071
:100010000C9447000C9447000C9447000C94470044
:100020000C9447000C9447000C94F5040C948D0438
:100030000C9447000C9447000C9447000C94470024
:100040000C9447000C9447000C9447000C94470014
:100050000C94470011241FBECFE5D8E0DEBFCDBF12
:1000600010E0A0E6B0E0E8E8FBE002C005900D92E9
:10007000A037B107D9F710E0A0E7B0E001C01D92AA
:10008000A737B107E1F70E9428050C94C2050C942C
:100090000000DF93CF93CDB7DEB7AFE5B0E0EFE57B
:1000A000F0E0808180688C93CF91DF910895DF9399
:1000B000CF93CDB7DEB7AFE5B0E0EFE5F0E08081FC
:1000C0008F778C93CF91DF910895DF93CF9300D0FA
:1000D00000D000D0CDB7DEB79A8389836B834C8381
:1000E0008B81282F30E03E832D838D819E8183304C
:1000F000910509F451C02D813E81243031057CF4F5
:100100008D819E818130910571F12D813E8122305A
:100110003105ACF58D819E810097D1F081C02D8194
:100120003E812530310509F452C08D819E81853094
:1001300091050CF43FC02D813E812630310509F434
:1001400054C08D819E818730910509F45DC068C0DF
:100150008C818170E981FA81982F917081818E7FE5
:10016000892B81835DC08C818170E981FA818170E6
:10017000982F990F81818D7F892B818351C08C812C
:100180008170E981FA818170982F990F990F81818F
:100190008B7F892B818344C08C818170E981FA81B6
:1001A0008170982F990F990F990F8181877F892BE3
:1001B000818336C08C818170E981FA818170982FAA
:1001C0009295907F81818F7E892B818329C08C813C
:1001D0008170E981FA818170982F9295990F907EB4
:1001E00081818F7D892B81831BC08C818170E98106
:1001F000FA818170982F9295990F990F907C818147
:100200008F7B892B81830CC08C818170E981FA817D
:10021000982F97959927979581818F77892B81833F
:1002200026960FB6F894DEBF0FBECDBFCF91DF91FB
:100230000895DF93CF9300D000D000D0CDB7DEB7C4
:100240009A8389836B834C838B81282F30E03E8394
:100250002D838D819E818330910509F451C02D81BC
:100260003E81243031057CF48D819E818130910561
:1002700071F12D813E8122303105ACF58D819E8159
:100280000097D1F081C02D813E812530310509F4E0
:1002900052C08D819E81853091050CF43FC02D8127
:1002A0003E812630310509F454C08D819E8187300E
:1002B000910509F45DC068C08C818170E981FA8183
:1002C000982F917082818E7F892B82835DC08C8173
:1002D0008170E981FA818170982F990F82818D7FD9
:1002E000892B828351C08C818170E981FA81817070
:1002F000982F990F990F82818B7F892B828344C01D
:100300008C818170E981FA818170982F990F990F02
:10031000990F8281877F892B828336C08C8181707F
:10032000E981FA818170982F9295907F82818F7EEA
:10033000892B828329C08C818170E981FA81817047
:10034000982F9295990F907E82818F7D892B828341
:100350001BC08C818170E981FA818170982F929500
:10036000990F990F907C82818F7B892B82830CC09F
:100370008C818170E981FA81982F979599279795BB
:1003800082818F77892B828326960FB6F894DEBF01
:100390000FBECDBFCF91DF910895DF93CF9300D0F3
:1003A00000D000D0CDB7DEB79B838A836C838C816D
:1003B000282F30E03E832D838D819E8183309105EF
:1003C00009F43EC02D813E81243031057CF48D81BD
:1003D0009E818130910529F12D813E8122303105A8
:1003E0003CF58D819E810097B1F055C02D813E81F5
:1003F00025303105B1F18D819E81853091054CF11B
:100400002D813E8126303105A9F18D819E81873075
:100410009105D1F140C0EA81FB818081817089839F
:100420003AC0EA81FB81808186958170898333C0DF
:10043000EA81FB81808186958695817089832BC0B6
:10044000EA81FB8180818695869586958170898376
:1004500022C0EA81FB81808182958F7081708983BF
:100460001AC0EA81FB8180818295869587708170B0
:10047000898311C0EA81FB8180818295869586956A
:1004800083708170898307C0EA81FB818081881F26
:100490008827881F8983898126960FB6F894DEBF46
:1004A0000FBECDBFCF91DF910895DF93CF9300D0E2
:1004B0000F92CDB7DEB79A8389836B83E981FA8186
:1004C0008B8181830F900F900F90CF91DF910895D2
:1004D000DF93CF9300D00F92CDB7DEB79A83898395
:1004E0006B83E981FA818B8182830F900F900F904B
:1004F000CF91DF910895DF93CF9300D0CDB7DEB7D2
:100500009A838983E981FA8180810F900F90CF913E
:10051000DF910895DF93CF9300D000D0CDB7DEB741
:100520009A838983E981FA818481282F30E03C8392
:100530002B838B819C818130910509F441C02B81F3
:100540003C81223031052CF48B819C81009771F025
:10055000B4C02B813C812230310509F45BC08B8112
:100560009C818330910509F47FC0A7C0E3E5F0E0EA
:10057000808180688083A3E5B0E0E981FA81808191
:10058000869581708170982F9295990F907E8C91AD
:100590008F7D892B8C93A3E5B0E0E981FA8180817E
:1005A00081708170982F9295907F8C918F7E892B8E
:1005B0008C93ACE5B0E0E981FA8186818C937DC0B3
:1005C000E3E5F0E080818F778083A3E5B0E0E98107
:1005D000FA818281869581708170982F9295990F0A
:1005E000907E8C918F7D892B8C93A3E5B0E0E9817F
:1005F000FA81828181708170982F9295907F8C9181
:100600008F7E892B8C93ACE5B0E0E981FA818681FD
:100610008C9353C0E3E5F0E0808180688083A3E59C
:10062000B0E0E981FA818081869581708170982F90
:100630009295990F907E8C918F7D892B8C93A3E559
:10064000B0E0E981FA81808181708170982F929564
:10065000907F8C918F7E892B8C93ACE5B0E0E98103
:10066000FA8186818C9329C0E3E5F0E080818F7761
:100670008083A3E5B0E0E981FA818181869581706C
:100680008170982F9295990F907E8C918F7D892BF8
:100690008C93A3E5B0E0E981FA818181817081705A
:1006A000982F9295907F8C918F7E892B8C93ACE5BF
:1006B000B0E0E981FA8186818C93A2E5B0E0E9811E
:1006C000FA8185818C93A3E5B0E0E981FA81848188
:1006D000869581708170982F990F990F990F8C9141
:1006E000877F892B8C93A3E5B0E0E981FA8184812F
:1006F00081708170982F9295990F990F907C8C91B1
:100700008F7B892B8C930F900F900F900F90CF9130
:10071000DF910895DF93CF9300D0CDB7DEB79A83F2
:100720008983A3E5B0E0E3E5F0E08081982F987F2E
:10073000E981FA818381892B8C930F900F90CF915F
:10074000DF910895DF93CF9300D0CDB7DEB79A83C2
:100750008983A3E5B0E0E3E5F0E08081887F8C93B6
:100760000F900F90CF91DF910895DF93CF93CDB786
:10077000DEB7E2E5F0E08081CF91DF910895DF936D
:10078000CF9300D000D000D0CDB7DEB79A83898355
:100790004B835C836D837E83E981FA818481882F1A
:1007A00090E0009709F03FC08B819C81AD81BE81B4
:1007B00028EE33E040E050E0BC01CD010E947C0512
:1007C000DC01CB01072E7EE0B695A795979587951E
:1007D0007A95D1F7702D8093700090937100A0935B
:1007E0007200B09373008B819C81AD81BE8128EE35
:1007F00033E040E050E0BC01CD010E947C05DC010B
:10080000CB01689415F8B695A7959795879516949A
:10081000D1F78093740089819A810E941C04898198
:100820009A810E948A0326960FB6F894DEBF0FBE07
:10083000CDBFCF91DF910895DF93CF9300D0CDB797
:10084000DEB79A838983E981FA818481882331F430
:10085000E9E5F0E08081816080830AC0E981FA8166
:100860008481823029F4E9E5F0E080818260808330
:100870000F900F90CF91DF910895DF93CF9300D029
:10088000CDB7DEB79A838983E981FA818481882391
:1008900031F4E9E5F0E080818E7F80830AC0E98150
:1008A000FA818481823029F4E9E5F0E080818D7F4E
:1008B00080830F900F90CF91DF910895DF93CF93B6
:1008C00000D0CDB7DEB79A83898389819A819093CE
:1008D0007600809375000F900F90CF91DF9108956F
:1008E000DF93CF9300D00F92CDB7DEB79A83898381
:1008F0006B83ECE5F0E08B81882F90E0982F8827C0
:1009000024E630E0B9010E949B05CB0180830F9063
:100910000F900F90CF91DF9108951F920F920FB615
:100920000F9211242F933F934F935F936F937F9375
:100930008F939F93AF93BF93EF93FF93DF93CF93E7
:10094000CDB7DEB78091700090917100A0917200D8
:10095000B09173000197A109B10980937000909341
:100960007100A0937200B093730080917000909119
:100970007100A0917200B09173000097A105B105BC
:1009800031F4E2E5F0E080917400819580838091FC
:100990007500909176000097A9F080917000909179
:1009A0007100A0917200B09173008F3F2FEF9207FA
:1009B0002FEFA2072FEFB20729F4E0917500F09115
:1009C00076000995CF91DF91FF91EF91BF91AF91A3
:1009D0009F918F917F916F915F914F913F912F9157
:1009E0000F900FBE0F901F9018951F920F920FB689
:1009F0000F9211242F933F934F935F936F937F93A5
:100A00008F939F93AF93BF93EF93FF93DF93CF9316
:100A1000CDB7DEB78091750090917600009729F0F0
:100A2000E0917500F09176000995CF91DF91FF91EB
:100A3000EF91BF91AF919F918F917F916F915F9156
:100A40004F913F912F910F900FBE0F901F901895CF
:100A5000DF93CF93CDB7DEB70E94490080E690E0E8
:100A60000E948A02809167009091680066E041E0F0
:100A70000E946500809167009091680066E040E008
:100A80000E9419018FE495E00E945E0480E690E0E8
:100A900048EE53E060E070E00E94BF03FFCFDF93B9
:100AA000CF93CDB7DEB780E690E00E94A20380919D
:100AB00067009091680066E00E94CD01882349F0AC
:100AC000809167009091680066E040E00E94190103
:100AD00008C0809167009091680066E041E00E9444
:100AE000190180E690E048EE53E060E070E00E947B
:100AF000BF03CF91DF910895629FD001739FF001F2
:100B0000829FE00DF11D649FE00DF11D929FF00D9D
:100B1000839FF00D749FF00D659FF00D9927729FD4
:100B2000B00DE11DF91F639FB00DE11DF91FBD015F
:100B3000CF011124089597FB092E07260AD077FDCF
:100B400004D00CD006D000201AF4709561957F4F28
:100B50000895F6F7909581959F4F0895AA1BBB1BAA
:100B600051E107C0AA1FBB1FA617B70710F0A61BAD
:100B7000B70B881F991F5A95A9F780959095BC01CE
:080B8000CD010895F894FFCFA8
:100B88000000000500000039003600330030000086
:00000001FF
