:100000000C942A000C9447000C9447000C94470071
:100010000C9447000C9447000C94AC1E0C94DF1E0B
:100020000C94121F0C94401E0C947F160C941716FF
:100030000C9447000C9447000C9447000C94470024
:100040000C9447000C9447000C9447000C94470014
:100050000C94470011241FBECFE5D8E0DEBFCDBF12
:1000600012E0A0E6B0E0EEEDF8E402C005900D92DB
:10007000A036B107D9F712E0A0E6B2E001C01D92A8
:10008000AC38B107E1F70E94D5200C946D240C9494
:100090000000EF92FF920F931F937B018C0120E0F1
:1000A00030E040E05FE40E94F50388238CF0C80153
:1000B000B70120E030E040E05FE40E94C1010E940F
:1000C00055049B01AC01205030404040504806C0D0
:1000D000C801B7010E9455049B01AC01B901CA01D6
:1000E0001F910F91FF90EF900895A0E0B0E0EBE733
:1000F000F0E00C943624DC012B01FA019C91923043
:1001000008F439C1EB018881823008F433C194309E
:1001100069F4843009F02FC111969C91119789815F
:10012000981709F428C1A8E3B1E025C1843009F487
:1001300021C18230A9F4923009F01DC19A01AD01AC
:1001400088E0EA010990AE01E90109929E0181501F
:10015000C1F7E201898111969C918923818308C1AD
:10016000923009F407C112962D903C901397EB0141
:100170008A819B811496AD90BD90CD90DC901797AD
:10018000EC80FD800E811F819101281B390BB90184
:1001900037FF04C066277727621B730B6032710537
:1001A0000CF061C0121613066CF537014801062EDB
:1001B00004C096948794779467940A94D2F721E0C8
:1001C00030E040E050E004C0220F331F441F551FB1
:1001D0006A95D2F721503040404050402E213F21B7
:1001E00040235123211531054105510521F021E01E
:1001F00030E040E050E079018A01E628F72808293C
:1002000019293CC0232BD1F1260E371E350146019A
:10021000062E04C096948794779467940A94D2F734
:1002200021E030E040E050E004C0220F331F441FC3
:10023000551F6A95D2F721503040404050402A2146
:100240003B214C215D21211531054105510521F04E
:1002500021E030E040E050E059016A01A628B728CB
:10026000C828D9280BC0821593052CF01C01AA249C
:10027000BB24650103C0EE24FF24870111969C91E5
:10028000D20111968C91981709F445C0992339F041
:10029000A80197012A193B094C095D0906C0A6016E
:1002A00095012E193F09400B510B57FD08C01182D3
:1002B0003382228224833583468357831DC081E0A5
:1002C00081833382228288279927DC01821B930B4A
:1002D000A40BB50B84839583A683B7830DC0220F2F
:1002E000331F441F551F24833583468357838281E0
:1002F000938101979383828324813581468157813D
:10030000DA01C9010197A109B1098F5F9F4FAF4F72
:10031000BF4328F30BC0918333822282EA0CFB1C7B
:100320000C1D1D1DE482F5820683178383E0808304
:10033000248135814681578157FF1AC0C901AA27F8
:1003400097FDA095BA2F81709070A070B0705695EF
:10035000479537952795822B932BA42BB52B848318
:100360009583A683B7838281938101969383828349
:10037000DF0101C0D201CD01CDB7DEB7E2E10C94BF
:100380005224A0E2B0E0E7ECF1E00C94422469834F
:100390007A838B839C832D833E834F835887E9E048
:1003A000EE2EF12CEC0EFD1ECE010196B7010E943F
:1003B00046068E010F5E1F4FCE010596B8010E94C2
:1003C00046068A8991E089278A8BC701B801AE0168
:1003D000475E5F4F0E9475000E947105A096E6E09F
:1003E0000C945E24A0E2B0E0E8EFF1E00C9442242B
:1003F00069837A838B839C832D833E834F835887C5
:10040000F9E0EF2EF12CEC0EFD1ECE010196B701A6
:100410000E9446068E010F5E1F4FCE010596B80161
:100420000E944606C701B801AE01475E5F4F0E94B9
:1004300075000E947105A096E6E00C945E24A0E28F
:10044000B0E0E5E2F2E00C94362469837A838B8392
:100450009C832D833E834F835887CE010196BE0136
:10046000675F7F4F0E944606CE010596BE016F5E14
:100470007F4F0E9446069985923088F089898230A4
:10048000C8F0943019F4823051F404C0843029F457
:10049000923081F488E391E0C6C0923049F420E0C4
:1004A0009A858A89981321E02A87CE010996BBC0D4
:1004B000823049F420E09A858A89981321E02A8BBA
:1004C000CE014196B0C02D843E844F8458886D88FB
:1004D0007E888F88988CEE24FF248701AA24BB2471
:1004E000650140E050E060E070E0E0E0F0E0C10174
:1004F00081709070892BE9F0E60CF71C081D191D1E
:100500009A01AB012A0D3B1D4C1D5D1D80E090E062
:10051000A0E0B0E0E614F7040805190520F481E036
:1005200090E0A0E0B0E0BA01A901480F591F6A1F8E
:100530007B1FAA0CBB1CCC1CDD1C97FE08C081E0F5
:1005400090E0A0E0B0E0A82AB92ACA2ADB2A3196B6
:10055000E032F10549F0660C771C881C991C569412
:10056000479437942794C3CFFA85EA892B893C892D
:100570008B859C85280F391F2E5F3F4F17C0CA01FE
:1005800081709070892B61F016950795F794E79428
:1005900080E090E0A0E0B0E8E82AF92A0A2B1B2BC3
:1005A00076956795579547952F5F3F4F77FDE7CF36
:1005B0000CC0440F551F661F771F17FD4160EE0CDE
:1005C000FF1C001F111F21503040403090E05907A0
:1005D00090E0690790E4790760F32B8F3C8FDB0193
:1005E000CA018F779070A070B07080349105A1051A
:1005F000B10561F447FD0AC0E114F10401051105DC
:1006000029F0405C5F4F6F4F7F4F40781A8EFE1786
:1006100011F081E08A8F4D8F5E8F6F8F78A383E01A
:10062000898FCE0149960E947105A096E2E10C9453
:100630005224A8E1B0E0EFE1F3E00C943E2469839A
:100640007A838B839C832D833E834F835887B9E0C5
:10065000EB2EF12CEC0EFD1ECE010196B7010E948F
:1006600046068E010F5E1F4FCE010596B8010E940F
:1006700046062985223008F47EC03989323010F4CC
:10068000B8017CC08A859A8989278A87243011F02D
:10069000223031F4231709F06EC068E371E06EC0B8
:1006A000343039F41D861E861F86188A1C861B86E8
:1006B00004C0323021F484E08987B7015FC02B8504
:1006C0003C858B899C89281B390B3C872B87ED84C3
:1006D000FE840F851889AD88BE88CF88D88CEA142F
:1006E000FB040C051D0540F4EE0CFF1C001F111F40
:1006F000215030403C872B8720E030E040E050E044
:1007000080E090E0A0E0B0E460E070E0EA14FB0478
:100710000C051D0540F0282B392B4A2B5B2BEA18C2
:10072000FB080C091D09B695A79597958795EE0CC2
:10073000FF1C001F111F6F5F7F4F6F31710531F775
:10074000DA01C9018F779070A070B0708034910584
:10075000A105B10561F427FD0AC0E114F10401050A
:10076000110529F0205C3F4F4F4F5F4F20782D87B8
:100770003E874F87588BBE01675F7F4FCB010E943A
:1007800071056896EAE00C945A24A8E1B0E0EBEC1D
:10079000F3E00C94422469837A838B839C832D83BA
:1007A0003E834F83588789E0E82EF12CEC0EFD1E26
:1007B000CE010196B7010E9446068E010F5E1F4FC3
:1007C000CE010596B8010E9446068985823040F028
:1007D0008989823028F0C701B8010E94BE0601C095
:1007E0008FEF6896E6E00C945E24A8E1B0E0EBEFB2
:1007F000F3E00C94422469837A838B839C832D835A
:100800003E834F83588789E0E82EF12CEC0EFD1EC5
:10081000CE010196B7010E9446068E010F5E1F4F62
:10082000CE010596B8010E9446068985823040F0C7
:100830008989823028F0C701B8010E94BE0601C034
:100840008FEF6896E6E00C945E24A8E1B0E0EBE25E
:10085000F4E00C94422469837A838B839C832D83F8
:100860003E834F83588789E0E82EF12CEC0EFD1E65
:10087000CE010196B7010E9446068E010F5E1F4F02
:10088000CE010596B8010E9446068985823040F067
:100890008989823028F0C701B8010E94BE0601C0D4
:1008A00081E06896E6E00C945E24ACE0B0E0EBE515
:1008B000F4E00C94462469837A838B839C83CE0175
:1008C0000196BE016B5F7F4F0E9446068D8182308C
:1008D00061F1823050F1843021F48E81882351F10E
:1008E0002EC02F81388537FD20C06E812F31310514
:1008F0001CF06623F9F023C08EE190E0821B930B7D
:1009000029853A854B855C8504C056954795379572
:1009100027958A95D2F76623B1F05095409530958A
:1009200021953F4F4F4F5F4F0EC020E030E040E039
:1009300050E009C02FEF3FEF4FEF5FE704C020E02A
:1009400030E040E050E8B901CA012C96E2E00C9496
:100950006224A8E0B0E0EFEAF4E00C943E247B01CE
:100960008C01611571058105910519F482E0898377
:1009700060C083E089838EE1C82ED12CDC82CB82DB
:10098000ED82FE820F831887C801B7010E942205FD
:10099000FC013197F7FF3BC0222733272E1B3F0B6B
:1009A00057016801022E04C0D694C794B794A79447
:1009B0000A94D2F740E050E060E070E081E090E01F
:1009C000A0E0B0E004C0880F991FAA1FBB1F2A95A2
:1009D000D2F70197A109B1098E219F21A023B1234C
:1009E0000097A105B10521F041E050E060E070E022
:1009F0004A295B296C297D294D835E836F83788723
:100A00008EE190E08E1B9F0B9C838B8312C03097EE
:100A100081F00E2E04C0EE0CFF1C001F111F0A9463
:100A2000D2F7ED82FE820F831887CE1ADF0ADC82AE
:100A3000CB821A82CE0101960E9471052896EAE0C7
:100A40000C945A24EF92FF920F931F937B018C0119
:100A500080E0E81680E0F80681E0080780E01807EB
:100A600088F48FEFE816F1040105110531F028F044
:100A700088E090E0A0E0B0E017C080E090E0A0E067
:100A8000B0E012C080E0E81680E0F80680E00807D9
:100A900081E0180728F088E190E0A0E0B0E004C011
:100AA00080E190E0A0E0B0E020E230E040E050E003
:100AB000281B390B4A0B5B0B04C016950795F7945E
:100AC000E7948A95D2F7F701E05CFE4F8081281BFE
:100AD000310941095109C9011F910F91FF90EF9010
:100AE0000895DF92EF92FF920F931F93FC01E48031
:100AF000F58006811781D1808081823048F480E0C2
:100B000090E0A0E1B0E0E82AF92A0A2B1B2BA5C04F
:100B1000843009F49FC0823021F4EE24FF24870141
:100B200005C0E114F1040105110519F4E0E0F0E05D
:100B300096C0628173819FEF623879070CF05BC0C9
:100B400022E83FEF261B370B2A3131052CF020E03D
:100B500030E040E050E02AC0B801A701022E04C0F6
:100B600076956795579547950A94D2F781E090E07E
:100B7000A0E0B0E004C0880F991FAA1FBB1F2A95F0
:100B8000D2F70197A109B1098E219F21A023B1239A
:100B90000097A105B10521F081E090E0A0E0B0E070
:100BA0009A01AB01282B392B4A2B5B2BDA01C901A7
:100BB0008F779070A070B07080349105A105B10559
:100BC00039F427FF09C0205C3F4F4F4F5F4F04C0EF
:100BD000215C3F4F4F4F5F4FE0E0F0E02030A0E05E
:100BE0003A07A0E04A07A0E45A0710F0E1E0F0E07D
:100BF00079018A0127C06038710564F5FB01E1586D
:100C0000FF4FD801C7018F779070A070B07080340B
:100C10009105A105B10539F4E7FE0DC080E490E02F
:100C2000A0E0B0E004C08FE390E0A0E0B0E0E80E08
:100C3000F91E0A1F1B1F17FF05C016950795F7948D
:100C4000E794319687E016950795F794E7948A958F
:100C5000D1F705C0EE24FF248701EFEFF0E06E2FFF
:100C6000679566276795902F9F77D794DD24D79453
:100C70008E2F8695492F462B582F5D29B701CA0123
:100C80001F910F91FF90EF90DF900895FC01DB0121
:100C9000408151812281622F6F7770E0221F2227CD
:100CA000221F9381892F880F822B282F30E0991FD4
:100CB0009927991F11969C93119721153105A9F534
:100CC000411551056105710511F482E037C082E8D4
:100CD0009FEF13969C938E9312979A01AB0167E056
:100CE000220F331F441F551F6A95D1F783E08C9361
:100CF0000DC0220F331F441F551F12968D919C91DA
:100D00001397019713969C938E931297203080E04F
:100D1000380780E0480780E4580758F314962D936D
:100D20003D934D935C93179708952F3F310579F4C8
:100D3000411551056105710519F484E08C930895FE
:100D400064FF03C081E08C9312C01C9210C02F5727
:100D5000304013963C932E93129783E08C9387E058
:100D6000440F551F661F771F8A95D1F7706414963C
:100D70004D935D936D937C93179708951F93DC01BA
:100D8000FB019C91923008F447C08081823008F4C6
:100D900043C0943051F411961C91843099F58181AF
:100DA000682F70E0611B71093FC0843021F09230E0
:100DB00031F48230B9F18181882389F12DC01196F7
:100DC0001C9111978230F1F081811817D9F4129695
:100DD0002D913C911397828193818217930794F010
:100DE00028173907BCF014968D919D910D90BC91F8
:100DF000A02D2481358146815781281739074A075C
:100E00005B0718F4112341F00AC082179307A40767
:100E1000B50740F4112319F061E070E005C06FEFF1
:100E20007FEF02C060E070E0CB011F910895DF9377
:100E3000CF93CDB7DEB7AFE5B0E0EFE5F0E080816E
:100E400080688C93CF91DF910895DF93CF93CDB7D6
:100E5000DEB7AFE5B0E0EFE5F0E080818F778C930F
:100E6000CF91DF910895DF93CF9300D000D000D0D1
:100E7000CDB7DEB79A8389836B834C838B81282F10
:100E800030E03E832D838D819E818330910509F46E
:100E900051C02D813E81243031057CF48D819E81AD
:100EA0008130910571F12D813E8122303105ACF503
:100EB0008D819E810097D1F081C02D813E812530AA
:100EC000310509F452C08D819E81853091050CF465
:100ED0003FC02D813E812630310509F454C08D81FB
:100EE0009E818730910509F45DC068C08C81817056
:100EF000E981FA81982F917081818E7F892B81837E
:100F00005DC08C818170E981FA818170982F990F81
:100F100081818D7F892B818351C08C818170E98192
:100F2000FA818170982F990F990F81818B7F892B7E
:100F3000818344C08C818170E981FA818170982F0E
:100F4000990F990F990F8181877F892B818336C0F3
:100F50008C818170E981FA818170982F9295907FC0
:100F600081818F7E892B818329C08C818170E98169
:100F7000FA818170982F9295990F907E81818F7D53
:100F8000892B81831BC08C818170E981FA818170FA
:100F9000982F9295990F990F907C81818F7B892B47
:100FA00081830CC08C818170E981FA81982F97959B
:100FB0009927979581818F77892B818326960FB604
:100FC000F894DEBF0FBECDBFCF91DF910895DF93C0
:100FD000CF9300D000D000D0CDB7DEB79A838983FD
:100FE0006B834C838B81282F30E03E832D838D8152
:100FF0009E818330910509F451C02D813E812430BA
:1010000031057CF48D819E818130910571F12D81B6
:101010003E8122303105ACF58D819E810097D1F063
:1010200081C02D813E812530310509F452C08D816A
:101030009E81853091050CF43FC02D813E81263084
:10104000310509F454C08D819E818730910509F4E2
:101050005DC068C08C818170E981FA81982F9170A0
:1010600082818E7F892B82835DC08C818170E98132
:10107000FA818170982F990F82818D7F892B8283CD
:1010800051C08C818170E981FA818170982F990F0C
:10109000990F82818B7F892B828344C08C818170E0
:1010A000E981FA818170982F990F990F990F8281A8
:1010B000877F892B828336C08C818170E981FA8198
:1010C0008170982F9295907F82818F7E892B828369
:1010D00029C08C818170E981FA818170982F929565
:1010E000990F907E82818F7D892B82831BC08C819A
:1010F0008170E981FA818170982F9295990F990FEB
:10110000907C82818F7B892B82830CC08C81817043
:10111000E981FA81982F97959927979582818F7702
:10112000892B828326960FB6F894DEBF0FBECDBF03
:10113000CF91DF910895DF93CF9300D000D000D0FE
:10114000CDB7DEB79B838A836C838C81282F30E0F8
:101150003E832D838D819E818330910509F43EC0AD
:101160002D813E81243031057CF48D819E8181303A
:10117000910529F12D813E81223031053CF58D818B
:101180009E810097B1F055C02D813E8125303105FB
:10119000B1F18D819E81853091054CF12D813E818B
:1011A00026303105A9F18D819E8187309105D1F1DD
:1011B00040C0EA81FB818081817089833AC0EA81E5
:1011C000FB81808186958170898333C0EA81FB81B0
:1011D000808186958695817089832BC0EA81FB8109
:1011E00080818695869586958170898322C0EA8163
:1011F000FB81808182958F70817089831AC0EA811A
:10120000FB8180818295869587708170898311C06A
:10121000EA81FB81808182958695869583708170B5
:10122000898307C0EA81FB818081881F8827881F06
:101230008983898126960FB6F894DEBF0FBECDBF95
:10124000CF91DF910895DF93CF9300D00F92CDB768
:10125000DEB79A8389836B83E981FA818B818183ED
:101260000F900F900F90CF91DF910895DF93CF9360
:1012700000D00F92CDB7DEB79A8389836B83E98163
:10128000FA818B8182830F900F900F90CF91DF9125
:101290000895DF93CF9300D0CDB7DEB79A838983CB
:1012A000E981FA8180810F900F90CF91DF910895AD
:1012B000DF93CF93CDB7DEB780915B0290915C0254
:1012C00060E041E00E94330780915B0290915C02F4
:1012D00061E041E00E94330780915B0290915C02E3
:1012E00062E041E00E94330780915B0290915C02D2
:1012F00063E041E00E94330780915B0290915C02C1
:1013000064E040E00E94330780915B0290915C02B0
:1013100065E040E00E94330780915B0290915C029F
:1013200066E040E00E94330780915B0290915C028E
:1013300067E040E00E94330780915B0290915C027D
:1013400060E041E00E94E70780915B0290915C02BF
:1013500061E041E00E94E70780915B0290915C02AE
:1013600062E041E00E94E70780915B0290915C029D
:1013700063E041E00E94E707CF91DF910895DF939A
:10138000CF93CDB7DEB7A6970FB6F894DEBF0FBEEA
:10139000CDBF83E08F8F82E088A381E089A31AA26A
:1013A00084E08BA385E08CA386E08DA387E08EA3E9
:1013B0001E8E4EC140915B0250915C028E8D282F93
:1013C00030E0CE014F96FC01E20FF31F2081CA01ED
:1013D000622F40E00E94E7071D8EAFC040915B0284
:1013E00050915C028D8D282F30E0CE018396FC0158
:1013F000E20FF31F2081CA01622F0E949B088823FD
:1014000009F098C080E090E0A0EFB1E4898F9A8F56
:10141000AB8FBC8F698D7A8D8B8D9C8D20E030E0F9
:101420004AEF54E40E941F02DC01CB018D8B9E8B9E
:10143000AF8BB88F6D897E898F89988D20E030E0E1
:1014400040E85FE30E94250488232CF481E090E0CB
:101450009C8B8B8B3FC06D897E898F89988D20E016
:101460003FEF4FE757E40E94C50318164CF5698D0E
:101470007A8D8B8D9C8D20E030E040E251E40E941B
:101480001F02DC01CB01BC01CD010E944900DC013F
:10149000CB019C8B8B8B0FC088EC90E09A8B898B57
:1014A00089899A890197F1F79A8B898B8B899C8915
:1014B00001979C8B8B8B8B899C89009769F714C053
:1014C0006D897E898F89988D0E944900DC01CB014E
:1014D0009C8B8B8B8B899C89988B8F878F85988928
:1014E0000197F1F7988B8F8740915B0250915C02D6
:1014F0008D8D282F30E0CE018396FC01E20FF31F83
:101500002081CA01622F0E949B08882399F48E8D46
:10151000882F90E0880F991F880F991F982F8D8D25
:10152000890FA6960FB6F894DEBF0FBECDBFCF9140
:10153000DF9108958D8D8F5F8D8F8D8D843008F4B0
:101540004DCF40915B0250915C028E8D282F30E090
:10155000CE014F96FC01E20FF31F2081CA01622FDA
:1015600041E00E94E70780E090E0A0EAB0E48B87CA
:101570009C87AD87BE876B857C858D859E8520E0A9
:1015800030E04AEF54E40E941F02DC01CB018F835C
:101590009887A987BA876F81788589859A8520E0A1
:1015A00030E040E85FE30E94250488232CF481E0CA
:1015B00090E09E838D833FC06F81788589859A8571
:1015C00020E03FEF4FE757E40E94C50318164CF5A3
:1015D0006B857C858D859E8520E030E040E251E47E
:1015E0000E941F02DC01CB01BC01CD010E94490019
:1015F000DC01CB019E838D830FC088EC90E09C833F
:101600008B838B819C810197F1F79C838B838D81E8
:101610009E8101979E838D838D819E81009769F7BE
:1016200014C06F81788589859A850E944900DC0104
:10163000CB019E838D838D819E819A83898389814D
:101640009A810197F1F79A8389838E8D8F5F8E8FB0
:101650008E8D843008F4AECEABCEDF93CF93CDB772
:10166000DEB72E970FB6F894DEBF0FBECDBF8091C8
:1016700057029091580263E041E00E943307809145
:1016800057029091580262E041E00E94330780E0E7
:1016900090E0A8E4B2E48B879C87AD87BE876B851A
:1016A0007C858D859E8520E030E04AEF54E40E94E1
:1016B0001F02DC01CB018F839887A987BA876F81CE
:1016C000788589859A8520E030E040E85FE30E94D4
:1016D000250488232CF481E090E09E838D833FC015
:1016E0006F81788589859A8520E03FEF4FE757E441
:1016F0000E94C50318164CF56B857C858D859E85EB
:1017000020E030E040E251E40E941F02DC01CB0106
:10171000BC01CD010E944900DC01CB019E838D8379
:101720000FC088EC90E09C838B838B819C81019718
:10173000F1F79C838B838D819E8101979E838D839E
:101740008D819E81009769F714C06F8178858985A6
:101750009A850E944900DC01CB019E838D838D8197
:101760009E819A83898389819A810197F1F79A836F
:1017700089838091590290915A0260E041E00E9471
:1017800033078091590290915A0261E041E00E9432
:1017900033078091590290915A0262E041E00E9421
:1017A00033078091590290915A0264E041E00E940F
:1017B0003307809157029091580262E040E00E9406
:1017C000E70782E30E94040D82E30E94040D88E291
:1017D0000E94040D8EE00E94040D81E00E94040D21
:1017E0002E960FB6F894DEBF0FBECDBFCF91DF911E
:1017F0000895DF93CF93CDB7DEB76D970FB6F8940A
:10180000DEBF0FBECDBF8D8F8091570290915802E1
:1018100063E041E00E94E70780E090E0A0E8BFE3DA
:10182000898F9A8FAB8FBC8F698D7A8D8B8D9C8DB4
:1018300020E030E04AEF54E40E941F02DC01CB01BB
:101840008D8B9E8BAF8BB88F6D897E898F89988D9C
:1018500020E030E040E85FE30E94250488232CF478
:1018600081E090E09C8B8B8B3FC06D897E898F8956
:10187000988D20E03FEF4FE757E40E94C50318160C
:101880004CF5698D7A8D8B8D9C8D20E030E040E2A7
:1018900051E40E941F02DC01CB01BC01CD010E947A
:1018A0004900DC01CB019C8B8B8B0FC088EC90E056
:1018B0009A8B898B89899A890197F1F79A8B898B01
:1018C0008B899C8901979C8B8B8B8B899C8900973A
:1018D00069F714C06D897E898F89988D0E944900AF
:1018E000DC01CB019C8B8B8B8B899C89988B8F87A0
:1018F0008F8598890197F1F7988B8F878091570290
:101900009091580262E040E00E94E70780E090E09A
:10191000A0E8BFE38B879C87AD87BE876B857C85FE
:101920008D859E8520E030E04AEF54E40E941F023E
:10193000DC01CB018F839887A987BA876F8178856F
:1019400089859A8520E030E040E85FE30E94250425
:1019500088232CF481E090E09E838D833FC06F81CB
:10196000788589859A8520E03FEF4FE757E40E940C
:10197000C50318164CF56B857C858D859E8520E00A
:1019800030E040E251E40E941F02DC01CB01BC01C7
:10199000CD010E944900DC01CB019E838D830FC0E5
:1019A00088EC90E09C838B838B819C810197F1F77D
:1019B0009C838B838D819E8101979E838D838D81F6
:1019C0009E81009769F714C06F81788589859A8513
:1019D0000E944900DC01CB019E838D838D819E8115
:1019E0009A83898389819A810197F1F79A83898300
:1019F0008D8D0E94840F6D960FB6F894DEBF0FBEDA
:101A0000CDBFCF91DF910895DF93CF93CDB7DEB7F0
:101A10006D970FB6F894DEBF0FBECDBF8D8F80914E
:101A200057029091580263E040E00E94E70780E08F
:101A300090E0A0E8BFE3898F9A8FAB8FBC8F698D50
:101A40007A8D8B8D9C8D20E030E04AEF54E40E942B
:101A50001F02DC01CB018D8B9E8BAF8BB88F6D8904
:101A60007E898F89988D20E030E040E85FE30E9416
:101A7000250488232CF481E090E09C8B8B8B3FC065
:101A80006D897E898F89988D20E03FEF4FE757E47D
:101A90000E94C50318164CF5698D7A8D8B8D9C8D2F
:101AA00020E030E040E251E40E941F02DC01CB0163
:101AB000BC01CD010E944900DC01CB019C8B8B8BCA
:101AC0000FC088EC90E09A8B898B89899A8901975D
:101AD000F1F79A8B898B8B899C8901979C8B8B8BD7
:101AE0008B899C89009769F714C06D897E898F89DD
:101AF000988D0E944900DC01CB019C8B8B8B8B89DC
:101B00009C89988B8F878F8598890197F1F7988B9F
:101B10008F87809157029091580262E040E00E94C6
:101B2000E70780E090E0A0E8BFE38B879C87AD8764
:101B3000BE876B857C858D859E8520E030E04AEFF1
:101B400054E40E941F02DC01CB018F839887A98790
:101B5000BA876F81788589859A8520E030E040E8F2
:101B60005FE30E94250488232CF481E090E09E83AB
:101B70008D833FC06F81788589859A8520E03FEF0E
:101B80004FE757E40E94C50318164CF56B857C851A
:101B90008D859E8520E030E040E251E40E941F02E6
:101BA000DC01CB01BC01CD010E944900DC01CB016D
:101BB0009E838D830FC088EC90E09C838B838B8108
:101BC0009C810197F1F79C838B838D819E81019786
:101BD0009E838D838D819E81009769F714C06F81EC
:101BE000788589859A850E944900DC01CB019E8316
:101BF0008D838D819E819A83898389819A810197C2
:101C0000F1F79A8389838D8D0E94840F6D960FB6AC
:101C1000F894DEBF0FBECDBFCF91DF910895DF9363
:101C2000CF9300D00F92CDB7DEB79B838A830EC0CF
:101C30008981282F30E08A819B81FC01E20FF31F0C
:101C400080810E94F90B89818F5F89838981282F88
:101C500030E08A819B81FC01E20FF31F80818823A1
:101C600039F70F900F900F90CF91DF910895DF9388
:101C7000CF93CDB7DEB76C970FB6F894DEBF0FBE2B
:101C8000CDBF809157029091580263E040E00E94DE
:101C9000E70780E090E0A0E8BFE3898F9A8FAB8FE1
:101CA000BC8F698D7A8D8B8D9C8D20E030E04AEF62
:101CB00054E40E941F02DC01CB018D8B9E8BAF8B05
:101CC000B88F6D897E898F89988D20E030E040E85B
:101CD0005FE30E94250488232CF481E090E09C8B34
:101CE0008B8B3FC06D897E898F89988D20E03FEF77
:101CF0004FE757E40E94C50318164CF5698D7A8D9D
:101D00008B8D9C8D20E030E040E251E40E941F0268
:101D1000DC01CB01BC01CD010E944900DC01CB01FB
:101D20009C8B8B8B0FC088EC90E09A8B898B898978
:101D30009A890197F1F79A8B898B8B899C890197F6
:101D40009C8B8B8B8B899C89009769F714C06D895C
:101D50007E898F89988D0E944900DC01CB019C8B84
:101D60008B8B8B899C89988B8F878F85988901971E
:101D7000F1F7988B8F87809157029091580262E01B
:101D800040E00E94E70780E090E0A0E8BFE38B8797
:101D90009C87AD87BE876B857C858D859E8520E081
:101DA00030E04AEF54E40E941F02DC01CB018F8334
:101DB0009887A987BA876F81788589859A8520E079
:101DC00030E040E85FE30E94250488232CF481E0A2
:101DD00090E09E838D833FC06F81788589859A8549
:101DE00020E03FEF4FE757E40E94C50318164CF57B
:101DF0006B857C858D859E8520E030E040E251E456
:101E00000E941F02DC01CB01BC01CD010E944900F0
:101E1000DC01CB019E838D830FC088EC90E09C8316
:101E20008B838B819C810197F1F79C838B838D81C0
:101E30009E8101979E838D838D819E81009769F796
:101E400014C06F81788589859A850E944900DC01DC
:101E5000CB019E838D838D819E819A838983898125
:101E60009A810197F1F79A83898381E00E94840F18
:101E70006C960FB6F894DEBF0FBECDBFCF91DF9149
:101E80000895DF93CF9300D000D00F92CDB7DEB787
:101E90008A836B8319828A81282F30E03D832C83CB
:101EA0008C819D8181309105C1F02C813D81223052
:101EB00031052CF48C819D81009761F019C02C8133
:101EC0003D812230310569F08C819D8183309105FF
:101ED00061F00EC08B8189830BC08B81805C89830C
:101EE00007C08B81805F898303C08B81805B89837E
:101EF000898180680E94040D0F900F900F900F90C1
:101F00000F90CF91DF910895DF93CF93CDB7DEB7D8
:101F1000E9970FB6F894DEBF0FBECDBF89AF209111
:101F2000590230915A0289AD482F441F4427441F5B
:101F3000C90164E00E94E7072091590230915A02DA
:101F400089AD8295869586958370482F4170C90129
:101F500062E00E94E7072091590230915A0289AD50
:101F6000829586958770482F4170C90161E00E9473
:101F7000E7072091590230915A0289AD82958F70FE
:101F8000482F4170C90160E00E94E7078091570225
:101F90009091580262E041E00E94E70780E090E003
:101FA000A0E8BFE38DAB9EABAFABB8AF6DA97EA988
:101FB0008FA998AD20E030E04AEF54E40E941F0260
:101FC000DC01CB0189AB9AABABABBCAB69A97AA9FD
:101FD0008BA99CA920E030E040E85FE30E94250443
:101FE00088232CF481E090E098AB8FA73FC069A9CB
:101FF0007AA98BA99CA920E03FEF4FE757E40E9404
:10200000C50318164CF56DA97EA98FA998AD20E0DF
:1020100030E040E251E40E941F02DC01CB01BC0130
:10202000CD010E944900DC01CB0198AB8FA70FC006
:1020300088EC90E09EA78DA78DA59EA50197F1F74E
:102040009EA78DA78FA598A9019798AB8FA78FA55D
:1020500098A9009769F714C069A97AA98BA99CA9C6
:102060000E944900DC01CB0198AB8FA78FA598A9EE
:102070009CA78BA78BA59CA50197F1F79CA78BA785
:10208000809157029091580262E040E00E94E70779
:1020900080E090E0A0EAB0E48FA398A7A9A7BAA730
:1020A0006FA178A589A59AA520E030E04AEF54E415
:1020B0000E941F02DC01CB018BA39CA3ADA3BEA396
:1020C0006BA17CA18DA19EA120E030E040E85FE300
:1020D0000E94250488232CF481E090E09AA389A330
:1020E0003FC06BA17CA18DA19EA120E03FEF4FE7F7
:1020F00057E40E94C50318164CF56FA178A589A571
:102100009AA520E030E040E251E40E941F02DC0189
:10211000CB01BC01CD010E944900DC01CB019AA397
:1021200089A30FC088EC90E098A38F8F8F8D98A122
:102130000197F1F798A38F8F89A19AA101979AA38C
:1021400089A389A19AA1009769F714C06BA17CA10A
:102150008DA19EA10E944900DC01CB019AA389A315
:1021600089A19AA19E8F8D8F8D8D9E8D0197F1F7FC
:102170009E8F8D8F2091590230915A0289AD86959C
:1021800086958695482F4170C90164E00E94E70753
:102190002091590230915A0289AD86958695482F33
:1021A0004170C90162E00E94E70720915902309115
:1021B0005A0289AD8695482F4170C90161E00E949D
:1021C000E7072091590230915A0289AD482F41709A
:1021D000C90160E00E94E707809157029091580280
:1021E00062E041E00E94E70780E090E0A0E8BFE302
:1021F000898F9A8FAB8FBC8F698D7A8D8B8D9C8DDB
:1022000020E030E04AEF54E40E941F02DC01CB01E1
:102210008D8B9E8BAF8BB88F6D897E898F89988DC2
:1022200020E030E040E85FE30E94250488232CF49E
:1022300081E090E09C8B8B8B3FC06D897E898F897C
:10224000988D20E03FEF4FE757E40E94C503181632
:102250004CF5698D7A8D8B8D9C8D20E030E040E2CD
:1022600051E40E941F02DC01CB01BC01CD010E94A0
:102270004900DC01CB019C8B8B8B0FC088EC90E07C
:102280009A8B898B89899A890197F1F79A8B898B27
:102290008B899C8901979C8B8B8B8B899C89009760
:1022A00069F714C06D897E898F89988D0E944900D5
:1022B000DC01CB019C8B8B8B8B899C89988B8F87C6
:1022C0008F8598890197F1F7988B8F8780915702B6
:1022D0009091580262E040E00E94E70780E090E0C1
:1022E000A0EAB0E48B879C87AD87BE876B857C8531
:1022F0008D859E8520E030E04AEF54E40E941F0265
:10230000DC01CB018F839887A987BA876F81788595
:1023100089859A8520E030E040E85FE30E9425044B
:1023200088232CF481E090E09E838D833FC06F81F1
:10233000788589859A8520E03FEF4FE757E40E9432
:10234000C50318164CF56B857C858D859E8520E030
:1023500030E040E251E40E941F02DC01CB01BC01ED
:10236000CD010E944900DC01CB019E838D830FC00B
:1023700088EC90E09C838B838B819C810197F1F7A3
:102380009C838B838D819E8101979E838D838D811C
:102390009E81009769F714C06F81788589859A8539
:1023A0000E944900DC01CB019E838D838D819E813B
:1023B0009A83898389819A810197F1F79A83898326
:1023C000E9960FB6F894DEBF0FBECDBFCF91DF9177
:1023D0000895DF93CF9300D000D0CDB7DEB79B83B5
:1023E0008A836C838C818830F8F48C81882F90E00C
:1023F0000896880F991F880F991F880F991F0E94B0
:10240000040D19820EC08981282F30E08A819B81BA
:10241000FC01E20FF31F80810E94F90B89818F5F1D
:1024200089838981883078F30F900F900F900F90F7
:10243000CF91DF910895DF93CF930F92CDB7DEB7A1
:102440008983898180580E94040D89810E94F90B3B
:102450000F90CF91DF910895DF93CF9300D000D0FC
:1024600000D0CDB7DEB78A83198280E690E00E9463
:102470000F0E8A8182958F7089838981282F30E0A1
:102480003E832D838D819E818B30910569F12D8155
:102490003E812C30310554F48D819E819923BCF10D
:1024A0002D813E812A303105B4F01AC08D819E8184
:1024B0008D30910509F12D813E812D303105C4F01B
:1024C0008D819E818E309105D9F02D813E812F30F6
:1024D0003105D1F01CC08981805D0E94F90B17C0C5
:1024E00081E40E94F90B13C082E40E94F90B0FC033
:1024F00083E40E94F90B0BC084E40E94F90B07C02F
:1025000085E40E94F90B03C086E40E94F90B8A81DE
:102510008F7089838981282F30E03C832B838B81C6
:102520009C818B30910569F12B813C812C303105E8
:1025300054F48B819C819923BCF12B813C812A30FE
:102540003105B4F01AC08B819C818D30910509F161
:102550002B813C812D303105C4F08B819C818E30E4
:102560009105D9F02B813C812F303105D1F01CC071
:102570008981805D0E94F90B17C081E40E94F90BEC
:1025800013C082E40E94F90B0FC083E40E94F90B90
:102590000BC084E40E94F90B07C085E40E94F90B8C
:1025A00003C086E40E94F90B26960FB6F894DEBFAE
:1025B0000FBECDBFCF91DF910895DF93CF9300D0B1
:1025C000CDB7DEB78A8383E690E00E940F0E1982B2
:1025D00018C08A81482F50E08981282F30E087E099
:1025E00090E0821B930B9A0102C0359527958A953E
:1025F000E2F7C9018170805D0E94F90B89818F5FCC
:1026000089838981883028F30F900F90CF91DF91D3
:102610000895DF93CF93CDB7DEB72A970FB6F8941E
:10262000DEBF0FBECDBF6F83788789879A871E82F2
:102630001D828F819885A985BA8589839A83AB830A
:10264000BC836F81788589859A850E945504DC0159
:10265000CB01AA2797FDA095BA2FBC01CD010E94FE
:1026600081138EE20E94F90B69817A818B819C81B2
:1026700020E030E040E050E00E94250488234CF444
:1026800089819A81AB81BC81B05889839A83AB835D
:10269000BC831E822AC069817A818B819C8120E063
:1026A00030E040E251E40E941F02DC01CB0189834B
:1026B0009A83AB83BC8369817A818B819C810E94E0
:1026C0005504DC01CB012AE030E040E050E0BC01E1
:1026D000CD010E941B24DC01CB018D838D81805DA7
:1026E0000E94F90B8E818F5F8E838E81833098F2EA
:1026F0002A960FB6F894DEBF0FBECDBFCF91DF9103
:102700000895DF93CF93CDB7DEB76C970FB6F894EB
:10271000DEBF0FBECDBF698F7A8F8B8F9C8F84E118
:10272000FE013596DF01982F1D929A95E9F71B82DD
:10273000898D9A8D9A83898389819A81009709F47A
:102740005DC089819A819923C4F48DE20E94F90BBE
:1027500089819A81909581959F4F9A8389830DC035
:102760008B818F5F8B8389819A812AE030E0B90168
:102770000E94E623CB019A83898389819A81181666
:10278000190674F3898D9A8D9A83898389819A8138
:10279000181619063CF089819A81909581959F4F72
:1027A0009A8389838B8181508C8320C08C81E82F10
:1027B000FF27E7FDF09589819A812AE030E0B90191
:1027C0000E94E623805D282FCE010596E80FF91FB1
:1027D000208389819A812AE030E0B9010E94E623B2
:1027E000CB019A8389838C8181508C838C8188234F
:1027F000ECF6CE0105960E940F0E03C080E30E9406
:10280000F90B6C960FB6F894DEBF0FBECDBFCF911B
:10281000DF910895DF93CF9300D000D0CDB7DEB71E
:102820009A838983E981FA818481282F30E03C836F
:102830002B838B819C818130910509F441C02B81D0
:102840003C81223031052CF48B819C81009771F002
:10285000A8C02B813C812230310509F455C08B8101
:102860009C818330910509F479C09BC0E3E5F0E0D9
:10287000808180688083A3E5B0E0E981FA8180816E
:10288000869581708170982F9295990F907E8C918A
:102890008F7D892B8C93A3E5B0E0E981FA8180815B
:1028A00081708170982F9295907F8C918F7E892B6B
:1028B0008C93ACE5B0E0E981FA8186818C9371C09C
:1028C000E3E5F0E080818F778083A3E5B0E0E981E4
:1028D000FA818281869581708170982F9295990FE7
:1028E000907E8C918F7D892B8C93A3E5B0E0E9815C
:1028F000FA81828181708170982F9295907F8C915E
:102900008F7E892B8C934DC0E3E5F0E08081806859
:102910008083A3E5B0E0E981FA81808186958170AA
:102920008170982F9295990F907E8C918F7D892B35
:102930008C93A3E5B0E0E981FA8180818170817098
:10294000982F9295907F8C918F7E892B8C93ACE5FC
:10295000B0E0E981FA8186818C9323C0E3E5F0E061
:1029600080818F778083A3E5B0E0E981FA8181815E
:10297000869581708170982F9295990F907E8C9199
:102980008F7D892B8C93A3E5B0E0E981FA81818169
:1029900081708170982F9295907F8C918F7E892B7A
:1029A0008C93A2E5B0E0E981FA8185818C93A3E55F
:1029B000B0E0E981FA818481869581708170982FD9
:1029C000990F990F990F8C91877F892B8C93A3E591
:1029D000B0E0E981FA81848181708170982F9295AD
:1029E000990F990F907C8C918F7B892B8C930F90F2
:1029F0000F900F900F90CF91DF910895DF93CF93B9
:102A000000D0CDB7DEB79A838983A3E5B0E0E3E5D4
:102A1000F0E08081982F987FE981FA818381892B6A
:102A20008C930F900F90CF91DF910895DF93CF9308
:102A300000D0CDB7DEB79A838983A3E5B0E0E3E5A4
:102A4000F0E08081887F8C930F900F90CF91DF9181
:102A50000895DF93CF93CDB7DEB7E2E5F0E0808154
:102A6000CF91DF910895DF93CF9300D000D000D0B5
:102A7000CDB7DEB79A8389834B835C836D837E8376
:102A8000E981FA818481882F90E0009709F03FC0A6
:102A90008B819C81AD81BE8128EE33E040E050E027
:102AA000BC01CD010E94B323DC01CB01072E7FE0E6
:102AB000B695A795979587957A95D1F7702D8093C0
:102AC000740290937502A0937602B09377028B8183
:102AD0009C81AD81BE8128EE33E040E050E0BC0136
:102AE000CD010E94B323DC01CB01689416F8B695A2
:102AF000A795979587951694D1F780937802898149
:102B00009A810E94901589819A810E94FE142696CE
:102B10000FB6F894DEBF0FBECDBFCF91DF91089501
:102B2000DF93CF9300D0CDB7DEB79A838983E98155
:102B3000FA818481882331F4E9E5F0E080818160C5
:102B400080830AC0E981FA818481823029F4E9E531
:102B5000F0E08081826080830F900F90CF91DF91B1
:102B60000895DF93CF9300D0CDB7DEB79A838983E2
:102B7000E981FA818481882331F4E9E5F0E08081FC
:102B80008E7F80830AC0E981FA818481823029F4B2
:102B9000E9E5F0E080818D7F80830F900F90CF91E9
:102BA000DF910895DF93CF93CDB7DEB7E2E5F0E094
:102BB0001082CF91DF910895DF93CF9300D0CDB7EE
:102BC000DEB79A83898389819A8190937A02809370
:102BD00079020F900F90CF91DF910895DF93CF93FB
:102BE00000D00F92CDB7DEB79A8389836B83ECE573
:102BF000F0E08B81482F50E0CA019C01220F331F67
:102C0000C9019695982F882797958795821B930BD6
:102C1000840F951F24E630E0B9010E94E623CB0122
:102C200080830F900F900F90CF91DF9108951F92A6
:102C30000F920FB60F9211242F933F934F935F93F0
:102C40006F937F938F939F93AF93BF93EF93FF9374
:102C5000DF93CF93CDB7DEB7809174029091750268
:102C6000A0917602B09177020197A109B1098093F2
:102C7000740290937502A0937602B09377028091CC
:102C8000740290917502A0917602B091770200973C
:102C9000A105B10531F4E2E5F0E08091780281957B
:102CA00080838091790290917A020097A9F08091B7
:102CB000740290917502A0917602B09177028F3FD5
:102CC0002FEF92072FEFA2072FEFB20729F4E09121
:102CD0007902F0917A020995CF91DF91FF91EF91FE
:102CE000BF91AF919F918F917F916F915F914F9124
:102CF0003F912F910F900FBE0F901F9018951F922C
:102D00000F920FB60F9211242F933F934F935F931F
:102D10006F937F938F939F93AF93BF93EF93FF93A3
:102D2000DF93CF93CDB7DEB78091790290917A028D
:102D3000009729F0E0917902F0917A020995CF91FC
:102D4000DF91FF91EF91BF91AF919F918F917F9113
:102D50006F915F914F913F912F910F900FBE0F9008
:102D60001F901895DF93CF9300D000D0CDB7DEB77A
:102D70009A838983E981FA818481282F30E03C831A
:102D80002B838B819C818730910509F4BDC22B81F7
:102D90003C81283031054CF58B819C818330910535
:102DA00009F44AC12B813C81243031058CF48B819C
:102DB0009C818130910509F49DC02B813C8122309A
:102DC00031050CF0DFC08B819C810097C9F16BC588
:102DD0002B813C812530310509F4E2C18B819C8136
:102DE000863091050CF036C281C12B813C812B309D
:102DF000310509F4F1C38B819C818C3091056CF411
:102E00002B813C812930310509F432C38B819C81AF
:102E10008A3091050CF086C3D1C22B813C812E30C3
:102E2000310509F48DC48B819C818F30910509F4A3
:102E3000E1C42B813C812C30310509F427C433C512
:102E4000EFE4F0E0808188608083EFE4F0E080814F
:102E500084608083AFE4B0E0E981FA818081869567
:102E60008170982F9795992797958C918F77892BBB
:102E70008C93AFE4B0E0E981FA8180818170817048
:102E8000982F9295990F990F907C8C918F7B892B1D
:102E90008C93AFE4B0E0E981FA81808186958170FE
:102EA0008170982F9295990F907E8C918F7D892BB0
:102EB0008C93AFE4B0E0E981FA8180818170817008
:102EC000982F9295907F8C918F7E892B8C93AAE47A
:102ED000B0E0E981FA818781908511969C938E9369
:102EE000A8E4B0E0E981FA818781908511969C93EE
:102EF0008E93D9C4EFE4F0E08081877F8083EFE494
:102F0000F0E080818B7F8083AFE4B0E0E981FA81DB
:102F1000828186958170982F9795992797958C91A6
:102F20008F77892B8C93AFE4B0E0E981FA818281BD
:102F300081708170982F9295990F990F907C8C9148
:102F40008F7B892B8C93AFE4B0E0E981FA81828199
:102F5000869581708170982F9295990F907E8C91B3
:102F60008F7D892B8C93AFE4B0E0E981FA81828177
:102F700081708170982F9295907F8C918F7E892B94
:102F80008C9391C4EFE4F0E08081877F8083EFE44D
:102F9000F0E080818B7F8083AFE4B0E0E981FA814B
:102FA000828186958170982F9795992797958C9116
:102FB0008F77892B8C93AFE4B0E0E981FA8182812D
:102FC00081708170982F9295990F990F907C8C91B8
:102FD0008F7B892B8C93AFE4B0E0E981FA81828109
:102FE000869581708170982F9295990F907E8C9123
:102FF0008F7D892B8C93AFE4B0E0E981FA818281E7
:1030000081708170982F9295907F8C918F7E892B03
:103010008C93AAE4B0E0E981FA81878190851196CA
:103020009C938E93A8E4B0E0E981FA818781908532
:1030300011969C938E9337C4EFE4F0E08081877FF4
:103040008083EFE4F0E080818B7F8083AFE4B0E0A9
:10305000E981FA81828186958170982F97959927C9
:1030600097958C918F77892B8C93AFE4B0E0E981B1
:10307000FA81828181708170982F9295990F990FB2
:10308000907C8C918F7B892B8C93AFE4B0E0E981AD
:10309000FA818281869581708170982F9295990F1F
:1030A000907E8C918F7D892B8C93AFE4B0E0E98189
:1030B000FA81828181708170982F9295907F8C9196
:1030C0008F7E892B8C93AAE4B0E0E981FA81878115
:1030D000908511969C938E93A8E4B0E0E981FA81E3
:1030E0008781908511969C938E93DDC3EFE4F0E089
:1030F0008081877F8083EFE4F0E080818B7F808315
:10310000AFE4B0E0E981FA81808186958170982FE3
:103110009795992797958C918F77892B8C93AFE40E
:10312000B0E0E981FA81808181708170982F929559
:10313000990F990F907C8C918F7B892B8C93AFE4A6
:10314000B0E0E981FA818081869581708170982F45
:103150009295990F907E8C918F7D892B8C93AFE403
:10316000B0E0E981FA81808181708170982F929519
:10317000907F8C918F7E892B8C93AAE4B0E0E981BB
:10318000FA818781908511969C938E93A8E4B0E094
:10319000E981FA818781908511969C938E9383C3F0
:1031A000EFE4F0E08081877F8083EFE4F0E08081CE
:1031B0008B7F8083AFE4B0E0E981FA8181818695DD
:1031C0008170982F9795992797958C918F77892B58
:1031D0008C93AFE4B0E0E981FA81818181708170E4
:1031E000982F9295990F990F907C8C918F7B892BBA
:1031F0008C93AFE4B0E0E981FA818181869581709A
:103200008170982F9295990F907E8C918F7D892B4C
:103210008C93AFE4B0E0E981FA81818181708170A3
:10322000982F9295907F8C918F7E892B8C93AAE416
:10323000B0E0E981FA818781908511969C938E9305
:10324000A8E4B0E0E981FA818781908511969C938A
:103250008E9329C3EFE4F0E08081877F8083EFE4E1
:10326000F0E080818B7F8083AFE4B0E0E981FA8178
:10327000818186958170982F9795992797958C9144
:103280008F77892B8C93AFE4B0E0E981FA8181815B
:1032900081708170982F9295990F990F907C8C91E5
:1032A0008F7B892B8C93AFE4B0E0E981FA81818137
:1032B000869581708170982F9295990F907E8C9150
:1032C0008F7D892B8C93AFE4B0E0E981FA81818115
:1032D00081708170982F9295907F8C918F7E892B31
:1032E0008C93AAE4B0E0E981FA81878190851196F8
:1032F0009C938E93A8E4B0E0E981FA818781908560
:1033000011969C938E93CFC2EFE4F0E08081877F8B
:103310008083EFE4F0E080818B7F8083AFE4B0E0D6
:10332000E981FA81818186958170982F97959927F7
:1033300097958C918F77892B8C93AFE4B0E0E981DE
:10334000FA81818181708170982F9295990F990FE0
:10335000907C8C918F7B892B8C93AFE4B0E0E981DA
:10336000FA818181869581708170982F9295990F4D
:10337000907E8C918F7D892B8C93AFE4B0E0E981B6
:10338000FA81818181708170982F9295907F8C91C4
:103390008F7E892B8C93AAE4B0E0E981FA81878142
:1033A000908511969C938E93A8E4B0E0E981FA8110
:1033B0008781908511969C938E9375C2EFE4F0E01F
:1033C0008081877F8083EFE4F0E080818B7F808342
:1033D000AFE4B0E0E981FA81828186958170982F0F
:1033E0009795992797958C918F77892B8C93AFE43C
:1033F000B0E0E981FA81828181708170982F929585
:10340000990F990F907C8C918F7B892B8C93AFE4D3
:10341000B0E0E981FA818281869581708170982F70
:103420009295990F907E8C918F7D892B8C93AFE430
:10343000B0E0E981FA81828181708170982F929544
:10344000907F8C918F7E892B8C93AAE4B0E0E981E8
:10345000FA818781908511969C938E93A8E4B0E0C1
:10346000E981FA818781908511969C938E931BC286
:10347000EFE4F0E08081877F8083EFE4F0E08081FB
:103480008B7F8083AFE4B0E0E981FA818281869509
:103490008170982F9795992797958C918F77892B85
:1034A0008C93AFE4B0E0E981FA8182818170817010
:1034B000982F9295990F990F907C8C918F7B892BE7
:1034C0008C93AFE4B0E0E981FA81828186958170C6
:1034D0008170982F9295990F907E8C918F7D892B7A
:1034E0008C93AFE4B0E0E981FA81828181708170D0
:1034F000982F9295907F8C918F7E892B8C93AAE444
:10350000B0E0E981FA818781908511969C938E9332
:10351000A8E4B0E0E981FA818781908511969C93B7
:103520008E93C1C1EFE4F0E08081877F8083EFE478
:10353000F0E080818B7F8083AFE4B0E0E981FA81A5
:10354000828186958170982F9795992797958C9170
:103550008F77892B8C93AFE4B0E0E981FA81828187
:1035600081708170982F9295990F990F907C8C9112
:103570008F7B892B8C93AFE4B0E0E981FA81828163
:10358000869581708170982F9295990F907E8C917D
:103590008F7D892B8C93AFE4B0E0E981FA81828141
:1035A00081708170982F9295907F8C918F7E892B5E
:1035B0008C93AAE4B0E0E981FA8187819085119625
:1035C0009C938E93A8E4B0E0E981FA81878190858D
:1035D00011969C938E9367C1EFE4F0E08081877F22
:1035E0008083EFE4F0E080818B7F8083AFE4B0E004
:1035F000E981FA81828186958170982F9795992724
:1036000097958C918F77892B8C93AFE4B0E0E9810B
:10361000FA81828181708170982F9295990F990F0C
:10362000907C8C918F7B892B8C93AFE4B0E0E98107
:10363000FA818281869581708170982F9295990F79
:10364000907E8C918F7D892B8C93AFE4B0E0E981E3
:10365000FA81828181708170982F9295907F8C91F0
:103660008F7E892B8C93AAE4B0E0E981FA8187816F
:10367000908511969C938E93A8E4B0E0E981FA813D
:103680008781908511969C938E930DC1EFE4F0E0B5
:103690008081877F8083EFE4F0E080818B7F80836F
:1036A000AFE4B0E0E981FA81808186958170982F3E
:1036B0009795992797958C918F77892B8C93AFE469
:1036C000B0E0E981FA81808181708170982F9295B4
:1036D000990F990F907C8C918F7B892B8C93AFE401
:1036E000B0E0E981FA818081869581708170982FA0
:1036F0009295990F907E8C918F7D892B8C93AFE45E
:10370000B0E0E981FA81808181708170982F929573
:10371000907F8C918F7E892B8C93AAE4B0E0E98115
:10372000FA818781908511969C938E93A8E4B0E0EE
:10373000E981FA818781908511969C938E93B3C01D
:10374000EFE4F0E08081877F8083EFE4F0E0808128
:103750008B7F8083AFE4B0E0E981FA818181869537
:103760008170982F9795992797958C918F77892BB2
:103770008C93AFE4B0E0E981FA818181817081703E
:10378000982F9295990F990F907C8C918F7B892B14
:103790008C93AFE4B0E0E981FA81818186958170F4
:1037A0008170982F9295990F907E8C918F7D892BA7
:1037B0008C93AFE4B0E0E981FA81818181708170FE
:1037C000982F9295907F8C918F7E892B8C93AAE471
:1037D000B0E0E981FA818781908511969C938E9360
:1037E000A8E4B0E0E981FA818781908511969C93E5
:1037F0008E9359C0EFE4F0E08081877F8083EFE40F
:10380000F0E080818B7F8083AFE4B0E0E981FA81D2
:10381000818186958170982F9795992797958C919E
:103820008F77892B8C93AFE4B0E0E981FA818181B5
:1038300081708170982F9295990F990F907C8C913F
:103840008F7B892B8C93AFE4B0E0E981FA81818191
:10385000869581708170982F9295990F907E8C91AA
:103860008F7D892B8C93AFE4B0E0E981FA8181816F
:1038700081708170982F9295907F8C918F7E892B8B
:103880008C93AAE4B0E0E981FA8187819085119652
:103890009C938E93A8E4B0E0E981FA8187819085BA
:1038A00011969C938E93ACE4B0E0E981FA81858116
:1038B000968111969C938E93AFE4B0E0E981FA81F2
:1038C00084818170982F91708C918E7F892B8C933D
:1038D000AFE4B0E0E981FA818481869581708170DE
:1038E000982F990F8C918D7F892B8C93AEE4B0E04B
:1038F000E981FA8184818695869581708170982FFF
:10390000990F990F990F8C91877F892B8C93AEE437
:10391000B0E0E981FA8184818695869586958170EB
:103920008170982F9295907F8C918F7E892B8C93AC
:103930000F900F900F900F90CF91DF910895DF932C
:10394000CF9300D0CDB7DEB79A838983AEE4B0E0E1
:10395000EEE4F0E08081982F987FE981FA818381FD
:103960008770892B8C930F900F90CF91DF910895E2
:10397000DF93CF9300D0CDB7DEB79A838983AEE4CF
:10398000B0E0EEE4F0E08081887F8C930F900F90A0
:10399000CF91DF910895DF93CF93CDB7DEB7ECE4FD
:1039A000F0E080819181CF91DF910895DF93CF93F3
:1039B00000D000D000D0CDB7DEB79A8389834B8387
:1039C0005C836D837E83E981FA818481882F90E016
:1039D000009709F04CC08B819C81AD81BE8128EE9F
:1039E00033E040E050E0BC01CD010E94B323DC0194
:1039F000CB012CEF3FEF43E050E0BC01CD010E9432
:103A0000F923DA01C90180937B0290937C02A09391
:103A10007D02B0937E028B819C81AD81BE8128EEB8
:103A200033E040E050E0BC01CD010E94B323DC0153
:103A3000CB01B695A79597958795B695A795979538
:103A400087952FEF3FEF40E050E0BC01CD010E9491
:103A5000F923DC01CB019093800280937F0289815E
:103A60009A810E94401D89819A810E949F1C2696FE
:103A70000FB6F894DEBF0FBECDBFCF91DF91089592
:103A8000DF93CF9300D0CDB7DEB79A838983E981E6
:103A9000FA818481882329F4E9E5F0E0808184605B
:103AA00080830F900F90CF91DF910895DF93CF9394
:103AB00000D0CDB7DEB79A838983E981FA8184810A
:103AC000882329F4E9E5F0E08081846080830F9009
:103AD0000F90CF91DF910895DF93CF9300D0CDB7B2
:103AE000DEB79A83898389819A8190938202809339
:103AF00081020F900F90CF91DF910895DF93CF93C4
:103B000000D000D000D0CDB7DEB79C838B837E83FE
:103B10006D831A8219828D819E81982F882724E6D1
:103B200030E0B9010E94D223CB019A838983EAE471
:103B3000F0E089819A8191838083E8E4F0E08981D3
:103B40009A819183808326960FB6F894DEBF0FBECC
:103B5000CDBFCF91DF910895DF93CF93CDB7DEB77F
:103B6000E6E4F0E011821082E9E5F0E08081806215
:103B70008083EEE4F0E080818F778083EEE4F0E0F4
:103B8000808180648083CF91DF910895DF93CF930C
:103B9000CDB7DEB7E6E4F0E011821082E9E5F0E0AF
:103BA000808180628083EEE4F0E080818F77808383
:103BB000EEE4F0E0808180648083CF91DF9108950E
:103BC000DF93CF93CDB7DEB7E6E4F0E01182108249
:103BD000E9E5F0E0808180628083EEE4F0E08081BE
:103BE0008F778083EEE4F0E0808180648083CF91E2
:103BF000DF910895DF93CF93CDB7DEB7E6E4F0E031
:103C000080819181CF91DF910895DF93CF930F92BF
:103C1000CDB7DEB78983EEE4F0E0898181708170F1
:103C2000982F9295990F990F907C80818F7B892B8B
:103C300080830F90CF91DF910895DF93CF93CDB71D
:103C4000DEB7ECE4F0E011821082CF91DF910895AD
:103C5000DF93CF93CDB7DEB7E9E5F0E080818F7DCC
:103C60008083CF91DF910895DF93CF93CDB7DEB7F7
:103C7000E9E5F0E0808180628083CF91DF91089553
:103C80001F920F920FB60F9211242F933F934F93D1
:103C90005F936F937F938F939F93AF93BF93EF93B4
:103CA000FF93DF93CF93CDB7DEB780917B029091E6
:103CB0007C02A0917D02B0917E020197A109B10919
:103CC00080937B0290937C02A0937D02B0937E024E
:103CD00080917B0290917C02A0917D02B0917E0246
:103CE0000097A105B10551F4ECE4F0E080917F026A
:103CF000909180028095909591838083809181023C
:103D0000909182020097A9F080917B0290917C02B1
:103D1000A0917D02B0917E028F3F2FEF92072FEF8F
:103D2000A2072FEFB20729F4E0918102F0918202FD
:103D30000995CF91DF91FF91EF91BF91AF919F9145
:103D40008F917F916F915F914F913F912F910F9044
:103D50000FBE0F901F9018951F920F920FB60F92E3
:103D600011242F933F934F935F936F937F938F9380
:103D70009F93AF93BF93EF93FF93DF93CF93CDB711
:103D8000DEB78091810290918202009729F0E09144
:103D90008102F09182020995CF91DF91FF91EF911D
:103DA000BF91AF919F918F917F916F915F914F9153
:103DB0003F912F910F900FBE0F901F9018951F925B
:103DC0000F920FB60F9211242F933F934F935F934F
:103DD0006F937F938F939F93AF93BF93EF93FF93D3
:103DE000DF93CF93CDB7DEB78091810290918202AD
:103DF000009729F0E0918102F09182020995CF911C
:103E0000DF91FF91EF91BF91AF919F918F917F9142
:103E10006F915F914F913F912F910F900FBE0F9037
:103E20001F9018951F920F920FB60F9211242F9387
:103E30003F934F935F936F937F938F939F93AF9332
:103E4000BF93EF93FF93DF93CF93CDB7DEB780910E
:103E5000810290918202009729F0E0918102F09115
:103E600082020995CF91DF91FF91EF91BF91AF91C0
:103E70009F918F917F916F915F914F913F912F9182
:103E80000F900FBE0F901F901895DF93CF93CDB773
:103E9000DEB784E492E00E94B2160E94AC1D8CE86A
:103EA00090E20E946C1D84E492E00E949F1C80912D
:103EB0005D0290915E0266E040E00E9433078091CF
:103EC0005D0290915E0267E041E00E9433078091BD
:103ED0005D0290915E0267E040E00E94E707CF91AB
:103EE000DF910895DF93CF93CDB7DEB768970FB614
:103EF000F894DEBF0FBECDBF80915D0290915E024F
:103F000067E041E00E94E70780E090E0A0E2B1E4D2
:103F10008D8B9E8BAF8BB88F6D897E898F89988DA5
:103F20002BEA3AEA4AE250E40E941F02DC01CB018C
:103F3000898B9A8BAB8BBC8B69897A898B899C899D
:103F400020E030E040E85FE30E94250488231CF471
:103F500081E0888B91C069897A898B899C8920E06E
:103F600030E04FE753E40E94C50318160CF07BC005
:103F70006D897E898F89988D20E030E04AE754E48E
:103F80000E941903DC01CB018C879D87AE87BF8718
:103F90006C857D858E859F8520E030E04AEF54E476
:103FA0000E941F02DC01CB0188879987AA87BB8703
:103FB000688579858A859B8520E030E040E85FE36D
:103FC0000E94250488232CF481E090E09F838E8357
:103FD0003FC0688579858A859B8520E03FEF4FE764
:103FE00057E40E94C50318164CF56C857D858E85B7
:103FF0009F8520E030E040E251E40E941F02DC0196
:10400000CB01BC01CD010E944900DC01CB019F83A3
:104010008E830FC088EC90E09D838C838C819D8182
:104020000197F1F79D838C838E819F8101979F83F8
:104030008E838E819F81009769F724C0688579857A
:104040008A859B850E944900DC01CB019F838E837A
:104050008E819F819B838A838A819B810197F1F75F
:104060009B838A830FC069897A898B899C890E9486
:104070004900DC01CB01888B8889898389818A95F5
:10408000F1F7898380915D0290915E0267E040E0E4
:104090000E94E70768960FB6F894DEBF0FBECDBF4B
:1040A000CF91DF910895DF93CF93CDB7DEB78091A5
:1040B0008302882319F40E94721F27C08091830213
:1040C000823019F58091840290918502CC01A0E0A4
:1040D000B0E0BC01CD010E94A904DC01CB01BC0110
:1040E000CD012DEC3CEC46E652E40E941903DC01C4
:1040F000CB01BC01CD010E944900DC01CB019093B2
:1041000087028093860210928302809186029091AA
:104110008702CF91DF910895DF93CF93CDB7DEB7BC
:1041200080918302882379F40E94FA1D909385027E
:1041300080938402809183028F5F8093830280E06A
:104140000E94051E1DC0809183028130C9F40E9427
:10415000FA1D9C018091840290918502A901481B5F
:10416000590BCA0190938502809384020E941D1E00
:10417000809183028F5F8093830281E00E94051EFD
:10418000CF91DF910895DF93CF93CDB7DEB70E9433
:10419000281ECF91DF910895DF93CF93CDB7DEB77F
:1041A0000E94341ECF91DF910895DF93CF9300D00A
:1041B000CDB7DEB780915B0290915C0267E041E091
:1041C0000E94330780915B0290915C0267E040E0BF
:1041D0000E94E707809157029091580264E041E005
:1041E0000E943307809157029091580265E041E0A8
:1041F0000E9433078091590290915A0267E041E092
:104200000E943307809157029091580264E040E089
:104210000E94E707809157029091580265E040E0C4
:104220000E94E7078091590290915A0267E040E0AE
:104230000E94E7070E942D0B8DE492E00E940A1471
:104240000E94451F0E9458090E941707809188020A
:10425000282F30E03A83298389819A818330910520
:1042600069F129813A81243031057CF489819A8170
:1042700081309105E9F029813A8122303105DCF461
:1042800089819A81009789F0E1CF29813A8125308F
:104290003105D1F089819A818530910594F0298189
:1042A0003A812630310599F0D1CF0E949B21CECFA3
:1042B0000E940122CBCF0E945222C8CF0E94A72287
:1042C000C5CF0E94CA22C2CF0E94EC22BFCF0E945B
:1042D0006D23BCCFDF93CF93CDB7DEB781E0809362
:1042E0008902CF91DF910895DF93CF9300D000D062
:1042F000CDB7DEB769837A838B839C838AE691E2AC
:104300000E94DC150E94D2158DE492E029813A8149
:104310004B815C81BA01A9010E9433158091890209
:104320008823E1F3109289020F900F900F900F9065
:10433000CF91DF910895DF93CF9300D0CDB7DEB753
:104340001A8219820E94370E80E060E00E94410FBD
:1043500086E690E00E940F0E0E9453209A83898384
:1043600061E070E080E090E00E9474210E945320A0
:104370009A83898389819A818436910570F080E0DF
:104380006AE00E94410F89819A81CC01A0E0B0E0EF
:10439000BC01CD010E94811315C089819A818436A8
:1043A000910580F480E06AE00E94410F89819A8142
:1043B000CC01A0E0B0E0BC01CD010E94811380E2FD
:1043C0000E94F90B89819A818031910528F60E941B
:1043D000C3200E94370E80E060E00E94410F87E713
:1043E00090E00E940F0E68EE73E080E090E00E9483
:1043F000742181E0809388020F900F90CF91DF911C
:104400000895DF93CF9300D0CDB7DEB70E94370E6B
:1044100080E060E00E94410F81E890E00E940F0E72
:1044200081E060E00E94410F10928B0210928A029C
:104430001A8227C00E94BF0989838981805D0E94FA
:10444000F90B80918A0290918B029C01220F331FFD
:10445000C901880F991F880F991F280F391F89815B
:10446000882F90E0820F931F90938B0280938A0293
:104470006AEF70E080E090E00E9474218A818F5F93
:104480008A838A818430B0F264EF71E080E090E04A
:104490000E94742182E0809388020F900F90CF9148
:1044A000DF910895DF93CF93CDB7DEB720918A02D5
:1044B00030918B0280915402909155022817390750
:1044C00091F10E94370E80E060E00E94410F84E984
:1044D00090E00E940F0E64EF71E080E090E00E9497
:1044E0007421809156028150809356028091560229
:1044F000882339F483E08093880283E08093560216
:1045000023C081E060E00E94410F83EA90E00E94B6
:104510000F0E64EF71E080E090E00E94742181E072
:104520008093880211C020918A0230918B02809181
:104530005402909155022817390731F484E0809392
:10454000880283E080935602CF91DF910895DF9334
:10455000CF93CDB7DEB70E94370E80E060E00E94B7
:10456000410F83EB90E00E940F0E81E060E00E941B
:10457000410F82EC90E00E940F0E68E873E180E04A
:1045800090E00E9474210E94CC2010928802CF916A
:10459000DF910895DF93CF93CDB7DEB70E94370E3A
:1045A00080E060E00E94410F8BEC90E00E940F0ED3
:1045B00080915B0290915C0267E041E00E94E70716
:1045C00068EE73E080E090E00E94742185E08093C3
:1045D0008802CF91DF910895DF93CF930F92CDB7EB
:1045E000DEB719820E94370E80E060E00E94410F22
:1045F0008AED90E00E940F0E81E060E00E94410F82
:1046000087EE90E00E940F0E81E068E00E94410F6B
:104610008DEE90E00E940F0E0E94BF098983898170
:10462000813019F089818230B9F78981813019F59B
:104630000E94370E80E060E00E94410F84EF90E01E
:104640000E940F0E809157029091580264E041E061
:104650000E94E707809157029091580265E041E07F
:104660000E94E7078091590290915A0267E041E069
:104670000E94E70725C08981823011F50E94370E1C
:1046800080E060E00E94410F80E091E00E940F0E08
:10469000809157029091580264E040E00E94E70741
:1046A000809157029091580265E040E00E94E70730
:1046B0008091590290915A0267E040E00E94E7071A
:1046C00068EE73E080E090E00E94742186E08093C1
:1046D00088020F90CF91DF910895DF93CF930F92CF
:1046E000CDB7DEB719820E94370E80E060E00E94ED
:1046F000410F8DE091E00E940F0E81E066E00E9484
:10470000410F87E191E00E940F0E0E94BF0989834B
:1047100089818130D1F70E94370E80E060E00E94ED
:10472000410F8FE191E00E940F0E81E060E00E9456
:10473000410F8DE291E00E940F0E68EE73E080E081
:1047400090E00E94742180915B0290915C0267E08E
:1047500040E00E94E707109288020E94CC200F9050
:10476000CF91DF910895629FD001739FF001829FE6
:10477000E00DF11D649FE00DF11D929FF00D839FF0
:10478000F00D749FF00D659FF00D9927729FB00D8D
:10479000E11DF91F639FB00DE11DF91FBD01CF01A0
:1047A00011240895AA1BBB1B51E107C0AA1FBB1F00
:1047B000A617B70710F0A61BB70B881F991F5A95AD
:1047C000A9F780959095BC01CD01089597FB092E1E
:1047D00007260AD077FD04D0E5DF06D000201AF4C2
:1047E000709561957F4F0895F6F7909581959F4F4D
:1047F0000895A1E21A2EAA1BBB1BFD010DC0AA1F22
:10480000BB1FEE1FFF1FA217B307E407F50720F039
:10481000A21BB30BE40BF50B661F771F881F991FB4
:104820001A9469F760957095809590959B01AC01FD
:10483000BD01CF01089597FB092E05260ED057FD27
:1048400004D0D7DF0AD0001C38F45095409530953D
:1048500021953F4F4F4F5F4F0895F6F79095809504
:10486000709561957F4F8F4F9F4F08952F923F9284
:104870004F925F926F927F928F929F92AF92BF9270
:10488000CF92DF92EF92FF920F931F93CF93DF931C
:10489000CDB7DEB7CA1BDB0B0FB6F894DEBF0FBE79
:1048A000CDBF09942A88398848885F846E847D84C6
:1048B0008C849B84AA84B984C884DF80EE80FD80C8
:1048C0000C811B81AA81B981CE0FD11D0FB6F8943E
:0E48D000DEBF0FBECDBFED010895F894FFCFFF
:1048DE0030780030620044697374616E63653D2008
:1048EE0020202020636D0048656C6C6F202E2E2ECC
:1048FE0000506C6561736520456E74657220506161
:10490E0073733A00496E636F7272656374205061FF
:10491E00737300506C7A2074727920616761696ECE
:10492E003A200053797374656D20426C6F636B652A
:10493E006400466F7220326D696E0057656C636F4E
:10494E006D6520456272616D21004C4544732053A4
:10495E0074617475733A00312D204F6E00322D2024
:10496E004F6666004C45447320617265204F6E00A1
:10497E004C45447320617265204F666600546F206B
:10498E004C6F676F757400507265737320310053EE
:10499E00797374656D204C6F636B656400476F6F40
:1049AE00644279652E2E2E000000000000000000EB
:1049BE0000010202030303030404040404040404B8
:1049CE000505050505050505050505050505050589
:1049DE000606060606060606060606060606060669
:1049EE000606060606060606060606060606060659
:1049FE000707070707070707070707070707070739
:104A0E000707070707070707070707070707070728
:104A1E000707070707070707070707070707070718
:104A2E000707070707070707070707070707070708
:104A3E0008080808080808080808080808080808E8
:104A4E0008080808080808080808080808080808D8
:104A5E0008080808080808080808080808080808C8
:104A6E0008080808080808080808080808080808B8
:104A7E0008080808080808080808080808080808A8
:104A8E000808080808080808080808080808080898
:104A9E000808080808080808080808080808080888
:104AAE000808080808080808080808080808080878
:104ABE0000010204000300020000000000000200DA
:104ACE0005000000D2040339003600330030000028
:00000001FF
