:100000000C942A000C943F000C943F000C943F0089
:100010000C943F000C943F000C943F000C943F0064
:100020000C943F000C943F000C943F000C943F0054
:100030000C943F000C943F000C943F000C943F0044
:100040000C943F000C943F000C943F000C943F0034
:100050000C943F0011241FBECFE5D8E0DEBFCDBF1A
:1000600010E0A0E6B0E0EAE5F9E102C005900D92EB
:10007000A037B107D9F70E94EC0B0C94AB0C0C9491
:100080000000EF92FF920F931F937B018C0120E001
:1000900030E040E05FE40E94410388238CF0C80117
:1000A000B70120E030E040E05FE40E94B9010E9427
:1000B000A1039B01AC01205030404040504806C095
:1000C000C801B7010E94A1039B01AC01B901CA019B
:1000D0001F910F91FF90EF900895A0E0B0E0E3E74B
:1000E000F0E00C94740CDC012B01FA019C9192302D
:1000F00008F439C1EB018881823008F433C19430AF
:1001000069F4843009F02FC111969C91119789816F
:10011000981709F428C1A0E6B0E025C1843009F49D
:1001200021C18230A9F4923009F01DC19A01AD01BC
:1001300088E0EA010990AE01E90109929E0181502F
:10014000C1F7E201898111969C918923818308C1BD
:10015000923009F407C112962D903C901397EB0151
:100160008A819B811496AD90BD90CD90DC901797BD
:10017000EC80FD800E811F819101281B390BB90194
:1001800037FF04C066277727621B730B6032710547
:100190000CF061C0121613066CF537014801062EEB
:1001A00004C096948794779467940A94D2F721E0D8
:1001B00030E040E050E004C0220F331F441F551FC1
:1001C0006A95D2F721503040404050402E213F21C7
:1001D00040235123211531054105510521F021E02E
:1001E00030E040E050E079018A01E628F72808294C
:1001F00019293CC0232BD1F1260E371E35014601AB
:10020000062E04C096948794779467940A94D2F744
:1002100021E030E040E050E004C0220F331F441FD3
:10022000551F6A95D2F721503040404050402A2156
:100230003B214C215D21211531054105510521F05E
:1002400021E030E040E050E059016A01A628B728DB
:10025000C828D9280BC0821593052CF01C01AA24AC
:10026000BB24650103C0EE24FF24870111969C91F5
:10027000D20111968C91981709F445C0992339F051
:10028000A80197012A193B094C095D0906C0A6017E
:1002900095012E193F09400B510B57FD08C01182E3
:1002A0003382228224833583468357831DC081E0B5
:1002B00081833382228288279927DC01821B930B5A
:1002C000A40BB50B84839583A683B7830DC0220F3F
:1002D000331F441F551F24833583468357838281F0
:1002E000938101979383828324813581468157814D
:1002F000DA01C9010197A109B1098F5F9F4FAF4F83
:10030000BF4328F30BC0918333822282EA0CFB1C8B
:100310000C1D1D1DE482F5820683178383E0808314
:10032000248135814681578157FF1AC0C901AA2708
:1003300097FDA095BA2F81709070A070B0705695FF
:10034000479537952795822B932BA42BB52B848328
:100350009583A683B7838281938101969383828359
:10036000DF0101C0D201CD01CDB7DEB7E2E10C94CF
:10037000900CA0E2B0E0EFEBF1E00C94800C69830C
:100380007A838B839C832D833E834F835887E9E058
:10039000EE2EF12CEC0EFD1ECE010196B7010E944F
:1003A000CA048E010F5E1F4FCE010596B8010E9450
:1003B000CA048A8991E089278A8BC701B801AE01F6
:1003C000475E5F4F0E946D000E94F503A096E6E035
:1003D0000C949C0CA0E2B0E0E0EFF1E00C94800CF7
:1003E00069837A838B839C832D833E834F835887D5
:1003F000F9E0EF2EF12CEC0EFD1ECE010196B701B7
:100400000E94CA048E010F5E1F4FCE010596B801EF
:100410000E94CA04C701B801AE01475E5F4F0E9447
:100420006D000E94F503A096E6E00C949C0CA0E2FF
:10043000B0E0EDE1F2E00C94740C69837A838B8375
:100440009C832D833E834F835887CE010196BE0146
:10045000675F7F4F0E94CA04CE010596BE016F5EA2
:100460007F4F0E94CA049985923088F08989823032
:10047000C8F0943019F4823051F404C0843029F467
:10048000923081F480E690E0C6C0923049F420E0DA
:100490009A858A89981321E02A87CE010996BBC0E4
:1004A000823049F420E09A858A89981321E02A8BCA
:1004B000CE014196B0C02D843E844F8458886D880B
:1004C0007E888F88988CEE24FF248701AA24BB2481
:1004D000650140E050E060E070E0E0E0F0E0C10184
:1004E00081709070892BE9F0E60CF71C081D191D2E
:1004F0009A01AB012A0D3B1D4C1D5D1D80E090E073
:10050000A0E0B0E0E614F7040805190520F481E046
:1005100090E0A0E0B0E0BA01A901480F591F6A1F9E
:100520007B1FAA0CBB1CCC1CDD1C97FE08C081E005
:1005300090E0A0E0B0E0A82AB92ACA2ADB2A3196C6
:10054000E032F10549F0660C771C881C991C569422
:10055000479437942794C3CFFA85EA892B893C893D
:100560008B859C85280F391F2E5F3F4F17C0CA010E
:1005700081709070892B61F016950795F794E79438
:1005800080E090E0A0E0B0E8E82AF92A0A2B1B2BD3
:1005900076956795579547952F5F3F4F77FDE7CF46
:1005A0000CC0440F551F661F771F17FD4160EE0CEE
:1005B000FF1C001F111F21503040403090E05907B0
:1005C00090E0690790E4790760F32B8F3C8FDB01A3
:1005D000CA018F779070A070B07080349105A1052A
:1005E000B10561F447FD0AC0E114F10401051105EC
:1005F00029F0405C5F4F6F4F7F4F40781A8EFE1797
:1006000011F081E08A8F4D8F5E8F6F8F78A383E02A
:10061000898FCE0149960E94F503A096E2E10C94E1
:10062000900CA8E1B0E0E7E1F3E00C94800C698362
:100630007A838B839C832D833E834F83588789E005
:10064000E82EF12CEC0EFD1ECE010196B7010E94A2
:10065000CA048E010F5E1F4FCE010596B8010E949D
:10066000CA048985823040F08989823028F0C70128
:10067000B8010E94420501C08FEF6896E6E00C9435
:100680009C0CA8E1B0E0E7E4F3E00C94800C6983F3
:100690007A838B839C832D833E834F83588789E0A5
:1006A000E82EF12CEC0EFD1ECE010196B7010E9442
:1006B000CA048E010F5E1F4FCE010596B8010E943D
:1006C000CA048985823040F08989823028F0C701C8
:1006D000B8010E94420501C08FEF6896E6E00C94D5
:1006E0009C0CA8E1B0E0E7E7F3E00C94800C698390
:1006F0007A838B839C832D833E834F83588789E045
:10070000E82EF12CEC0EFD1ECE010196B7010E94E1
:10071000CA048E010F5E1F4FCE010596B8010E94DC
:10072000CA048985823040F08989823028F0C70167
:10073000B8010E94420501C081E06896E6E00C9491
:100740009C0CACE0B0E0E7EAF3E00C94840C698325
:100750007A838B839C83CE010196BE016B5F7F4FB2
:100760000E94CA048D81823061F1823050F1843060
:1007700021F48E81882351F12EC02F81388537FDD9
:1007800020C06E812F3131051CF06623F9F023C0A3
:100790008EE190E0821B930B29853A854B855C8521
:1007A00004C056954795379527958A95D2F76623C5
:1007B000B1F050954095309521953F4F4F4F5F4F89
:1007C0000EC020E030E040E050E009C02FEF3FEFE6
:1007D0004FEF5FE704C020E030E040E050E8B901AF
:1007E000CA012C96E2E00C94A00CDF92EF92FF92EB
:1007F0000F931F93FC01E480F58006811781D1805F
:100800008081823048F480E090E0A0E1B0E0E82A06
:10081000F92A0A2B1B2BA5C0843009F49FC0823013
:1008200021F4EE24FF24870105C0E114F104010541
:10083000110519F4E0E0F0E096C0628173819FEF4A
:10084000623879070CF05BC022E83FEF261B370BBC
:100850002A3131052CF020E030E040E050E02AC0A1
:10086000B801A701022E04C0769567955795479564
:100870000A94D2F781E090E0A0E0B0E004C0880FD5
:10088000991FAA1FBB1F2A95D2F70197A109B10989
:100890008E219F21A023B1230097A105B10521F04E
:1008A00081E090E0A0E0B0E09A01AB01282B392B69
:1008B0004A2B5B2BDA01C9018F779070A070B07062
:1008C00080349105A105B10539F427FF09C0205CEA
:1008D0003F4F4F4F5F4F04C0215C3F4F4F4F5F4F23
:1008E000E0E0F0E02030A0E03A07A0E04A07A0E412
:1008F0005A0710F0E1E0F0E079018A0127C0603882
:10090000710564F5FB01E158FF4FD801C7018F77EE
:100910009070A070B07080349105A105B10539F4D4
:10092000E7FE0DC080E490E0A0E0B0E004C08FE3FB
:1009300090E0A0E0B0E0E80EF91E0A1F1B1F17FFB1
:1009400005C016950795F794E794319687E01695BC
:100950000795F794E7948A95D1F705C0EE24FF2414
:100960008701EFEFF0E06E2F679566276795902F70
:100970009F77D794DD24D7948E2F8695492F462BC9
:10098000582F5D29B701CA011F910F91FF90EF9079
:10099000DF900895FC01DB01408151812281622FAB
:1009A0006F7770E0221F2227221F9381892F880FE3
:1009B000822B282F30E0991F9927991F11969C931D
:1009C000119721153105A9F54115510561057105ED
:1009D00011F482E037C082E89FEF13969C938E93C8
:1009E00012979A01AB0167E0220F331F441F551F76
:1009F0006A95D1F783E08C930DC0220F331F441FFB
:100A0000551F12968D919C911397019713969C9365
:100A10008E931297203080E0380780E0480780E40A
:100A2000580758F314962D933D934D935C93179765
:100A300008952F3F310579F4411551056105710580
:100A400019F484E08C93089564FF03C081E08C93D3
:100A500012C01C9210C02F57304013963C932E9317
:100A6000129783E08C9387E0440F551F661F771F12
:100A70008A95D1F7706414964D935D936D937C9332
:100A8000179708951F93DC01FB019C91923008F4A5
:100A900047C08081823008F443C0943051F41196ED
:100AA0001C91843099F58181682F70E0611B710978
:100AB0003FC0843021F0923031F48230B9F181812D
:100AC000882389F12DC011961C9111978230F1F085
:100AD00081811817D9F412962D913C911397828138
:100AE00093818217930794F028173907BCF0149666
:100AF0008D919D910D90BC91A02D248135814681D1
:100B00005781281739074A075B0718F4112341F06A
:100B10000AC082179307A407B50740F4112319F000
:100B200061E070E005C06FEF7FEF02C060E070E051
:100B3000CB011F910895DF93CF9300D000D000D058
:100B4000CDB7DEB79A8389836B834C838B81282F43
:100B500030E03E832D838D819E818330910509F4A1
:100B600051C02D813E81243031057CF48D819E81E0
:100B70008130910571F12D813E8122303105ACF536
:100B80008D819E810097D1F081C02D813E812530DD
:100B9000310509F452C08D819E81853091050CF498
:100BA0003FC02D813E812630310509F454C08D812E
:100BB0009E818730910509F45DC068C08C81817089
:100BC000E981FA81982F917081818E7F892B8183B1
:100BD0005DC08C818170E981FA818170982F990FB5
:100BE00081818D7F892B818351C08C818170E981C6
:100BF000FA818170982F990F990F81818B7F892BB2
:100C0000818344C08C818170E981FA818170982F41
:100C1000990F990F990F8181877F892B818336C026
:100C20008C818170E981FA818170982F9295907FF3
:100C300081818F7E892B818329C08C818170E9819C
:100C4000FA818170982F9295990F907E81818F7D86
:100C5000892B81831BC08C818170E981FA8181702D
:100C6000982F9295990F990F907C81818F7B892B7A
:100C700081830CC08C818170E981FA81982F9795CE
:100C80009927979581818F77892B818326960FB637
:100C9000F894DEBF0FBECDBFCF91DF910895DF93F3
:100CA000CF9300D000D000D0CDB7DEB79A83898330
:100CB0006B834C838B81282F30E03E832D838D8185
:100CC0009E818330910509F451C02D813E812430ED
:100CD00031057CF48D819E818130910571F12D81EA
:100CE0003E8122303105ACF58D819E810097D1F097
:100CF00081C02D813E812530310509F452C08D819E
:100D00009E81853091050CF43FC02D813E812630B7
:100D1000310509F454C08D819E818730910509F415
:100D20005DC068C08C818170E981FA81982F9170D3
:100D300082818E7F892B82835DC08C818170E98165
:100D4000FA818170982F990F82818D7F892B828300
:100D500051C08C818170E981FA818170982F990F3F
:100D6000990F82818B7F892B828344C08C81817013
:100D7000E981FA818170982F990F990F990F8281DB
:100D8000877F892B828336C08C818170E981FA81CB
:100D90008170982F9295907F82818F7E892B82839C
:100DA00029C08C818170E981FA818170982F929598
:100DB000990F907E82818F7D892B82831BC08C81CD
:100DC0008170E981FA818170982F9295990F990F1E
:100DD000907C82818F7B892B82830CC08C81817077
:100DE000E981FA81982F97959927979582818F7736
:100DF000892B828326960FB6F894DEBF0FBECDBF37
:100E0000CF91DF910895DF93CF9300D000D000D031
:100E1000CDB7DEB79B838A836C838C81282F30E02B
:100E20003E832D838D819E818330910509F43EC0E0
:100E30002D813E81243031057CF48D819E8181306D
:100E4000910529F12D813E81223031053CF58D81BE
:100E50009E810097B1F055C02D813E81253031052E
:100E6000B1F18D819E81853091054CF12D813E81BE
:100E700026303105A9F18D819E8187309105D1F110
:100E800040C0EA81FB818081817089833AC0EA8118
:100E9000FB81808186958170898333C0EA81FB81E3
:100EA000808186958695817089832BC0EA81FB813C
:100EB00080818695869586958170898322C0EA8196
:100EC000FB81808182958F70817089831AC0EA814D
:100ED000FB8180818295869587708170898311C09E
:100EE000EA81FB81808182958695869583708170E9
:100EF000898307C0EA81FB818081881F8827881F3A
:100F00008983898126960FB6F894DEBF0FBECDBFC8
:100F1000CF91DF910895DF93CF9300D00F92CDB79B
:100F2000DEB79A8389836B83E981FA818B81818320
:100F30000F900F900F90CF91DF910895DF93CF9393
:100F400000D00F92CDB7DEB79A8389836B83E98196
:100F5000FA818B8182830F900F900F90CF91DF9158
:100F60000895DF93CF9300D0CDB7DEB79A838983FE
:100F7000E981FA8180810F900F90CF91DF910895E0
:100F8000DF93CF93CDB7DEB780916C0090916D0069
:100F900062E041E00E949B0580916C0090916D00A1
:100FA00063E041E00E949B0580916C0090916D0090
:100FB00064E041E00E949B0580916C0090916D007F
:100FC00065E041E00E949B0580916E0090916F006A
:100FD00063E040E00E949B0580916E0090916F005D
:100FE00065E040E00E949B0580916E0090916F004B
:100FF00066E040E00E949B0580916E0090916F003A
:1010000067E040E00E949B0580916C0090916D002C
:1010100062E041E00E944F0680916C0090916D006B
:1010200063E041E00E944F0680916C0090916D005A
:1010300064E041E00E944F0680916C0090916D0049
:1010400065E041E00E944F0680916E0090916F0034
:1010500063E041E00E944F0680916E0090916F0026
:1010600065E041E00E944F0680916E0090916F0014
:1010700066E041E00E944F0680916E0090916F0003
:1010800067E041E00E944F06CF91DF910895DF9322
:10109000CF93CDB7DEB7A6970FB6F894DEBF0FBEDD
:1010A000CDBF85E08F8F84E088A383E089A382E0B1
:1010B0008AA387E08BA386E08CA385E08DA383E0E1
:1010C0008EA31E8E4EC140916C0050916D008E8D8E
:1010D000282F30E0CE014F96FC01E20FF31F208154
:1010E000CA01622F40E00E944F061D8EAFC04091A2
:1010F0006E0050916F008D8D282F30E0CE018396C9
:10110000FC01E20FF31F2081CA01622F0E94030736
:10111000882309F098C080E090E0A0EFB1E4898FC7
:101120009A8FAB8FBC8F698D7A8D8B8D9C8D20E0D3
:1011300030E04AE755E40E941702DC01CB018D8BB9
:101140009E8BAF8BB88F6D897E898F89988D20E0BB
:1011500030E040E85FE30E94710388232CF481E0D3
:1011600090E09C8B8B8B3FC06D897E898F89988D99
:1011700020E03FEF4FE757E40E94110318164CF5AB
:10118000698D7A8D8B8D9C8D20E030E040E251E4BA
:101190000E941702DC01CB01BC01CD010E9441007D
:1011A000DC01CB019C8B8B8B0FC080E991E09A8B8B
:1011B000898B89899A890197F1F79A8B898B8B8919
:1011C0009C8901979C8B8B8B8B899C89009769F7F5
:1011D00014C06D897E898F89988D0E944100DC0141
:1011E000CB019C8B8B8B8B899C89988B8F878F8570
:1011F00098890197F1F7988B8F8740916E005091F5
:101200006F008D8D282F30E0CE018396FC01E20F18
:10121000F31F2081CA01622F0E940307882399F4DB
:101220008E8D882F90E0880F991F880F991F982F17
:101230008D8D890FA6960FB6F894DEBF0FBECDBF79
:10124000CF91DF9108958D8D8F5F8D8F8D8D84303F
:1012500008F44DCF40916C0050916D008E8D282F79
:1012600030E0CE014F96FC01E20FF31F2081CA014E
:10127000622F41E00E944F0680E090E0A0EAB0E4D7
:101280008B879C87AD87BE876B857C858D859E858A
:1012900020E030E04AE755E40E941702DC01CB0170
:1012A0008F839887A987BA876F81788589859A8582
:1012B00020E030E040E85FE30E94710388232CF4D3
:1012C00081E090E09E838D833FC06F817885898522
:1012D0009A8520E03FEF4FE757E40E94110318166C
:1012E0004CF56B857C858D859E8520E030E040E265
:1012F00051E40E941702DC01CB01BC01CD010E9428
:101300004100DC01CB019E838D830FC080E991E019
:101310009C838B838B819C810197F1F79C838B83CA
:101320008D819E8101979E838D838D819E81009703
:1013300069F714C06F81788589859A850E9441007C
:10134000DC01CB019E838D838D819E819A8389836D
:1013500089819A810197F1F79A8389838E8D8F5FB6
:101360008E8F8E8D843008F4AECEABCEDF93CF93CC
:10137000CDB7DEB780916A0090916B0060E041E0EC
:101380000E949B0580916A0090916B0061E041E0B2
:101390000E949B0580916A0090916B0062E041E0A1
:1013A0000E949B0580916A0090916B0064E041E08F
:1013B0000E949B0580916A0090916B0065E041E07E
:1013C0000E949B0580916A0090916B0066E041E06D
:1013D0000E949B05809168009091690062E041E065
:1013E0000E949B05809168009091690063E041E054
:1013F0000E949B0580916A0090916B0060E040E044
:101400000E944F0680916A0090916B0061E040E07D
:101410000E944F0680916A0090916B0062E040E06C
:101420000E944F0680916A0090916B0064E040E05A
:101430000E944F0680916A0090916B0065E040E049
:101440000E944F0680916A0090916B0066E040E038
:101450000E944F06809168009091690062E040E030
:101460000E944F06809168009091690063E040E01F
:101470000E944F06CF91DF910895DF93CF9300D064
:101480000F92CDB7DEB789838981282F30E03B8367
:101490002A838A819B818430910509F4CBC02A81FB
:1014A0003B8125303105ECF48A819B8181309105A7
:1014B00009F45DC02A813B81223031052CF48A81F8
:1014C0009B81009799F182C12A813B8122303105AD
:1014D00009F46EC08A819B818330910509F489C02B
:1014E00075C12A813B812730310509F406C18A8103
:1014F0009B81883091056CF42A813B812530310530
:1015000009F4B9C08A819B818630910509F4D4C061
:101510005DC12A813B812830310509F40FC18A81E0
:101520009B818930910509F431C150C180916A00D5
:1015300090916B0060E040E00E944F0680916A004D
:1015400090916B0061E040E00E944F0680916A003C
:1015500090916B0062E040E00E944F0680916A002B
:1015600090916B0064E040E00E944F062FC1809193
:101570006A0090916B0060E041E00E944F0680910C
:101580006A0090916B0061E040E00E944F068091FC
:101590006A0090916B0062E040E00E944F068091EB
:1015A0006A0090916B0064E040E00E944F060EC11B
:1015B00080916A0090916B0060E040E00E944F06CD
:1015C00080916A0090916B0061E041E00E944F06BB
:1015D00080916A0090916B0062E040E00E944F06AB
:1015E00080916A0090916B0064E040E00E944F0699
:1015F000EDC080916A0090916B0060E041E00E9434
:101600004F0680916A0090916B0061E041E00E947A
:101610004F0680916A0090916B0062E040E00E946A
:101620004F0680916A0090916B0064E040E00E9458
:101630004F06CCC080916A0090916B0060E040E062
:101640000E944F0680916A0090916B0061E040E03B
:101650000E944F0680916A0090916B0062E041E029
:101660000E944F0680916A0090916B0064E040E018
:101670000E944F06ABC080916A0090916B0060E0C1
:1016800041E00E944F0680916A0090916B0061E0FA
:1016900040E00E944F0680916A0090916B0062E0EA
:1016A00041E00E944F0680916A0090916B0064E0D7
:1016B00040E00E944F068AC080916A0090916B00C2
:1016C00060E040E00E944F0680916A0090916B00BC
:1016D00061E041E00E944F0680916A0090916B00AA
:1016E00062E041E00E944F0680916A0090916B0099
:1016F00064E040E00E944F0669C080916A009091CA
:101700006B0060E041E00E944F0680916A0090917A
:101710006B0061E041E00E944F0680916A00909169
:101720006B0062E041E00E944F0680916A00909158
:101730006B0064E040E00E944F0648C080916A0060
:1017400090916B0060E040E00E944F0680916A003B
:1017500090916B0061E040E00E944F0680916A002A
:1017600090916B0062E040E00E944F0680916A0019
:1017700090916B0064E041E00E944F0680916A0006
:1017800090916B0060E10E949E0720C080916A00EA
:1017900090916B0060E041E00E944F0680916A00EA
:1017A00090916B0061E040E00E944F0680916A00DA
:1017B00090916B0062E040E00E944F0680916A00C9
:1017C00090916B0064E041E00E944F060F900F90F3
:1017D0000F90CF91DF910895DF93CF93CDB7DEB710
:1017E0002F970FB6F894DEBF0FBECDBF1F860E94A5
:1017F000C0070E94B6090E9447088F878F850E9404
:101800003D0A80E090E0AAEFB3E48B879C87AD8728
:10181000BE876B857C858D859E8520E030E04AE71C
:1018200055E40E941702DC01CB018F839887A987BA
:10183000BA876F81788589859A8520E030E040E815
:101840005FE30E94710388232CF481E090E09E8383
:101850008D833FC06F81788589859A8520E03FEF31
:101860004FE757E40E94110318164CF56B857C85F1
:101870008D859E8520E030E040E251E40E94170211
:10188000DC01CB01BC01CD010E944100DC01CB0198
:101890009E838D830FC080E991E09C838B838B8135
:1018A0009C810197F1F79C838B838D819E810197A9
:1018B0009E838D838D819E81009769F79CCF6F8178
:1018C000788589859A850E944100DC01CB019E8341
:1018D0008D838D819E819A83898389819A810197E5
:1018E000F1F79A83898387CF2F923F924F925F922D
:1018F0006F927F928F929F92AF92BF92CF92DF9220
:10190000EF92FF920F931F93CF93DF93CDB7DEB784
:10191000CA1BDB0B0FB6F894DEBF0FBECDBF099418
:101920002A88398848885F846E847D848C849B846F
:10193000AA84B984C884DF80EE80FD800C811B817D
:10194000AA81B981CE0FD11D0FB6F894DEBF0FBEAC
:0A195000CDBFED010895F894FFCF1C
:10195A0000000000000000003900360033003000AB
:00000001FF
